:1000000014C1000043C1000041C100003FC1000015
:100010003DC100003BC1000039C1000037C10000F4
:1000200035C1000033C1000031C100002FC1000004
:100030002DC100002BC1000029C1000027C1000014
:1000400025C100000C94FE0821C100001FC1000062
:100050001DC100001BC1000019C10000FEC7000047
:1000600015C10000C4C7000099C700000FC10000FF
:100070000DC100000BC1000009C1000007C1000054
:100080000C94D10803C1000001C10000FFC00000B2
:10009000FDC00000FBC00000F9C00000F7C0000078
:1000A000F5C00000F3C000000C94A408EFC00000ED
:1000B000EDC00000EBC00000E9C000000C94770820
:1000C000E5C00000E3C00000E1C00000DFC00000A8
:1000D000DDC00000DBC00000D9C00000D7C00000B8
:1000E000D5C000008B038E037D0381038703C50306
:1000F000920396039C03A003A403AA03AE03B203D6
:10010000C503B803BC03C00300002100240027007E
:100110002A002D0030003300010100000401070116
:100120000A0100002200250028002B002E003100CB
:10013000340002010000050108010B01000020004D
:100140002300260029002C002F00320000010000AF
:10015000030106010901050505050705080808084A
:10016000020202020A0A080804040404010101014F
:10017000010101010303030303030303040707074A
:100180000C0C0C0C0C0C0C0C0202020206060606EF
:10019000060606060B0B0B0B0B0B0B0B01021020BC
:1001A00020080810204010204080020102010804AD
:1001B0000201010204081020408080402010080441
:1001C000020180040201804020100804020108049A
:1001D00002010102040810204080010204081020DE
:1001E000408000000A0B02090C0D0E0807030401F1
:1001F00000000000000000000000000000000000FF
:1002000000000000000000000000000000001211CB
:1002100010000000000000000000000000000000CE
:100220000000000000000000450911241FBECFEFB0
:10023000D1E2DEBFCDBF00E00CBF12E0A0E0B2E033
:10024000EAEFFEE100E00BBF02C007900D92A0367E
:10025000B107D9F724E0A0E6B2E001C01D92A630B4
:10026000B207E1F711E0C5E1D1E000E006C0219757
:100270000109802FFE010E945A0FC431D10780E08E
:100280000807A9F70E9477090C947B0FB9CECF928B
:10029000DF92EF92FF92DC01A03282E0B8070CF00F
:1002A0003EC0B7FD06C0A53BB1052CF0A4EBB0E005
:1002B00002C0A0E0B0E08091040428E830E06901C9
:1002C000C81AD10887FDD394CC0CDD1CCC0CDD1CE6
:1002D0000D2C000CEE08FF088091050428E532E0A3
:1002E000281B310987FD3395220F331F220F331F3F
:1002F000A901330F660B770B9A01AB012C193D094D
:100300004E095F090E94E40C24EB30E040E050E02D
:100310000E94BE0CC20ED31EE41EF51ED6019091A3
:100320000304903398F58091040448E850E0481B9A
:10033000510987FD5395440F551F440F551FA417AE
:10034000B5078CF08091050428E532E0281B3109BF
:1003500087FD3395220F331F220F331FAD012A175C
:100360003B070CF4A90142505109440F551F2FB708
:10037000F894892F90E0FC01EE0FFF1F8E0F9F1F56
:10038000FC01EF56FD4F528341832FBFFF90EF904A
:10039000DF90CF9008958F929F92AF92BF92CF92AD
:1003A000DF92EF92FF928091050428E532E0690127
:1003B000C81AD10887FDD394CC0CDD1CCC0CDD1CF5
:1003C0000D2C000CEE08FF088091040428E830E0B2
:1003D0004901881A910887FD9394880C991C880C10
:1003E000991C092C000CAA08BB08809103048F3FBC
:1003F000C1F090E0FC01EE0FFF1F8E0F9F1FFC016C
:10040000EF56FD4F2181328143E0220F331F4A9581
:10041000E1F754E0369527955A95E1F72E5F3F4F67
:1004200002C020E030E02F5F3F4FC901330FAA0B1D
:10043000BB0B9C01AD01281939094A095B09A4EBE2
:10044000B0E00E94DA0CA7019601281939094A097F
:100450005B090E94BE0CC901FF90EF90DF90CF9026
:10046000BF90AF909F908F900895CF92DF92EF92C0
:10047000FF920F931F93CF93DF936C017A018B014F
:10048000C0E0D0E0CE15DF0581F0D8016D918D017F
:10049000D601ED91FC910190F081E02DC6011995F6
:1004A000892B11F02196EECF7E01C701DF91CF910C
:1004B0001F910F91FF90EF90DF90CF9008950895D6
:1004C00080E090E00895FC01538D448D252F30E0AD
:1004D000842F90E0821B930B541710F0CF96089551
:1004E00001970895FC01918D828D981761F0828D9E
:1004F000DF01A80FB11D5D968C91928D9F5F9F7358
:10050000928F90E008958FEF9FEF0895FC01918DF9
:10051000828D981731F0828DE80FF11D858D90E066
:1005200008958FEF9FEF0895FC01918D228D892F03
:1005300090E0805C9F4F821B91098F7399270895EB
:1005400081E293E0F1DF21E0892B09F420E0822FA2
:100550000895FC01848DDF01A80FB11DA35ABF4F80
:100560002C91848D90E001968F739927848FA689B2
:10057000B7892C93A089B1898C91837080648C9306
:10058000938D848D981306C00288F389E02D8081B5
:100590008F7D80830895EF92FF920F931F93CF93E7
:1005A000DF93EC0181E0888F9B8D8C8D981305C0C3
:1005B000E889F989808185FD25C0F62E0B8D10E034
:1005C0000F5F1F4F0F731127E02E8C8DE8120BC0A9
:1005D0000FB607FCFACFE889F989808185FFF5CF4E
:1005E000CE01B7DFF2CF8B8DFE01E80FF11DE35A8C
:1005F000FF4FF0829FB7F8940B8FEA89FB898081C7
:1006000080620AC09FB7F894EE89FF896083E88909
:10061000F98980818370806480839FBF81E090E04E
:10062000DF91CF911F910F91FF90EF900895CF939D
:10063000DF93EC01888D8823C1F0EA89FB898081F2
:1006400085FD05C0A889B9898C9186FD0EC00FB6BD
:1006500007FCF5CF808185FFF2CFA889B9898C91FD
:1006600085FFEDCFCE0175DFE8CFDF91CF91089503
:1006700080E090E0892B19F063DF811125C080E0D4
:1006800090E0892B41F080E090E0892B21F00E94DE
:10069000000081111CC080E090E0892B41F080E0D7
:1006A00090E0892B21F00E940000811113C080E0AE
:1006B00090E0892BA1F080E090E0892B81F00E94EE
:1006C000000081110AC008950E940000D8CF0E9446
:1006D0000000E1CF0E940000EACF0C9400000895D2
:1006E00090E0FC013197E231F10508F04EC0882717
:1006F000EE58FF4F8F4F0C945A0F809180008F77E8
:1007000003C0809180008F7D809380000895809148
:100710008000877FF9CF84B58F7702C084B58F7D45
:1007200084BD08958091B0008F7703C08091B000A0
:100730008F7D8093B0000895809190008F7707C0DF
:10074000809190008F7D03C080919000877F80937F
:10075000900008958091A0008F7707C08091A0003D
:100760008F7D03C08091A000877F8093A0000895B3
:10077000809120018F7707C0809120018F7D03C079
:1007800080912001877F809320010895CF93DF938C
:10079000282F30E0F901EE51FE4F8491F901E45623
:1007A000FE4FD491F901EA5AFE4FC491CC2389F04F
:1007B000811196DFEC2FF0E0EE0FFF1FE45CFE4F9F
:1007C000A591B491EC91ED2381E090E021F480E0DB
:1007D00002C080E090E0DF91CF9108951F93CF9306
:1007E000DF93282F30E0F901EE51FE4F8491F9019B
:1007F000E456FE4FD491F901EA5AFE4FC491CC233E
:10080000B9F0162F81116CDFEC2FF0E0EE0FFF1F17
:10081000EE5DFE4FA591B4919FB7F894111104C0FD
:100820008C91D095D82302C0EC91DE2BDC939FBF36
:10083000DF91CF911F910895CF93DF9390E0FC015A
:10084000E456FE4F2491FC01EA5AFE4F849188231E
:1008500061F190E0880F991FFC01E85FFE4FC591A0
:10086000D491FC01EE5DFE4FA591B491611109C0D8
:100870009FB7F8948881209582238883EC912E235A
:100880000BC0623061F49FB7F8948881322F3095A5
:1008900083238883EC912E2B2C939FBF06C08FB7A8
:1008A000F894E8812E2B28838FBFDF91CF91089594
:1008B0001F93CF93DF93EC01162F8881803308F0CC
:1008C0004DC061E0812FB8DF8881E82FF0E09F0103
:1008D000220F331FE20FF31FEF56FD4F1F7390815E
:1008E000907C192B108319821A826CE00E943A0FB7
:1008F0009CE0899FB001112440E050E09B01240F4F
:10090000351FF901EE0FFF1F2E0F3F1FF901EF56A4
:10091000FD4F908196FD16C04F5F5F4F4C305105E3
:1009200069F7813001F51092800082E080938100A8
:100930001092850010928400B19A80916F008260BD
:1009400080936F00E881F0E0CF01880F991FE80FD6
:10095000F91FEF56FD4F8081806480838881DF918D
:10096000CF911F910895823061F41092900080938E
:100970009100109295001092940088BB80937100B2
:10098000E1CF833069F41092A00082E08093A1004F
:100990001092A5001092A40089BB80937200D2CF60
:1009A0008111D0CF1092200182E08093210110921A
:1009B0002501109224018ABB80937300C3CF3FB7F7
:1009C000F89480916A0290916B02A0916C02B091B0
:1009D0006D0226B5A89B05C02F3F19F00196A11DF9
:1009E000B11D3FBFBA2FA92F982F8827820F911DC5
:1009F000A11DB11DBC01CD0142E0660F771F881F0C
:100A0000991F4A95D1F708952FB7F894609166021F
:100A10007091670280916802909169022FBF0895DA
:100A20000F931F93CF93DF93EC018A81882319F0F2
:100A300061E0888101DF60E08881D0DE83E090E0C2
:100A40000197F1F761E08881C9DE83E290E00197C8
:100A5000F1F760E08881C2DE8A81882319F060E0C6
:100A60008881EADEACDF6B837C838D839E83898102
:100A70008DDE892BA1F4A3DF0B811C812D813E81AA
:100A8000DC01CB01801B910BA20BB30B0F811885EE
:100A900029853A85081719072A073B0740F78FDF92
:100AA0006B837C838D839E83898170DE892BA1F08B
:100AB00086DF0B811C812D813E81DC01CB01801BF7
:100AC000910BA20BB30B0F81188529853A85081766
:100AD00019072A073B0740F772DF2B813C81CB01C6
:100AE000821B930BDF91CF911F910F910895FC0111
:100AF000909164029033A0F481E0890F80936402A6
:100B00009083892F90E0FC01EE0FFF1F8E0F9F1F37
:100B1000FC01EF56FD4F88EB9BE0928381830895A3
:100B20008FEF80830895CF92DF92EF92FF920F9321
:100B30001F93CF93DF936C018B017A01EC01C05AB4
:100B4000DD4F888187FF04C0FB011182108224C021
:100B50002CE02C9DC0012D9D900D11242881AC010D
:100B6000420F511D27FD5A952091640230E0421733
:100B7000530794F42881AC01420F511D27FD5A956B
:100B80009A01FA01EE0FFF1F2E0F3F1FF901EF56DA
:100B9000FD4F208126FD19C088818F5F88832CE05E
:100BA0002C9DC0012D9D900D11242881AC01420F78
:100BB000511D27FD5A952091640230E042175307DA
:100BC000B4F428812C303CF112C02881820F911D91
:100BD00027FD9A95FC01EE0FFF1F8E0F9F1FFC0152
:100BE000EF56FD4F808160E08F73F8DDD5CFF801BF
:100BF00080819181049680349C4918F480E49CE9BA
:100C000004C0F801808191810496F701918380836B
:100C10008FEF888344C0F801408151812881BC0155
:100C2000620F711D27FD7A959B01FB01EE0FFF1FDF
:100C30002E0F3F1FF901EF56FD4F21813281240F06
:100C4000351FF701318320832881AC01420F511DEC
:100C500027FD5A959A01FA01EE0FFF1F2E0F3F1F35
:100C6000F901EF56FD4F208126FF19C02881820F20
:100C7000911D27FD9A95FC01EE0FFF1F8E0F9F1F00
:100C8000FC01EF56FD4F808161E08F73DF91CF91C2
:100C90001F910F91FF90EF90DF90CF909FCDDF914C
:100CA000CF911F910F91FF90EF90DF90CF9008951B
:100CB000CF92DF92EF92FF920F931F93CF93DF9328
:100CC0008C01055F1F4FEC016F96C12CD12C760172
:100CD000F801619171918F0180E090E0AED79B01A6
:100CE000AC01C701B601A8D66B017C010C171D072A
:100CF00079F720E030E040E251E406D7DF91CF9170
:100D00001F910F91FF90EF90DF90CF9008950F9378
:100D10001F93CF93DF93EC018F8D8A3008F01F8EE5
:100D20000F8D10E0CE017CDE000F111FFE01E00FE1
:100D3000F11F68E370E00E94460F748763878F8D10
:100D400091E0980F9F8FC80FD11DC80FD11D8B85C3
:100D50009C85DF91CF911F910F910895009761F0CD
:100D6000FC0101900020E9F73197AF01481B590BB6
:100D7000BC0181E293E079CB80E090E00895EECF72
:100D80002F923F924F925F926F927F928F929F929B
:100D9000AF92BF92CF92DF92EF92FF920F931F9389
:100DA000CF93DF93CDB7DEB7A4970FB6F894DEBF2D
:100DB0000FBECDBF4B015C01F42E9B01AC010E9424
:100DC000360F882319F082E192E025C02401350115
:100DD000E89477F82FEF3FEF4FE75FE7C301B201E9
:100DE0000E94360F81110CC02FEF3FEF4FE75FE7F6
:100DF000C301B20185D618161CF486E192E00BC03F
:100E00002FEF3FEF4FE75FE4C501B401C8D71816D5
:100E100024F48AE192E0A2DFA7C02FEF3FEF4FE773
:100E20005FECC501B4016CD687FDF3CF20E030E064
:100E3000A901C501B40164D687FF0AC06DE281E251
:100E400093E0A9DB3C01B7FAB094B7F8B09402C0C4
:100E5000612C712C10E060E070E080E09FE3F116FF
:100E600039F020E030E040E251E44ED61F5FF7CF8A
:100E7000A5019401E1D54B015C01B3D66AA3C72E4D
:100E8000D82EE92E19A2262F372F482F592F8E0141
:100E90000F5D1F4F0BA31CA39AE0292E312C412C70
:100EA000512CCA01B901A201910194D5605DF801EC
:100EB00062938F01211531054105510591F7CF014D
:100EC0004DDF8301080F191FFF2009F44CC06AA1F0
:100ED0007C2D8D2D9E2DB1D69B01AC01C501B40199
:100EE000AAD54B015C016EE281E293E054DB080F6E
:100EF000191F8AE0282E312C412C512C20E030E0A3
:100F000040E251E4C501B4014ED74B015C0169D602
:100F10009B0140E050E019A2CBA0DCA0762E3AA3C2
:100F2000642EE52ECA01B901A201910153D5605D7D
:100F3000F60162936F01211531054105510591F7C5
:100F4000CF010CDF080F191F672D7AA1862D9E2D6A
:100F500074D69B01AC01C501B4016DD54B015C0198
:100F6000FA94F110CBCFC801A4960FB6F894DEBF67
:100F70000FBECDBFDF91CF911F910F91FF90EF90EA
:100F8000DF90CF90BF90AF909F908F907F906F90A9
:100F90005F904F903F902F900895A9D71F920F9286
:100FA0000FB60F9211240BB60F922F933F934F93CE
:100FB0005F936F937F938F939F93AF93BF93EF93C1
:100FC000FF9381E293E0C5DAFF91EF91BF91AF917A
:100FD0009F918F917F916F915F914F913F912F9151
:100FE0000F900BBE0F900FBE0F901F9018951F9281
:100FF0000F920FB60F9211240BB60F922F938F936F
:101000009F93EF93FF93E0913103F091320380813E
:10101000E0913703F091380382FD12C090818091F6
:101020003A038F5F8F7320913B03821751F0E09159
:101030003A03F0E0EF5DFC4F958F80933A0301C0D7
:101040008081FF91EF919F918F912F910F900BBE17
:101050000F900FBE0F901F9018951F920F920FB612
:101060000F9211242F933F938F939F93AF93BF932E
:101070008091660290916702A0916802B091690226
:101080003091650223E0230F2D3720F40196A11D36
:10109000B11D05C026E8230F0296A11DB11D2093A6
:1010A00065028093660290936702A0936802B093F2
:1010B000690280916A0290916B02A0916C02B091DA
:1010C0006D020196A11DB11D80936A0290936B027F
:1010D000A0936C02B0936D02BF91AF919F918F91DD
:1010E0003F912F910F900FBE0F901F9018951F9258
:1010F0000F920FB60F9211240BB60F922F933F93BE
:101100004F935F936F937F938F939F93AF93BF930F
:10111000EF93FF9348E251E064E271E080E090E0F9
:1011200002DDFF91EF91BF91AF919F918F917F91E0
:101130006F915F914F913F912F910F900BBE0F9048
:101140000FBE0F901F9018951F920F920FB60F921F
:1011500011240BB60F922F933F934F935F936F938E
:101160007F938F939F93AF93BF93EF93FF9348EA3F
:1011700050E064EA70E083E090E0D5DCFF91EF910D
:10118000BF91AF919F918F917F916F915F914F919F
:101190003F912F910F900BBE0F900FBE0F901F909D
:1011A00018951F920F920FB60F9211240BB60F9243
:1011B0002F933F934F935F936F937F938F939F935F
:1011C000AF93BF93EF93FF9348E950E064E970E079
:1011D00082E090E0A8DCFF91EF91BF91AF919F91E9
:1011E0008F917F916F915F914F913F912F910F90D0
:1011F0000BBE0F900FBE0F901F9018951F920F926D
:101200000FB60F9211240BB60F922F933F934F936B
:101210005F936F937F938F939F93AF93BF93EF935E
:10122000FF9348E850E064E870E081E090E07BDC08
:10123000FF91EF91BF91AF919F918F917F916F91AE
:101240005F914F913F912F910F900BBE0F900FBE6A
:101250000F901F901895CF93DF93EC01188219829D
:1012600081E08A8361E080E0E7DA60E08981E4DAA6
:1012700080E29EE4A0E0B0E08F839887A987BA87D8
:10128000CE018196DF91CF9132CCE1E2F3E013827F
:10129000128288EE93E0A0E0B0E084839583A68379
:1012A000B78384E092E09183808385EC90E095871A
:1012B000848784EC90E09787868780EC90E0918B20
:1012C000808B81EC90E0938B828B82EC90E0958B0D
:1012D000848B86EC90E0978B868B118E128E138E0A
:1012E000148E82EE93E0B7DF8EEB93E0B4CFCF9312
:1012F000DF93CDB7DEB7A4970FB6F894DEBF0FBE6D
:10130000CDBF789484B5826084BD84B5816084BD8E
:1013100085B5826085BD85B5816085BD80916E0093
:10132000816080936E0010928100809181008260C4
:101330008093810080918100816080938100809101
:1013400080008160809380008091B10084608093F0
:10135000B1008091B00081608093B00080919100D5
:1013600082608093910080919100816080939100D0
:10137000809190008160809390008091A1008260B4
:101380008093A1008091A10081608093A100809151
:10139000A00081608093A0008091210182608093F1
:1013A00021018091210181608093210180912001A0
:1013B00081608093200180917A00846080937A001C
:1013C00080917A00826080937A0080917A008160B7
:1013D00080937A0080917A00806880937A001092DE
:1013E000C100E0913103F091320382E08083E0910B
:1013F0002D03F0912E031082E0912F03F091300322
:101400008FEC808310923903E0913503F09136031D
:1014100096E09083E0913303F09134038081806102
:101420008083E0913303F09134038081886080836E
:10143000E0913303F0913403808180688083E091F0
:101440003303F091340380818F7D80831B829983E5
:1014500087E08A8361E086E0EFD960E08A81ECD999
:1014600088EE93E0A0E0B0E088879987AA87BB87E1
:10147000CE0182963CDB18A2CE010196D1DA68E358
:1014800070E004D5FE013C968E01005E1F4FDE2EFB
:10149000EF2E61937193E017F107D9F7FF24F394CE
:1014A000F9A263E070E0CE01829602DA84E2FE01E6
:1014B0003196A2EEB3E001900D928A95E1F7198280
:1014C0001A82FB8261E080E0B7D960E08A81B4D9FA
:1014D00088EE93E0A0E0B0E088879987AA87BB8771
:1014E000CE01829604DB18A2CE01019699DA68E358
:1014F00070E0CCD4ED2DFE2D619371930E171F0774
:10150000D9F719A284E2FE013196AEEBB3E0019067
:101510000D928A95E1F778DA8B019C01609388023D
:101520001093890220938A0230938B0210928C02CE
:1015300010928D0210928E0210928F028AE590E036
:101540000E94470162E080E277D935E0232E312CFA
:1015500042E0642E712C80E219D92C0181E0411403
:10156000510409F080E0809390024EDA4B015C0157
:101570009B01A50160E070E080E090E0A09088020F
:10158000B0908902C0908A02D0908B02E0908C02C9
:10159000F0908D0200918E0210918F0293D4A1E001
:1015A0009AD409F008F4E7C182EE93E0B0DB8EEB49
:1015B00093E0ADDB29DA8B019C01609388021093E4
:1015C000890220938A0230938B0210928C0210922F
:1015D0008D0210928E0210928F0282EE93E068DBF1
:1015E0006B017C0180918602909187028130910588
:1015F000F1F01CF4892B41F078C18430910509F198
:10160000059709F4C1C071C120E030E040EC50E41E
:10161000C701B60175D218163CF024E030E03093D3
:1016200087022093860261C14528B9F35EC120E09C
:1016300030E040E850E4C701B601B1D387FFEDCFF9
:1016400054C1452809F083C020E030E040E251E475
:10165000C701B601A4D318160CF086C030928702D9
:1016600020928602109276021092770210927802EF
:101670001092790210927A0210927B0210927C02F0
:1016800010927D0210927E0210927F0210928002D0
:1016900010928102109282021092830210928402B0
:1016A00010928502109275021092740210927302C9
:1016B00010927202A9D9C1D24B015C010E94CB01E8
:1016C000BC01990F880B990BBAD220E030E044E3BB
:1016D00052E4B1D120E030E0A90161D318166CF4D6
:1016E0000E94CB01BC01990F880B990BA8D220E076
:1016F00030E044E352E49FD10DC00E94CB01BC0115
:10170000990F880B990B9BD220E030E044E352E420
:1017100092D1905826E535E545ED5FE344D39B0132
:10172000AC01C501B40188D120E030E040E251E4D1
:1017300083D157D260936E0270936F0280937002D0
:10174000909371028DE290E00E9447010DC020E06D
:1017500030E040EC50E4C701B60121D3181624F460
:10176000109287021092860220E030E040E850E4B8
:10177000C701B601C5D187FFB8C081E090E0909362
:10178000870280938602B1C03FD900916E0210910A
:101790006F02209170023091710260177107820709
:1017A000930708F4A2C00091720210917302C8015D
:1017B000880F991F880F991FFC01EA58FD4F5F01A0
:1017C00020E030E040E251E4C701B6019DD19B0129
:1017D000AC01F50160817181828193812DD1F50188
:1017E00060837183828393838091740290917502E8
:1017F00001968A30910528F49093750280937402C3
:1018000074C010927502109274020F5F1F4F1093F4
:101810007302009372020430110538F0709287024F
:10182000609286028AE590E05EC0FAE5F09FC00112
:10183000F19F900D112463E070E028D380E090E0E8
:10184000FCD120E030E044E352E4F5D020E030E089
:1018500044EB52E4F1D06B017C01D6D8EED14B01C0
:101860005C010E94CB01BC01990F880B990BE7D159
:10187000A7019601E0D020E030E0A90190D218162F
:101880005CF40E94CB01BC01990F880B990BD7D156
:10189000A7019601D0D00BC00E94CB01BC01990FCB
:1018A000880B990BCCD1A7019601C5D0905826E59D
:1018B00035E545ED5FE377D29B01AC01C501B4018D
:1018C000BBD020E030E040E251E4B6D08AD1609352
:1018D0006E0270936F028093700290937102C70141
:1018E000B6017AD1CB010E9447018EE192E047DA3E
:1018F000809186029091870282309105A1F03CF49C
:10190000009771F00197C1F48EE292E014C0843028
:10191000910579F05CF0059779F487E492E00BC0CB
:1019200086E292E008C087E392E005C08CE392E093
:1019300002C082E492E023DA80E592E020DA82EECF
:1019400093E0B6D942E01CDA8CE592E007DA06E7CC
:1019500012E08AE592E013DAF801619171918191C8
:1019600091918F0142E00CDAF2E006381F0789F707
:101970008CE592E0F3D90E943803EDCD052E97FB5C
:1019800016F400940FD057FD05D024D007FC02D0E8
:1019900046F408C050954095309521953F4F4F4FE4
:1019A0005F4F089590958095709561957F4F8F4F0B
:1019B0009F4F089531D0A59F900DB49F900DA49F87
:1019C000800D911D11240895B7FFF4CFF3DF821B22
:1019D000930B0895A1E21A2EAA1BBB1BFD010DC09B
:1019E000AA1FBB1FEE1FFF1FA217B307E407F507CF
:1019F00020F0A21BB30BE40BF50B661F771F881FAB
:101A0000991F1A9469F760957095809590959B0140
:101A1000AC01BD01CF010895A29FB001B39FC001E9
:101A2000A39F700D811D1124911DB29F700D811D0A
:101A30001124911D08955058BB27AA270ED075C1B7
:101A400066D130F06BD120F031F49F3F11F41EF4D9
:101A50005BC10EF4E095E7FB51C1E92F77D180F32C
:101A6000BA17620773078407950718F071F49EF59B
:101A70008FC10EF4E0950B2EBA2FA02D0B01B901EA
:101A800090010C01CA01A0011124FF27591B99F0F4
:101A9000593F50F4503E68F11A16F040A22F232F00
:101AA000342F4427585FF3CF469537952795A79550
:101AB000F0405395C9F77EF41F16BA0B620B730BF7
:101AC000840BBAF09150A1F0FF0FBB1F661F771F68
:101AD000881FC2F70EC0BA0F621F731F841F48F41D
:101AE000879577956795B795F7959E3F08F0B3CFA3
:101AF0009395880F08F09927EE0F9795879508958D
:101B0000D9D008F481E008950CD00FC107D140F07E
:101B1000FED030F021F45F3F19F0F0C0511139C10F
:101B2000F3C014D198F39923C9F35523B1F3951B4E
:101B3000550BBB27AA2762177307840738F09F5FEE
:101B40005F4F220F331F441FAA1FA9F333D00E2E5D
:101B50003AF0E0E830D091505040E695001CCAF7CA
:101B600029D0FE2F27D0660F771F881FBB1F26178F
:101B700037074807AB07B0E809F0BB0B802DBF0162
:101B8000FF2793585F4F2AF09E3F510568F0B6C07B
:101B900000C15F3FECF3983EDCF38695779567953F
:101BA000B795F7959F5FC9F7880F911D9695879513
:101BB00097F90895E1E0660F771F881FBB1F621732
:101BC00073078407BA0720F0621B730B840BBA0BF0
:101BD000EE1F88F7E095089504D06894B111D9C03C
:101BE0000895BCD088F09F5790F0B92F9927B7512E
:101BF000A0F0D1F0660F771F881F991F1AF0BA95D1
:101C0000C9F712C0B13081F0C3D0B1E00895C0C0AF
:101C1000672F782F8827B85F39F0B93FCCF38695C6
:101C200077956795B395D9F73EF490958095709523
:101C300061957F4F8F4F9F4F0895E89409C097FBA0
:101C40003EF490958095709561957F4F8F4F9F4F93
:101C50009923A9F0F92F96E9BB279395F6958795D7
:101C600077956795B795F111F8CFFAF4BB0F11F49A
:101C700060FF1BC06F5F7F4F8F4F9F4F16C0882341
:101C800011F096E911C0772321F09EE8872F762F77
:101C900005C0662371F096E8862F70E060E02AF0B8
:101CA0009A95660F771F881FDAF7880F96958795A4
:101CB00097F90895990F0008550FAA0BE0E8FEEF79
:101CC00016161706E807F907C0F012161306E40700
:101CD000F50798F0621B730B840B950B39F40A26F9
:101CE00061F0232B242B252B21F408950A2609F4D7
:101CF000A140A6958FEF811D811D089597F99F67DB
:101D000080E870E060E008959FEF80EC0895002483
:101D10000A941616170618060906089500240A9450
:101D200012161306140605060895092E0394000CD6
:101D300011F4882352F0BB0F40F4BF2B11F460FF65
:101D400004C06F5F7F4F8F4F9F4F089557FD90588E
:101D5000440F551F59F05F3F71F04795880F97FB6F
:101D6000991F61F09F3F79F0879508951216130629
:101D70001406551FF2CF4695F1DF08C01616170658
:101D80001806991FF1CF869571056105089408958D
:101D9000E894BB2766277727CB0197F908958ADF58
:101DA00008F48FEF08950BD0C0CFB1DF28F0B6DF75
:101DB00018F0952309F0A2CFA7CF1124EACFC6DFF0
:101DC000A0F3959FD1F3950F50E0551F629FF0014E
:101DD000729FBB27F00DB11D639FAA27F00DB11DA7
:101DE000AA1F649F6627B00DA11D661F829F222730
:101DF000B00DA11D621F739FB00DA11D621F839FB7
:101E0000A00D611D221F749F3327A00D611D231F8C
:101E1000849F600D211D822F762F6A2F11249F57DA
:101E200050408AF0E1F088234AF0EE0FFF1FBB1FFD
:101E3000661F771F881F91505040A9F79E3F51059C
:101E400070F05CCFA6CF5F3FECF3983EDCF3869555
:101E500077956795B795F795E7959F5FC1F7FE2B47
:101E6000880F911D9695879597F9089523DF880B24
:101E7000990B0895991B79E004C0991F961708F0F3
:101E8000961B881F7A95C9F780950895AA1BBB1BDE
:101E900051E107C0AA1FBB1FA617B70710F0A61B6A
:101EA000B70B881F991F5A95A9F780959095BC018B
:101EB000CD010895EE0FFF1F881F8BBF0790F6918D
:101EC000E02D19942A193B094C095D096E097F0917
:101ED000800B910B08950024A7FD00942A1730056C
:101EE000400550056005700580059005089581E066
:0A1EF00090E0F89400C0F894FFCFD2
:101EFA0000000000CB02350263021703940272024B
:101F0A0086026E616E00696E66006F7666005374B3
:101F1A006174653A2000464F52574152440042418B
:101F2A00434B57415244004C454654005249474896
:101F3A00540053544F50005343414E4E494E4700AC
:101F4A002C2041667374616E643A20000D0A000009
:00000001FF
