:1000000014C1000040C100003EC100003CC100001E
:100010003AC1000038C1000036C1000034C1000000
:1000200032C1000030C100002EC100002CC1000010
:100030002AC1000028C1000026C1000024C1000020
:1000400022C10000F2C400001EC100001CC100005B
:100050001AC1000018C1000016C1000015C400003C
:1000600012C1000010C100000EC100000CC1000050
:100070000AC1000008C1000006C1000004C1000060
:10008000A7C4000000C10000FEC00000FCC00000CA
:10009000FAC00000F8C00000F6C00000F4C0000084
:1000A000F2C00000F0C0000066C40000ECC0000018
:1000B000EAC00000E8C00000E6C000002FC4000055
:1000C000E2C00000E0C00000DEC00000DCC00000B4
:1000D000DAC00000D8C00000D6C00000D4C00000C4
:1000E000D2C000005E016101500154015A01980123
:1000F000650169016F01730177017D01810185014E
:1001000098018B018F01930100002100240027003A
:100110002A002D0030003300010100000401070116
:100120000A0100002200250028002B002E003100CB
:10013000340002010000050108010B01000020004D
:100140002300260029002C002F00320000010000AF
:10015000030106010901050505050705080808084A
:10016000020202020A0A080804040404010101014F
:10017000010101010303030303030303040707074A
:100180000C0C0C0C0C0C0C0C0202020206060606EF
:10019000060606060B0B0B0B0B0B0B0B01021020BC
:1001A00020080810204010204080020102010804AD
:1001B0000201010204081020408080402010080441
:1001C000020180040201804020100804020108049A
:1001D00002010102040810204080010204081020DE
:1001E000408000000A0B02090C0D0E0807030401F1
:1001F00000000000000000000000000000000000FF
:1002000000000000000000000000000000001211CB
:1002100010000000000000000000000000000000CE
:100220000000000000000000990611241FBECFEF5F
:10023000D1E2DEBFCDBF00E00CBF12E0A0E0B2E033
:10024000E0E4FEE000E00BBF02C007900D92A0309A
:10025000B107D9F722E0A0E0B2E001C01D92AA3FA9
:10026000B207E1F711E0C5E1D1E000E005C0219758
:100270000109802FFE01DAD5C431D10780E00807DB
:10028000B1F71AD4DBC5BCCE90E0FC013197E23166
:10029000F10508F04DC08827EE58FF4F8F4FC6C5B7
:1002A000809180008F7703C0809180008F7D809344
:1002B0008000089580918000877FF9CF84B58F7783
:1002C00002C084B58F7D84BD08958091B0008F7782
:1002D00003C08091B0008F7D8093B000089580911D
:1002E00090008F7707C0809190008F7D03C0809130
:1002F0009000877F8093900008958091A0008F7771
:1003000007C08091A0008F7D03C08091A000877FEF
:100310008093A0000895809120018F7707C080917D
:1003200020018F7D03C080912001877F8093200171
:100330000895CF93DF93282F30E0F901EE51FE4F5F
:100340008491F901E456FE4FD491F901EA5AFE4F27
:10035000C491CC2389F0811197DFEC2FF0E0EE0FF0
:10036000FF1FE45CFE4FA591B491EC91ED2381E079
:1003700090E021F480E002C080E090E0DF91CF9136
:1003800008951F93CF93DF93282F30E0F901EE51AA
:10039000FE4F8491F901E456FE4FD491F901EA5AD7
:1003A000FE4FC491CC23B9F0162F81116DDFEC2FD5
:1003B000F0E0EE0FFF1FEE5DFE4FA591B4919FB7E9
:1003C000F894111104C08C91D095D82302C0EC91FF
:1003D000DE2BDC939FBFDF91CF911F910895CF93C8
:1003E000DF9390E0FC01E456FE4F2491FC01EA5AB1
:1003F000FE4F8491882361F190E0880F991FFC01E2
:10040000E85FFE4FC591D491FC01EE5DFE4FA591D2
:10041000B491611109C09FB7F89488812095822317
:100420008883EC912E230BC0623061F49FB7F8945F
:100430008881322F309583238883EC912E2B2C9347
:100440009FBF06C08FB7F894E8812E2B28838FBFFB
:10045000DF91CF9108951F93CF93DF93EC01162F77
:100460008881803308F04CC061E0812FB8DF88813B
:10047000E82FF0E09F01220F331FE20FF31FE65930
:10048000FD4F1F739081907C192B108319821A8263
:100490006CE0ACD49CE0899FB001112440E050E0B6
:1004A0009B01240F351FF901EE0FFF1F2E0F3F1F79
:1004B000F901E659FD4F908196FD16C04F5F5F4FE1
:1004C0004C30510569F7813001F51092800082E0CF
:1004D000809381001092850010928400B19A8091DF
:1004E0006F00826080936F00E881F0E0CF01880F99
:1004F000991FE80FF91FE659FD4F808180648083C2
:100500008881DF91CF911F910895823061F410921C
:10051000900080939100109295001092940088BBF7
:1005200080937100E1CF833069F41092A00082E0E3
:100530008093A1001092A5001092A40089BB809323
:100540007200D2CF8111D0CF1092200182E080932F
:10055000210110922501109224018ABB809373001F
:10056000C3CF3FB7F89480910A0290910B02A091FB
:100570000C02B0910D0226B5A89B05C02F3F19F0C3
:100580000196A11DB11D3FBFBA2FA92F982F882713
:10059000820F911DA11DB11DBC01CD0142E0660F6E
:1005A000771F881F991F4A95D1F708950F931F93BE
:1005B000CF93DF93EC018A81882319F061E0888171
:1005C0000EDF60E08881DDDE83E090E00197F1F7E7
:1005D00061E08881D6DE83E290E00197F1F760E088
:1005E0008881CFDE8A81882319F060E08881F7DE78
:1005F000B8DF6B837C838D839E8389819ADE892B10
:10060000A1F4AFDF0B811C812D813E81DC01CB0188
:10061000801B910BA20BB30B0F81188529853A859E
:10062000081719072A073B0740F79BDF6B837C837A
:100630008D839E8389817DDE892BA1F092DF0B81E2
:100640001C812D813E81DC01CB01801B910BA20B13
:10065000B30B0F81188529853A85081719072A07D2
:100660003B0740F77EDF2B813C81CB01821B930B44
:10067000DF91CF911F910F910895FC019091040299
:100680009033A0F481E0890F809304029083892F36
:1006900090E0FC01EE0FFF1F8E0F9F1FFC01E6593B
:1006A000FD4F88EB9BE09283818308958FEF8083D9
:1006B0000895CF92DF92EF92FF920F931F93CF9303
:1006C000DF936C018B017A01EC01C050DE4F888111
:1006D00087FF04C0FB011182108224C02CE02C9DF6
:1006E000C0012D9D900D11242881AC01420F511D98
:1006F00027FD5A952091040230E04217530794F4E5
:100700002881AC01420F511D27FD5A959A01FA012B
:10071000EE0FFF1F2E0F3F1FF901E659FD4F2081FD
:1007200026FD19C088818F5F88832CE02C9DC00135
:100730002D9D900D11242881AC01420F511D27FDE4
:100740005A952091040230E042175307B4F42881EF
:100750002C303CF112C02881820F911D27FD9A9503
:10076000FC01EE0FFF1F8E0F9F1FFC01E659FD4F8E
:10077000808160E08F7305DED5CFF80180819181A3
:10078000049680349C4918F480E49CE904C0F80184
:10079000808191810496F701918380838FEF888314
:1007A00044C0F801408151812881BC01620F711D54
:1007B00027FD7A959B01FB01EE0FFF1F2E0F3F1FB8
:1007C000F901E659FD4F21813281240F351FF701D0
:1007D000318320832881AC01420F511D27FD5A959A
:1007E0009A01FA01EE0FFF1F2E0F3F1FF901E65984
:1007F000FD4F208126FF19C02881820F911D27FD02
:100800009A95FC01EE0FFF1F8E0F9F1FFC01E6590A
:10081000FD4F808161E08F73DF91CF911F910F9128
:10082000FF90EF90DF90CF90ACCDDF91CF911F91F3
:100830000F91FF90EF90DF90CF9008950F931F934B
:10084000CF93DF93EC0189A58F3008F019A609A595
:1008500010E0CE01ABDE000F111FFE01E00FF11F13
:1008600068E370E0CFD27487638789A591E0980F21
:1008700099A7C80FD11DC80FD11D8B859C85DF910D
:10088000CF911F910F9108951F920F920FB60F9263
:1008900011242F933F938F939F93AF93BF93809196
:1008A000060290910702A0910802B09109023091CE
:1008B000050223E0230F2D3720F40196A11DB11D61
:1008C00005C026E8230F0296A11DB11D2093050245
:1008D0008093060290930702A0930802B093090246
:1008E00080910A0290910B02A0910C02B0910D022E
:1008F0000196A11DB11D80930A0290930B02A09353
:100900000C02B0930D02BF91AF919F918F913F91D7
:100910002F910F900FBE0F901F9018951F920F925E
:100920000FB60F9211240BB60F922F933F934F9354
:100930005F936F937F938F939F93AF93BF93EF9347
:10094000FF9348E251E064E271E080E090E0B1DEC4
:10095000FF91EF91BF91AF919F918F917F916F9197
:100960005F914F913F912F910F900BBE0F900FBE53
:100970000F901F9018951F920F920FB60F9211248F
:100980000BB60F922F933F934F935F936F937F9389
:100990008F939F93AF93BF93EF93FF9348EA50E0F9
:1009A00064EA70E083E090E084DEFF91EF91BF9114
:1009B000AF919F918F917F916F915F914F913F91F7
:1009C0002F910F900BBE0F900FBE0F901F90189598
:1009D0001F920F920FB60F9211240BB60F922F9306
:1009E0003F934F935F936F937F938F939F93AF93B7
:1009F000BF93EF93FF9348E950E064E970E082E031
:100A000090E057DEFF91EF91BF91AF919F918F9151
:100A10007F916F915F914F913F912F910F900BBEFE
:100A20000F900FBE0F901F9018951F920F920FB648
:100A30000F9211240BB60F922F933F934F935F9316
:100A40006F937F938F939F93AF93BF93EF93FF9396
:100A500048E850E064E870E081E090E02ADEFF9131
:100A6000EF91BF91AF919F918F917F916F915F9126
:100A70004F913F912F910F900BBE0F900FBE0F9093
:100A80001F901895CF93DF93EC011882198281E0B3
:100A90008A8361E080E0A3DC60E08981A0DC80E201
:100AA0009EE4A0E0B0E08F839887A987BA87CE0143
:100AB0008B96DF91CF91E1CDCF93DF93CDB7DEB7AA
:100AC000AE970FB6F894DEBF0FBECDBF789484B555
:100AD000826084BD84B5816084BD85B5826085BD3A
:100AE00085B5816085BD80916E00816080936E00C8
:100AF00010928100809181008260809381008091BA
:100B0000810081608093810080918000816080936A
:100B100080008091B10084608093B1008091B0002A
:100B200081608093B00080919100826080939100F9
:100B3000809191008160809391008091900081600C
:100B4000809390008091A10082608093A1008091A9
:100B5000A10081608093A1008091A00081608093BA
:100B6000A000809121018260809321018091210168
:100B70008160809321018091200181608093200118
:100B800080917A00846080937A0080917A008260FC
:100B900080937A0080917A00816080937A008091BE
:100BA0007A00806880937A001092C1001B8286E0F0
:100BB000898387E08A8361E086E011DC60E08A81D6
:100BC0000EDC80E29EE4A0E0B0E088879987AA87E7
:100BD000BB87CE018C9651DD1AA6CE010196E6DCCC
:100BE00068E370E00FD1FE013C968E01065D1F4F59
:100BF000DE2EEF2E619371930E171F07D9F7FF2496
:100C0000F394FBA663E070E0CE018C9624DC8EE2C8
:100C1000FE013196ACE3B2E001900D928A95E1F7C6
:100C200082E089838A83FB8261E0D9DB60E08A818C
:100C3000D6DB80E29EE4A0E0B0E088879987AA87AF
:100C4000BB87CE018C9619DD1AA6CE010196AEDCCB
:100C500068E370E0D7D0ED2DFE2D619371930E17F0
:100C60001F07D9F71BA68EE2FE013196AEE0B2E077
:100C700001900D928A95E1F72091680288E890E052
:100C8000821B910927FD93958C01000F111F000F06
:100C9000111F6801012E000CEE08FF088091690207
:100CA00028E532E0281B310987FD3395220F331FD9
:100CB000220F331FC901330FAA0BBB0B9C01AD01DF
:100CC0002C193D094E095F09A2E3B0E054D024EB92
:100CD00030E040E050E033D0C20ED31EE41EF51EDB
:100CE000309167023033B8F4C8010C151D050CF4BF
:100CF000C6010297880F991F4FB7F894232F30E051
:100D0000F901EE0FFF1F2E0F3F1FF901E659FD4FAE
:100D1000928381834FBF00E010E08CE392E08EDD90
:100D20008EE092E08BDD01151105B9F30E94000001
:100D3000F4CF8CE392E0A6DE8EE092E0A3CE052E07
:100D400097FB16F400940FD057FD05D01ED007FC7A
:100D500002D046F408C050954095309521953F4FFC
:100D60004F4F5F4F089590958095709561957F4F97
:100D70008F4F9F4F08952BD0A59F900DB49F900D3E
:100D8000A49F800D911D11240895A1E21A2EAA1B83
:100D9000BB1BFD010DC0AA1FBB1FEE1FFF1FA2172B
:100DA000B307E407F50720F0A21BB30BE40BF50B28
:100DB000661F771F881F991F1A9469F760957095B1
:100DC000809590959B01AC01BD01CF010895A29F34
:100DD000B001B39FC001A39F700D811D1124911D0F
:100DE000B29F700D811D1124911D0895991B79E00A
:100DF00004C0991F961708F0961B881F7A95C9F7AB
:100E000080950895AA1BBB1B51E107C0AA1FBB1FF9
:100E1000A617B70710F0A61BB70B881F991F5A9586
:100E2000A9F780959095BC01CD010895EE0FFF1FA5
:100E3000881F8BBF0790F691E02D1994F894FFCF8F
:00000001FF
