:1000000014C1000042C1000040C100003EC1000018
:100010003CC100003AC1000038C1000036C10000F8
:1000200034C1000032C1000030C100002EC1000008
:100030002CC100002AC1000028C1000026C1000018
:1000400024C100008EC7000020C100001EC10000B6
:100050001CC100001AC1000018C10000B1C6000098
:1000600014C1000077C600004CC600000EC100009D
:100070000CC100000AC1000008C1000006C1000058
:1000800043C7000002C1000000C10000FEC0000024
:10009000FCC00000FAC00000F8C00000F6C000007C
:1000A000F4C00000F2C0000002C70000EEC0000073
:1000B000ECC00000EAC00000E8C00000CBC60000B1
:1000C000E4C00000E2C00000E0C00000DEC00000AC
:1000D000DCC00000DAC00000D8C00000D6C00000BC
:1000E000D4C0000005030803F702FB0201033F032D
:1000F0000C03100316031A031E03240328032C0306
:100100003F03320336033A03000021002400270096
:100110002A002D0030003300010100000401070116
:100120000A0100002200250028002B002E003100CB
:10013000340002010000050108010B01000020004D
:100140002300260029002C002F00320000010000AF
:10015000030106010901050505050705080808084A
:10016000020202020A0A080804040404010101014F
:10017000010101010303030303030303040707074A
:100180000C0C0C0C0C0C0C0C0202020206060606EF
:10019000060606060B0B0B0B0B0B0B0B01021020BC
:1001A00020080810204010204080020102010804AD
:1001B0000201010204081020408080402010080441
:1001C000020180040201804020100804020108049A
:1001D00002010102040810204080010204081020DE
:1001E000408000000A0B02090C0D0E0807030401F1
:1001F00000000000000000000000000000000000FF
:1002000000000000000000000000000000001211CB
:1002100010000000000000000000000000000000CE
:100220000000000000000000F80711241FBECFEFFF
:10023000D1E2DEBFCDBF00E00CBF12E0A0E0B2E033
:10024000ECECF9E100E00BBF02C007900D92A43284
:10025000B107D9F723E0A4E2B2E001C01D92A33CAC
:10026000B207E1F711E0C5E1D1E000E006C0219757
:100270000109802FFE010E94CF0CC431D10780E01C
:100280000807A9F7E7D60C94E40CBACE8F929F9298
:10029000AF92BF92EF92FF921F93CF93DF93109193
:1002A000C003103308F051C08091C20328E532E04A
:1002B0007901E81AF10887FDF394EE0CFF1CEE0CAF
:1002C000FF1C8091C103C8E8D0E0C81BD10987FD9D
:1002D000D395CC0FDD1FCC0FDD1F4E010D2E000C72
:1002E000AA08BB08C7010F2C000CAA0BBB0B9C0172
:1002F000AD01281939094A095B09AAE5B0E00E9455
:100300005A0A24EB30E040E050E00E943E0A820EA0
:10031000931EA41EB51E8C169D062CF0E7018E14AC
:100320009F040CF4E4012297CC0FDD1F2FB7F89443
:10033000812F90E0FC01EE0FFF1F8E0F9F1FFC012D
:10034000E65CFD4FD283C1832FBFDF91CF911F9118
:10035000FF90EF90BF90AF909F908F900895CF92B5
:10036000DF92EF92FF920F931F93CF93DF936C0175
:100370007A018B01C0E0D0E0CE15DF0581F0D80115
:100380006D918D01D601ED91FC910190F081E02DF0
:10039000C6011995892B11F02196EECF7E01C70178
:1003A000DF91CF911F910F91FF90EF90DF90CF9051
:1003B0000895089580E090E00895FC01538D448DE8
:1003C000252F30E0842F90E0821B930B541710F000
:1003D000CF96089501970895FC01918D828D98170D
:1003E00061F0828DDF01A80FB11D5D968C91928D19
:1003F0009F5F9F73928F90E008958FEF9FEF089516
:10040000FC01918D828D981731F0828DE80FF11DDE
:10041000858D90E008958FEF9FEF0895FC01918DF9
:10042000228D892F90E0805C9F4F821B91098F73F2
:10043000992708958AEC92E0F1DF21E0892B09F4F5
:1004400020E0822F0895FC01848DDF01A80FB11DEB
:10045000A35ABF4F2C91848D90E001968F739927FA
:10046000848FA689B7892C93A089B1898C918370D8
:1004700080648C93938D848D981306C00288F389D1
:10048000E02D80818F7D80830895EF92FF920F93FE
:100490001F93CF93DF93EC0181E0888F9B8D8C8D30
:1004A000981305C0E889F989808185FD25C0F62E5D
:1004B0000B8D10E00F5F1F4F0F731127E02E8C8DF7
:1004C000E8120BC00FB607FCFACFE889F9898081E2
:1004D00085FFF5CFCE01B7DFF2CF8B8DFE01E80FA0
:1004E000F11DE35AFF4FF0829FB7F8940B8FEA8912
:1004F000FB89808180620AC09FB7F894EE89FF89EA
:100500006083E889F98980818370806480839FBFDC
:1005100081E090E0DF91CF911F910F91FF90EF90DC
:100520000895CF93DF93EC01888D8823C1F0EA8989
:10053000FB89808185FD05C0A889B9898C9186FDDC
:100540000EC00FB607FCF5CF808185FFF2CFA889DA
:10055000B9898C9185FFEDCFCE0175DFE8CFDF91B2
:10056000CF91089580E090E0892B19F063DF81112D
:1005700025C080E090E0892B41F080E090E0892B5D
:1005800021F00E94000081111CC080E090E0892BC6
:1005900041F080E090E0892B21F00E940000811161
:1005A00013C080E090E0892BA1F080E090E0892BDF
:1005B00081F00E94000081110AC008950E9400008D
:1005C000D8CF0E940000E1CF0E940000EACF0C9437
:1005D0000000089590E0FC013197E231F10508F048
:1005E0004EC08827EE58FF4F8F4F0C94CF0C809150
:1005F00080008F7703C0809180008F7D8093800082
:10060000089580918000877FF9CF84B58F7702C0ED
:1006100084B58F7D84BD08958091B0008F7703C02D
:100620008091B0008F7D8093B000089580919000FC
:100630008F7707C0809190008F7D03C080919000DC
:10064000877F8093900008958091A0008F7707C0E6
:100650008091A0008F7D03C08091A000877F809350
:10066000A0000895809120018F7707C0809120011C
:100670008F7D03C080912001877F809320010895A2
:10068000CF93DF93282F30E0F901EE51FE4F849194
:10069000F901E456FE4FD491F901EA5AFE4FC49194
:1006A000CC2389F0811196DFEC2FF0E0EE0FFF1FD5
:1006B000E45CFE4FA591B491EC91ED2381E090E0D4
:1006C00021F480E002C080E090E0DF91CF910895B6
:1006D0001F93CF93DF93282F30E0F901EE51FE4FA7
:1006E0008491F901E456FE4FD491F901EA5AFE4F84
:1006F000C491CC23B9F0162F81116CDFEC2FF0E000
:10070000EE0FFF1FEE5DFE4FA591B4919FB7F894D9
:10071000111104C08C91D095D82302C0EC91DE2B2E
:10072000DC939FBFDF91CF911F910895CF93DF930B
:1007300090E0FC01E456FE4F2491FC01EA5AFE4F82
:100740008491882361F190E0880F991FFC01E85F94
:10075000FE4FC591D491FC01EE5DFE4FA591B49181
:10076000611109C09FB7F8948881209582238883FE
:10077000EC912E230BC0623061F49FB7F89488810E
:10078000322F309583238883EC912E2B2C939FBF9F
:1007900006C08FB7F894E8812E2B28838FBFDF9196
:1007A000CF9108951F93CF93DF93EC01162F88818B
:1007B000803308F04DC061E0812FB8DF8881E82FD9
:1007C000F0E09F01220F331FE20FF31FE65CFD4FA5
:1007D0001F739081907C192B108319821A826CE010
:1007E0000E94AF0C9CE0899FB001112440E050E0D2
:1007F0009B01240F351FF901EE0FFF1F2E0F3F1F26
:10080000F901E65CFD4F908196FD16C04F5F5F4F8A
:100810004C30510569F7813001F51092800082E07B
:10082000809381001092850010928400B19A80918B
:100830006F00826080936F00E881F0E0CF01880F45
:10084000991FE80FF91FE65CFD4F8081806480836B
:100850008881DF91CF911F910895823061F41092C9
:10086000900080939100109295001092940088BBA4
:1008700080937100E1CF833069F41092A00082E090
:100880008093A1001092A5001092A40089BB8093D0
:100890007200D2CF8111D0CF1092200182E08093DC
:1008A000210110922501109224018ABB80937300CC
:1008B000C3CF3FB7F89480912A0290912B02A09168
:1008C0002C02B0912D0226B5A89B05C02F3F19F030
:1008D0000196A11DB11D3FBFBA2FA92F982F8827C0
:1008E000820F911DA11DB11DBC01CD0142E0660F1B
:1008F000771F881F991F4A95D1F708950F931F936B
:10090000CF93DF93EC018A81882319F061E088811D
:100910000DDF60E08881DCDE83E090E00197F1F795
:1009200061E08881D5DE83E290E00197F1F760E035
:100930008881CEDE8A81882319F060E08881F6DE26
:10094000B8DF6B837C838D839E83898199DE892BBD
:10095000A1F4AFDF0B811C812D813E81DC01CB0135
:10096000801B910BA20BB30B0F81188529853A854B
:10097000081719072A073B0740F79BDF6B837C8327
:100980008D839E8389817CDE892BA1F092DF0B8190
:100990001C812D813E81DC01CB01801B910BA20BC0
:1009A000B30B0F81188529853A85081719072A077F
:1009B0003B0740F77EDF2B813C81CB01821B930BF1
:1009C000DF91CF911F910F910895FC019091280222
:1009D0009033A0F481E0890F809328029083892FBF
:1009E00090E0FC01EE0FFF1F8E0F9F1FFC01E65CE5
:1009F000FD4F88EB9BE09283818308958FEF808386
:100A00000895CF92DF92EF92FF920F931F93CF93AF
:100A1000DF936C018B017A01EC01CC5DDD4F8881A5
:100A200087FF04C0FB011182108224C02CE02C9DA2
:100A3000C0012D9D900D11242881AC01420F511D44
:100A400027FD5A952091280230E04217530794F46D
:100A50002881AC01420F511D27FD5A959A01FA01D8
:100A6000EE0FFF1F2E0F3F1FF901E65CFD4F2081A7
:100A700026FD19C088818F5F88832CE02C9DC001E2
:100A80002D9D900D11242881AC01420F511D27FD91
:100A90005A952091280230E042175307B4F4288178
:100AA0002C303CF112C02881820F911D27FD9A95B0
:100AB000FC01EE0FFF1F8E0F9F1FFC01E65CFD4F38
:100AC000808160E08F7304DED5CFF8018081918151
:100AD000049680349C4918F480E49CE904C0F80131
:100AE000808191810496F701918380838FEF8883C1
:100AF00044C0F801408151812881BC01620F711D01
:100B000027FD7A959B01FB01EE0FFF1F2E0F3F1F64
:100B1000F901E65CFD4F21813281240F351FF70179
:100B2000318320832881AC01420F511D27FD5A9546
:100B30009A01FA01EE0FFF1F2E0F3F1FF901E65C2D
:100B4000FD4F208126FF19C02881820F911D27FDAE
:100B50009A95FC01EE0FFF1F8E0F9F1FFC01E65CB4
:100B6000FD4F808161E08F73DF91CF911F910F91D5
:100B7000FF90EF90DF90CF90ABCDDF91CF911F91A1
:100B80000F91FF90EF90DF90CF9008950F931F93F8
:100B9000CF93DF93EC0189A58F3008F019A609A542
:100BA00010E0CE01ABDE000F111FFE01E00FF11FC0
:100BB00068E370E0E0D67487638789A591E0980FB9
:100BC00099A7C80FD11DC80FD11D8B859C85DF91BA
:100BD000CF911F910F910895009761F0FC01019052
:100BE0000020E9F73197AF01481B590BBC018AEC93
:100BF00092E0B5CB80E090E008958F929F92AF9203
:100C0000BF920F931F93CF93DF93CDB7DEB7A1971A
:100C10000FB6F894DEBF0FBECDBF19A2423008F464
:100C20004AE08E010F5D1F4F842E912CA12CB12C18
:100C3000A501940149D4E62FB901CA010150110957
:100C4000EA3014F4E05D01C0E95CD801EC93232B99
:100C5000242B252B69F7C801BFDFA1960FB6F894A6
:100C6000DEBF0FBECDBFDF91CF911F910F91BF901F
:100C7000AF909F908F900895A3D68F929F92AF923E
:100C8000BF92CF92DF92EF92FF920F931F93CF9379
:100C90008C01055F1F4FC0E0812C912C5401F8019D
:100CA000C190D1908F01E12CF12CC701B6013AD54A
:100CB0009B01AC01C501B40139D44B015C014AE090
:100CC000C701B6019ADFCE3019F482E192E002C08A
:100CD00085E192E081DFCF5FCF3009F720E030E09F
:100CE00040E751E4C501B40189D4CF911F910F9120
:100CF000FF90EF90DF90CF90BF90AF909F908F903C
:100D000008951F920F920FB60F9211240BB60F92F7
:100D10002F933F934F935F936F937F938F939F9303
:100D2000AF93BF93EF93FF938AEC92E08CDBFF913C
:100D3000EF91BF91AF919F918F917F916F915F9153
:100D40004F913F912F910F900BBE0F900FBE0F90C0
:100D50001F9018951F920F920FB60F9211240BB689
:100D60000F922F938F939F93EF93FF93E091DA026B
:100D7000F091DB028081E091E002F091E10282FDDE
:100D800012C090818091E3028F5F8F732091E40203
:100D9000821751F0E091E302F0E0E653FD4F958FAA
:100DA0008093E30201C08081FF91EF919F918F9129
:100DB0002F910F900BBE0F900FBE0F901F901895A4
:100DC0001F920F920FB60F9211242F933F938F9380
:100DD0009F93AF93BF9380912E0290912F02A09189
:100DE0003002B09131023091290223E0230F2D37D8
:100DF00020F40196A11DB11D05C026E8230F02961F
:100E0000A11DB11D2093290280932E0290932F02E1
:100E1000A0933002B093310280912A0290912B026C
:100E2000A0912C02B0912D020196A11DB11D8093BD
:100E30002A0290932B02A0932C02B0932D02BF9113
:100E4000AF919F918F913F912F910F900FBE0F9077
:100E50001F9018951F920F920FB60F9211240BB688
:100E60000F922F933F934F935F936F937F938F9343
:100E70009F93AF93BF93EF93FF9348E251E064E2F7
:100E800071E080E090E0BDDDFF91EF91BF91AF9107
:100E90009F918F917F916F915F914F913F912F9192
:100EA0000F900BBE0F900FBE0F901F9018951F92C2
:100EB0000F920FB60F9211240BB60F922F933F9300
:100EC0004F935F936F937F938F939F93AF93BF9352
:100ED000EF93FF9348EA50E064EA70E083E090E02B
:100EE00090DDFF91EF91BF91AF919F918F917F9195
:100EF0006F915F914F913F912F910F900BBE0F908B
:100F00000FBE0F901F9018951F920F920FB60F9261
:100F100011240BB60F922F933F934F935F936F93D0
:100F20007F938F939F93AF93BF93EF93FF9348E982
:100F300050E064E970E082E090E063DDFF91EF91C2
:100F4000BF91AF919F918F917F916F915F914F91E1
:100F50003F912F910F900BBE0F900FBE0F901F90DF
:100F600018951F920F920FB60F9211240BB60F9285
:100F70002F933F934F935F936F937F938F939F93A1
:100F8000AF93BF93EF93FF9348E850E064E870E0BD
:100F900081E090E036DDFF91EF91BF91AF919F919D
:100FA0008F917F916F915F914F913F912F910F9012
:100FB0000BBE0F900FBE0F901F901895CF93DF932D
:100FC000EC011882198281E08A8361E080E0AEDB67
:100FD00060E08981ABDB80E29EE4A0E0B0E08F833B
:100FE0009887A987BA87CE018B96DF91CF91EDCCF8
:100FF000EAECF2E01382128288EE93E0A0E0B0E027
:1010000084839583A683B78384E092E09183808371
:1010100085EC90E09587848784EC90E097878687BD
:1010200080EC90E0918B808B81EC90E0938B828BB5
:1010300082EC90E0958B848B86EC90E0978B868B8E
:10104000118E128E138E148E85E993E0B7DF87E63A
:1010500093E0B4CFCF93DF93CDB7DEB7AE970FB6A3
:10106000F894DEBF0FBECDBF789484B5826084BD96
:1010700084B5816084BD85B5826085BD85B581609C
:1010800085BD80916E00816080936E00109281001A
:1010900080918100826080938100809181008160D5
:1010A0008093810080918000816080938000809196
:1010B000B10084608093B1008091B0008160809322
:1010C000B0008091910082608093910080919100A6
:1010D0008160809391008091900081608093900066
:1010E0008091A10082608093A1008091A100816025
:1010F0008093A1008091A00081608093A0008091E6
:10110000210182608093210180912101816080937F
:1011100021018091200181608093200180917A00DB
:10112000846080937A0080917A00826080937A0054
:1011300080917A00816080937A0080917A00806843
:1011400080937A001092C100E091DA02F091DB0204
:1011500082E08083E091D602F091D7021082E09184
:10116000D802F091D9028FEC80831092E202E091D4
:10117000DE02F091DF0296E09083E091DC02F091D4
:10118000DD02808180618083E091DC02F091DD02EC
:10119000808188608083E091DC02F091DD028081B3
:1011A00080688083E091DC02F091DD0280818F7D98
:1011B00080831B82998387E08A8361E086E0B6DAC8
:1011C00060E08A81B3DA80E492E4AFE0B0E088873F
:1011D0009987AA87BB87CE018C96F7DB1AA6CE012A
:1011E00001968CDB68E370E0C6D3FE013C968E016D
:1011F000065D1F4FDE2EEF2E61937193E017F1070E
:10120000D9F7FF24F394FBA663E070E0CE018C963F
:10121000C9DA8EE2FE013196A5E9B3E001900D92A4
:101220008A95E1F719821A82FB8261E080E07EDA1A
:1012300060E08A817BDA80E492E4AFE0B0E0888706
:101240009987AA87BB87CE018C96BFDB1AA6CE01F1
:10125000019654DB68E370E08ED3ED2DFE2D619393
:101260007193E017F107D9F71BA68EE2FE013196C4
:10127000A7E6B3E001900D928A95E1F78FB7F89455
:1012800000912E0210912F022091300230913102F4
:101290008FBF0093320210933302209334023093B5
:1012A00035021092360210923702109238021092D4
:1012B00039020E9446018FB7F89480902E029090D8
:1012C0002F02A0903002B09031028FBF9401A5018F
:1012D00060E070E080E090E0A0903202B0903302D5
:1012E000C0903402D0903502E0903602F090370280
:1012F00000913802109139025AD3283E33404105FB
:101300005105610571058105910509F008F4B4C026
:1013100085E993E03BDC87E693E038DC8FB7F8940F
:1013200000912E0210912F02209130023091310253
:101330008FBF009332021093330220933402309314
:101340003502109236021092370210923802109233
:1013500039020E94460185E993E08FDC85E993E03C
:101360008CDC6B017C019B01AC01F5D2882319F068
:1013700087E192E018C046015701E894B7F82FEFD3
:101380003FEF4FE75FE7C501B401E5D281110DC022
:101390002FEF3FEF4FE75FE7C501B4012BD11816E0
:1013A00024F48BE192E018DC64C02FEF3FEF4FE7AD
:1013B0005FE4C701B60168D218161CF48FE192E011
:1013C000F2CF2FEF3FEF4FE75FECC701B60112D12D
:1013D00087FDF4CF20E030E0A901C701B6010AD1B2
:1013E00087FF08C06DE28AEC92E04FD8F7FAF094DC
:1013F000F7F8F0942AE037ED43EA5BE3C701B60162
:1014000095D04B015C0162D16B017C018BD19B01BA
:10141000AC01C501B40189D04B015C014AE0C701B0
:10142000B601EBDB6EE28AEC92E02FD820E030E0F0
:1014300040E251E4C501B4012BD24B015C0146D11D
:101440006B01E12CF12C4AE0C701B601D6DBC701E4
:10145000B60168D19B01AC01C501B40166D020E0A2
:1014600030E040E251E414D231D180E090E04AE033
:10147000C4DB82E192E0B0DB75D81DCF052E97FB6F
:1014800016F400940FD057FD05D01ED007FC02D0F3
:1014900046F408C050954095309521953F4F4F4FE9
:1014A0005F4F089590958095709561957F4F8F4F10
:1014B0009F4F08952BD0A59F900DB49F900DA49F92
:1014C000800D911D11240895A1E21A2EAA1BBB1BA9
:1014D000FD010DC0AA1FBB1FEE1FFF1FA217B30700
:1014E000E407F50720F0A21BB30BE40BF50B661F16
:1014F000771F881F991F1A9469F7609570958095DA
:1015000090959B01AC01BD01CF010895A29FB00150
:10151000B39FC001A39F700D811D1124911DB29F27
:10152000700D811D1124911D08955058BB27AA27C5
:101530000ED070C161D130F066D120F031F49F3F00
:1015400011F41EF456C10EF4E095E7FB4CC1E92FEF
:1015500072D180F3BA17620773078407950718F0F2
:1015600071F49EF58AC10EF4E0950B2EBA2FA02DD2
:101570000B01B90190010C01CA01A0011124FF2740
:10158000591B99F0593F50F4503E68F11A16F0403B
:10159000A22F232F342F4427585FF3CF469537953A
:1015A0002795A795F0405395C9F77EF41F16BA0BFF
:1015B000620B730B840BBAF09150A1F0FF0FBB1FAD
:1015C000661F771F881FC2F70EC0BA0F621F731FF6
:1015D000841F48F4879577956795B795F7959E3F53
:1015E00008F0B3CF9395880F08F09927EE0F9795E1
:1015F00087950895D4D008F481E008950CD00AC1ED
:1016000002D140F0F9D030F021F45F3F19F0EBC087
:10161000511134C1EEC00FD198F39923C9F355236A
:10162000B1F3951B550BBB27AA27621773078407D5
:1016300038F09F5F5F4F220F331F441FAA1FA9F38B
:1016400033D00E2E3AF0E0E830D091505040E6957D
:10165000001CCAF729D0FE2F27D0660F771F881FDE
:10166000BB1F261737074807AB07B0E809F0BB0BCD
:10167000802DBF01FF2793585F4F2AF09E3F5105F1
:1016800068F0B1C0FBC05F3FECF3983EDCF3869599
:1016900077956795B795F7959F5FC9F7880F911D67
:1016A0009695879597F90895E1E0660F771F881F53
:1016B000BB1F621773078407BA0720F0621B730B06
:1016C000840BBA0BEE1F88F7E0950895BCD088F024
:1016D0009F5790F0B92F9927B751A0F0D1F0660F1E
:1016E000771F881F991F1AF0BA95C9F712C0B13039
:1016F00081F0C3D0B1E00895C0C0672F782F88274C
:10170000B85F39F0B93FCCF3869577956795B39577
:10171000D9F73EF490958095709561957F4F8F4FE6
:101720009F4F0895E89409C097FB3EF490958095EB
:10173000709561957F4F8F4F9F4F9923A9F0F92F97
:1017400096E9BB279395F695879577956795B79515
:10175000F111F8CFFAF4BB0F11F460FF1BC06F5FFB
:101760007F4F8F4F9F4F16C0882311F096E911C00D
:10177000772321F09EE8872F762F05C0662371F02E
:1017800096E8862F70E060E02AF09A95660F771F42
:10179000881FDAF7880F9695879597F90895990F1E
:1017A0000008550FAA0BE0E8FEEF16161706E8072B
:1017B000F907C0F012161306E407F50798F0621B4C
:1017C000730B840B950B39F40A2661F0232B242B21
:1017D000252B21F408950A2609F4A140A6958FEF40
:1017E000811D811D089597F99F6780E870E060E092
:1017F00008959FEF80EC089500240A9416161706AA
:1018000018060906089500240A94121613061406F1
:1018100005060895092E0394000C11F4882352F054
:10182000BB0F40F4BF2B11F460FF04C06F5F7F4F0C
:101830008F4F9F4F089557FD9058440F551F59F0F3
:101840005F3F71F04795880F97FB991F61F09F3FAD
:1018500079F087950895121613061406551FF2CFD6
:101860004695F1DF08C0161617061806991FF1CF26
:1018700086957105610508940895E894BB2766274D
:101880007727CB0197F908958ADF08F48FEF089541
:101890000BD0C0CFB1DF28F0B6DF18F0952309F0E8
:1018A000A2CFA7CF1124EACFC6DFA0F3959FD1F333
:1018B000950F50E0551F629FF001729FBB27F00DFE
:1018C000B11D639FAA27F00DB11DAA1F649F662753
:1018D000B00DA11D661F829F2227B00DA11D621FA2
:1018E000739FB00DA11D621F839FA00D611D221F5C
:1018F000749F3327A00D611D231F849F600D211D40
:10190000822F762F6A2F11249F5750408AF0E1F0E2
:1019100088234AF0EE0FFF1FBB1F661F771F881F2B
:1019200091505040A9F79E3F510570F05CCFA6CF73
:101930005F3FECF3983EDCF3869577956795B79516
:10194000F795E7959F5FC1F7FE2B880F911D969540
:10195000879597F9089523DF880B990B0895991BB4
:1019600079E004C0991F961708F0961B881F7A9596
:10197000C9F780950895AA1BBB1B51E107C0AA1F98
:10198000BB1FA617B70710F0A61BB70B881F991F20
:101990005A95A9F780959095BC01CD010895EE0F59
:1019A000FF1F881F8BBF0790F691E02D19942A190D
:1019B0003B094C095D096E097F09800B910B089565
:0C19C00081E090E0F89400C0F894FFCFA4
:1019CC00000000004502AF01DD0191020E02EC01A6
:1019DC0000020D0A0020006E616E00696E66006FD9
:0419EC00766600001B
:00000001FF
