:100000000C94E3000C940B010C940B010C940B0169
:100010000C940B010C940B010C940B010C940B0130
:100020000C940B010C940B010C94940B0C94060C87
:100030000C940B010C940B010C940B010C940B0110
:100040000C940B010C94F6040C940B010C940B0112
:100050000C943E090C940B010C940B010C94390484
:100060000C940B010C940B010C940B010C940B01E0
:100070000C940B010C940B010C940B010C940B01D0
:100080000C940B010C940B010C940B010C940B01C0
:100090000C94B7050C940B010C940B010C940B0100
:1000A0000C940B010C940B010C940B016001630187
:1000B000520156015C0184018401840167016B01D6
:1000C0006F017501790184017F01000000002400A7
:1000D00027002A002D003000000000002500280025
:1000E0002B002E0031000000000023002600290014
:1000F0002C002F000404040404030405020202027D
:1001000004030202020206060606060604040202B0
:100110000204040408020110408040102040804086
:10012000800802040180402010020110801020404D
:1001300040200000000200090F0000030401000C31
:1001400000000000000000000000000000000000AF
:1001500000080B0002020201000904000001020273
:1001600000000524001001052401010104240206F9
:100170000524060001070581031000400904010061
:10018000020A000000070502024000000705830282
:100190004000000403090412010002EF0201404183
:1001A00023378000010102030141726475696E6F9B
:1001B000204C4C430041726475696E6F204D696339
:1001C000726F00009A1911241FBECFEFDAE0DEBF74
:1001D000CDBF11E0A0E0B1E0ECECF9E302C0059086
:1001E0000D92A83BB107D9F724E0A8EBB1E001C01C
:1001F0001D92A934B207E1F710E0C3EED0E004C0CD
:100200002197FE010E94C41CC23ED107C9F70E947B
:100210001B110C94E41C0C940000CF93DF931F92ED
:10022000CDB7DEB76983DC01ED91FC910280F381EB
:10023000E02D41E050E0BE016F5F7F4F09950F90C8
:10024000DF91CF91089583E08093E9008091F200DF
:10025000882319F08AE38093E8000895FC018485DF
:10026000958597FD0BC09FB7F89482E08093E900D5
:100270008091F2009FBF90E0019608959FB7F89497
:1002800082E08093E9008091F2009FBF90E00895A2
:1002900090E0FC013197EF30F105B0F5EA5AFF4FDD
:1002A0000C94C41C809180008F7703C080918000E3
:1002B0008F7D80938000089580918000877FF9CFA3
:1002C00084B58F7702C084B58F7D84BD08958091F9
:1002D00090008F7707C0809190008F7D03C0809140
:1002E0009000877F8093900008958091C0008F7761
:1002F00003C08091C0008F7D8093C00008958091DD
:10030000C200877F8093C20008953FB7F894809120
:10031000530290915402A0915502B091560226B515
:10032000A89B05C02F3F19F00196A11DB11D3FBF2D
:10033000BA2FA92F982F8827820F911DA11DB11DBB
:10034000BC01CD0142E0660F771F881F991F4A95B7
:10035000D1F7089585ED8093BC008091BC0084FDA9
:10036000FCCF1092DA02089540912A02262F30E045
:10037000240F311D21323105DCF42091DA022430C2
:10038000C9F4FC0180E090E0861758F430912A020D
:100390002191DC01A65FBD4FA30FB11D2C930196E7
:1003A000F3CF80912A02680F60932A0280E00895BB
:1003B00081E0089582E008950895E091930280918C
:1003C0009202E81730F4F0E0EC56FD4F808190E0A7
:1003D00008958FEF9FEF089590919302809192027C
:1003E000981750F4E92FF0E0EC56FD4F208130E0F3
:1003F0009F5F9093930202C02FEF3FEFC9010895D2
:100400008091920290E020919302821B91090895BD
:10041000CF92DF92EF92FF920F931F93CF93DF93D0
:100420007C01CB018A012091DB02222389F0EB01C0
:100430006B01C40ED51ECC15DD0569F06991D7019D
:10044000ED91FC910190F081E02DC7010995F3CF6A
:10045000642F0E94B401C801DF91CF911F910F91C9
:10046000FF90EF90DF90CF900895CF93DF931F928E
:10047000CDB7DEB769832091DB022223D1F0209132
:10048000FE02203240F021E030E0FC013383228381
:1004900080E090E015C08091DC02E82FF0E0E352AC
:1004A000FD4F998190838F5F8093DC028093FE02E1
:1004B00005C061E0CE0101960E94B40181E090E0A8
:1004C0000F90DF91CF910895089580E090E0089516
:1004D0000E94830B90E008950F931F93CF93DF93B7
:1004E0001F92CDB7DEB78C01FC018485958597FFFF
:1004F0000EC0CE0101960E94550B019719F4898117
:1005000090E002C08FEF9FEFF80195878487F80194
:10051000848595850F90DF91CF911F910F9108955C
:10052000CF93DF931F92CDB7DEB7FC01848595850D
:1005300097FD05C02FEF3FEF358724870BC0CE0115
:1005400001960E94550B019719F4898190E002C031
:100550008FEF9FEF0F90DF91CF9108950E94DF1CE6
:10056000CF93DF93EC01898191E09093DB0280933C
:10057000FD021092DC021092FE0285E993E00E94D7
:10058000350281E00E94580E888362E089810E94D2
:10059000B40E85E993E00E94EC01D82F80E0C82FCB
:1005A00085E993E00E94EC018C2B9D2BDF91CF918C
:1005B0000895CF93DF93282F30E0F901EE5CFE4FD2
:1005C0008491F901ED5EFE4FD491F901EC50FF4F9B
:1005D000C491CC2391F081110E944801EC2FF0E0EE
:1005E000EE0FFF1FEA51FF4FA591B491EC91ED235F
:1005F00081E090E021F480E002C080E090E0DF91B3
:10060000CF9108951F93CF93DF93282F30E0F90106
:10061000EE5CFE4F8491F901ED5EFE4FD491F9013D
:10062000EC50FF4FC491CC23C1F0162F81110E94D2
:100630004801EC2FF0E0EE0FFF1FE852FF4FA591AD
:10064000B4919FB7F894111104C08C91D095D82320
:1006500002C0EC91DE2BDC939FBFDF91CF911F9105
:100660000895CF93DF9390E0FC01ED5EFE4F24915F
:10067000FC01EC50FF4F8491882361F190E0880FDA
:10068000991FFC01E653FF4FC591D491FC01E8523C
:10069000FF4FA591B491611109C09FB7F89488816B
:1006A000209582238883EC912E230BC0623061F465
:1006B0009FB7F8948881322F309583238883EC91FB
:1006C0002E2B2C939FBF06C08FB7F894E8812E2B5A
:1006D00028838FBFDF91CF9108958F929F92AF9221
:1006E000BF92CF92DF92EF92FF926B017C010E944A
:1006F00085014B015C01C114D104E104F104F1F066
:100700000E948501DC01CB0188199909AA09BB095E
:10071000883E9340A105B10570F321E0C21AD108CB
:10072000E108F10888EE880E83E0981EA11CB11C38
:10073000C114D104E104F10419F7DDCFFF90EF906B
:10074000DF90CF90BF90AF909F908F9008958F9241
:100750009F92AF92BF92CF92DF92EF92FF920F9350
:100760001F93CF93DF936C017B018A0180910B0172
:10077000882309F45CC080915F02882309F457C084
:1007800080915C0280FF05C08091E00082608093D0
:10079000E000E801B12C8AEFA82E93E0892E2AE32D
:1007A000922E209711F4BB20D9F10E94830B811166
:1007B0000AC0AA94AA20D9F161E070E080E090E03C
:1007C0000E946D03EECF282F30E0C217D3070CF440
:1007D0008C2F9FB7F8948092E9002091E80025FFC4
:1007E0001DC0282F30E0C21BD30BF701815020F031
:1007F00041914093F100FACFE20EF31EBB2019F0B5
:100800009092E8000AC08091E80085FD07C09092B0
:10081000E800BB24B394209709F0B12C9FBFC1CF4F
:100820005D9A84E680935D021016110644F081E023
:1008300090E0F6019383828380E090E001C0C801DC
:10084000DF91CF911F910F91FF90EF90DF90CF90AC
:10085000BF90AF909F908F9008952FB7F8946091BC
:100860004F027091500280915102909152022FBF1D
:1008700008951F920F920FB60F9211242F933F935A
:100880008F939F93AF93BF9380914F0290915002AB
:10089000A0915102B091520230914E0223E0230FF9
:1008A0002D3720F40196A11DB11D05C026E8230FA8
:1008B0000296A11DB11D20934E0280934F0290938A
:1008C0005002A0935102B093520280915302909132
:1008D0005402A0915502B09156020196A11DB11D7E
:1008E0008093530290935402A0935502B093560202
:1008F000BF91AF919F918F913F912F910F900FBE1C
:100900000F901F9018950F931F93CF93DF93EC01D7
:100910008A81882321F061E088810E94310360E0B0
:1009200088810E94020383E090E00197F1F761E083
:1009300088810E94020383E290E00197F1F760E072
:1009400088810E9402038A81882321F060E08881E7
:100950000E9431030E9485016B837C838D839E837B
:1009600089810E94D902892BA9F40E9485010B81FB
:100970001C812D813E81DC01CB01801B910BA20BE0
:10098000B30B0F81188529853A85081719072A079F
:100990003B0730F70E9485016B837C838D839E83A8
:1009A00089810E94D902892BA9F00E9485010B81BF
:1009B0001C812D813E81DC01CB01801B910BA20BA0
:1009C000B30B0F81188529853A85081719072A075F
:1009D0003B0730F70E9485012B813C81CB01821BB4
:1009E000930BDF91CF911F910F9108951F920F925A
:1009F0000FB60F9211242F933F934F935F936F93F2
:100A00007F938F939F93AF93BF93EF93FF938091C7
:100A10004D0287FF05C010928500109284001BC014
:100A200020914D02022E000C330B8091910290E038
:100A30002817390784F480914D02082E000C990B79
:100A4000FC01EE0FFF1F8E0F9F1FFC01E359FD4FAE
:100A5000808186FD15C080914D028F5F80934D028D
:100A600020914D02022E000C330B8091910290E0F8
:100A700028173907C4F480914D028C3064F113C0FB
:100A800080914D02082E000C990BFC01EE0FFF1F08
:100A90008E0F9F1FFC01E359FD4F808160E08F7333
:100AA0000E940203D8CF8091840090918500049623
:100AB00080349C4918F480E49CE905C0809184004E
:100AC00090918500049690938900809388008FEF21
:100AD00080934D023BC0209184003091850080912D
:100AE0004D02082E000C990BFC01EE0FFF1F8E0F1C
:100AF0009F1FFC01E359FD4F81819281820F931F5B
:100B0000909389008093880080914D02082E000CFC
:100B1000990BFC01EE0FFF1F8E0F9F1FFC01E35985
:100B2000FD4F808186FF12C080914D02082E000C7F
:100B3000990BFC01EE0FFF1F8E0F9F1FFC01E35965
:100B4000FD4F808161E08F730E940203FF91EF915E
:100B5000BF91AF919F918F917F916F915F914F91D5
:100B60003F912F910F900FBE0F901F9018951F92DD
:100B70000F920FB60F9211242F933F934F935F93D1
:100B80006F937F938F939F93AF93BF93EF93FF9355
:100B90008091B900887F803609F49CC068F588325E
:100BA00009F45BC090F4803109F454C038F4882310
:100BB00009F4F2C0883009F44DC0F2C0883109F45C
:100BC0004CC0803209F45DC0EBC0803409F468C0C9
:100BD00048F4803309F455C0883309F0E1C08093AC
:100BE000D802D4C0803509F44FC0883509F45DC0FF
:100BF000883409F0D5C0D2C0883909F4C3C0A8F43C
:100C0000883709F467C038F4883609F463C0803740
:100C100009F460C0C5C0883809F4B4C0803909F44B
:100C20005FC0803809F0BCC05BC0803B09F484C061
:100C300038F4803A09F466C0883A09F47DC0B0C03F
:100C4000803C09F4A3C0883C09F4A0C0883B09F4A7
:100C500086C0A6C08091B50210C09091D702809145
:100C6000D602981770F5E091D70281E08E0F80933D
:100C7000D702F0E0EA54FD4F80818093BB0085EC01
:100C800082C08093D8028AC0E091D70281E08E0FA3
:100C90008093D7028091BB00F0E0EA54FD4F80833F
:100CA0009091D7028091D6026AC0E091D70281E08C
:100CB0008E0F8093D7028091BB00F0E0EA54FD4F85
:100CC00080838091D902811169C081E08093B40250
:100CD00084EA5DC083E08093DA0210924C02CFCFA9
:100CE00080914C02803208F04DC0E0914C0281E0CE
:100CF0008E0F80934C028091BB00F0E0E45DFD4FCD
:100D00008083BDCF85EC8093BC001092DA02809185
:100D10004C02803230F4E0914C02F0E0E45DFD4F93
:100D2000108260914C0270E08CE292E0E0E0F0E032
:100D3000099510924C0234C084E08093DA0210923C
:100D40002B0210922A02E0E0F0E0099580912A023D
:100D5000811105C081E080932A0210920A02E0917D
:100D60002B0281E08E0F80932B02F0E0E65FFD4FB7
:100D700080818093BB0090912B0280912A0298176A
:100D800008F47DCF85E88093BC000AC085EC809391
:100D9000BC001092DA0204C01092D8020E94AA018C
:100DA000FF91EF91BF91AF919F918F917F916F9143
:100DB0005F914F913F912F910F900FBE0F901F9019
:100DC0001895CF93DF93EC01898191E09093DB023A
:100DD0008093FD021092DC021092FE0285E993E0FE
:100DE0000E94350281E00E94580E888361E089816B
:100DF0000E94B40E85E993E00E94EC01DF91CF914F
:100E000008952F923F924F925F926F927F928F92AE
:100E10009F92AF92BF92CF92DF92EF92FF920F9389
:100E20001F93CF93DF9300D000D000D0CDB7DEB7B3
:100E30001C017E836D838A0160E50E94E1068F5F5D
:100E4000880F90E0F8019183808366E4C1010E94DD
:100E5000E106282F30E02F5F3F4F3A832983F801C6
:100E600035832483A081B0E020E03FE24AE350E0F4
:100E70000E94761B4B015C01F4EF8F0EF1E09F1E88
:100E8000A11CB11C98EEC92E93E0D92EE12CF12CB7
:100E9000C501B401A70196010E94351BA981BA8141
:100EA0000E94811B69837A838B839C8320ED422E71
:100EB00027E0522E612C712CC501B401A3019201CF
:100EC0000E94351B69817A818B819C81620F731F1F
:100ED000841F951FA70196010E94351BF8012287E8
:100EE00033874487558761E5C1010E94B0029C01A8
:100EF000332702C0220F331F9A95E2F72F5F3F4F2F
:100F00003A832983F80137832683A081B0E020E06B
:100F10003FE24AE350E00E94761B4B015C01F4EF94
:100F20008F0EF1E09F1EA11CB11CC501B401A701E9
:100F300096010E94351BA981BA810E94761B6983A4
:100F40007A838B839C83C501B401A30192010E9423
:100F5000351B69817A818B819C81620F731F841F8D
:100F6000951FA70196010E94351BF8012687378738
:100F7000408B518B60E7C1010E94E1068F5F880FB3
:100F800090E0F8019383828361E7C1010E94B0027F
:100F90009C01992702C0880F991F3A95E2F70196A4
:100FA000F80191878087ED81FE812381222339F02A
:100FB000F80126813781821B930B91878087F80186
:100FC000A281B0E020E03FE24AE350E00E94761BBD
:100FD0006B017C01F4EFCF0EF1E0DF1EE11CF11C90
:100FE00088EE882E83E0982EA12CB12CC701B60183
:100FF000A50194010E94351BF801A085B1850E94CE
:10100000761B2B013C01C701B60120ED37E040E023
:1010100050E00E94351BC301B201620F731F841F91
:10102000951FA50194010E94351BF801228B338B7B
:10103000448B558B26960FB6F894DEBF0FBECDBFFE
:10104000DF91CF911F910F91FF90EF90DF90CF90A4
:10105000BF90AF909F908F907F906F905F904F90D8
:101060003F902F900895CF93DF93EB0161E00E94B2
:10107000E10684FB992790F9988383FB992790F9DF
:101080009A8382FB992790F9998386FB992790F997
:101090009B83881F8827881F8C83DF91CF910895B9
:1010A0000F931F93CF93DF93EC01142F052F8981AA
:1010B00091E09093DB028093FD021092DC0210928B
:1010C000FE0285E993E00E943502602F85E993E0F6
:1010D0000E943502612F85E993E00E94350281E08C
:1010E0000E94580E8883DF91CF911F910F91089530
:1010F0001F93CF93DF93EC01142F898191E090939C
:10110000DB028093FD021092DC021092FE0285E960
:1011100093E00E943502612F85E993E00E94350239
:1011200081E00E94580E8883DF91CF911F9108952E
:10113000CF93DF93EC01462F416060E00E94780876
:101140000E942D047E836D8363E1CE010E94E1063F
:10115000877089F48A819B81892BB1F30E942D04C9
:101160002D813E81621B730B8A819B8186179707B5
:1011700058F780E00BC041E06BE0CE010E94780898
:1011800040E060E0CE010E94780881E0DF91CF91DD
:1011900008950F931F93CF93DF93EC0141E060E834
:1011A0000E94780841E06FEFCE010E94780840E08D
:1011B00060E0CE010E9478084F8161E9CE010E9473
:1011C000780841E060E0CE010E94780840E06FEFCF
:1011D000CE010E94780840E060E8CE010E947808C5
:1011E00041E060E0CE010E9478080E942D047E83D9
:1011F0006D8360E0CE010E94E10680FF10C08A810D
:101200009B81892BB1F30E942D042D813E81621BAD
:10121000730B8A819B818617970758F726C00E9417
:101220002D047E836D8363E1CE010E94E106877009
:1012300081F48A819B81892BB1F30E942D042D8139
:101240003E81621B730B8A819B818617970758F733
:101250000CC06EE1CE010E94B0028C0141E06BE057
:10126000CE010E947808C80104C081E08C838FEF12
:101270009FEFDF91CF911F910F9108951F920F92D1
:101280000FB60F9211242F933F934F935F936F9359
:101290007F938F939F93AF93BF93EF93FF93E0E080
:1012A000F0E00995FF91EF91BF91AF919F918F91E0
:1012B0007F916F915F914F913F912F910F900FBE52
:1012C0000F901F901895CF92DF92EF92FF920F939D
:1012D0001F93CF93DF938C01055F1F4FEC016F9637
:1012E000C12CD12C7601F801619171918F0180E0C0
:1012F00090E00E94161A9B01AC01C701B6010E9442
:10130000991B6B017C010C171D0769F720E030E089
:1013100040E251E40E94051CDF91CF911F910F9193
:10132000FF90EF90DF90CF9008950F931F93CF938E
:10133000DF93EC018F8D8A3008F01F8E0F8D10E047
:10134000CE010E948304000F111FFE01E00FF11F68
:1013500068E370E00E94B01C748763878F8D91E012
:10136000980F9F8FC80FD11DC80FD11D8B859C85ED
:10137000DF91CF911F910F910895CF93DF93C82FE5
:10138000D0E02CE0829FC001112487519C4F0E9425
:10139000C908A0E0B0E080559109A109B109FE019A
:1013A000E652FE4F8E97A105B10530F48081811180
:1013B00004C081E0808302C0108280E0DF91CF9181
:1013C00008958091650281110DC082E080936102D1
:1013D00084E080936202109264021092630281E0C2
:1013E0008093650281E692E00895DF92EF92FF928A
:1013F0000F931F93CF93DF93D82EF92EE42E062F51
:1014000010E0C8010196880F0E94E01083E00E945E
:10141000E010CD2DDF2D0C0F1D1FC017D10789F057
:10142000E7FE03C0FE01849101C088810E94E010A4
:10143000F82E80E00E94E0108F2121968111EDCFDF
:1014400001C081E0DF91CF911F910F91FF90EF904C
:10145000DF900895DF92EF92FF920F931F93CF9347
:10146000DF93D82E8A017B01E40EF51EEB01CE1529
:10147000DF0571F0D7FE03C0FE01849101C08881B1
:101480000E94E01021968111F2CF8FEF9FEF01C0F3
:10149000C801DF91CF911F910F91FF90EF90DF90E6
:1014A00008950F931F93CF93DF931F92CDB7DEB7AD
:1014B00082E0898342E450E061E571E080E80E94C7
:1014C0002A0A0E94E109DC0112960D911C911397E2
:1014D0000115110589F0D801ED91FC910280F3818D
:1014E000E02DBE016F5F7F4FC801099597FD04C0D5
:1014F000F80100851185ECCF89810F90DF91CF91A4
:101500001F910F9108958F929F92AF92BF92CF92A9
:10151000DF92EF92FF920F931F93CF93DF936B01B4
:101520007C01142F9B01AC010E94AB1C882319F095
:101530008BEA91E027C046015701E894B7F82FEFF6
:101540003FEF4FE75FE7C501B4010E94AB1C81117B
:101550000DC02FEF3FEF4FE75FE7C501B4010E94D9
:10156000111A18161CF48FEA91E00CC02FEF3FEF10
:101570004FE75FE4C701B6010E94A61C181684F469
:1015800083EB91E0DF91CF911F910F91FF90EF904E
:10159000DF90CF90BF90AF909F908F900C94440EAF
:1015A0002FEF3FEF4FE75FECC701B6010E94111A22
:1015B00087FDE6CF20E030E0A901C701B6010E9417
:1015C000111A87FF0BC06DE28FEF92E00E940D01B0
:1015D000EC01F7FAF094F7F8F09402C0C0E0D0E024
:1015E00000E060E070E080E09FE3101741F020E051
:1015F00030E040E251E40E94051C0F5FF6CFA701E6
:1016000096010E94991B6B017C010E94771C4B0183
:101610005C014AE00E94210FC80FD91F1123B9F1C4
:10162000C501B4010E94161A9B01AC01C701B601A5
:101630000E94981B6B017C016EE28FEF92E00E948A
:101640000D01C80FD91F20E030E040E251E4C7018E
:10165000B6010E94771A4B015C010E94771C6B0156
:10166000E12CF12C4AE0C701B6010E94210FC80FFE
:10167000D91FC701B6010E94161A9B01AC01C50112
:10168000B4010E94981B6B017C011150E1F6CE0160
:10169000DF91CF911F910F91FF90EF90DF90CF904E
:1016A000BF90AF909F908F90089520915F0221117D
:1016B00003C08FEF9FEF08955FB7F89422E0209367
:1016C000E9002091F20030E01216130614F421E034
:1016D00030E0422FFC0184E6415038F0289A809394
:1016E0005E029091F1009193F7CF2115310521F021
:1016F0008091F200882319F05FBFC90108958BE63D
:101700008093E800F9CF2FB7F89483E08093E90045
:101710009091E800892F807295FF04C09091F200AB
:1017200080E4891B2FBF08951F920F920FB60F926E
:1017300011248F939F938091E1009091E100937F1A
:101740009093E10083FF0FC01092E90091E0909325
:10175000EB001092EC0092E39093ED0010925F0288
:1017600098E09093F00082FF20C093E09093E9000E
:101770009091F200992319F09AE39093E8009091E8
:101780005D02992339F090915D02915090935D0232
:10179000992389F190915E02992339F090915E022C
:1017A000915090935E02992341F184FF10C0809183
:1017B000E2008E7E81608093E2008091E1008F7E66
:1017C0008093E10080915C028E7E806111C080FF79
:1017D00016C08091E2008E7E80618093E20080914D
:1017E000E1008E7E8093E10080915C028E7E8160BC
:1017F00080935C0204C05D98CDCF2898D6CF9F918E
:101800008F910F900FBE0F901F9018951F920F92FF
:101810000FB60F921124CF92DF92EF92FF920F93A7
:101820001F932F933F934F935F936F937F938F9368
:101830009F93AF93BF93EF93FF93CF93DF93CDB776
:10184000DEB76C97DEBFCDBF1092E9008091E80053
:1018500083FFFBC168E0CE0145960E940E1182EF26
:101860008093E8008D8987FF05C09091E80090FF84
:10187000FCCF03C09EEF9093E800982F907609F07C
:10188000C6C09E894F89588D2F89F88C91110CC044
:10189000803829F480915B028093F10002C010929D
:1018A000F1001092F10045C1913051F4811141C114
:1018B0004130510509F03DC180915B028D7F0BC025
:1018C000933061F4811135C14130510509F031C1C6
:1018D00080915B02826080935B022BC1953049F45A
:1018E0008091E80080FFFCCF822F80688093E30026
:1018F00020C1963009F05EC00B8D1C8D22E0109245
:10190000E90010925A0210925902F21232C010925B
:101910005802109257020E94510A99E0BE016F5F6F
:101920007F4FDB01E92F1D92EA95E9F79983FA824F
:1019300091E09E8390EA98879AEF998720915902C7
:1019400030915A02275F3F4F3C832B838D83109247
:10195000E90010925A021092590210935802009313
:10196000570249E050E080E00E942A0A0E94510A92
:10197000E0C010935802009357020E94E109DC0175
:1019800012960D911C9113970115110509F4BBC016
:10199000D801ED91FC910480F581E02DBE016B5ED4
:1019A0007F4FC8010995009709F0C7C0F80100856D
:1019B0001185EACF973009F445C1983021F481E0D0
:1019C0008093F100B6C0993009F0B3C0837009F07C
:1019D00039C1EDE1F1E081E031E096E320812111B0
:1019E00009C08EE78093EA001092EA008F89809305
:1019F0005F029FC08093E9003093EB002191209318
:101A0000EC009093ED008F5F873041F7EACF8B8D2C
:101A10009C8D1092E90010925A02109259029093F4
:101A2000580280935702898D811153C08E899D89F8
:101A3000913A49F4813209F005C147E050E064E091
:101A400071E080E0BBC0913209F0FCC0833269F4E0
:101A50008F89988DA0E0B0E0809300019093010100
:101A6000A0930201B093030164C0803269F48091B5
:101A7000E80082FFFCCF67E084E091E00E940E1155
:101A80008BEF8093E80055C0823209F052C08F89F5
:101A900080930B01EEEFFFE7859194918B3F9C4D76
:101AA00019F0E0E0F8E002C0EEEFFAE08091040106
:101AB00090910501A0910601B0910701803B9440EF
:101AC000A105B10509F09EC080910B0180FF79C08E
:101AD00099C00E94E109FC010281138101151105E1
:101AE00009F4B0C0D801ED91FC910190F081E02D96
:101AF000BE016B5E7F4FC801099581111AC0F801C4
:101B000000851185EBCFF1E0FF1609F44EC0F3E03C
:101B1000FF1298C08F89882309F44AC0823089F463
:101B200040E86DE085EB91E00E94F509882309F417
:101B300089C08EEF8093E80088C018161906CCF390
:101B400081C0813029F440E86BE089EA91E0ECCF74
:101B5000833009F077C00E94E109DC011296ED9014
:101B6000FC9013978E010F5F1F4F6801E114F10481
:101B700079F0D701ED91FC910680F781E02DB80155
:101B8000C7010995080F111DF701E084F184EECF1C
:101B9000D8011C92F60101900020E9F73197BF01AE
:101BA0006C197D0940E0C601BFCF67E971E002C052
:101BB00063E971E0FB01449150E080E80E942A0A49
:101BC000B8CFEE3F2AE0F20751F08081918187374C
:101BD000A7E79A0721F09093FF0A8093FE0A87E710
:101BE00097E79183808380916000809360029BE0FF
:101BF00088E10FB6F894A895809360000FBE90938B
:101C0000600097CF808191818737974709F091CF06
:101C1000A895809160008861809360008091600247
:101C200080936000EE3FBAE0FB0739F08091FE0A36
:101C30009091FF0A918380837CCF1092FF0A1092CB
:101C4000FE0A77CF81E28093EB006C960FB6F89492
:101C5000DEBF0FBECDBFDF91CF91FF91EF91BF915E
:101C6000AF919F918F917F916F915F914F913F9134
:101C70002F911F910F91FF90EF90DF90CF900F90D9
:101C80000FBE0F901F901895009769F0FC0101900E
:101C90000020E9F73197AF01481B590BBC018FEFCA
:101CA00092E00C94A70380E090E008950C94440E19
:101CB000282F3091FE02313208F04AC08091DA02BA
:101CC0008111FCCF9091FD0242E04093DA02209313
:101CD000D9022FEF2093D8021092D7023093D60268
:101CE000EDEDF2E0A6EBB2E020E0321721F04191F9
:101CF0004D932F5FFACF1092B5022091B502990F44
:101D0000922B9093B5029091B402913061F41092AD
:101D1000B4029091B5029093BB009091BC0093FDEA
:101D2000F8CF95EC01C095EE9093BC009091DA024B
:101D30009230E1F39091D8029F3F79F08091D802E0
:101D4000803241F08091D802803331F084E005C0C8
:101D500081E003C082E001C083E01092DC021092B7
:101D6000FE021092DB0208959091DA029111FCCFED
:101D7000613208F060E291E09093DA029093D90228
:101D80002FEF2093D8021092D702260F2093D6026D
:101D90009093B5029091B502880F892B8093B5027C
:101DA0008091B402813061F41092B4028091B50246
:101DB0008093BB008091BC0083FDF8CF85EC01C00F
:101DC00085EE8093BC008091DA028130E1F380914E
:101DD000D702861710F46091D702E6EBF2E0A4E98F
:101DE000B2E080E0861721F091919D938F5FFACF4A
:101DF000109293028093920208950F931F93CF93B2
:101E0000DF93C0E0D0E0082F10E0B8010C2E02C034
:101E1000759567950A94E2F7617080E00E9402036D
:101E200061E080E00E94020360E080E00E94020323
:101E30002196C830D10549F7DF91CF911F910F91BD
:101E400008958F929F92AF92BF920F931F93CF935B
:101E5000DF93CDB7DEB7A1970FB6F894DEBF0FBE04
:101E6000CDBF19A2423008F44AE08E010F5D1F4F2A
:101E7000842E912CA12CB12CA50194010E94351B1C
:101E8000E62FB901CA0101501109EA3014F4E05DEE
:101E900001C0E95CD801EC93232B242B252B61F79F
:101EA000C8010E94440EA1960FB6F894DEBF0FBE83
:101EB000CDBFDF91CF911F910F91BF90AF909F90B9
:101EC0008F900895CF92DF92EF92FF92CF93DF939E
:101ED0006B017C016DE28FEF92E00E940D01EC013D
:101EE00066277727CB016C197D098E099F094AE087
:101EF0000E94210F8C0F9D1FDF91CF91FF90EF90DB
:101F0000DF90CF900895CF93DF93EC011882198270
:101F100081E08A8361E080E00E94310360E0898192
:101F20000E94310388EE93E0A0E0B0E08F839887B1
:101F3000A987BA87809191028C3098F491E0980F2C
:101F40009093910289A390E0FC01EE0FFF1F8E0F8A
:101F50009F1FFC01E359FD4F88EB9BE09283818337
:101F600002C08FEF89A31F8ECE010E94830468E315
:101F700070E00E94B01CFE013B96CE014F9661932B
:101F80007193E817F907D9F718A2DF91CF91089557
:101F9000CF92DF92EF92FF92DC01A03282E0B8078D
:101FA0000CF03EC0B7FD06C0A53BB1052CF0A4EB7C
:101FB000B0E002C0A0E0B0E08091E70328E830E0A4
:101FC0006901C81AD10887FDD394CC0CDD1CCC0C58
:101FD000DD1C0D2C000CEE08FF088091E80328E5BD
:101FE00032E0281B310987FD3395220F331F220F62
:101FF000331FA901330F660B770B9A01AB012C1924
:102000003D094E095F090E94811B24EB30E040E04E
:1020100050E00E94571BC20ED31EE41EF51ED601CF
:102020009091E6039C3098F58091E70348E850E0F2
:10203000481B510987FD5395440F551F440F551FE9
:10204000A417B5078CF08091E80328E532E0281B3F
:10205000310987FD3395220F331F220F331FAD0146
:102060002A173B070CF4A90142505109440F551F90
:102070002FB7F894892F90E0FC01EE0FFF1F8E0F11
:102080009F1FFC01E359FD4F528341832FBFFF90F7
:10209000EF90DF90CF9008958F929F92AF92BF9272
:1020A000CF92DF92EF92FF928091E80328E532E031
:1020B0006901C81AD10887FDD394CC0CDD1CCC0C67
:1020C000DD1C0D2C000CEE08FF088091E70328E8CA
:1020D00030E04901881A910887FD9394880C991C77
:1020E000880C991C092C000CAA08BB088091E603F7
:1020F0008F3FC1F090E0FC01EE0FFF1F8E0F9F1F7E
:10210000FC01E359FD4F2181328143E0220F331F4F
:102110004A95E1F754E0369527955A95E1F72E5FF9
:102120003F4F02C020E030E02F5F3F4FC901330F27
:10213000AA0BBB0B9C01AD01281939094A095B099F
:10214000A4EBB0E00E94761BA7019601281939097B
:102150004A095B090E94571BC901FF90EF90DF906D
:10216000CF90BF90AF909F908F900895CF92DF92C5
:10217000EF92FF920F931F93CF93DF936C017A013D
:102180008B01C0E0D0E0CE15DF0581F0D8016D9164
:102190008D01D601ED91FC910190F081E02DC601F9
:1021A0000995892B11F02196EECF7E01C701DF91B1
:1021B000CF911F910F91FF90EF90DF90CF900895F6
:1021C0004091590250915A02209157023091580281
:1021D00042175307B4F49091E8009570E1F39091A1
:1021E000E80092FD19C08093F1008091590290910E
:1021F0005A0201968F739927892B19F48EEF8093D9
:10220000E8008091590290915A02019690935A02E7
:102210008093590281E0089580E00895615030F084
:102220002091F100FC0120830196F8CF289A84E6E2
:1022300080935E020895CF93DF93CDB7DEB7E89722
:102240000FB6F894DEBF0FBECDBF789484B5826020
:1022500084BD84B5816084BD85B5826085BD85B54A
:10226000816085BD80916E00816080936E001092C8
:102270008100809181008260809381008091810043
:1022800081608093810080918000816080938000D4
:102290008091910082608093910080919100816093
:1022A0008093910080919000816080939000809154
:1022B000C10084608093C1008091C10082608093DE
:1022C000C1008091C10081608093C1008091C300F2
:1022D00081608093C3008091C00082608093C000C1
:1022E0008091C20081608093C20080917A008460F6
:1022F00080937A0080917A00826080937A00809146
:102300007A00816080937A0080917A00806880935F
:102310007A0010925F0210925B0210925C02809130
:10232000D70081608093D70080EA8093D80089B578
:10233000806189BD89B5826089BD09B400FEFDCF89
:1023400061E070E080E090E00E946D038091D80031
:102350008F7C80618093D8008091E000807F8093A3
:10236000E0008091E1008E7E8093E1008DE080931B
:10237000E200559A209A5D98289810929103109245
:1023800092031092930310929403109251031092AF
:10239000520310925303109254030E942D046B01B8
:1023A0007C014B015C0108EB800E0BE0901EA11C30
:1023B000B11C0E942D046C157D058E059F0528F02B
:1023C00086169706A806B906A0F760ED77E080E0CC
:1023D00090E00E946D038FEF9FEF90930C0380932A
:1023E0000B030E942D04609351037093520380935A
:1023F00053039093540387E491E00E94560E0E9489
:102400002D046B017C014B015C011AE0810E911CD3
:10241000A11CB11C0E942D046C157D058E059F0525
:1024200028F086169706A806B906A0F781E08093E3
:1024300065038FEF9FEF90930C0380930B03CE0106
:1024400001960E94830F84E2FE013196A5ECB3E071
:1024500001900D928A95E1F7CE0101960E94830FBB
:1024600084E2FE013196A1EAB3E001900D928A95D3
:10247000E1F70E942D048B019C016093CB01109326
:10248000CC012093CD013093CE011092CF01109258
:10249000D0011092D1011092D2018AE590E00E9401
:1024A000C80F62E080E20E94310314E1212E11E0A6
:1024B000312E09EE13E02CE031E03FAB2EAB60E0B3
:1024C00080E00E940203D101EC90B2E02B0E311C9F
:1024D000F090B8018E2D80958F210E94FD0E61E055
:1024E00080E00E9402036AE070E080E090E00E94D9
:1024F0006D0360E080E00E9402038E2D8F2980939F
:10250000B8010E94FD0E61E080E00E9402036AE0D3
:1025100070E080E090E00E946D0369E8C8010E94CD
:10252000E106482F416069E8C8010E94780840E050
:1025300068E8C8010E94780841E060E8C8010E948C
:10254000780841E06FEFC8010E94780840E060E041
:10255000C8010E94780861E9C8010E94E106F801FB
:10256000878341E060E0C8010E94780840E06FEF97
:10257000C8010E94780840E060E8C8010E9478081D
:1025800060E6C8010E94E106482F426160E6C8018A
:102590000E94780840E250E064E4C8010E945008BC
:1025A0004FEF61E0C8010E94780841E060E8C8018F
:1025B0000E94780841E06FEFC8010E94780840E06F
:1025C00060E0C8010E94780846E06FEFC8010E94F1
:1025D000780863E8C8010E94E106482F446063E878
:1025E000C8010E94780847E06FEFC8010E94780890
:1025F00041E061E8C8010E94780841E060E8C80154
:102600000E9478084BE664E9C8010E94780840E01F
:1026100063E8C8010E9478080E942D04D80116962C
:102620007C936E93159763E8C8010E94E1068111BF
:1026300016C0F80182819381892BA9F30E942D0491
:10264000D80115962D913C911697621B730B12962B
:102650008D919C9113978617970728F7C1C341E086
:1026600063E8C8010E94780862E9C8010E94E10697
:10267000A82EB82FBF779B2E40E061E8C8010E94CA
:10268000780846E06FEFC8010E94780863E8C80147
:102690000E94E106482F4B7F63E8C8010E9478083A
:1026A00041E06FEFC8010E94780841E060E0C80196
:1026B0000E94780840E06FEFC8010E94780840E06F
:1026C00060E8C8010E947808F801818191E0909348
:1026D000DB028093FD021092DC021092FE0260EB9E
:1026E00085E993E00E94350281E00E94580ED801EE
:1026F0008C9366E011968C910E94B40E7E01B5E237
:10270000EB0EF11C6701B7E0BB2EBA94BB2041F081
:1027100085E993E00E94EC01F60181936F01F5CF0A
:1027200041E06FEFC8010E94780840E06FE4C80103
:102730000E9478084CE26EE4C8010E94780840E0EC
:102740006FEFC8010E94780844EB66EBC8010E9455
:102750007808A7FC02C040E001C04CE090E080E0B7
:10276000282F269526952695582F5770F701E20FAA
:10277000F11D841710F099120BC021E030E001C068
:10278000220F5A95EAF7209530812323208309C030
:10279000208130E002C0359527955A95E2F720FD5B
:1027A0009F5F8F5F8033E1F6D80111968C9191E0A5
:1027B0009093DB028093FD021092DC021092FE02E5
:1027C00060EB85E993E00E943502A7E0DA2EDA9407
:1027D000DD2041F0F70161917F0185E993E00E94DE
:1027E0003502F5CF81E00E94580ED8018C9341E06C
:1027F0006FEFC8010E94780840E060E0C8010E94C5
:10280000780840E06FEFC8010E94780840E069E076
:10281000C8010E94780840E060E1C8010E94780881
:1028200040E061E1C8010E94780841E064E2C8012B
:102830000E9478084FEF65E2C8010E94780840E0E6
:1028400065E7C8010E94780841E06FEFC8010E9467
:1028500078084CE26EE4C8010E94780840E068E421
:10286000C8010E94780840E260E3C8010E9478082D
:1028700040E06FEFC8010E94780849E060E3C801BA
:102880000E94780840E064E5C8010E94780844E0AE
:1028900061E3C8010E94780843E062E3C8010E9436
:1028A000780843E860E4C8010E94780845E266E4DD
:1028B000C8010E94780840E060E6C8010E947808DC
:1028C00040E067E2C8010E94780846E060E5C80180
:1028D0000E94780840E061E5C8010E94780846E956
:1028E00062E5C8010E94780848E066E5C8010E94D8
:1028F000780840E367E5C8010E94780840E061E697
:10290000C8010E94780840E062E6C8010E94780889
:1029100040E064E6C8010E94780840E065E6C8012E
:102920000E94780840EA66E6C8010E94780841E003
:102930006FEFC8010E94780842E362E2C8010E947A
:10294000780844E167E4C8010E9478084FEF69E421
:10295000C8010E94780840E06AE4C8010E94780833
:1029600040E06FEFC8010E9478084AE06AE7C801BA
:102970000E94780840E06BE7C8010E94780841E2B5
:1029800068E7C8010E94780841E06FEFC8010E9423
:10299000780844E363E2C8010E94780840E062E4FA
:1029A000C8010E9478084FEF64E4C8010E947808CB
:1029B00046E265E4C8010E94780845E066E4C80183
:1029C0000E94780840E460E4C8010E94780846E06C
:1029D0006EE0C8010E9478084AE160E2C8010E94E6
:1029E000780840E463E4C8010E94780840E06FEF93
:1029F000C8010E94780843E064E3C8010E94780897
:102A000044E465E3C8010E94780841E06FEFC80123
:102A10000E94780844E061E3C8010E94780849E018
:102A20006BE4C8010E94780845E06CE4C8010E948C
:102A3000780844E06DE4C8010E94780840E06FEF38
:102A4000C8010E94780840E064E4C8010E94780848
:102A500040E265E4C8010E94780848E067E4C801E4
:102A60000E94780848E268E4C8010E94780840E0C3
:102A700067E6C8010E94780844E060E7C8010E9448
:102A8000780841E061E7C8010E9478084EEF62E7EC
:102A9000C8010E94780840E066E7C8010E947808F3
:102AA00040E067E7C8010E94780841E06FEFC80185
:102AB0000E94780841E06DE0C8010E94780840E07B
:102AC0006FEFC8010E94780841E060E8C8010E94E9
:102AD000780848EF61E0C8010E94780841E06FEF94
:102AE000C8010E94780841E06EE8C8010E94780899
:102AF00041E060E0C8010E94780840E06FEFC80143
:102B00000E94780840E060E8C8010E94780844E02C
:102B10006AE0C8010E94780864E8C8010E94E106E2
:102B2000482F4F7E64E8C8010E94780841E06BE0BE
:102B3000C8010E947808BE016F5C7F4FC8010E94E7
:102B40003308AE014F5F5F4FBE016F5C7F4FC8011E
:102B50000E94010789A9882349F08B859C85AD8552
:102B6000BE858C57924FAF4FBF4F04C086E39BE0AA
:102B7000A0E0B0E02BA9222369F04B855C856D8530
:102B80007E854E545D4F6F4F7F4F440F551F661F1C
:102B9000771F0BC02AA9222361F04B855C856D85C8
:102BA0007E854C565D4F6F4F7F4F840F951FA61F3C
:102BB000B71F2CA9222361F04F85588969897A892A
:102BC0004C565D4F6F4F7F4F840F951FA61FB71F49
:102BD0002DA9222361F04B895C896D897E894A5D2C
:102BE0005D4F6F4F7F4F840F951FA61FB71FF801D2
:102BF00080879187A287B38748EE61E0C8010E9471
:102C00007808D80118968D909D90AD90BC901B9738
:102C1000B0E28B16BEE49B06A104B10408F4C5C063
:102C2000BE016F5C7F4FC8010E943308AE014F5F49
:102C30005F4FBE016F5C7F4FC8010E94010789A9E9
:102C4000882359F0CB84DC84ED84FE84E6E3CE0E49
:102C5000EBE0DE1EE11CF11C06C0E8EECE2EE8E043
:102C6000DE2EE12CF12C8BA9882369F08B859C85C5
:102C7000AD85BE858E549D4FAF4FBF4F880F991FB6
:102C8000AA1FBB1F0BC08AA9882361F08B859C8576
:102C9000AD85BE858C569D4FAF4FBF4FC80ED91E18
:102CA000EA1EFB1EFCA9F8AFFF2361F08F8598890F
:102CB000A989BA898C569D4FAF4FBF4FC80ED91EF8
:102CC000EA1EFB1E8DA9882309F46FC026E2C20EFE
:102CD00022E0D21EE11CF11C8C149D04AE04BF0442
:102CE00008F463C0AB81B0E020E03FE24AE350E08B
:102CF0000E94761B2B013C0134EF430E31E0531E42
:102D0000611C711CA50194012C193D094E095F0934
:102D1000A8EEB3E00E94761B6B017C01C301B201F7
:102D200020ED37E040E050E00E94351BC20ED31E7C
:102D3000E41EF51EC301B20128EE33E040E050E08E
:102D40000E94351BC701B6010E94351BC901C8ACE2
:102D5000CC2021F08F819885820F931F0097C1F0BE
:102D60000197A0E0B0E040E050E06C017D01CC2490
:102D7000CD28CE28CF2839F0B695A7959795879579
:102D80004F5F5F4FF2CF542F4427482B592B02C07F
:102D900040E050E061E7C8010E945008D801189651
:102DA0008D929D92AD92BC921B9741E061E0C8016B
:102DB0000E94780860E4C8010E949808882381F086
:102DC00042E061E0C8010E94780860E0C8010E940A
:102DD0009808882329F048EE61E0C8010E9478082D
:102DE000EEA9FFA9F0803296FFABEEAB4F2D4F77E7
:102DF0006AE8C8010E947808D8011196FC921197E0
:102E0000E4EFF1E01396FC93EE931297045F1F4FEB
:102E1000FCE12F16F1E03F0609F051CB9BE4492E6F
:102E2000512C612C712C24E0222E312C0E942D0477
:102E3000672B682B692B41F40E942D0462307105C9
:102E40008105910508F4E9C00E942D040091D60186
:102E50001091D7012091D8013091D90160177107E5
:102E60008207930740F46093D6017093D701809353
:102E7000D8019093D9010091D6011091D7012091EA
:102E8000D8013091D9016B017C01C01AD10AE20A44
:102E9000F30A970186010A3F11052105310508F45F
:102EA000BCC06093D6017093D7018093D8019093F2
:102EB000D90114EFE12EFF24F39400E010E0E0923A
:102EC0005D03F0925E0300935F0310936003109222
:102ED0006103109262031092630310926403809165
:102EE000550390915603A0915703B09158038093D6
:102EF000590390935A03A0935B03B0935C030E9421
:102F00002D04609355037093560380935703909359
:102F100058030E942D0460935103709352038093D1
:102F20005303909354030E942D046B017C0189E5A7
:102F300091E00E94560E4AE061E070E080E090E08F
:102F40000E94210F80E691E00E94560E4AE0C701E0
:102F5000B6010E94210F82E691E00E94560E8091F8
:102F6000550390915603A0915703B09158039701D0
:102F70008601081B190B2A0B3B0BC901B8014AE05B
:102F80000E94210F82E691E00E94560E8091550327
:102F900090915603A0915703B091580300915903A3
:102FA00010915A0320915B0330915C03BC01CD0169
:102FB000601B710B820B930B4AE00E94210F84E689
:102FC00091E00E94560E0E942D044AE00E94210FBB
:102FD00086E691E00E94440E86E591E00E94440E50
:102FE0000E942D046B017C014B015C0115E0810EF8
:102FF000911CA11CB11C0E942D046C157D058E0531
:103000009F0508F05DC10E942D04609355037093E5
:103010005603809357039093580380E20E94D9028D
:1030200021E0892B09F020E02093D3010E942D0498
:103030004B015C019B01A50160E070E080E090E045
:10304000A090CB01B090CC01C090CD01D090CE012A
:10305000E090CF01F090D0010091D1011091D20108
:103060000E94CA1CA1E00E94D31C09F008F485C08C
:1030700085EC93E00E94950981EA93E00E9495090E
:103080000E942D048B019C016093CB011093CC0115
:103090002093CD013093CE011092CF011092D00138
:1030A0001092D1011092D2018AE590E00E94C80FDF
:1030B00085EC93E00E94630920E030E040EA50E4B0
:1030C0000E94111A18162CF03092CA012092C901E0
:1030D00004C01092CA011092C9018DE691E00E94CD
:1030E000560E8091C9019091CA0182309105A1F0DC
:1030F0003CF4009771F00197C9F48DE791E014C09A
:103100008430910579F05CF0059781F486E991E0CF
:103110000BC085E791E008C086E891E005C08BE828
:1031200091E002C081E991E00E94560E8FE991E0A2
:103130000E94560E85EC93E00E94630942E00E94D3
:10314000830A86E591E00E94440E09EB11E089EACA
:1031500091E00E94560ED8016D917D918D919D91C7
:103160008D0142E00E94830AE9ECF1E0E017F107EB
:1031700071F786E591E00E94440E8CE0E9EEF3E001
:10318000DE01119601900D928A95E1F7CE0101962C
:103190000E94C9088C018CE0E5EFF3E0DE01959612
:1031A00001900D928A95E1F7CE0185960E94C9089B
:1031B0006C01990FEE08FF084801110FAA08BB081F
:1031C000B301A201481959096A097B0914161506A9
:1031D0001606170634F0B501A4014B5451096109D4
:1031E0007109D301C2018C199D09AE09BF091816D6
:1031F00019061A061B0634F0D701C6018B54910933
:10320000A109B1098A019B01080F191F2A1F3B1F41
:10321000C901B80122E030E040E050E00E94571BB5
:1032200016E481169104A104B1045CF461E5C616AC
:10323000D104E104F10474F1A4E6B0E00E94761B2D
:1032400010C081E588169104A104B1041CF196E434
:10325000C916D104E104F104ECF4ACE9BFEF0E941B
:10326000841BA30192010E94571B3093D501209328
:10327000D401B901330F880B990B97FD08C04AE0C0
:103280000E94210F86E591E00E94440E11C00E9429
:10329000620FF8CFD501C40187549109A109B10982
:1032A0000997A105B10520F41092D5011092D4011F
:1032B000A0E0B0E0AB2B09F4B9CD0E940000B6CD80
:1032C00086169706A806B90608F095CE9CCECF9331
:1032D000DF93EC011882198281E08A8361E080E04B
:1032E0000E94310360E089810E94310380E29EE404
:1032F000A0E0B0E08F839887A987BA878091910278
:103300008C3098F491E0980F9093910289A390E00B
:10331000FC01EE0FFF1F8E0F9F1FFC01E359FD4FB5
:1033200088EB9BE09283818302C08FEF89A3DF91BA
:10333000CF910895EFEFF2E01382128288EE93E0CE
:10334000A0E0B0E084839583A683B78327E231E0D1
:10335000318320832FEF3FEF35872487EFE4F3E0BD
:103360001682178210861186128613861486158699
:1033700016861786108A118A128A138A148A158A69
:10338000E5E9F3E01382128284839583A683B783F1
:1033900089E391E091838083EDE3F4E089E2818326
:1033A000138212821482E1E3F4E081831382128299
:1033B0001482E5E2F4E08183138212821482E9E14F
:1033C000F4E081831382128214828CE0EDE3F4E056
:1033D000A9EEB3E001900D928A95E1F78CE0E1E36C
:1033E000F4E0A5EFB3E001900D928A95E1F78CE04F
:1033F000E5E2F4E0A1E0B4E001900D928A95E1F7F6
:103400008CE0E9E1F4E0ADE0B4E001900D928A9542
:10341000E1F785EC93E00E94671981EA93E00C9450
:1034200067190E94531A08F481E00895E89409C0CE
:1034300097FB3EF490958095709561957F4F8F4FE7
:103440009F4F9923A9F0F92F96E9BB279395F695FD
:10345000879577956795B795F111F8CFFAF4BB0F7B
:1034600011F460FF1BC06F5F7F4F8F4F9F4F16C0DF
:10347000882311F096E911C0772321F09EE8872F69
:10348000762F05C0662371F096E8862F70E060E025
:103490002AF09A95660F771F881FDAF7880F96959E
:1034A000879597F90895990F0008550FAA0BE0E842
:1034B000FEEF16161706E807F907C0F012161306F6
:1034C000E407F50798F0621B730B840B950B39F436
:1034D0000A2661F0232B242B252B21F408950A269C
:1034E00009F4A140A6958FEF811D811D08950E94CA
:1034F0008A1A0C94FB1A0E94ED1A38F00E94F41AF2
:1035000020F0952311F00C94E41A0C94EA1A11247B
:103510000C942F1B0E940C1B70F3959FC1F3950F09
:1035200050E0551F629FF001729FBB27F00DB11D47
:10353000639FAA27F00DB11DAA1F649F6627B00DD7
:10354000A11D661F829F2227B00DA11D621F739FC0
:10355000B00DA11D621F839FA00D611D221F749FCE
:103560003327A00D611D231F849F600D211D822F15
:10357000762F6A2F11249F5750409AF0F1F088233C
:103580004AF0EE0FFF1FBB1F661F771F881F915069
:103590005040A9F79E3F510580F00C94E41A0C941A
:1035A0002F1B5F3FE4F3983ED4F38695779567959C
:1035B000B795F795E7959F5FC1F7FE2B880F911D93
:1035C0009695879597F9089597F99F6780E870E039
:1035D00060E008959FEF80EC089500240A94161689
:1035E000170618060906089500240A9412161306F1
:1035F000140605060895092E0394000C11F488237F
:1036000052F0BB0F40F4BF2B11F460FF04C06F5F9A
:103610007F4F8F4F9F4F089557FD9058440F551F70
:1036200059F05F3F71F04795880F97FB991F61F044
:103630009F3F79F087950895121613061406551FBB
:10364000F2CF4695F1DF08C0161617061806991F27
:10365000F1CF86957105610508940895E894BB271C
:1036600066277727CB0197F90895A1E21A2EAA1BA6
:10367000BB1BFD010DC0AA1FBB1FEE1FFF1FA21722
:10368000B307E407F50720F0A21BB30BE40BF50B1F
:10369000661F771F881F991F1A9469F760957095A8
:1036A000809590959B01AC01BD01CF010895052E39
:1036B00097FB1EF400940E946E1B57FD07D00E94DA
:1036C000351B07FC03D04EF40C946E1B50954095AF
:1036D000309521953F4F4F4F5F4F089590958095BE
:1036E000709561957F4F8F4F9F4F08950E94891B62
:1036F000A59F900DB49F900DA49F800D911D112446
:103700000895B7FF0C94761B0E94761B821B930BC7
:103710000895A29FB001B39FC001A39F700D811DAA
:103720001124911DB29F700D811D1124911D0895CA
:103730005058BB27AA270E94B01B0C94FB1A0E946A
:10374000ED1A38F00E94F41A20F039F49F3F19F472
:1037500026F40C94EA1A0EF4E095E7FB0C94E41AB4
:10376000E92F0E940C1B58F3BA17620773078407EE
:10377000950720F079F4A6F50C942E1B0EF4E09535
:103780000B2EBA2FA02D0B01B90190010C01CA011B
:10379000A0011124FF27591B99F0593F50F4503EC6
:1037A00068F11A16F040A22F232F342F4427585FB8
:1037B000F3CF469537952795A795F0405395C9F7D0
:1037C0007EF41F16BA0B620B730B840BBAF0915088
:1037D000A1F0FF0FBB1F661F771F881FC2F70EC027
:1037E000BA0F621F731F841F48F4879577956795FA
:1037F000B795F7959E3F08F0B0CF9395880F08F0E6
:103800009927EE0F9795879508950E94191C0C949F
:10381000FB1A0E94F41A58F00E94ED1A40F029F4A5
:103820005F3F29F00C94E41A51110C942F1B0C9457
:10383000EA1A0E940C1B68F39923B1F3552391F304
:10384000951B550BBB27AA2762177307840738F00F
:103850009F5F5F4F220F331F441FAA1FA9F335D06C
:103860000E2E3AF0E0E832D091505040E695001C20
:10387000CAF72BD0FE2F29D0660F771F881FBB1FDA
:10388000261737074807AB07B0E809F0BB0B802DB8
:10389000BF01FF2793585F4F3AF09E3F510578F0E4
:1038A0000C94E41A0C942F1B5F3FE4F3983ED4F37E
:1038B000869577956795B795F7959F5FC9F7880FB8
:1038C000911D9695879597F90895E1E0660F771F0A
:1038D000881FBB1F621773078407BA0720F0621B9B
:1038E000730B840BBA0BEE1F88F7E09508950E94C6
:1038F000141B88F09F5798F0B92F9927B751B0F053
:10390000E1F0660F771F881F991F1AF0BA95C9F763
:1039100014C0B13091F00E942E1BB1E008950C94B8
:103920002E1B672F782F8827B85F39F0B93FCCF36B
:10393000869577956795B395D9F73EF490958095E0
:10394000709561957F4F8F4F9F4F08950E94531A36
:1039500008F48FEF08950E94531A880B990B08956D
:10396000AA1BBB1B51E107C0AA1FBB1FA617B707A5
:1039700010F0A61BB70B881F991F5A95A9F78095C1
:103980009095BC01CD010895EE0FFF1F0590F491B5
:10399000E02D09942A193B094C095D096E097F093C
:1039A000800B910B08950024A7FD00942A17300581
:1039B000400550056005700580059005089581E07B
:0C39C00090E0F8940C94E41CF894FFCF05
:1039CC00FFFFFFFF00E100000000000030003100AD
:1039DC0032003300020004000800100000C1808196
:1039EC00000000000000000D01A703680223012E57
:1039FC000190026C0200000000350208026502DC36
:103A0C00010002EC01DD01564D4450565F317C3112
:103A1C005F564D4450560D0A00564D4450455F00BC
:103A2C003A323A007C005F564D4450450053746165
:103A3C0074653A2000464F5257415244004241436C
:103A4C004B57415244004C45465400524947485448
:103A5C000053544F50005343414E4E494E47002C97
:103A6C002041667374616E643A20006E616E006969
:083A7C006E66006F7666000023
:00000001FF
