:1000000014C1000042C1000040C100003EC1000018
:100010003CC100003AC1000038C1000036C10000F8
:1000200034C1000032C1000030C100002EC1000008
:100030002CC100002AC1000028C1000026C1000018
:1000400024C100008CC6000020C100001EC10000B9
:100050001CC100001AC1000018C10000AFC500009B
:1000600014C1000075C500004AC500000EC10000A3
:100070000CC100000AC1000008C1000006C1000058
:1000800041C6000002C1000000C10000FEC0000027
:10009000FCC00000FAC00000F8C00000F6C000007C
:1000A000F4C00000F2C0000000C60000EEC0000076
:1000B000ECC00000EAC00000E8C00000C9C50000B4
:1000C000E4C00000E2C00000E0C00000DEC00000AC
:1000D000DCC00000DAC00000D8C00000D6C00000BC
:1000E000D4C000009B029E028D0291029702D502AD
:1000F000A202A602AC02B002B402BA02BE02C2025E
:10010000D502C802CC02D002000021002400270042
:100110002A002D0030003300010100000401070116
:100120000A0100002200250028002B002E003100CB
:10013000340002010000050108010B01000020004D
:100140002300260029002C002F00320000010000AF
:10015000030106010901050505050705080808084A
:10016000020202020A0A080804040404010101014F
:10017000010101010303030303030303040707074A
:100180000C0C0C0C0C0C0C0C0202020206060606EF
:10019000060606060B0B0B0B0B0B0B0B01021020BC
:1001A00020080810204010204080020102010804AD
:1001B0000201010204081020408080402010080441
:1001C000020180040201804020100804020108049A
:1001D00002010102040810204080010204081020DE
:1001E000408000000A0B02090C0D0E0807030401F1
:1001F00000000000000000000000000000000000FF
:1002000000000000000000000000000000001211CB
:1002100010000000000000000000000000000000CE
:1002200000000000000000000D0711241FBECFEFEA
:10023000D1E2DEBFCDBF00E00CBF12E0A0E0B2E033
:10024000ECE7F3E100E00BBF02C007900D92A8338A
:10025000B107D9F724E0A8E3B2E001C01D92A931AB
:10026000B207E1F711E0C5E1D1E000E006C0219757
:100270000109802FFE010E94B009C431D10780E03E
:100280000807A9F70ED60C94BC09BACECF92DF921C
:10029000EF92FF920F931F93CF93DF936C017A013C
:1002A0008B01C0E0D0E0CE15DF0581F0D8016D9163
:1002B0008D01D601ED91FC910190F081E02DC601F8
:1002C0001995892B11F02196EECF7E01C701DF91A0
:1002D000CF911F910F91FF90EF90DF90CF900895F5
:1002E000089580E090E00895FC01538D448D252F02
:1002F00030E0842F90E0821B930B541710F0CF96C0
:10030000089501970895FC01918D828D981761F0F1
:10031000828DDF01A80FB11D5D968C91928D9F5F3C
:100320009F73928F90E008958FEF9FEF0895FC01E7
:10033000918D828D981731F0828DE80FF11D858D9A
:1003400090E008958FEF9FEF0895FC01918D228D2D
:10035000892F90E0805C9F4F821B91098F739927B2
:1003600008958AED92E0F1DF21E0892B09F420E085
:10037000822F0895FC01848DDF01A80FB11DA35ABF
:10038000BF4F2C91848D90E001968F739927848FB5
:10039000A689B7892C93A089B1898C9183708064D8
:1003A0008C93938D848D981306C00288F389E02D79
:1003B00080818F7D80830895EF92FF920F931F932A
:1003C000CF93DF93EC0181E0888F9B8D8C8D981308
:1003D00005C0E889F989808185FD25C0F62E0B8D41
:1003E00010E00F5F1F4F0F731127E02E8C8DE81266
:1003F0000BC00FB607FCFACFE889F989808185FF29
:10040000F5CFCE01B7DFF2CF8B8DFE01E80FF11DE6
:10041000E35AFF4FF0829FB7F8940B8FEA89FB896C
:10042000808180620AC09FB7F894EE89FF8960835B
:10043000E889F98980818370806480839FBF81E02F
:1004400090E0DF91CF911F910F91FF90EF90089571
:10045000CF93DF93EC01888D8823C1F0EA89FB8973
:10046000808185FD05C0A889B9898C9186FD0EC063
:100470000FB607FCF5CF808185FFF2CFA889B98937
:100480008C9185FFEDCFCE0175DFE8CFDF91CF9165
:10049000089580E090E0892B19F063DF811125C079
:1004A00080E090E0892B41F080E090E0892B21F002
:1004B0000E94000081111CC080E090E0892B41F077
:1004C00080E090E0892B21F00E940000811113C090
:1004D00080E090E0892BA1F080E090E0892B81F012
:1004E0000E94000081110AC008950E940000D8CF28
:1004F0000E940000E1CF0E940000EACF0C940000AF
:10050000089590E0FC013197E231F10508F04DC00B
:100510008827EE58FF4F8F4F23C7809180008F7739
:1005200003C0809180008F7D80938000089580912A
:100530008000877FF9CF84B58F7702C084B58F7D27
:1005400084BD08958091B0008F7703C08091B00082
:100550008F7D8093B0000895809190008F7707C0C1
:10056000809190008F7D03C080919000877F809361
:10057000900008958091A0008F7707C08091A0001F
:100580008F7D03C08091A000877F8093A000089595
:10059000809120018F7707C0809120018F7D03C05B
:1005A00080912001877F809320010895CF93DF936E
:1005B000282F30E0F901EE51FE4F8491F901E45605
:1005C000FE4FD491F901EA5AFE4FC491CC2389F031
:1005D000811197DFEC2FF0E0EE0FFF1FE45CFE4F80
:1005E000A591B491EC91ED2381E090E021F480E0BD
:1005F00002C080E090E0DF91CF9108951F93CF93E8
:10060000DF93282F30E0F901EE51FE4F8491F9017C
:10061000E456FE4FD491F901EA5AFE4FC491CC231F
:10062000B9F0162F81116DDFEC2FF0E0EE0FFF1FF8
:10063000EE5DFE4FA591B4919FB7F894111104C0DF
:100640008C91D095D82302C0EC91DE2BDC939FBF18
:10065000DF91CF911F910895CF93DF9390E0FC013C
:10066000E456FE4F2491FC01EA5AFE4F8491882300
:1006700061F190E0880F991FFC01E85FFE4FC59182
:10068000D491FC01EE5DFE4FA591B491611109C0BA
:100690009FB7F8948881209582238883EC912E233C
:1006A0000BC0623061F49FB7F8948881322F309587
:1006B00083238883EC912E2B2C939FBF06C08FB78A
:1006C000F894E8812E2B28838FBFDF91CF91089576
:1006D0003FB7F8948091410290914202A091430269
:1006E000B091440226B5A89B05C02F3F19F0019692
:1006F000A11DB11D3FBFBA2FA92F982F8827820FA8
:10070000911DA11DB11DBC01CD0142E0660F771FF7
:10071000881F991F4A95D1F708952FB7F8946091D3
:100720003D0270913E0280913F02909140022FBFA6
:1007300008950F931F93CF93DF93EC018A81882351
:1007400019F061E0888188DF60E0888157DF83E00D
:1007500090E00197F1F761E0888150DF83E290E05B
:100760000197F1F760E0888149DF8A81882319F0D9
:1007700060E0888171DFACDF6B837C838D839E8337
:10078000898114DF892BA1F4A3DF0B811C812D81CA
:100790003E81DC01CB01801B910BA20BB30B0F81BF
:1007A000188529853A85081719072A073B0740F756
:1007B0008FDF6B837C838D839E838981F7DE892B1A
:1007C000A1F086DF0B811C812D813E81DC01CB01F4
:1007D000801B910BA20BB30B0F81188529853A85DD
:1007E000081719072A073B0740F772DF2B813C8166
:1007F000CB01821B930BDF91CF911F910F91089535
:10080000CF93DF93EC01862F6883498391E06413D3
:1008100090E09A8361E020DF60E089811DDF80E263
:100820009EE4A0E0B0E08F839887A987BA87809183
:10083000D902803398F491E0980F9093D9028AA757
:1008400090E0FC01EE0FFF1F8E0F9F1FFC01E75B86
:10085000FD4F88EB9BE09283818302C08FEF8AA7D4
:1008600019A6CE0166DF68E370E066D5FE013B960F
:10087000CE01899661937193E817F907D9F71DA600
:10088000DF91CF910895CF92DF92EF92FF920F9375
:100890001F93CF93DF936C018B017A01EC01C85C4D
:1008A000DD4F888187FF04C0FB011182108224C0C4
:1008B0002CE02C9DC0012D9D900D11242881AC01B0
:1008C000420F511D27FD5A952091D90230E0421761
:1008D000530794F42881AC01420F511D27FD5A950E
:1008E0009A01FA01EE0FFF1F2E0F3F1FF901E75B80
:1008F000FD4F208126FD19C088818F5F88832CE001
:100900002C9DC0012D9D900D11242881AC01420F1A
:10091000511D27FD5A952091D90230E04217530707
:10092000B4F428812C303CF112C02881820F911D33
:1009300027FD9A95FC01EE0FFF1F8E0F9F1FFC01F4
:10094000E75BFD4F808160E08F7358DED5CFF80103
:1009500080819181049680349C4918F480E49CE95C
:1009600004C0F801808191810496F701918380830E
:100970008FEF888344C0F801408151812881BC01F8
:10098000620F711D27FD7A959B01FB01EE0FFF1F82
:100990002E0F3F1FF901E75BFD4F21813281240FAC
:1009A000351FF701318320832881AC01420F511D8F
:1009B00027FD5A959A01FA01EE0FFF1F2E0F3F1FD8
:1009C000F901E75BFD4F208126FF19C02881820FC6
:1009D000911D27FD9A95FC01EE0FFF1F8E0F9F1FA3
:1009E000FC01E75BFD4F808161E08F73DF91CF9168
:1009F0001F910F91FF90EF90DF90CF90FFCDDF918F
:100A0000CF911F910F91FF90EF90DF90CF900895BD
:100A10000F931F93CF93DF93EC0189A58F3008F0DC
:100A200019A609A510E0CE0184DE000F111FFE01FA
:100A3000E00FF11F68E370E07FD47487638789A5B6
:100A400091E0980F99A7C80FD11DC80FD11D8B85B4
:100A50009C85DF91CF911F910F910895009761F0D0
:100A6000FC0101900020E9F73197AF01481B590BB9
:100A7000BC018AED92E00ACC80E090E008958F926C
:100A80009F92AF92BF920F931F93CF93DF93CDB7F7
:100A9000DEB7A1970FB6F894DEBF0FBECDBF19A287
:100AA000423008F44AE08E010F5D1F4F842E912CD6
:100AB000A12CB12CA50194011DD4E62FB901CA01C6
:100AC00001501109EA3014F4E05D01C0E95CD8017D
:100AD000EC93232B242B252B69F7C801BFDFA196AC
:100AE0000FB6F894DEBF0FBECDBFDF91CF911F913F
:100AF0000F91BF90AF909F908F90089539D41F921F
:100B00000F920FB60F9211240BB60F922F933F93B3
:100B10004F935F936F937F938F939F93AF93BF9305
:100B2000EF93FF938AED92E025DCFF91EF91BF9167
:100B3000AF919F918F917F916F915F914F913F9175
:100B40002F910F900BBE0F900FBE0F901F90189516
:100B50001F920F920FB60F9211240BB60F922F9384
:100B60008F939F93EF93FF93E091EA02F091EB0252
:100B70008081E091F002F091F10282FD12C090813B
:100B80008091F3028F5F8F732091F402821751F0EE
:100B9000E091F302F0E0E652FD4F958F8093F3026F
:100BA00001C08081FF91EF919F918F912F910F90C4
:100BB0000BBE0F900FBE0F901F9018951F920F92B3
:100BC0000FB60F9211242F933F938F939F93AF9360
:100BD000BF9380913D0290913E02A0913F02B0915F
:100BE000400230913C0223E0230F2D3720F4019680
:100BF000A11DB11D05C026E8230F0296A11DB11D40
:100C000020933C0280933D0290933E02A0933F02CA
:100C1000B09340028091410290914202A091430220
:100C2000B09144020196A11DB11D809341029093A1
:100C30004202A0934302B0934402BF91AF919F91AF
:100C40008F913F912F910F900FBE0F901F9018958D
:100C50001F920F920FB60F9211240BB60F922F9383
:100C60003F934F935F936F937F938F939F93AF9334
:100C7000BF93EF93FF9348E251E064E271E080E0BC
:100C800090E001DEFF91EF91BF91AF919F918F9125
:100C90007F916F915F914F913F912F910F900BBE7C
:100CA0000F900FBE0F901F9018951F920F920FB6C6
:100CB0000F9211240BB60F922F933F934F935F9394
:100CC0006F937F938F939F93AF93BF93EF93FF9314
:100CD00048EA50E064EA70E083E090E0D4DDFF9100
:100CE000EF91BF91AF919F918F917F916F915F91A4
:100CF0004F913F912F910F900BBE0F900FBE0F9011
:100D00001F9018951F920F920FB60F9211240BB6D9
:100D10000F922F933F934F935F936F937F938F9394
:100D20009F93AF93BF93EF93FF9348E950E064E93B
:100D300070E082E090E0A7DDFF91EF91BF91AF916D
:100D40009F918F917F916F915F914F913F912F91E3
:100D50000F900BBE0F900FBE0F901F9018951F9213
:100D60000F920FB60F9211240BB60F922F933F9351
:100D70004F935F936F937F938F939F93AF93BF93A3
:100D8000EF93FF9348E850E064E870E081E090E082
:100D90007ADDFF91EF91BF91AF919F918F917F91FC
:100DA0006F915F914F913F912F910F900BBE0F90DC
:100DB0000FBE0F901F901895CF93DF93EC01188210
:100DC000198281E08A8361E080E046DC60E089810D
:100DD00043DC80E29EE4A0E0B0E08F839887A9879F
:100DE000BA878091D902803398F491E0980F90935C
:100DF000D9028AA790E0FC01EE0FFF1F8E0F9F1F04
:100E0000FC01E75BFD4F88EB9BE09283818302C08E
:100E10008FEF8AA7DF91CF910895EAEDF2E0138278
:100E2000128288EE93E0A0E0B0E084839583A683ED
:100E3000B78384E092E09183808385EC90E095878E
:100E4000848784EC90E09787868780EC90E0918B94
:100E5000808B81EC90E0938B828B82EC90E0958B81
:100E6000848B86EC90E0978B868B118E128E138E7E
:100E7000148EE7E7F3E01682178210861186128639
:100E800013861486158616861786108A118A128A8A
:100E9000138A148A158A8BEE93E08EDF8DEB93E034
:100EA0008BCFCF93DF93CDB7DEB7AE970FB6F89465
:100EB000DEBF0FBECDBF789484B5826084BD84B59B
:100EC000816084BD85B5826085BD85B5816085BD45
:100ED00080916E00816080936E00109281008091FD
:100EE0008100826080938100809181008160809385
:100EF0008100809180008160809380008091B100AA
:100F000084608093B1008091B00081608093B000D4
:100F10008091910082608093910080919100816026
:100F200080939100809190008160809390008091E7
:100F3000A10082608093A1008091A10081608093D4
:100F4000A1008091A00081608093A0008091210188
:100F50008260809321018091210181608093210131
:100F60008091200181608093200180917A008460CB
:100F700080937A0080917A00826080937A008091D9
:100F80007A00816080937A0080917A0080688093F3
:100F90007A001092C1001092B9031092BA03109215
:100FA000BB031092BC031092790310927A03109243
:100FB0007B0310927C03B1DB6B017C014B015C0174
:100FC00028EB820E2BE0921EA11CB11CA6DB6C1537
:100FD0007D058E059F0528F086169706A806B9069A
:100FE000A8F776DB4B015C0190EDC92E97E0D92E76
:100FF000E12CF12C6DDBDC01CB0188199909AA09E0
:10100000BB09883E9340A105B105A0F331E0C31AA6
:10101000D108E108F10848EE840E43E0941EA11CBB
:10102000B11CC114D104E104F10421F7E091EA02FA
:10103000F091EB0282E08083E091E602F091E7021A
:101040001082E091E802F091E90280E18083109241
:10105000F202E091EE02F091EF0286E08083E091EF
:10106000EC02F091ED02808180618083E091EC02DE
:10107000F091ED02808188608083E091EC02F09134
:10108000ED02808180688083E091EC02F091ED02B6
:1010900080818F7D808341DB6093790370937A0335
:1010A00080937B0390937C0382E192E0D7DC35DB75
:1010B0006B017C014B015C018AE0880E911CA11C34
:1010C000B11C2BDB6C157D058E059F0528F086165F
:1010D0009706A806B906A8F781E080938D0347E03C
:1010E00066E0CE0101968CDB8EE2FE013196ABEE1E
:1010F000B3E001900D928A95E1F742E062E0CE0103
:1011000001967EDB8EE2FE013196ADEBB3E00190FD
:101110000D928A95E1F784EF882E99249394A12C5F
:10112000B12CFBDA672B682B692B39F4F6DA6230C5
:1011300071058105910508F4CFC0EFDAC090450232
:10114000D0904602E0904702F09048026C157D0571
:101150008E059F0540F4609345027093460280938C
:10116000470290934802C0904502D0904602E0901A
:101170004702F09048029B01AC012C193D094E0931
:101180005F0969017A013AEFC316D104E104F10461
:1011900008F4A2C060934502709346028093470210
:1011A000909348028092850390928603A0928703D1
:1011B000B09288031092890310928A0310928B03D5
:1011C00010928C0380917D0390917E03A0917F0308
:1011D000B09180038093810390938203A093830353
:1011E000B09384039ADA60937D0370937E038093B7
:1011F0007F039093800391DA6093790370937A036D
:1012000080937B0390937C0388DA6B017C0184E2FA
:1012100092E024DC4AE061E070E080E090E02FDCC6
:101220008BE292E01BDC4AE0C701B60128DC8DE2CC
:1012300092E014DC80917D0390917E03A0917F0366
:10124000B0918003A7019601281B390B4A0B5B0B59
:10125000CA01B9014AE013DC8DE292E0FFDB809124
:101260007D0390917E03A0917F03B0918003C09095
:101270008103D0908203E0908303F0908403BC014B
:10128000CD016C197D098E099F094AE0F8DB8FE2D8
:1012900092E0E4DB42DA4AE0F2DB81E392E0DEDB7B
:1012A00081E292E0DBDB39DA6B017C012B013C014E
:1012B00035E0430E511C611C711C2FDA6C157D0545
:1012C0008E059F0588F429DA60937D0370937E0371
:1012D00080937F03909380038BEE93E099DB8DEBFB
:1012E00093E096DBD6D81DCF4616570668067906DA
:1012F00020F7E9CFA1E21A2EAA1BBB1BFD010DC0EE
:10130000AA1FBB1FEE1FFF1FA217B307E407F507B5
:1013100020F0A21BB30BE40BF50B661F771F881F91
:10132000991F1A9469F760957095809590959B0127
:10133000AC01BD01CF010895AA1BBB1B51E107C041
:10134000AA1FBB1FA617B70710F0A61BB70B881F55
:10135000991F5A95A9F780959095BC01CD010895E4
:10136000EE0FFF1F881F8BBF0790F691E02D199499
:0C13700081E090E0F89400C0F894FFCFFA
:10137C0000000000DC01460174012802A501830174
:10138C009701564D4450565F317C315F564D445059
:10139C00560D0A00564D4450455F003A323A007CD7
:0813AC00005F564D445045005E
:00000001FF
