:1000000014C1000043C1000041C100003FC1000015
:100010003DC100003BC1000039C1000037C10000F4
:1000200035C1000033C1000031C100002FC1000004
:100030002DC100002BC1000029C1000027C1000014
:1000400025C10000C1C6000021C100001FC1000081
:100050000C94730A1BC1000019C100007DC500008B
:1000600015C10000A8C300007DC300000FC100003F
:100070000DC100000BC1000009C1000007C1000054
:1000800076C6000003C1000001C10000FFC00000EF
:10009000FDC00000FBC00000F9C00000C2C60000A7
:1000A000F5C00000F3C0000035C60000EFC000003E
:1000B000EDC00000EBC00000E9C00000FEC500007C
:1000C000E5C00000E3C00000E1C00000DFC00000A8
:1000D000DDC00000DBC00000D9C00000D7C00000B8
:1000E000D5C000006F027202610265026B02A902B4
:1000F00076027A028002840288028E0292029602BE
:10010000A9029C02A002A4020000210024002700F2
:100110002A002D0030003300010100000401070116
:100120000A0100002200250028002B002E003100CB
:10013000340002010000050108010B01000020004D
:100140002300260029002C002F00320000010000AF
:10015000030106010901050505050705080808084A
:10016000020202020A0A080804040404010101014F
:10017000010101010303030303030303040707074A
:100180000C0C0C0C0C0C0C0C0202020206060606EF
:10019000060606060B0B0B0B0B0B0B0B01021020BC
:1001A00020080810204010204080020102010804AD
:1001B0000201010204081020408080402010080441
:1001C000020180040201804020100804020108049A
:1001D00002010102040810204080010204081020DE
:1001E000408000000A0B02090C0D0E0807030401F1
:1001F00000000000000000000000000000000000FF
:1002000000000000000000000000000000001211CB
:1002100010000000000000000000000000000000CE
:100220000000000000000000841611241FBECFEF64
:10023000D1E2DEBFCDBF00E00CBF12E0A0E0B2E033
:10024000EEE7F3E300E00BBF02C007900D92A43A83
:10025000B107D9F725E0A4EAB2E001C01D92AB3D99
:10026000B207E1F711E0C5E1D1E000E006C0219757
:100270000109802FFE010E949C19C431D10780E042
:100280000807A9F70E94A10E0C94BD19B9CEFC0174
:10029000538D448D252F30E0842F90E0821B930BEB
:1002A000541710F0CF96089501970895FC01918D91
:1002B000828D981761F0828DDF01A80FB11D5D96C8
:1002C0008C91928D9F5F9F73928F90E008958FEF36
:1002D0009FEF0895FC01918D828D981731F0828DEA
:1002E000E80FF11D858D90E008958FEF9FEF089541
:1002F000FC01918D228D892F90E0805C9F4F821BA5
:1003000091098F739927089584E494E0F1DF21E047
:10031000892B09F420E0822F0895FC01848DDF01F0
:10032000A80FB11DA35ABF4F2C91848D90E0019668
:100330008F739927848FA689B7892C93A089B18957
:100340008C91837080648C93938D848D981306C0F8
:100350000288F389E02D80818F7D80830895EF925C
:10036000FF920F931F93CF93DF93EC0181E0888F6F
:100370009B8D8C8D981305C0E889F989808185FD56
:1003800025C0F62E0B8D10E00F5F1F4F0F73112746
:10039000E02E8C8DE8120BC00FB607FCFACFE8896F
:1003A000F989808185FFF5CFCE01B7DFF2CF8B8D44
:1003B000FE01E80FF11DE35AFF4FF0829FB7F8945A
:1003C0000B8FEA89FB89808180620AC09FB7F8940D
:1003D000EE89FF896083E889F98980818370806470
:1003E00080839FBF81E090E0DF91CF911F910F91BB
:1003F000FF90EF900895CF93DF93EC01888D8823D1
:10040000C1F0EA89FB89808185FD05C0A889B98989
:100410008C9186FD0EC00FB607FCF5CF808185FF5D
:10042000F2CFA889B9898C9185FFEDCFCE0175DF18
:10043000E8CFDF91CF91089580E090E0892B19F00B
:1004400063DF811125C080E090E0892B41F080E0DE
:1004500090E0892B21F00E94000081111CC080E0F7
:1004600090E0892B41F080E090E0892B21F00E9400
:100470000000811113C080E090E0892BA1F080E0A2
:1004800090E0892B81F00E94000081110AC008953C
:100490000E940000D8CF0E940000E1CF0E9400001F
:1004A000EACF0C940000089590E0FC013197E2310E
:1004B000F10508F04EC08827EE58FF4F8F4F0C947F
:1004C0009C19809180008F7703C0809180008F7D80
:1004D00080938000089580918000877FF9CF84B554
:1004E0008F7702C084B58F7D84BD08958091B00060
:1004F0008F7703C08091B0008F7D8093B000089506
:10050000809190008F7707C0809190008F7D03C00D
:1005100080919000877F8093900008958091A00043
:100520008F7707C08091A0008F7D03C08091A000CD
:10053000877F8093A0000895809120018F7707C066
:10054000809120018F7D03C080912001877F80935F
:10055000200108953FB7F89480914203909143039E
:10056000A0914403B091450326B5A89B05C02F3F39
:1005700019F00196A11DB11D3FBFBA2FA92F982FC9
:100580008827820F911DA11DB11DBC01CD0142E044
:10059000660F771F881F991F4A95D1F7089585ED3B
:1005A0008093BC008091BC0084FDFCCF10921F049E
:1005B000089540911603262F30E0240F311D21327B
:1005C0003105DCF420911F042430C9F4FC0180E0E3
:1005D00090E0861758F4309116032191DC01AA505F
:1005E000BD4FA30FB11D2C930196F3CF809116033D
:1005F000680F6093160380E0089581E0089582E01B
:1006000008950895E091D8038091D703E81730F456
:10061000F0E0E752FC4F808190E008958FEF9FEF6C
:1006200008959091D8038091D703981750F4E92F3B
:10063000F0E0E752FC4F208130E09F5F9093D803B9
:1006400002C02FEF3FEFC90108958091D70390E0DA
:100650002091D803821B91090895CF92DF92EF92E7
:10066000FF920F931F93CF93DF937C01CB018A01FD
:1006700020912004222389F0EB016B01C40ED51ECA
:10068000CC15DD0561F06991D701ED91FC910190E8
:10069000F081E02DC7011995F3CF642F8ADFC801DF
:1006A000DF91CF911F910F91FF90EF90DF90CF904E
:1006B0000895CF93DF931F92CDB7DEB76983209162
:1006C00020042223D1F020914304203240F021E085
:1006D00030E0FC013383228380E090E014C08091FD
:1006E0002104E82FF0E0EE5DFB4F998190838F5F4E
:1006F000809321048093430404C061E0CE010196FD
:1007000058DF81E090E00F90DF91CF910895089538
:1007100080E090E008950E94B919CF93DF93EC0137
:10072000898191E0909320048093420410922104E7
:100730001092430487E295E0BCDF81E0B3D7888361
:1007400062E089810E94AE0B87E295E06ADFD82FD4
:1007500080E0C82F87E295E064DF8C2B9D2BDF9132
:10076000CF9108951F920F920FB60F9211240BB6DE
:100770000F922F933F934F935F936F937F938F933A
:100780009F93AF93BF93EF93FF9384E494E0C5DD11
:10079000FF91EF91BF91AF919F918F917F916F9159
:1007A0005F914F913F912F910F900BBE0F900FBE15
:1007B0000F901F9018951F920F920FB60F92112451
:1007C0000BB60F922F938F939F93EF93FF93E0912C
:1007D0005404F09155048081E0915A04F0915B0437
:1007E00082FD12C0908180915D048F5F8F73209194
:1007F0005E04821751F0E0915D04F0E0EC5BFB4F8A
:10080000958F80935D0401C08081FF91EF919F914E
:100810008F912F910F900BBE0F900FBE0F901F90D6
:100820001895CF93DF93282F30E0F901EE51FE4F5A
:100830008491F901E456FE4FD491F901EA5AFE4F32
:10084000C491CC2389F081112FDEEC2FF0E0EE0F64
:10085000FF1FE45CFE4FA591B491EC91ED2381E084
:1008600090E021F480E002C080E090E0DF91CF9141
:1008700008951F93CF93DF93282F30E0F901EE51B5
:10088000FE4F8491F901E456FE4FD491F901EA5AE2
:10089000FE4FC491CC23B9F0162F811105DEEC2F49
:1008A000F0E0EE0FFF1FEE5DFE4FA591B4919FB7F4
:1008B000F894111104C08C91D095D82302C0EC910A
:1008C000DE2BDC939FBFDF91CF911F910895CF92D4
:1008D000DF92EF92FF920F931F93CF93DF936C0100
:1008E0008B017A01EC01C75CDC4F888187FF04C073
:1008F000FB011182108224C02CE02C9DC0012D9D93
:10090000900D11242881AC01420F511D27FD5A95ED
:100910002091D60330E04217530794F42881AC01AC
:10092000420F511D27FD5A959A01FA01EE0FFF1F44
:100930002E0F3F1FF901EA5BFC4F208126FD19C0F5
:1009400088818F5F88832CE02C9DC0012D9D900DA8
:1009500011242881AC01420F511D27FD5A95209189
:10096000D60330E042175307B4F428812C303CF111
:1009700012C02881820F911D27FD9A95FC01EE0F70
:10098000FF1F8E0F9F1FFC01EA5BFC4F808160E020
:100990008F736FDFD5CFF801808191810496803409
:1009A0009C4918F480E49CE904C0F801808191819D
:1009B0000496F701918380838FEF888344C0F80108
:1009C000408151812881BC01620F711D27FD7A95FC
:1009D0009B01FB01EE0FFF1F2E0F3F1FF901EA5B8A
:1009E000FC4F21813281240F351FF7013183208391
:1009F0002881AC01420F511D27FD5A959A01FA0139
:100A0000EE0FFF1F2E0F3F1FF901EA5BFC4F208105
:100A100026FF19C02881820F911D27FD9A95FC01A0
:100A2000EE0FFF1F8E0F9F1FFC01EA5BFC4F8081C2
:100A300061E08F73DF91CF911F910F91FF90EF9045
:100A4000DF90CF9016CFDF91CF911F910F91FF9044
:100A5000EF90DF90CF900895CF93DF9390E0FC016B
:100A6000E456FE4F2491FC01EA5AFE4F84918823FC
:100A700061F190E0880F991FFC01E85FFE4FC5917E
:100A8000D491FC01EE5DFE4FA591B491611109C0B6
:100A90009FB7F8948881209582238883EC912E2338
:100AA0000BC0623061F49FB7F8948881322F309583
:100AB00083238883EC912E2B2C939FBF06C08FB786
:100AC000F894E8812E2B28838FBFDF91CF91089572
:100AD0008F929F92AF92BF92CF92DF92EF92FF924E
:100AE0006B017C0137DD4B015C01C114D104E104D1
:100AF000F104E9F02FDDDC01CB0188199909AA097D
:100B0000BB09883E9340A105B10578F321E0C21AE4
:100B1000D108E108F10888EE880E83E0981EA11C38
:100B2000B11CC114D104E104F10421F7DECFFF9020
:100B3000EF90DF90CF90BF90AF909F908F900895EF
:100B40002FB7F89460913E0370913F03809140036A
:100B5000909141032FBF08951F920F920FB60F92ED
:100B600011242F933F938F939F93AF93BF938091C3
:100B70003E0390913F03A0914003B0914103309117
:100B80003D0323E0230F2D3720F40196A11DB11D55
:100B900005C026E8230F0296A11DB11D20933D0339
:100BA00080933E0390933F03A0934003B09341038F
:100BB0008091420390914303A0914403B091450377
:100BC0000196A11DB11D8093420390934303A0930E
:100BD0004403B0934503BF91AF919F918F913F9193
:100BE0002F910F900FBE0F901F9018950F931F938A
:100BF000CF93DF93EC018A81882319F061E088812B
:100C00002BDF60E0888135DE83E090E00197F1F72B
:100C100061E088812EDE83E290E00197F1F760E0E9
:100C2000888127DE8A81882319F060E0888114DFBB
:100C300091DC6B837C838D839E838981F2DD892B9C
:100C4000A1F488DC0B811C812D813E81DC01CB016C
:100C5000801B910BA20BB30B0F81188529853A8558
:100C6000081719072A073B0740F774DC6B837C835E
:100C70008D839E838981D5DD892BA1F06BDC0B816F
:100C80001C812D813E81DC01CB01801B910BA20BCD
:100C9000B30B0F81188529853A85081719072A078C
:100CA0003B0740F757DC2B813C81CB01821B930B28
:100CB000DF91CF911F910F9108951F920F920FB660
:100CC0000F9211240BB60F922F933F934F935F9384
:100CD0006F937F938F939F93AF93BF93EF93FF9304
:100CE00048E251E064E271E080E090E0F0DDFF91E5
:100CF000EF91BF91AF919F918F917F916F915F9194
:100D00004F913F912F910F900BBE0F900FBE0F9000
:100D10001F9018951F920F920FB60F9211240BB6C9
:100D20000F922F933F934F935F936F937F938F9384
:100D30009F93AF93BF93EF93FF9348EA50E064EA29
:100D400070E083E090E0C3DDFF91EF91BF91AF9140
:100D50009F918F917F916F915F914F913F912F91D3
:100D60000F900BBE0F900FBE0F901F9018951F9203
:100D70000F920FB60F9211240BB60F922F933F9341
:100D80004F935F936F937F938F939F93AF93BF9393
:100D9000EF93FF9348E950E064E970E082E090E06F
:100DA00096DDFF91EF91BF91AF919F918F917F91D0
:100DB0006F915F914F913F912F910F900BBE0F90CC
:100DC0000FBE0F901F9018951F920F920FB60F92A3
:100DD00011240BB60F922F933F934F935F936F9312
:100DE0007F938F939F93AF93BF93EF93FF9348E8C5
:100DF00050E064E870E081E090E069DDFF91EF9100
:100E0000BF91AF919F918F917F916F915F914F9122
:100E10003F912F910F900BBE0F900FBE0F901F9020
:100E200018951F920F920FB60F9211240BB60F92C6
:100E30002F933F934F935F936F937F938F939F93E2
:100E4000AF93BF93EF93FF938091B900887F803673
:100E500009F49CC068F5883209F45BC090F48031D5
:100E600009F454C038F4882309F4F2C0883009F436
:100E70004DC0F1C0883109F44CC0803209F45DC026
:100E8000EAC0803409F468C048F4803309F455C0DE
:100E9000883309F0E0C080931D04D4C0803509F484
:100EA0004FC0883509F45DC0883409F0D4C0D2C081
:100EB000883909F4C3C0A8F4883709F467C038F446
:100EC000883609F463C0803709F460C0C4C088382C
:100ED00009F4B4C0803909F45FC0803809F0BBC0A0
:100EE0005BC0803B09F484C038F4803A09F466C0E2
:100EF000883A09F47DC0AFC0803C09F4A3C0883CA7
:100F000009F4A0C0883B09F486C0A5C08091FA030B
:100F100010C090911C0480911B04981770F5E0910B
:100F20001C0481E08E0F80931C04F0E0E550FC4F20
:100F300080818093BB0085EC82C080931D048AC0B1
:100F4000E0911C0481E08E0F80931C048091BB0013
:100F5000F0E0E550FC4F808390911C0480911B04CD
:100F60006AC0E0911C0481E08E0F80931C04809184
:100F7000BB00F0E0E550FC4F808380911E0481119E
:100F800069C081E08093F90384EA5DC083E08093C7
:100F90001F0410923803CFCF80913803803208F0BD
:100FA0004DC0E091380381E08E0F8093380380912B
:100FB000BB00F0E0E85EFC4F8083BDCF85EC809302
:100FC000BC0010921F0480913803803230F4E0910D
:100FD0003803F0E0E85EFC4F10826091380370E067
:100FE00088E193E0E0E0F0E019951092380333C017
:100FF00084E080931F041092170310921603E0E020
:10100000F0E0199580911603811105C081E080936D
:1010100016031092F602E091170381E08E0F809381
:101020001703F0E0EA50FD4F80818093BB00909160
:10103000170380911603981708F47DCF85E88093F5
:10104000BC0009C085EC8093BC0010921F0403C053
:1010500010921D04A4DAFF91EF91BF91AF919F917F
:101060008F917F916F915F914F913F912F910F9051
:101070000BBE0F900FBE0F901F901895CF93DF936C
:10108000EC01898191E090932004809342041092B6
:1010900021041092430487E295E00BDB81E002D348
:1010A000888361E089815AD387E295E0BADADF91DB
:1010B000CF9108952F923F924F925F926F927F92BD
:1010C0008F929F92AF92BF92CF92DF92EF92FF9258
:1010D0000F931F93CF93DF9300D000D0CDB7DEB72F
:1010E0001C017E836D838A0160E5C8DF8F5F880FF6
:1010F00090E0F8019183808366E4C101BFDF282F6F
:1011000030E02F5F3F4F3A832983F80135832483F2
:10111000A081B0E020E03FE24AE350E00E9468187E
:101120004B015C01F4EF8F0EF1E09F1EA11CB11C7E
:1011300098EEC92E93E0D92EE12CF12CC501B40113
:10114000A70196010E942A18A981BA810E947218EB
:1011500069837A838B839C8320ED422E27E0522E75
:10116000612C712CC501B401A30192010E942A18BF
:1011700069817A818B819C81620F731F841F951F07
:10118000A70196010E942A18F80122873387448715
:10119000558761E5C101C1DA9C01332702C0220FE6
:1011A000331F9A95E2F72F5F3F4F3A832983F80167
:1011B00037832683A081B0E020E03FE24AE350E09D
:1011C0000E9468184B015C01F4EF8F0EF1E09F1E46
:1011D000A11CB11CC501B401A70196010E942A18E7
:1011E000A981BA810E94681869837A838B839C8362
:1011F000C501B401A30192010E942A1869817A8174
:101200008B819C81620F731F841F951FA70196011C
:101210000E942A18F80126873787408B518B60E798
:10122000C1012CDF8F5F880F90E0F80193838283E8
:1012300061E7C10172DA9C01992702C0880F991FEA
:101240003A95E2F70196F80191878087ED81FE815A
:101250002381222339F0F80126813781821B930BE9
:1012600091878087F801A281B0E020E03FE24AE365
:1012700050E00E9468186B017C01F4EFCF0EF1E0A2
:10128000DF1EE11CF11C88EE882E83E0982EA12C35
:10129000B12CC701B601A50194010E942A18F801DA
:1012A000A085B1850E9468182B013C01C701B601D9
:1012B00020ED37E040E050E00E942A18C301B2015F
:1012C000620F731F841F951FA50194010E942A18A5
:1012D000F801228B338B448B558B26960FB6F894EE
:1012E000DEBF0FBECDBFDF91CF911F910F91FF9059
:1012F000EF90DF90CF90BF90AF909F908F907F90B6
:101300006F905F904F903F902F900895CF93DF9311
:10131000EB0161E0B3DE84FB992790F9988383FBAE
:10132000992790F99A8382FB992790F9998386FBF4
:10133000992790F99B83881F8827881F8C83DF91CA
:10134000CF9108950F931F93CF93DF93EC01142F48
:10135000052F898191E0909320048093420410929C
:1013600021041092430487E295E0A3D9602F87E21D
:1013700095E09FD9612F87E295E09BD981E092D1DA
:101380008883DF91CF911F910F9108951F93CF9381
:10139000DF93EC01142F898191E0909320048093D6
:1013A0004204109221041092430487E295E081D90F
:1013B000612F87E295E07DD981E074D18883DF9148
:1013C000CF911F910895CF93DF93EC01462F416099
:1013D00060E0DCDFB5DB7E836D8363E1CE014EDE52
:1013E000877081F48A819B81892BB9F3A9DB2D81D8
:1013F0003E81621B730B8A819B818617970768F772
:1014000080E009C041E06BE0CE01C0DF40E060E079
:10141000CE01BCDF81E0DF91CF9108950F931F9340
:10142000CF93DF93EC0141E060E8B0DF41E06FEF84
:10143000CE01ACDF40E060E0CE01A8DF4F8161E982
:10144000CE01A4DF41E060E0CE01A0DF40E06FEF1D
:10145000CE019CDF40E060E8CE0198DF41E060E033
:10146000CE0194DF6DDB7E836D8360E0CE0106DE0E
:1014700080FF0FC08A819B81892BB9F361DB2D81AD
:101480003E81621B730B8A819B818617970768F7E1
:1014900021C056DB7E836D8363E1CE01EFDD877073
:1014A00079F48A819B81892BB9F34ADB2D813E81B6
:1014B000621B730B8A819B818617970768F70AC0A6
:1014C0006EE1CE012AD98C0141E06BE0CE015EDFF6
:1014D000C80104C081E08C838FEF9FEFDF91CF9133
:1014E0001F910F9108951F920F920FB60F92112422
:1014F0000BB60F922F933F934F935F936F937F930E
:101500008F939F93AF93BF93EF93FF93E0E0F0E04F
:101510001995FF91EF91BF91AF919F918F917F911D
:101520006F915F914F913F912F910F900BBE0F9054
:101530000FBE0F901F901895CF92DF92EF92FF92FF
:101540000F931F93CF93DF938C01055F1F4FEC0127
:101550006F96C12CD12C7601F801619171918F01A8
:1015600080E090E00E9415179B01AC01C701B60115
:101570000E9488186B017C010C171D0769F720E099
:1015800030E040E251E40E94EC18DF91CF911F91CE
:101590000F91FF90EF90DF90CF9008950F931F93DE
:1015A000CF93DF93EC018F8D8A3008F01F8E0F8D63
:1015B00010E0CE011BDB000F111FFE01E00FF11F39
:1015C00068E370E00E948819748763878F8D91E0CB
:1015D000980F9F8FC80FD11DC80FD11D8B859C857B
:1015E000DF91CF911F910F910895CF93DF93C82F73
:1015F000D0E02CE0829FC001112485589A4F0EDF65
:10160000A0E0B0E080559109A109B109FE01EA53BB
:10161000FD4F8E97A105B10530F48081811104C082
:1016200081E0808302C0108280E0DF91CF91089535
:10163000009761F0FC0101900020E9F73197AF01BC
:10164000481B590BBC0184E494E082C280E090E026
:101650000895EECFE4E4F4E0A089B18982E08C93B0
:10166000A485B5851C92A685B7858FEC8C93108ECA
:10167000A489B58986E08C93A289B3898C91806115
:101680008C93A289B3898C9188608C93A289B38949
:101690008C9180688C930288F389E02D80818F7D06
:1016A00080830895282F30914304313208F04AC0D6
:1016B00080911F048111FCCF9091420442E040933D
:1016C0001F0420931E042FEF20931D0410921C046E
:1016D00030931B04E2E2F4E0ABEFB3E020E032171A
:1016E00021F041914D932F5FFACF1092FA03209190
:1016F000FA03990F922B9093FA039091F90391308A
:1017000061F41092F9039091FA039093BB009091C9
:10171000BC0093FDF8CF95EC01C095EE9093BC0012
:1017200090911F049230E1F390911D049F3F79F056
:1017300080911D04803241F080911D04803331F08E
:1017400084E005C081E003C082E001C083E0109224
:1017500021041092430410922004089590911F04D4
:101760009111FCCF613208F060E291E090931F0488
:1017700090931E042FEF20931D0410921C04260F3B
:1017800020931B049093FA039091FA03880F892BFE
:101790008093FA038091F903813061F41092F90388
:1017A0008091FA038093BB008091BC0083FDF8CF49
:1017B00085EC01C085EE8093BC0080911F048130D0
:1017C000E1F380911C04861710F460911C04EBEF88
:1017D000F3E0A9EDB3E080E0861721F091919D93AD
:1017E0008F5FFACF1092D8038093D70308950F9399
:1017F0001F93CF93DF93C0E0D0E0082F10E0B80133
:101800000C2E02C0759567950A94E2F7617080E02E
:1018100030D861E080E02DD860E080E02AD82196C1
:10182000C830D10561F7DF91CF911F910F910895D5
:101830008F929F92AF92BF920F931F93CF93DF939C
:10184000CDB7DEB7A1970FB6F894DEBF0FBECDBF00
:1018500019A2423008F44AE08E010F5D1F4F842E1A
:10186000912CA12CB12CA50194010E942A18E62FDD
:10187000B901CA0101501109EA3014F4E05D01C058
:10188000E95CD801EC93232B242B252B61F7C801AD
:10189000CFDEA1960FB6F894DEBF0FBECDBFDF91AD
:1018A000CF911F910F91BF90AF909F908F9008950F
:1018B000CF92DF92EF92FF92CF93DF936B017C0187
:1018C0006DE284E494E00E94AF01EC016627772783
:1018D000CB016C197D098E099F094AE0A9DF8C0FA5
:1018E0009D1FDF91CF91FF90EF90DF90CF900895F3
:1018F000CF93DF93EC011882198281E08A8361E043
:1019000080E0AAD860E08981A7D888EE93E0A0E0C3
:10191000B0E08F839887A987BA878091D6038033F8
:1019200098F491E0980F9093D60389A390E0FC017E
:10193000EE0FFF1F8E0F9F1FFC01EA5BFC4F88EB31
:101940009BE09283818302C08FEF89A31F8ECE011B
:101950004DD968E370E00E948819FE013B96CE01E4
:101960004F9661937193E817F907D9F718A2DF91A1
:10197000CF910895CF92DF92EF92FF92DC01A032D7
:1019800082E0B8070CF03EC0B7FD06C0A53BB1052C
:101990002CF0A4EBB0E002C0A0E0B0E080917905AB
:1019A00028E830E06901C81AD10887FDD394CC0C2F
:1019B000DD1CCC0CDD1C0D2C000CEE08FF0880910A
:1019C0007A0528E532E0281B310987FD3395220F7F
:1019D000331F220F331FA901330F660B770B9A01B8
:1019E000AB012C193D094E095F090E94721824EBC6
:1019F00030E040E050E00E944C18C20ED31EE41EBE
:101A0000F51ED60190917805903398F5809179056F
:101A100048E850E0481B510987FD5395440F551F76
:101A2000440F551FA417B5078CF080917A0528E55F
:101A300032E0281B310987FD3395220F331F220F17
:101A4000331FAD012A173B070CF4A901425051097D
:101A5000440F551F2FB7F894892F90E0FC01EE0F2B
:101A6000FF1F8E0F9F1FFC01EA5BFC4F52834183D7
:101A70002FBFFF90EF90DF90CF9008958F929F92AD
:101A8000AF92BF92CF92DF92EF92FF9280917A0550
:101A900028E532E06901C81AD10887FDD394CC0C3F
:101AA000DD1CCC0CDD1C0D2C000CEE08FF08809119
:101AB000790528E830E04901881A910887FD939458
:101AC000880C991C880C991C092C000CAA08BB08CE
:101AD000809178058F3FC1F090E0FC01EE0FFF1F71
:101AE0008E0F9F1FFC01EA5BFC4F2181328143E096
:101AF000220F331F4A95E1F754E0369527955A9502
:101B0000E1F72E5F3F4F02C020E030E02F5F3F4FF4
:101B1000C901330FAA0BBB0B9C01AD012819390970
:101B20004A095B09A4EBB0E00E946818A70196017E
:101B3000281939094A095B090E944C18C901FF900C
:101B4000EF90DF90CF90BF90AF909F908F900895CF
:101B5000CF92DF92EF92FF920F931F93CF93DF9379
:101B60006C017A018B01C0E0D0E0CE15DF0581F079
:101B7000D8016D918D01D601ED91FC910190F0811C
:101B8000E02DC6011995892B11F02196EECF7E012B
:101B9000C701DF91CF911F910F91FF90EF90DF90E0
:101BA000CF9008958F929F92AF92BF92CF92DF9283
:101BB000EF92FF920F931F93CF93DF936B017C0102
:101BC000142F9B01AC010E948419882319F088E925
:101BD00092E027C046015701E894B7F82FEF3FEF96
:101BE0004FE75FE7C501B4010E94841981110DC060
:101BF0002FEF3FEF4FE75FE7C501B4010E941117D8
:101C000018161CF48CE992E00CC02FEF3FEF4FE761
:101C10005FE4C701B6010E94801918167CF480EABF
:101C200092E0DF91CF911F910F91FF90EF90DF90A5
:101C3000CF90BF90AF909F908F90FACC2FEF3FEF57
:101C40004FE75FECC701B6010E94111787FDE7CF90
:101C500020E030E0A901C701B6010E94111787FFFB
:101C60000BC06DE284E494E00E94AF01EC01F7FA4E
:101C7000F094F7F8F09402C0C0E0D0E000E060E03B
:101C800070E080E09FE3101741F020E030E040E298
:101C900051E40E94EC180F5FF6CFA70196010E9455
:101CA00088186B017C010E9454194B015C014AE0C9
:101CB000BFDDC80FD91F1123B1F1C501B4010E94C6
:101CC00015179B01AC01C701B6010E9487186B0173
:101CD0007C016EE284E494E00E94AF01C80FD91F3A
:101CE00020E030E040E251E4C701B6010E947617DF
:101CF0004B015C010E9454196B01E12CF12C4AE06C
:101D0000C701B60195DDC80FD91FC701B6010E94F2
:101D100015179B01AC01C501B4010E9487186B0126
:101D20007C011150E9F6CE01DF91CF911F910F9107
:101D3000FF90EF90DF90CF90BF90AF909F908F90EB
:101D40000895CF93DF93CDB7DEB7E8970FB6F89439
:101D5000DEBF0FBECDBF789484B5826084BD84B5EC
:101D6000816084BD85B5826085BD85B5816085BD96
:101D700080916E00816080936E001092810080914E
:101D800081008260809381008091810081608093D6
:101D90008100809180008160809380008091B100FB
:101DA00084608093B1008091B00081608093B00026
:101DB0008091910082608093910080919100816078
:101DC0008093910080919000816080939000809139
:101DD000A10082608093A1008091A1008160809326
:101DE000A1008091A00081608093A00080912101DA
:101DF0008260809321018091210181608093210183
:101E00008091200181608093200180917A0084601C
:101E100080937A0080917A00826080937A0080912A
:101E20007A00816080937A0080917A008068809344
:101E30007A001092C100109223051092240510928E
:101E40002505109226051092E3041092E4041092E6
:101E5000E5041092E6040E94A0056B017C014B0191
:101E60005C0108EB800E0BE0901EA11CB11C0E94CF
:101E7000A0056C157D058E059F0528F08616970632
:101E8000A806B906A0F760ED77E080E090E00E9438
:101E90006805E0DB0E94A0056093E3047093E4040E
:101EA0008093E5049093E60484E392E0D2DB0E9401
:101EB000A0056B017C014B015C011AE0810E911CB5
:101EC000A11CB11C0E94A0056C157D058E059F0507
:101ED00028F086169706A806B906A0F781E0809339
:101EE000F704B8DBCE01019603DD84E2FE013196F2
:101EF000A7E5B5E001900D928A95E1F7CE01019634
:101F0000F7DC84E2FE013196A3E3B5E001900D9287
:101F10008A95E1F70E94A0058B019C016093B702AE
:101F20001093B8022093B9023093BA021092BB0208
:101F30001092BC021092BD021092BE028AE590E09F
:101F400019DD62E080E20E942C0558E0252E52E067
:101F5000352E0BE715E020E032E03FAB2EAB60E022
:101F600080E00E943904D101EC90B2E02B0E311CCC
:101F7000F090A4028E2D80958F2139DC61E080E005
:101F80000E9439046AE070E080E090E00E946805F9
:101F900060E080E00E9439048E2D8F298093A40296
:101FA00026DC61E080E00E9439046AE070E080E0B5
:101FB00090E00E94680569E8C80160D8482F416038
:101FC00069E8C801E3D940E068E8C801DFD941E029
:101FD00060E8C801DBD941E06FEFC801D7D940E024
:101FE00060E0C801D3D961E9C80148D8F801878306
:101FF00041E060E0C801CAD940E06FEFC801C6D92E
:1020000040E060E8C801C2D960E6C80137D8482F6F
:10201000426160E6C801BAD940E250E064E4C80118
:1020200091D94FEF61E0C801B1D941E060E8C80142
:10203000ADD941E06FEFC801A9D940E060E0C80127
:10204000A5D946E06FEFC801A1D963E8C80116D849
:10205000482F446063E8C80199D947E06FEFC80191
:1020600095D941E061E8C80191D941E060E8C80133
:102070008DD94BE664E9C80189D940E063E8C8011D
:1020800085D90E94A005D80116967C936E9315976A
:1020900063E8C8010E943E08811116C0F8018281E0
:1020A0009381892BA9F30E94A005D80115962D9143
:1020B0003C911697621B730B12968D919C9113970E
:1020C0008617970728F782C341E063E8C8015ED905
:1020D00062E9C8010E943E08A82EB82FBF779B2E48
:1020E00040E061E8C80152D946E06FEFC8014ED91F
:1020F00063E8C8010E943E08482F4B7F63E8C8018F
:1021000045D941E06FEFC80141D941E060E0C80125
:102110003DD940E06FEFC80139D940E060E8C8011F
:1021200035D9F801818191E0909320048093420495
:10213000109221041092430460EB87E295E00E9424
:10214000590381E0AFDAD8018C9366E011968C9147
:1021500005DB7E01B5E2EB0EF11C670147E0B42E12
:10216000BA94BB2041F087E295E00E941103F6018A
:1021700081936F01F5CF41E06FEFC80107D940E0CF
:102180006FE4C80103D94CE26EE4C801FFD840E017
:102190006FEFC801FBD844EB66EBC801F7D8A7FC8A
:1021A00002C040E001C04CE090E080E0282F26957E
:1021B00026952695582F5770F701E20FF11D8417C9
:1021C00010F099120BC021E030E001C0220F5A95A7
:1021D000EAF7209530812323208309C0208130E055
:1021E00002C0359527955A95E2F720FD9F5F8F5FD6
:1021F0008033E1F6D80111968C9191E09093200400
:1022000080934204109221041092430460EB87E211
:1022100095E00E94590337E0D32EDA94DD2041F097
:10222000F70161917F0187E295E00E945903F5CFA4
:1022300081E038DAD8018C9341E06FEFC801A6D86D
:1022400040E060E0C801A2D840E06FEFC8019ED82E
:1022500040E069E0C8019AD840E060E1C80196D842
:1022600040E061E1C80192D841E064E2C8018ED843
:102270004FEF65E2C8018AD840E065E7C80186D81B
:1022800041E06FEFC80182D84CE26EE4C8017ED80D
:1022900040E068E4C8017AD840E260E3C80176D83B
:1022A00040E06FEFC80172D849E060E3C8016ED822
:1022B00040E064E5C8016AD844E061E3C80166D83B
:1022C00043E062E3C80162D843E860E4C8015ED835
:1022D00045E266E4C8015AD840E060E6C80156D835
:1022E00040E067E2C80152D846E060E5C8014ED838
:1022F00040E061E5C8014AD846E962E5C80146D830
:1023000048E066E5C80142D840E367E5C8013ED829
:1023100040E061E6C8013AD840E062E6C80136D83C
:1023200040E064E6C80132D840E065E6C8012ED836
:1023300040EA66E6C8012AD841E06FEFC80126D816
:1023400042E362E2C80122D844E167E4C8011ED832
:102350004FEF69E4C8011AD840E06AE4C80116D812
:1023600040E06FEFC80112D84AE06AE7C8010ED812
:1023700040E06BE7C8010AD841E268E7C80106D827
:1023800041E06FEFC80102D844E363E2C8010E9454
:10239000C60940E062E4C8010E94C6094FEF64E448
:1023A000C8010E94C60946E265E4C8010E94C60948
:1023B00045E066E4C8010E94C60940E460E4C80143
:1023C0000E94C60946E06EE0C8010E94C6094AE1C3
:1023D00060E2C8010E94C60940E463E4C8010E94AB
:1023E000C60940E06FEFC8010E94C60943E064E3FC
:1023F000C8010E94C60944E465E3C8010E94C609F9
:1024000041E06FEFC8010E94C60944E061E3C801E2
:102410000E94C60949E06BE4C8010E94C60945E074
:102420006CE4C8010E94C60944E06DE4C8010E9442
:10243000C60940E06FEFC8010E94C60940E064E4AD
:10244000C8010E94C60940E265E4C8010E94C609AD
:1024500048E067E4C8010E94C60948E268E4C80190
:102460000E94C60940E067E6C8010E94C60944E030
:1024700060E7C8010E94C60941E061E7C8010E9407
:10248000C6094EEF62E7C8010E94C60940E066E750
:10249000C8010E94C60940E067E7C8010E94C6095A
:1024A00041E06FEFC8010E94C60941E06DE0C8013C
:1024B0000E94C60940E06FEFC8010E94C60941E0D2
:1024C00060E8C8010E94C60948EF61E0C8010E94A7
:1024D000C60941E06FEFC8010E94C60941E06EE8FD
:1024E000C8010E94C60941E060E0C8010E94C60917
:1024F00040E06FEFC8010E94C60940E060E8C801F3
:102500000E94C60944E06AE0C8010E94C60964E866
:10251000C8010E943E08482F4F7E64E8C8010E940F
:10252000C60941E06BE0C8010E94C609BE016F5CAC
:102530007F4FC8010E948609AE014F5F5F4FBE0109
:102540006F5C7F4FC8010E945A0889A9882349F00F
:102550008B859C85AD85BE858C57924FAF4FBF4F05
:1025600004C086E39BE0A0E0B0E02BA9222369F041
:102570004B855C856D857E854E545D4F6F4F7F4FDB
:10258000440F551F661F771F0BC02AA9222361F035
:102590004B855C856D857E854C565D4F6F4F7F4FBB
:1025A000840F951FA61FB71F2CA9222361F04F850A
:1025B000588969897A894C565D4F6F4F7F4F840FD8
:1025C000951FA61FB71F2DA9222361F04B895C8997
:1025D0006D897E894A5D5D4F6F4F7F4F840F951FD8
:1025E000A61FB71FF80180879187A287B38748EE9F
:1025F00061E0C8010E94C609D80118968D909D908F
:10260000AD90BC901B97B0E28B16BEE49B06A10474
:10261000B10408F4C0C0BE016F5C7F4FC8010E94C6
:102620008609AE014F5F5F4FBE016F5C7F4FC801EF
:102630000E945A0889A9882359F0CB84DC84ED8450
:10264000FE84E6E3CE0EEBE0DE1EE11CF11C06C0CC
:10265000F8EECF2EF8E0DF2EE12CF12C8BA98823A9
:1026600069F08B859C85AD85BE858E549D4FAF4F9F
:10267000BF4F880F991FAA1FBB1F0BC08AA98823B1
:1026800061F08B859C85AD85BE858C569D4FAF4F87
:10269000BF4FC80ED91EEA1EFB1EFCA9F8AFFF23D0
:1026A00061F08F859889A989BA898C569D4FAF4F63
:1026B000BF4FC80ED91EEA1EFB1E8DA9882309F440
:1026C0006AC026E2C20E22E0D21EE11CF11C8C146C
:1026D0009D04AE04BF0408F45EC0AB81B0E020E00E
:1026E0003FE24AE350E0F4D42B013C0134EF430EC7
:1026F00031E0531E611C711CA50194012C193D0988
:102700004E095F09A8EEB3E0E3D46B017C01C3017D
:10271000B20120ED37E040E050E09CD4C20ED31E61
:10272000E41EF51EC301B20128EE33E040E050E0A4
:1027300091D4C701B6018ED4C901C8ACCC2021F018
:102740008F819885820F931F0097C1F00197A0E0B9
:10275000B0E040E050E06C017D01CC24CD28CE28D3
:10276000CF2839F0B695A795979587954F5F5F4F1E
:10277000F2CF542F4427482B592B02C040E050E0A1
:1027800061E7C8010E94A209D80118968D929D9216
:10279000AD92BC921B9741E061E0C8010E94C6095E
:1027A00060E4C8010E94E309882381F042E061E00F
:1027B000C8010E94C60960E0C8010E94E30988239D
:1027C00029F048EE61E0C8010E94C609EEA9FFA900
:1027D000F0803296FFABEEAB4F2D4F776AE8C80121
:1027E0000E94C609D8011196FC921197E4EFF1E01E
:1027F0001396FC93EE931297045F1F4F30E1C32EA4
:1028000032E0D32EC214D30409F0A9CB94E0292ED0
:10281000312C2BE4422E512C612C712C0E94A005EE
:10282000672B682B692B41F40E94A005623071056B
:102830008105910508F4E9C00E94A0050091C2023B
:102840001091C3022091C4023091C5026017710734
:102850008207930740F46093C2027093C30280938F
:10286000C4029093C5020091C2021091C30220914C
:10287000C4023091C5026B017C01C01AD10AE20A80
:10288000F30A970186010A3F11052105310508F475
:10289000BCC06093C2027093C3028093C402909341
:1028A000C50214EFE12EFF24F39400E010E0E09263
:1028B000EF04F092F0040093F1041093F2041092EC
:1028C000F3041092F4041092F5041092F60480912F
:1028D000E7049091E804A091E904B091EA048093A0
:1028E000EB049093EC04A093ED04B093EE040E94EB
:1028F000A0056093E7047093E8048093E904909343
:10290000EA040E94A0056093E3047093E4048093BA
:10291000E5049093E6040E94A0056B017C0186E427
:1029200092E00E94290B4AE061E070E080E090E0D4
:102930000E94180C8DE492E00E94290B4AE0C70126
:10294000B6010E94180C8FE492E00E94290B80913E
:10295000E7049091E804A091E904B091EA0497019A
:102960008601081B190B2A0B3B0BC901B8014AE071
:102970000E94180C8FE492E00E94290B8091E704DA
:102980009091E804A091E904B091EA040091EB046D
:102990001091EC042091ED043091EE04BC01CD01C6
:1029A000601B710B820B930B4AE00E94180C81E5AF
:1029B00092E00E94290B0E94A0054AE00E94180C98
:1029C00083E592E00E94180B83E492E00E94180BCA
:1029D0000E94A0056B017C014B015C0115E0810E9A
:1029E000911CA11CB11C0E94A0056C157D058E05D3
:1029F0009F0508F04FC10E94A0056093E704709303
:102A0000E8048093E9049093EA0480E20E941104B0
:102A100021E0892B09F020E02093BF020E94A0054D
:102A20004B015C019B01A50160E070E080E090E05B
:102A3000A090B702B090B802C090B902D090BA028C
:102A4000E090BB02F090BC020091BD021091BE026A
:102A50007BD4A1E082D409F008F482C087E595E038
:102A60000E94CE0A83E395E00E94CE0A0E94A00550
:102A70008B019C016093B7021093B8022093B902B6
:102A80003093BA021092BB021092BC021092BD02A7
:102A90001092BE028AE590E00E94BA0C87E595E0AC
:102AA0000E949C0A20E030E040EA50E4BAD11816B7
:102AB0002CF03092B6022092B50204C01092B602F9
:102AC0001092B5028AE592E00E94290B8091B5022E
:102AD0009091B60282309105A1F03CF4009771F01C
:102AE0000197C9F48AE692E014C08430910579F028
:102AF0005CF0059781F483E892E00BC082E692E0F7
:102B000008C083E792E005C088E792E002C08EE744
:102B100092E00E94290B8CE892E00E94290B87E545
:102B200095E00E949C0A42E03DD883E492E00E9436
:102B3000180B05EA12E086E992E00E94290BD80101
:102B40006D917D918D919D918D0142E02BD8E5EBAA
:102B5000F2E0E017F10779F783E492E00E94180BA6
:102B60008CE0EBE7F5E0DE01119601900D928A957D
:102B7000E1F7CE0101960E940E0A8C018CE0E7E895
:102B8000F5E0DE01959601900D928A95E1F7CE0170
:102B900085960E940E0A6C01990FEE08FF08480105
:102BA000110FAA08BB08B301A201481959096A0903
:102BB0007B09141615061606170634F0B501A40194
:102BC0004B54510961097109D301C2018C199D0946
:102BD000AE09BF09181619061A061B0634F0D701EC
:102BE000C6018B549109A109B1098A019B01080F03
:102BF000191F2A1F3B1FC901B80122E030E040E045
:102C000050E04AD216E481169104A104B10454F4B0
:102C100061E5C616D104E104F1045CF1A4E6B0E07C
:102C200057D20FC081E588169104A104B1040CF1BC
:102C300096E4C916D104E104F104DCF4ACE9BFEF79
:102C400053D2A301920128D23093C1022093C00233
:102C5000B901330F880B990B97FD08C04AE00E9419
:102C6000180C83E492E00E94180B11C00E94580CCB
:102C7000F8CFD501C40187549109A109B109099779
:102C8000A105B10520F41092C1021092C0020E9469
:102C90001C02C4CD86169706A806B90608F0A3CE76
:102CA000AACECF93DF93EC011882198281E08A8348
:102CB00061E080E00E942C0560E089810E942C0583
:102CC00080E29EE4A0E0B0E08F839887A987BA876E
:102CD0008091D603803398F491E0980F9093D603B7
:102CE00089A390E0FC01EE0FFF1F8E0F9F1FFC01D8
:102CF000EA5BFC4F88EB9BE09283818302C08FEFFD
:102D000089A3DF91CF910895E4E4F4E01382128265
:102D100088EE93E0A0E0B0E084839583A683B78338
:102D200024E132E03183208325EC30E035872487AD
:102D300024EC30E03787268720EC30E0318B208B85
:102D400021EC30E0338B228B22EC30E0358B248B6E
:102D500026EC30E0378B268B118E128E138E148E5C
:102D6000E1EEF4E016821782108611861286138631
:102D70001486158616861786108A118A128A138A77
:102D8000148A158AE7E2F5E0138212828483958320
:102D9000A683B78386E292E091838083EFECF5E02F
:102DA00089E28183138212821482E3ECF5E081834D
:102DB000138212821482E7EBF5E081831382128280
:102DC0001482EBEAF5E081831382128214828CE094
:102DD000EFECF5E0ABE7B5E001900D928A95E1F7F5
:102DE0008CE0E3ECF5E0A7E8B5E001900D928A9560
:102DF000E1F78CE0E7EBF5E0A3E9B5E001900D9297
:102E00008A95E1F78CE0EBEAF5E0AFE9B5E00190F7
:102E10000D928A95E1F787E595E043DF83E395E03E
:102E200040CF40D008F481E00895E89409C097FBB2
:102E30003EF490958095709561957F4F8F4F9F4F91
:102E40009923A9F0F92F96E9BB279395F6958795D5
:102E500077956795B795F111F8CFFAF4BB0F11F498
:102E600060FF1BC06F5F7F4F8F4F9F4F16C088233F
:102E700011F096E911C0772321F09EE8872F762F75
:102E800005C0662371F096E8862F70E060E02AF0B6
:102E90009A95660F771F881FDAF7880F96958795A2
:102EA00097F90895990F0008550FAA0BE0E8FEEF77
:102EB00016161706E807F907C0F012161306E407FE
:102EC000F50798F0621B730B840B950B39F40A26F7
:102ED00061F0232B242B252B21F408950A2609F4D5
:102EE000A140A6958FEF811D811D08950BD078C05C
:102EF00069D028F06ED018F0952309F05AC05FC051
:102F00001124A2C07ED0A0F3959FD1F3950F50E07D
:102F1000551F629FF001729FBB27F00DB11D639F8B
:102F2000AA27F00DB11DAA1F649F6627B00DA11D31
:102F3000661F829F2227B00DA11D621F739FB00DD7
:102F4000A11D621F839FA00D611D221F749F332747
:102F5000A00D611D231F849F600D211D822F762FE0
:102F60006A2F11249F5750408AF0E1F088234AF0DD
:102F7000EE0FFF1FBB1F661F771F881F9150504029
:102F8000A9F79E3F510570F014C05EC05F3FECF39F
:102F9000983EDCF3869577956795B795F795E79515
:102FA0009F5FC1F7FE2B880F911D9695879597F926
:102FB000089597F99F6780E870E060E008959FEFBB
:102FC00080EC089500240A941616170618060906C0
:102FD000089500240A94121613061406050608958F
:102FE000092E0394000C11F4882352F0BB0F40F417
:102FF000BF2B11F460FF04C06F5F7F4F8F4F9F4F57
:10300000089557FD9058440F551F59F05F3F71F0D8
:103010004795880F97FB991F61F09F3F79F087953F
:103020000895121613061406551FF2CF4695F1DFC8
:1030300008C0161617061806991FF1CF8695710558
:10304000610508940895E894BB2766277727CB018C
:1030500097F90895A1E21A2EAA1BBB1BFD010DC012
:10306000AA1FBB1FEE1FFF1FA217B307E407F50738
:1030700020F0A21BB30BE40BF50B661F771F881F14
:10308000991F1A9469F760957095809590959B01AA
:10309000AC01BD01CF010895052E97FB16F40094F5
:1030A0000FD057FD05D0D6DF07FC02D046F408C08C
:1030B00050954095309521953F4F4F4F5F4F089564
:1030C00090958095709561957F4F8F4F9F4F089594
:1030D0000FD0A59F900DB49F900DA49F800D911DC2
:1030E00011240895B7FFF4CFF3DF821B930B0895EB
:1030F000A29FB001B39FC001A39F700D811D112439
:10310000911DB29F700D811D1124911D089550587D
:10311000BB27AA270ED064CF55DF30F05ADF20F04E
:1031200031F49F3F11F41EF44ACF0EF4E095E7FB13
:1031300040CFE92F66DF80F3BA1762077307840771
:10314000950718F071F49EF57ECF0EF4E0950B2EE6
:10315000BA2FA02D0B01B90190010C01CA01A001E9
:103160001124FF27591B99F0593F50F4503E68F144
:103170001A16F040A22F232F342F4427585FF3CF85
:10318000469537952795A795F0405395C9F77EF456
:103190001F16BA0B620B730B840BBAF09150A1F09F
:1031A000FF0FBB1F661F771F881FC2F70EC0BA0F25
:1031B000621F731F841F48F4879577956795B795AD
:1031C000F7959E3F08F0B3CF9395880F08F09927A5
:1031D000EE0F9795879508950CD002CFFADE40F058
:1031E000F1DE30F021F45F3F19F0E3CE51112CCF26
:1031F000E6CE07DF98F39923C9F35523B1F3951B66
:10320000550BBB27AA2762177307840738F09F5F07
:103210005F4F220F331F441FAA1FA9F333D00E2E76
:103220003AF0E0E830D091505040E695001CCAF7E3
:1032300029D0FE2F27D0660F771F881FBB1F2617A8
:1032400037074807AB07B0E809F0BB0B802DBF017B
:10325000FF2793585F4F2AF09E3F510568F0A9CE93
:10326000F3CE5F3FECF3983EDCF386957795679558
:10327000B795F7959F5FC9F7880F911D969587952C
:1032800097F90895E1E0660F771F881FBB1F62174B
:1032900073078407BA0720F0621B730B840BBA0B09
:1032A000EE1F88F7E0950895B4DE88F09F5790F000
:1032B000B92F9927B751A0F0D1F0660F771F881F5B
:1032C000991F1AF0BA95C9F712C0B13081F0BBDE70
:1032D000B1E00895B8CE672F782F8827B85F39F00E
:1032E000B93FCCF3869577956795B395D9F73EF4BA
:1032F00090958095709561957F4F8F4F9F4F089562
:10330000D1DD08F48FEF0895CDDD880B990B08957A
:10331000AA1BBB1B51E107C0AA1FBB1FA617B707FB
:1033200010F0A61BB70B881F991F5A95A9F7809517
:103330009095BC01CD010895EE0FFF1F881F8BBF34
:103340000790F691E02D19942A193B094C095D0963
:103350006E097F09800B910B08950024A7FD00944E
:103360002A17300540055005600570058005900559
:0E337000089581E090E0F89400C0F894FFCF3B
:10337E00300031003200330002000400080010005B
:10338E0000000000AF01A80D4701FB0178015601B6
:10339E006A010000000059032D0388030103250371
:1033AE0011030203564D4450565F317C315F564D2A
:1033BE004450560D0A00564D4450455F003A323A7D
:1033CE00007C005F564D4450450053746174653A5D
:1033DE002000464F5257415244004241434B574101
:1033EE005244004C454654005249474854005354E9
:1033FE004F50005343414E4E494E47002C204166DC
:10340E007374616E643A20006E616E00696E6600C0
:04341E006F7666005F
:020000023000CC
:10E000000D9489F10D94B2F10D94B2F10D94B2F129
:10E010000D94B2F10D94B2F10D94B2F10D94B2F1F0
:10E020000D94B2F10D94B2F10D94B2F10D94B2F1E0
:10E030000D94B2F10D94B2F10D94B2F10D94B2F1D0
:10E040000D94B2F10D94B2F10D94B2F10D94B2F1C0
:10E050000D94B2F10D94B2F10D94B2F10D94B2F1B0
:10E060000D94B2F10D94B2F10D94B2F10D94B2F1A0
:10E070000D94B2F10D94B2F10D94B2F10D94B2F190
:10E080000D94B2F10D94B2F10D94B2F10D94B2F180
:10E090000D94B2F10D94B2F10D94B2F10D94B2F170
:10E0A0000D94B2F10D94B2F10D94B2F10D94B2F160
:10E0B0000D94B2F10D94B2F10D94B2F10D94B2F150
:10E0C0000D94B2F10D94B2F10D94B2F10D94B2F140
:10E0D0000D94B2F10D94B2F10D94B2F10D94B2F130
:10E0E0000D94B2F141546D656761323536300041AF
:10E0F000726475696E6F206578706C6F72657220DE
:10E1000073746B3530305632206279204D4C530099
:10E11000426F6F746C6F616465723E004875683F52
:10E1200000436F6D70696C6564206F6E203D200048
:10E130004350552054797065202020203D20005FF9
:10E140005F4156525F415243485F5F3D2000415658
:10E1500052204C696243205665723D20004743437C
:10E160002056657273696F6E203D20004350552024
:10E1700049442020202020203D20004C6F7720663D
:10E18000757365202020203D20004869676820665F
:10E190007573652020203D200045787420667573D6
:10E1A00065202020203D20004C6F636B2066757336
:10E1B000652020203D20004D617220203720323024
:10E1C000313300312E362E3800342E332E350056A2
:10E1D00023202020414444522020206F7020636F70
:10E1E00064652020202020696E73747275637469E1
:10E1F0006F6E2061646472202020496E74657272B3
:10E20000757074006E6F20766563746F7200726A49
:10E210006D702020006A6D70200057686174207056
:10E220006F72743A00506F7274206E6F7420737541
:10E2300070706F72746564004D7573742062652030
:10E2400061206C6574746572002000577269747483
:10E25000696E672045450052656164696E672045B7
:10E26000450045452065727220636E743D00504F35
:10E27000525400303D5A65726F2061646472003FF1
:10E280003D43505520737461747300403D454550C3
:10E29000524F4D207465737400423D426C696E6B41
:10E2A000204C454400453D44756D70204545505215
:10E2B0004F4D00463D44756D7020464C415348001B
:10E2C000483D48656C70004C3D4C69737420492F83
:10E2D0004F20506F72747300513D51756974005234
:10E2E0003D44756D702052414D00563D73686F7707
:10E2F00020696E7465727275707420566563746FF0
:10E30000727300593D506F727420626C696E6B00BD
:10E310002A0011241FBECFEFD1E2DEBFCDBF01E046
:10E320000CBF12E0A0E0B2E0EEE1FDEF03E00BBFB6
:10E3300002C007900D92A030B107D9F712E0A0E01B
:10E34000B2E001C01D92AE30B107E1F70F9460F367
:10E350000D948DFE01E20EBF0FEF0DBF11241FBE05
:10E360000D9460F30D9400F020E030E040ED57E0B4
:10E3700005C0FA013197F1F72F5F3F4F2817390792
:10E38000C0F308959C01260F311DC901A0E0B0E043
:10E390002F5F3F4FABBFFC018791882361F08093D3
:10E3A000C6008091C00086FFFCCF8091C0008064D1
:10E3B0008093C000EACF08958DE08093C6008091DD
:10E3C000C00086FFFCCF8091C00080648093C000B5
:10E3D0008AE08093C6008091C00086FFFCCF8091C8
:10E3E000C00080648093C00008950F94C2F10F9420
:10E3F000DCF10895FC019081992359F09093C600B7
:10E400008091C00086FFFCCF8091C0008064809323
:10E41000C0003196992379F70895282F982F929567
:10E420009F70892F805D8A3308F0895F8093C600D2
:10E430008091C00086FFFCCF8091C00080648093F3
:10E44000C000822F8F70982F905D9A3308F0995FEB
:10E450009093C6008091C00086FFFCCF8091C000E1
:10E4600080648093C00008959C01FB01853691056E
:10E470001CF46330710594F0C90164E670E00F94F8
:10E480002EFE605D7F4F6093C6008091C00086FFC6
:10E49000FCCF8091C00080648093C0002B30310598
:10E4A00014F43297B4F0C90164E670E00F942EFEC4
:10E4B0006AE070E00F942EFE605D7F4F6093C600AF
:10E4C0008091C00086FFFCCF8091C0008064809363
:10E4D000C000C9016AE070E00F942EFEC0968093E0
:10E4E000C6008091C00086FFFCCF8091C000806490
:10E4F0008093C00008951F93182F8EE692EE60E07F
:10E500000F94C2F11093C6008091C00086FFFCCF2B
:10E510008091C00080648093C0000F94DCF11F9153
:10E5200008952F923F924F925F926F927F928F92B7
:10E530009F92AF92BF92CF92DF92EF92FF920F9392
:10E540001F93DF93CF93CDB7DEB762970FB6F894E2
:10E55000DEBF0FBECDBF382E622ECA01DB015C01CB
:10E560006D01772420E2222E2E010894411C511CBB
:10E570008BC081E0A81680E0B80681E0C80680E084
:10E58000D80628F0C601AA27BB270F940DF2BB2797
:10E59000AD2D9C2D8B2D0F940DF28A2D0F940DF225
:10E5A0002092C6008091C00086FFFCCF8091C00001
:10E5B00080648093C0009DE29093C6008091C0006B
:10E5C00086FFFCCF8091C00080648093C0002092C1
:10E5D000C6008091C00086FFFCCF8091C00080649F
:10E5E0008093C00019828601750188249924A1E0D6
:10E5F0003A1651F03A1620F0B2E03B1661F409C029
:10E600000BBFF701779007C0C7010F9477FE782EF4
:10E6100002C0F7017080872D0F940DF22092C60082
:10E620008091C00086FFFCCF8091C0008064809301
:10E63000C000872D8052F401EF70F0708F3520F408
:10E64000E40DF51D708204C0E40DF51D8EE280839B
:10E650000894E11CF11C011D111D0894811C911CE2
:10E6600090E18916910409F0C2CF80E190E0A0E02A
:10E67000B0E0A80EB91ECA1EDB1E198AC2010F9493
:10E68000FAF10F94DCF16A94662009F072CF629679
:10E690000FB6F894DEBF0FBECDBFCF91DF911F91B3
:10E6A0000F91FF90EF90DF90CF90BF90AF909F9031
:10E6B0008F907F906F905F904F903F902F90089534
:10E6C0002F923F924F925F926F927F928F929F9282
:10E6D000AF92BF92CF92DF92EF92FF920F931F9370
:10E6E000DF93CF93CDB7DEB7CD53D1400FB6F894BB
:10E6F000DEBF0FBECDBF01E20EBF0FEF0DBF94B75F
:10E70000F894A89514BE80916000886180936000A1
:10E7100010926000789493FF05C0E0910002F091A0
:10E7200001021995279A2F9A8091C00082608093E8
:10E73000C00080E18093C40088E18093C1000000A4
:10E74000EE24FF24870144E0A42EB12CCC24DD2448
:10E7500024C0C5010197F1F70894E11CF11C011DCB
:10E76000111D21E2E2162EE4F20620E0020720E06D
:10E77000120718F031E0C32ED12CC801B70127ECE5
:10E780003BE140E050E00F9441FE611571058105C9
:10E79000910519F485B1805885B98091C00087FD35
:10E7A00003C0C114D104A9F2A6014F5F5F4FC25E3E
:10E7B000DE4F59834883CE51D140C25EDE4F8881FF
:10E7C0009981CE51D140019711F00D9410FEC05D9A
:10E7D000DE4F19821882C053D14060E0C15DDE4F28
:10E7E0001882CF52D14088249924C35DDE4F19820C
:10E7F0001882CD52D140C05EDE4F188219821A8233
:10E800001B82C052D140CE5CDE4F188219821A8220
:10E810001B82C253D140EE24FF2487010BBFF701B6
:10E8200007911691C45CDE4F19830883CC53D14005
:10E830000D940BFEC25EDE4F28813981CE51D1404E
:10E840002130310509F52091C600C25EDE4F1982E4
:10E850001882CE51D14022C02F5F3F4F4F4F5F4FA4
:10E86000213082E138078AE7480780E0580780F0C6
:10E87000C45CDE4FE881F981CC53D140EF5FFF4F9C
:10E8800019F0EE27FF27099420E030E040E050E047
:10E890008091C00087FFE0CF2091C600C35DDE4FAE
:10E8A00048815981CD52D1404F5F5F4FC35DDE4FEC
:10E8B00059834883CD52D140213209F063C64A3092
:10E8C000510508F05FC60894811C911C53E0851621
:10E8D000910409F059C600E010E018C081E280936D
:10E8E000C6008091C00086FFFCCF8091C00080648C
:10E8F0008093C0002F5F3F4F2931310579F70F9486
:10E90000DCF10F5F1F4F0530110519F020E030E0FA
:10E91000E5CF10920A0210920B0210920C02109294
:10E920000D02109206021092070210920802109235
:10E930000902109202021092030210920402109235
:10E9400005028FEE90EE60E00F94F5F180E191EE1C
:10E9500060E00F94C2F18091C00087FFFCCF9091DE
:10E96000C600903608F09F759032B8F09093C600BC
:10E970008091C00086FFFCCF8091C00080648093AE
:10E98000C000A0E2A093C6008091C00086FFFCCF2B
:10E990008091C00080648093C000983409F4D7C18E
:10E9A0009934B8F4923409F459C1933458F490333B
:10E9B00019F1903308F4E3C59F33A1F1903409F0C5
:10E9C000DEC5BDC0953409F470C1963409F0D7C5D1
:10E9D00098C1923509F42BC2933538F49C3409F46C
:10E9E000F5C1913509F0CBC518C2963509F445C279
:10E9F000993509F0C4C567C483E792EE62E00F94CD
:10EA0000F5F110920602109207021092080210927D
:10EA1000090210920A0210920B0210920C0210923C
:10EA20000D0213C18FE792EE62E00F94F5F18FEEC5
:10EA300090EE60E00F94F5F181E291EE60E00F94CA
:10EA4000C2F187EB91EE60E00F94F5F180E391EE77
:10EA500060E00F94C2F184EE90EE60E00F94F5F167
:10EA60008FE391EE60E00F94C2F186E090E061E008
:10EA700070E00F9434F20F94DCF18DE591EE60E0DC
:10EA80000F94C2F189EC91EE60E00F94F5F18EE401
:10EA900091EE60E00F94C2F183EC91EE60E00F9490
:10EAA000F5F18CE691EE60E00F94C2F18EE10F94E7
:10EAB0000DF288E90F940DF281E00F940DF20F949E
:10EAC000DCF18BE791EE60E00F94C2F119E0E0E039
:10EAD000F0E010935700E4918E2F0F940DF20F94F5
:10EAE000DCF18AE891EE60E00F94C2F1E3E0F0E03F
:10EAF00010935700E4918E2F0F940DF20F94DCF1D8
:10EB000089E991EE60E00F94C2F1E2E0F0E0109349
:10EB10005700E4918E2F0F940DF20F94DCF188EAE8
:10EB200091EE60E00F94C2F1E1E0F0E01093570045
:10EB30001491812F0F940DF20F94DCF107CF8BE825
:10EB400092EE62E00F94F5F18BE492EE60E00F94A8
:10EB5000F5F10F94DCF100E010E019C0C8016F2D51
:10EB60000F947FFEFF2031F489E492EE60E00F9471
:10EB7000C2F10BC0F092C6008091C00086FFFCCFAE
:10EB80008091C00080648093C0000F5F1F4FC80158
:10EB900081519F41A0E0B0E0ABBFFC01F790BAE229
:10EBA000FB1621F0E2E000301E07C1F60F94DCF105
:10EBB0000F94DCF187E592EE60E00F94F5F10F948D
:10EBC000DCF1CC24DD2400E010E01EC0C8010F946D
:10EBD00077FEF82E882331F489E492EE60E00F94FA
:10EBE000C2F10BC08093C6008091C00086FFFCCFAD
:10EBF0008091C00080648093C000FE1419F00894D6
:10EC0000C11CD11C0F5F1F4FC80181519F41A0E063
:10EC1000B0E0ABBFFC01E790FAE2EF1621F022E092
:10EC20000030120799F60F94DCF10F94DCF182E6C4
:10EC300092EE60E00F94C2F1C60161E070E00F94C3
:10EC400034F20F94DCF10F94DCF110920202109276
:10EC50000302109204021092050278CE89E992EE26
:10EC600062E00F94F5F1279A2F9A16C02F9880E052
:10EC700090E0E0EDF7E03197F1F7019684369105E9
:10EC8000C1F72F9A80E090E0E0EDF7E03197F1F7DF
:10EC9000019684369105C1F78091C00087FFE6CFC9
:10ECA0008091C00087FFFCCF64C485EA92EE62E0E9
:10ECB0000F94F5F140910202509103026091040219
:10ECC0007091050281E020E10F9491F2809102029F
:10ECD00090910302A0910402B091050280509F4FD1
:10ECE000AF4FBF4F8093020290930302A0930402A0
:10ECF000B093050280509041A040B04008F426CE69
:10ED0000A4CF83EB92EE62E00F94F5F140910602FE
:10ED100050910702609108027091090280E020E1A1
:10ED20000F9491F28091060290910702A09108023F
:10ED3000B091090280509F4FAF4FBF4F80930602A2
:10ED400090930702A0930802B0930902FFCD80ECD4
:10ED500092EE62E00F94F5F183E792EE60E00F949B
:10ED6000F5F18FE792EE60E00F94F5F18BE892EE0B
:10ED700060E00F94F5F189E992EE60E00F94F5F10F
:10ED800085EA92EE60E00F94F5F183EB92EE60E09D
:10ED90000F94F5F180EC92EE60E00F94F5F187ECC2
:10EDA00092EE60E00F94F5F188ED92EE60E00F9442
:10EDB000F5F18FED92EE60E00F94F5F18AEE92EEB0
:10EDC00060E00F94F5F183E093EEBDCD87EC92EE19
:10EDD00062E00F94F5F181E40F947BF282E40F94EA
:10EDE0007BF283E40F947BF284E40F947BF285E45E
:10EDF0000F947BF286E40F947BF287E40F947BF20E
:10EE000088E40F947BF28AE40F947BF28BE40F94F6
:10EE10007BF28CE40F947BF299CD88ED92EE62E068
:10EE20000F94F5F1772473948824992409C48FED05
:10EE300092EE62E00F94F5F140910A0250910B02BC
:10EE400060910C0270910D0282E020E10F9491F22A
:10EE500080910A0290910B02A0910C02B0910D02D8
:10EE600080509F4FAF4FBF4F80930A0290930B0289
:10EE7000A0930C02B0930D0269CD8AEE92EE62E08F
:10EE80000F94F5F184EE90EE60E00F94F5F18FECC5
:10EE900091EE60E00F94F5F1662477244301CC5D98
:10EEA000DE4F19821882C452D140D401C301B695F5
:10EEB000A79597958795CA5DDE4F88839983AA8326
:10EEC000BB83C652D140CC5DDE4FA881B981C4520C
:10EED000D1401196CC5DDE4FB983A883C452D14096
:10EEE000CD0162E070E00F9434F2B0E2B093C6005E
:10EEF0008091C00086FFFCCF8091C0008064809329
:10EF0000C000EDE2E093C6008091C00086FFFCCF18
:10EF10008091C00080648093C000F0E2F093C6004E
:10EF20008091C00086FFFCCF8091C00080648093F8
:10EF3000C000CA5DDE4FE880F9800A811B81C6529D
:10EF4000D140BB27A12F902F8F2D0F940DF2CA5DBA
:10EF5000DE4F8881C652D1400F940DF2B0E2FB2EF5
:10EF6000F092C6008091C00086FFFCCF8091C00067
:10EF700080648093C0000DE30093C6008091C000C0
:10EF800086FFFCCF8091C00080648093C00010E2B7
:10EF90001093C6008091C00086FFFCCF8091C00016
:10EFA00080648093C0008BBEF3012791C65DDE4F65
:10EFB0002883CA52D140A22EBB24CC24DD2408943D
:10EFC000611C711C811C911C8BBEF3018791282E42
:10EFD0003324442455240894611C711C811C911C09
:10EFE0008BBEF3013791C55DDE4F3883CB52D140E4
:10EFF0000894611C711C811C911C8BBEF30147910C
:10F00000C45DDE4F4883CC52D140ADEFEA2EAFEF66
:10F01000FA2EAFEF0A2FAFEF1A2F6E0C7F1C801E57
:10F02000911E142D032DF22CEE24EA0CFB1C0C1D5A
:10F030001D1D0F940DF220E22093C6008091C000A8
:10F0400086FFFCCF8091C00080648093C000C65DC5
:10F05000DE4F8881CA52D1400F940DF230E23093D6
:10F06000C6008091C00086FFFCCF8091C000806404
:10F070008093C000C45DDE4F8881CC52D1400F9494
:10F080000DF240E24093C6008091C00086FFFCCFA5
:10F090008091C00080648093C000C55DDE4F888190
:10F0A000CB52D1400F940DF250E25093C6008091A4
:10F0B000C00086FFFCCF8091C00080648093C000B8
:10F0C0008FEFE8168FEFF80680E0080780E018075A
:10F0D00031F484E092EE60E00F94C2F1DFC0D80119
:10F0E000C7018070907CA070B0708050904CA040A0
:10F0F000B040D1F52FEF3FE340E050E0E222F322B1
:10F1000004231523CA5DDE4FA880B980CA80DB8046
:10F11000C652D140AE0CBF1CC01ED11EAA0CBB1CD7
:10F12000CC1CDD1C8EE092EE60E00F94C2F1BB2798
:10F13000A12F902F8F2D0F940DF28E2D0F940DF285
:10F1400030E23093C6008091C00086FFFCCF8091F2
:10F15000C00080648093C0004EE34093C60080915D
:10F16000C00086FFFCCF87C08EE09EEFA0E0B0E03D
:10F17000E822F9220A231B239CE0E91694E9F90608
:10F1800090E0090790E0190709F088C0C45DDE4FE0
:10F19000A881CC52D140EA2EFF2400E010E0102FCD
:10F1A0000F2DFE2CEE24C55DDE4FB881CB52D14031
:10F1B000EB0EF11C011D111DD601C501817090706F
:10F1C000A070B070DC0199278827E80EF91E0A1F8D
:10F1D0001B1F20EF30E040E050E0A222B322C42207
:10F1E000D52241E1AA0CBB1CCC1CDD1C4A95D1F7F1
:10F1F000EA0CFB1C0C1D1D1D81E090E0A0E0B0E0BE
:10F20000282239224A225B2235E1220C331C441C7D
:10F21000551C3A95D1F7E20CF31C041D151D57013E
:10F220006801AA0CBB1CCC1CDD1C85E192EE60E0E1
:10F230000F94C2F1C801AA27BB270F940DF2BB2778
:10F24000A12F902F8F2D0F940DF28E2D0F940DF274
:10F2500090E29093C6008091C00086FFFCCF809121
:10F26000C00080648093C000AEE3A093C60080918C
:10F27000C00086FFFCCF8091C00080648093C000F6
:10F28000C601AA27BB270F940DF2BB27AD2D9C2DDD
:10F290008B2D0F940DF28A2D0F940DF20F94DCF14B
:10F2A000CC5DDE4FE881F981C452D140F99709F471
:10F2B0004DCBF4E0EF2EF12C012D112D6E0C7F1CA7
:10F2C000801E911EF2CD83E093EE62E00F94F5F183
:10F2D0008AE192EE60E00F94C2F18091C00087FF56
:10F2E000FCCF1091C6001F751093C6008091C0001E
:10F2F00086FFFCCF8091C00080648093C0000F9493
:10F30000DCF1812F81548A3108F036C1163409F4BA
:10F3100095C0173490F4133409F44EC0143430F40B
:10F320001134F1F0123409F01DC130C0143409F465
:10F3300059C0153409F016C16BC01A3409F4C4C0A1
:10F340001B3438F4173409F48FC0183409F00AC19B
:10F35000A1C01B3409F4D2C01C3409F003C1E8C0B9
:10F360008FEF81B90DC082B1809582B980E090E0C5
:10F37000E0EDF7E03197F1F70196883C9105C1F790
:10F380008091C00087FFEFCF12B8EFC08FEF84B934
:10F390000DC085B1809585B980E090E0E0EDF7E0A3
:10F3A0003197F1F70196883C9105C1F78091C00033
:10F3B00087FFEFCF15B8D9C08FEF87B90DC088B1DF
:10F3C000809588B980E090E0E0EDF7E03197F1F7C3
:10F3D0000196883C9105C1F78091C00087FFEFCF6F
:10F3E00018B8C3C08FEF8AB90DC08BB180958BB9A7
:10F3F00080E090E0E0EDF7E03197F1F70196883C8E
:10F400009105C1F78091C00087FFEFCF1BB8ADC059
:10F410008FEF8DB90DC08EB180958EB980E090E0F0
:10F42000E0EDF7E03197F1F70196883C9105C1F7DF
:10F430008091C00087FFEFCF1EB897C08FEF80BBD1
:10F440000DC081B3809581BB80E090E0E0EDF7E0F6
:10F450003197F1F70196883C9105C1F78091C00082
:10F4600087FFEFCF11BA81C08FEF83BB0DC084B38C
:10F47000809584BB80E090E0E0EDF7E03197F1F714
:10F480000196883C9105C1F78091C00087FFEFCFBE
:10F4900014BA6BC08FEF809301010FC080910201FD
:10F4A00080958093020180E090E0E0EDF7E03197F5
:10F4B000F1F70196883C9105C1F78091C00087FF64
:10F4C000EDCF1092020151C08FEF809304010FC065
:10F4D0008091050180958093050180E090E0E0ED4A
:10F4E000F7E03197F1F70196883C9105C1F78091DB
:10F4F000C00087FFEDCF1092050137C08FEF8093DA
:10F5000007010FC08091080180958093080180E079
:10F5100090E0E0EDF7E03197F1F70196883C910536
:10F52000C1F78091C00087FFEDCF109208011DC088
:10F530008FEF80930A010FC080910B01809580931B
:10F540000B0180E090E0E0EDF7E03197F1F70196F4
:10F55000883C9105C1F78091C00087FFEDCF1092E4
:10F560000B0103C085E292EEEEC98091C00087FFD7
:10F57000FCCF8091C600EAC988E392EEE4C98CE131
:10F5800091EEE1C988249924933011F1943028F444
:10F59000913089F09230B8F408C0953061F195301F
:10F5A000F0F0963009F048C043C02B3109F042C951
:10F5B00091E06BE13FC96227C15DDE4F2883CF52E6
:10F5C000D14092E037C9B22FA0E0622793E032C960
:10F5D000822F90E0A82BB92B622794E02BC92E3004
:10F5E00009F039C3622795E0C05DDE4F19821882A9
:10F5F000C053D1401FC9E1E0F0E0EC0FFD1FC05D3A
:10F60000DE4F08811981C053D140E00FF11F2083E4
:10F610000F5F1F4FC05DDE4F19830883C053D14079
:10F6200062270A171B0709F005C9D80196E002C92D
:10F63000261709F010C303C0973009F0FBC87724E0
:10F640009981933109F412C19431C8F4963009F4C8
:10F65000D8C0973050F4923009F406C1933009F4C1
:10F660006DC0913009F059C253C0913109F477C08F
:10F67000923108F0BBC0903109F04FC2F5C098310B
:10F6800009F487C0993150F4953109F4EFC09531F0
:10F6900008F4C6C1963109F040C2C2C19A3109F4DA
:10F6A0006CC09A3108F491C09B3109F45BC09D3164
:10F6B00009F033C29D81903359F48F81882311F46E
:10F6C0009EE11CC0813011F091E018C098E916C08D
:10F6D000892F807591F0903539F4E0E0F0E089E011
:10F6E0008093570094910AC0983539F4E3E0F0E034
:10F6F00089E080935700949101C090E01A821B82A8
:10F700008D818C831D829E831F8227E030E009C299
:10F710001A8288E08B8381E48C8386E58D8382E581
:10F720008E8389E48F8383E5888780E589878FE5E9
:10F730008A8782E38B872BE030E0F3C18A818139AD
:10F7400041F0823941F0803911F48FE005C080E04A
:10F7500003C082E001C08AE01A828B8344C0772410
:10F76000739482C08D81882311F48EE12CC0813086
:10F7700011F081E028C088E926C01A82E1E0F0E0BB
:10F7800089E08093570084918B831C8224E030E0D1
:10F79000C8C18B81803589F48C81883039F4E2E0EE
:10F7A000F0E089E08093570084910DC0E0E0F0E044
:10F7B00089E080935700849106C0E3E0F0E089E09F
:10F7C0008093570084911A82DFCF8D81836C99E0FA
:10F7D000E1E0F0E0082E90935700E89507B600FCB2
:10F7E000FDCF1A821B8223E030E09BC180EC8A832C
:10F7F000CE5CDE4F188219821A821B82C253D1401E
:10F800008EC18A8190E0A0E0B0E0582F44273327D2
:10F8100022278B8190E0A0E0B0E0DC0199278827C7
:10F82000282B392B4A2B5B2B8D8190E0A0E0B0E098
:10F83000282B392B4A2B5B2B8C8190E0A0E0B0E089
:10F84000BA2FA92F982F8827282B392B4A2B5B2BCF
:10F85000220F331F441F551FC05EDE4F288339839C
:10F860004A835B83C052D1401A8259C13A81C95C34
:10F87000DE4F3883C753D140CA5CDE4F1882C6536F
:10F88000D1408B81C82EDD24CA5CDE4F488159816E
:10F89000C653D140C42AD52A933109F082C0CE5C28
:10F8A000DE4F88819981AA81BB81C253D1408050AB
:10F8B000904CA340B04030F583E0CE5CDE4FE88052
:10F8C000F9800A811B81C253D140F70100935B008C
:10F8D00080935700E89507B600FCFDCFCE5CDE4F65
:10F8E000088119812A813B81C253D14000501F4FAA
:10F8F0002F4F3F4FCE5CDE4F088319832A833B8313
:10F90000C253D140C05EDE4F488159816A817B81FC
:10F91000C052D140DE011B9631E08C9111962C91A2
:10F9200011971296C75CDE4F2883C953D140C85C3B
:10F93000DE4F1882C853D14090E0C85CDE4FE881AA
:10F94000F981C853D1408E2B9F2B0C01FA01609393
:10F950005B0030935700E89511244E5F5F4F6F4F67
:10F960007F4F0EEFE02E0FEFF02ECE0CDF1CC114F8
:10F97000D10499F685E0C05EDE4F088119812A81A5
:10F980003B81C052D140F80120935B008093570027
:10F99000E89507B600FCFDCF81E180935700E8951C
:10F9A00035C0C05EDE4F88819981AA81BB81C0527B
:10F9B000D140B695A795979587957C018601ABE0D8
:10F9C000AA2EB12CAC0EBD1E0BC0D5016D915D01F0
:10F9D000C7010F947FFE0894E11CF11C01501040F8
:10F9E0000115110591F7A60160E070E0440F551F65
:10F9F000661F771FC05EDE4FE880F9800A811B8199
:10FA0000C052D1404E0D5F1D601F711F1A82C05E33
:10FA1000DE4F488359836A837B83C052D1407FC0C5
:10FA2000FA80C55CDE4FF882CB53D140C65CDE4F16
:10FA30001882CA53D1408B81C82EDD24C65CDE4FAC
:10FA400008811981CA53D140C02AD12A1A828981DA
:10FA5000BE016D5F7F4F843121F59601C05EDE4FA0
:10FA6000E880F9800A811B81C052D1400BBFF701A9
:10FA700087919691DB018C9311969C936E5F7F4FDB
:10FA8000D801C7010296A11DB11DC05EDE4F88835B
:10FA90009983AA83BB83C052D14022503040F1F6F3
:10FAA00036C0C05EDE4F288139814A815B81C052F9
:10FAB000D1400894C108D108760100E010E0089414
:10FAC000C11CD11C0894E11CF11C011D111DE20E8A
:10FAD000F31E041F151F21BDBB27A52F942F832FB5
:10FAE00082BD2F5F3F4F4F4F5F4FF89A80B5DB01CC
:10FAF0008D93BD012E153F054007510761F7C05E8C
:10FB0000DE4F288339834A835B83C052D1409601FC
:10FB10002D5F3F4FFB01108204C080EC8A8322E0FE
:10FB200030E08BE18093C6008091C00086FFFCCF5F
:10FB30008091C00080648093C000C15DDE4FF88179
:10FB4000CF52D140F093C6008091C00086FFFCCF19
:10FB50008091C00080648093C000432F3093C60022
:10FB60008091C00086FFFCCF8091C00080648093AC
:10FB7000C000922F2093C6008091C00086FFFCCF6A
:10FB80008091C00080648093C0008EE08093C600A6
:10FB90008091C00086FFFCCF8091C000806480937C
:10FBA000C00065E1C15DDE4FE880CF52D1406E25D7
:10FBB00069276427FE01319610C090819093C6009A
:10FBC0008091C00086FFFCCF31968091C000806498
:10FBD0008093C0006927215030402115310569F715
:10FBE0006093C6008091C00086FFFCCF8091C0006A
:10FBF00080648093C00085B1805885B9772081F4F6
:10FC0000C15DDE4F0881CF52D1400F5FC15DDE4F35
:10FC10000883CF52D14090E0A0E0B0E00D941AF4F8
:10FC200027982F9880E090E020ED37E0F901319798
:10FC3000F1F7019684369105C9F700008091C00064
:10FC40008D7F8093C00081E180935700E895EE2777
:10FC5000FF270994FFCF90E00D941AF497FB092E2B
:10FC600007260AD077FD04D02ED006D000201AF443
:10FC7000709561957F4F0895F6F7909581959F4F08
:10FC80000895A1E21A2EAA1BBB1BFD010DC0AA1FDD
:10FC9000BB1FEE1FFF1FA217B307E407F50720F0F5
:10FCA000A21BB30BE40BF50B661F771F881F991F70
:10FCB0001A9469F760957095809590959B01AC01B9
:10FCC000BD01CF010895AA1BBB1B51E107C0AA1FAC
:10FCD000BB1FA617B70710F0A61BB70B881F991FED
:10FCE0005A95A9F780959095BC01CD010895F99991
:10FCF000FECF92BD81BDF89A992780B50895262F31
:10FD0000F999FECF1FBA92BD81BD20BD0FB6F89400
:0EFD1000FA9AF99A0FBE01960895F894FFCF63
:040000033000E000E9
:00000001FF