:1000000014C1000042C1000040C100003EC1000018
:100010003CC100003AC1000038C1000036C10000F8
:1000200034C1000032C1000030C100002EC1000008
:100030002CC100002AC1000028C1000026C1000018
:1000400024C1000022C1000020C100001EC1000028
:100050001CC100001AC1000018C10000E2C4000069
:1000600014C10000A8C400007DC400000EC100003F
:100070000CC100000AC1000008C1000006C1000058
:1000800004C1000002C1000000C10000FEC0000069
:10009000FCC00000FAC00000F8C00000F6C000007C
:1000A000F4C00000F2C00000F0C00000EEC000008C
:1000B000ECC00000EAC00000E8C00000E6C000009C
:1000C000E4C00000E2C00000E0C00000DEC00000AC
:1000D000DCC00000DAC00000D8C00000D6C00000BC
:1000E000D4C000009C029F028E0292029802D602A7
:1000F000A302A702AD02B102B502BB02BF02C30256
:10010000D602C902CD02D10200002100240027003E
:100110002A002D0030003300010100000401070116
:100120000A0100002200250028002B002E003100CB
:10013000340002010000050108010B01000020004D
:100140002300260029002C002F00320000010000AF
:10015000030106010901050505050705080808084A
:10016000020202020A0A080804040404010101014F
:10017000010101010303030303030303040707074A
:100180000C0C0C0C0C0C0C0C0202020206060606EF
:10019000060606060B0B0B0B0B0B0B0B01021020BC
:1001A00020080810204010204080020102010804AD
:1001B0000201010204081020408080402010080441
:1001C000020180040201804020100804020108049A
:1001D00002010102040810204080010204081020DE
:1001E000408000000A0B02090C0D0E0807030401F1
:1001F00000000000000000000000000000000000FF
:1002000000000000000000000000000000001211CB
:1002100010000000000000000000000000000000CE
:100220000000000000000000730511241FBECFEF86
:10023000D1E2DEBFCDBF00E00CBF24E0A6E4B2E017
:1002400001C01D92A631B207E1F712E0A0E0B2E0D2
:10025000E8EFF5E100E00BBF02C007900D92A63475
:10026000B107D9F711E0C5E1D1E000E006C0219760
:100270000109802FFE010E94EE0AC431D10780E0FF
:100280000807A9F774D40C94FA0ABACECF92DF9279
:10029000EF92FF920F931F93CF93DF936C017A013C
:1002A0008B01C0E0D0E0CE15DF0581F0D8016D9163
:1002B0008D01D601ED91FC910190F081E02DC601F8
:1002C0001995892B11F02196EECF7E01C701DF91A0
:1002D000CF911F910F91FF90EF90DF90CF900895F5
:1002E000089580E090E00895FC01538D448D252F02
:1002F00030E0842F90E0821B930B541710F0CF96C0
:10030000089501970895FC01918D828D981761F0F1
:10031000828DDF01A80FB11D5D968C91928D9F5F3C
:100320009F73928F90E008958FEF9FEF0895FC01E7
:10033000918D828D981731F0828DE80FF11D858D9A
:1003400090E008958FEF9FEF0895FC01918D228D2D
:10035000892F90E0805C9F4F821B91098F739927B2
:10036000089583E592E0F1DF21E0892B09F420E094
:10037000822F0895FC01848DDF01A80FB11DA35ABF
:10038000BF4F2C91848D90E001968F739927848FB5
:10039000A689B7892C93A089B1898C9183708064D8
:1003A0008C93938D848D981306C00288F389E02D79
:1003B00080818F7D80830895EF92FF920F931F932A
:1003C000CF93DF93EC0181E0888F9B8D8C8D981308
:1003D00005C0E889F989808185FD25C0F62E0B8D41
:1003E00010E00F5F1F4F0F731127E02E8C8DE81266
:1003F0000BC00FB607FCFACFE889F989808185FF29
:10040000F5CFCE01B7DFF2CF8B8DFE01E80FF11DE6
:10041000E35AFF4FF0829FB7F8940B8FEA89FB896C
:10042000808180620AC09FB7F894EE89FF8960835B
:10043000E889F98980818370806480839FBF81E02F
:1004400090E0DF91CF911F910F91FF90EF90089571
:10045000CF93DF93EC01888D8823C1F0EA89FB8973
:10046000808185FD05C0A889B9898C9186FD0EC063
:100470000FB607FCF5CF808185FFF2CFA889B98937
:100480008C9185FFEDCFCE0175DFE8CFDF91CF9165
:10049000089580E090E0892B19F063DF811125C079
:1004A00080E090E0892B41F080E090E0892B21F002
:1004B0000E94000081111CC080E090E0892B41F077
:1004C00080E090E0892B21F00E940000811113C090
:1004D00080E090E0892BA1F080E090E0892B81F012
:1004E0000E94000081110AC008950E940000D8CF28
:1004F0000E940000E1CF0E940000EACF0C940000AF
:10050000089590E0FC013197E231F10508F04EC00A
:100510008827EE58FF4F8F4F0C94EE0A8091800091
:100520008F7703C0809180008F7D80938000089535
:1005300080918000877FF9CF84B58F7702C084B522
:100540008F7D84BD08958091B0008F7703C0809126
:10055000B0008F7D8093B0000895809190008F77D8
:1005600007C0809190008F7D03C080919000877FAD
:100570008093900008958091A0008F7707C08091AC
:10058000A0008F7D03C08091A000877F8093A00092
:100590000895809120018F7707C0809120018F7D81
:1005A00003C080912001877F809320010895CF931D
:1005B000DF93282F30E0F901EE51FE4F8491F901CD
:1005C000E456FE4FD491F901EA5AFE4FC491CC2370
:1005D00089F0811196DFEC2FF0E0EE0FFF1FE45C55
:1005E000FE4FA591B491EC91ED2381E090E021F4D0
:1005F00080E002C080E090E0DF91CF9108951F93EA
:10060000CF93DF93282F30E0F901EE51FE4F849114
:10061000F901E456FE4FD491F901EA5AFE4FC49114
:10062000CC23B9F0162F81116CDFEC2FF0E0EE0F28
:10063000FF1FEE5DFE4FA591B4919FB7F894111185
:1006400004C08C91D095D82302C0EC91DE2BDC93B2
:100650009FBFDF91CF911F910895CF93DF9390E0DB
:10066000FC01E456FE4F2491FC01EA5AFE4F8491AE
:10067000882361F190E0880F991FFC01E85FFE4F2D
:10068000C591D491FC01EE5DFE4FA591B49161112D
:1006900009C09FB7F8948881209582238883EC91C4
:1006A0002E230BC0623061F49FB7F8948881322FFB
:1006B000309583238883EC912E2B2C939FBF06C00B
:1006C0008FB7F894E8812E2B28838FBFDF91CF91CD
:1006D00008953FB7F89480914B0290914C02A091FD
:1006E0004D02B0914E0226B5A89B05C02F3F19F0D0
:1006F0000196A11DB11D3FBFBA2FA92F982F8827A2
:10070000820F911DA11DB11DBC01CD0142E0660FFC
:10071000771F881F991F4A95D1F708952FB7F8942E
:1007200060914702709148028091490290914A027B
:100730002FBF08950F931F93CF93DF93EC018A810E
:10074000882319F061E0888188DF60E0888157DFC5
:1007500083E090E00197F1F761E0888150DF83E268
:1007600090E00197F1F760E0888149DF8A81882372
:1007700019F060E0888171DFACDF6B837C838D834F
:100780009E83898114DF892BA1F4A3DF0B811C8157
:100790002D813E81DC01CB01801B910BA20BB30BA1
:1007A0000F81188529853A85081719072A073B07FD
:1007B00040F78FDF6B837C838D839E838981F7DE97
:1007C000892BA1F086DF0B811C812D813E81DC010C
:1007D000CB01801B910BA20BB30B0F8118852985D0
:1007E0003A85081719072A073B0740F772DF2B8164
:1007F0003C81CB01821B930BDF91CF911F910F9115
:100800000895EF92FF920F931F93CF93DF93EC0124
:100810007C018FE6E80EF11CF7018081823308F03D
:100820001082F701008110E0CE0184DF000F111F5C
:10083000FE01E00FF11F68E370E0BCD674876387A8
:10084000F701808191E0980F9083FE01E80FF11D80
:10085000E80FF11D83859485DF91CF911F910F9152
:10086000FF90EF9008950F931F93CF93DF93EC01C8
:10087000862F6883498391E0641390E09A8361E056
:10088000ECDE60E08981E9DE80E29EE4A0E0B0E099
:100890008F839887A987BA878E0101591F4FF80166
:1008A0001082CE0147DF68E370E084D62B9669930F
:1008B0007993C017D107D9F7DF91CF911F910F918D
:1008C0000895009761F0FC0101900020E9F731974D
:1008D000AF01481B590BBC0183E592E0D7CC80E007
:1008E00090E008958F929F92AF92BF920F931F93C3
:1008F000CF93DF93CDB7DEB7A1970FB6F894DEBFE5
:100900000FBECDBF19A2423008F44AE08E010F5D40
:100910001F4F842E912CA12CB12CA501940127D519
:10092000E62FB901CA0101501109EA3014F4E05D63
:1009300001C0E95CD801EC93232B242B252B69F70C
:10094000C801BFDFA1960FB6F894DEBF0FBECDBFC2
:10095000DF91CF911F910F91BF90AF909F908F909B
:10096000089544D61F920F920FB60F9211240BB622
:100970000F922F933F934F935F936F937F938F9338
:100980009F93AF93BF93EF93FF9383E592E0F2DCE5
:10099000FF91EF91BF91AF919F918F917F916F9157
:1009A0005F914F913F912F910F900BBE0F900FBE13
:1009B0000F901F9018951F920F920FB60F9211244F
:1009C0000BB60F922F938F939F93EF93FF93E0912A
:1009D0006302F09164028081E0916902F0916A0201
:1009E00082FD12C0908180916C028F5F8F73209185
:1009F0006D02821751F0E0916C02F0E0ED5AFD4F6C
:100A0000958F80936C0201C08081FF91EF919F913F
:100A10008F912F910F900BBE0F900FBE0F901F90D4
:100A200018951F920F920FB60F9211242F933F9398
:100A30008F939F93AF93BF93809147029091480209
:100A4000A0914902B0914A023091460223E0230F5F
:100A50002D3720F40196A11DB11D05C026E8230FF6
:100A60000296A11DB11D20934602809347029093E8
:100A70004802A0934902B0934A0280914B029091A0
:100A80004C02A0914D02B0914E020196A11DB11DE4
:100A900080934B0290934C02A0934D02B0934E0270
:100AA000BF91AF919F918F913F912F910F900FBE6A
:100AB0000F901F901895CF93DF93EC011882198245
:100AC00081E08A8361E080E0C8DD60E08981C5DD86
:100AD00080E29EE4A0E0B0E08F839887A987BA8780
:100AE000DF91CF910895E3E5F2E01382128288EE60
:100AF00093E0A0E0B0E084839583A683B78384E08D
:100B000092E09183808385EC90E09587848784ECE4
:100B100090E09787868780EC90E0918B808B81ECCA
:100B200090E0938B828B82EC90E0958B848B86ECAB
:100B300090E0978B868B118E128E138E148EE0EFC1
:100B4000F2E01682178210861186128613861486AA
:100B5000158616861786108A118A128A138A148AB5
:100B6000158A86EA93E0A7DF86E393E0A4CFCF93CC
:100B7000DF93CDB7DEB7C057D1090FB6F894DEBF0B
:100B80000FBECDBF789484B5826084BD84B581608A
:100B900084BD85B5826085BD85B5816085BD809148
:100BA0006E00816080936E001092810080918100C0
:100BB00082608093810080918100816080938100B8
:100BC000809180008160809380008091B10084607A
:100BD0008093B1008091B00081608093B0008091DB
:100BE0009100826080939100809191008160809358
:100BF0009100809190008160809390008091A1008D
:100C000082608093A1008091A10081608093A10007
:100C10008091A00081608093A0008091210182607A
:100C20008093210180912101816080932101809135
:100C3000200181608093200180917A0084608093FC
:100C40007A0080917A00826080937A0080917A00A5
:100C5000816080937A0080917A00806880937A0026
:100C60001092C10010923203109233031092340399
:100C7000109235031092F2021092F3021092F402D5
:100C80001092F5024BDD6B017C014B015C0128EBFE
:100C9000820E2BE0921EA11CB11C40DD6C157D055F
:100CA0008E059F0528F086169706A806B906A8F7B0
:100CB00010DD4B015C0190EDC92E97E0D92EE12C9F
:100CC000F12C07DDDC01CB0188199909AA09BB09C0
:100CD000883E9340A105B105A0F331E0C31AD108C5
:100CE000E108F10848EE840E43E0941EA11CB11CFB
:100CF000C114D104E104F10421F7E0916302F09101
:100D0000640282E08083E0915F02F09160021082D1
:100D1000E0916102F091620280E1808310926B02A7
:100D2000E0916702F091680286E08083E0916502BD
:100D3000F0916602808180618083E0916502F0918C
:100D40006602808188608083E0916502F09166028E
:100D5000808180688083E0916502F09166028081E5
:100D60008F7D8083DBDC6093F2027093F3028093CB
:100D7000F4029093F50282E192E0A3DDCFDC6B01F7
:100D80007C014B015C018AE0880E911CA11CB11C06
:100D9000C5DC6C157D058E059F0528F08616970627
:100DA000A806B906A8F781E08093060347E066E04D
:100DB000CE01019658DD80E7FE013196A6EAB3E048
:100DC00001900D928A95E1F742E062E0CE01019632
:100DD0004ADD80E7FE013196A6E3B3E001900D9273
:100DE0008A95E1F79BDC672B682B692B39F496DC3D
:100DF000623071058105910508F4D4C08FDCC09084
:100E00004F02D0905002E0905102F09052026C15C7
:100E10007D058E059F0540F460934F02709350024C
:100E20008093510290935202C0904F02D090500292
:100E3000E0905102F09052029B01AC012C193D0947
:100E40004E095F0969017A013AEFC316D104E10442
:100E5000F10408F4A7C060934F027093500280938E
:100E600051029093520284EF91E0A0E0B0E08093B1
:100E7000FE029093FF02A0930003B093010310922F
:100E80000203109203031092040310920503809151
:100E9000F6029091F702A091F802B091F9028093C6
:100EA000FA029093FB02A093FC02B093FD0236DCA1
:100EB0006093F6027093F7028093F8029093F90220
:100EC0002DDC6093F2027093F3028093F40290930E
:100ED000F50224DC6B017C0184E292E0F2DC4AE062
:100EE00061E070E080E090E0FDDC8BE292E0E9DC24
:100EF0004AE0C701B601F6DC8DE292E0E2DC8091C7
:100F0000F6029091F702A091F802B091F902A701C0
:100F10009601281B390B4A0B5B0BCA01B9014AE049
:100F2000E1DC8DE292E0CDDC8091F6029091F70257
:100F3000A091F802B091F902C090FA02D090FB02A1
:100F4000E090FC02F090FD02BC01CD016C197D091E
:100F50008E099F094AE0C6DC8FE292E0B2DCDEDB5C
:100F60004AE0C0DC81E392E0ACDC81E292E0A9DC03
:100F7000D5DB6B017C014B015C0135E0830E911CDC
:100F8000A11CB11CCBDB6C157D058E059F0508F0FF
:100F9000CEC0C4DB6093F6027093F7028093F80230
:100FA0009093F90281EBE82E83E0F82E412C512C2E
:100FB000320110E0D7018D909D907D01A12CB12CC4
:100FC000C501B401BFD09B01AC01C301B201F2D194
:100FD0002B013C014AE0C501B40184DC113319F452
:100FE00081E292E002C088E392E06BDC1F5F123383
:100FF00009F720E030E048E452E4C301B2013ED2F8
:101000006B017C014B015C019B01AC01CFD28823B9
:1010100019F08AE392E018C026013701E89477F8C6
:101020002FEF3FEF4FE75FE7C301B201BFD281115E
:101030000DC02FEF3FEF4FE75FE7C301B2017ED056
:10104000181624F48EE392E03CDC66C02FEF3FEFED
:101050004FE75FE4C701B601A5D218161CF482E47D
:1010600092E0F2CF2FEF3FEF4FE75FECC701B60101
:1010700065D087FDF4CF20E030E0A901C701B601BB
:101080005DD087FF0AC06DE283E592E095D9460105
:101090005701B7FAB094B7F8B0942AE037ED43EAB5
:1010A0005BE3C501B40186D14B015C014FD26B01FA
:1010B0007C0148D09B01AC01C501B4017AD14B0140
:1010C0005C014AE0C701B6010DDC6EE283E592E007
:1010D00073D920E030E040E251E4C501B40193D07F
:1010E0004B015C0133D26B01E12CF12C4AE0C701CA
:1010F000B601F8DBC701B60125D09B01AC01C501E3
:10110000B40157D120E030E040E251E47CD01ED25F
:1011100080E090E04AE0E6DB81E292E0D2DB86EA22
:1011200093E06FDB86E393E06CDBB3D95BCE86168E
:101130009706A806B90608F025CF2BCF40D008F4B3
:1011400081E00895E89409C097FB3EF4909580955E
:10115000709561957F4F8F4F9F4F9923A9F0F92F7D
:1011600096E9BB279395F695879577956795B795FB
:10117000F111F8CFFAF4BB0F11F460FF1BC06F5FE1
:101180007F4F8F4F9F4F16C0882311F096E911C0F3
:10119000772321F09EE8872F762F05C0662371F014
:1011A00096E8862F70E060E02AF09A95660F771F28
:1011B000881FDAF7880F9695879597F90895990F04
:1011C0000008550FAA0BE0E8FEEF16161706E80711
:1011D000F907C0F012161306E407F50798F0621B32
:1011E000730B840B950B39F40A2661F0232B242B07
:1011F000252B21F408950A2609F4A140A6958FEF26
:10120000811D811D08950BD078C069D028F06ED063
:1012100018F0952309F05AC05FC01124A2C07ED0F7
:10122000A0F3959FD1F3950F50E0551F629FF001F9
:10123000729FBB27F00DB11D639FAA27F00DB11D52
:10124000AA1F649F6627B00DA11D661F829F2227DB
:10125000B00DA11D621F739FB00DA11D621F839F62
:10126000A00D611D221F749F3327A00D611D231F38
:10127000849F600D211D822F762F6A2F11249F5786
:1012800050408AF0E1F088234AF0EE0FFF1FBB1FA9
:10129000661F771F881F91505040A9F79E3F510548
:1012A00070F014C05EC05F3FECF3983EDCF38695AF
:1012B00077956795B795F795E7959F5FC1F7FE2BF3
:1012C000880F911D9695879597F9089597F99F67CF
:1012D00080E870E060E008959FEF80EC08950024BE
:1012E0000A941616170618060906089500240A948B
:1012F00012161306140605060895092E0394000C11
:1013000011F4882352F0BB0F40F4BF2B11F460FF9F
:1013100004C06F5F7F4F8F4F9F4F089557FD9058C8
:10132000440F551F59F05F3F71F04795880F97FBA9
:10133000991F61F09F3F79F0879508951216130663
:101340001406551FF2CF4695F1DF08C01616170692
:101350001806991FF1CF86957105610508940895C7
:10136000E894BB2766277727CB0197F90895A1E278
:101370001A2EAA1BBB1BFD010DC0AA1FBB1FEE1F0F
:10138000FF1FA217B307E407F50720F0A21BB30B5A
:10139000E40BF50B661F771F881F991F1A9469F7D6
:1013A00060957095809590959B01AC01BD01CF0132
:1013B00008955058BB27AA270ED09FCF90DF30F05A
:1013C00095DF20F031F49F3F11F41EF485CF0EF429
:1013D000E095E7FB7BCFE92FA1DF80F3BA17620727
:1013E00073078407950718F071F49EF5B9CF0EF4D2
:1013F000E0950B2EBA2FA02D0B01B90190010C0125
:10140000CA01A0011124FF27591B99F0593F50F43C
:10141000503E68F11A16F040A22F232F342F442794
:10142000585FF3CF469537952795A795F04053958C
:10143000C9F77EF41F16BA0B620B730B840BBAF05C
:101440009150A1F0FF0FBB1F661F771F881FC2F7C7
:101450000EC0BA0F621F731F841F48F487957795DB
:101460006795B795F7959E3F08F0B3CF9395880F92
:1014700008F09927EE0F9795879508950CD03DCFEA
:1014800035DF40F02CDF30F021F45F3F19F01ECF44
:10149000511167CF21CF42DF98F39923C9F3552328
:1014A000B1F3951B550BBB27AA2762177307840757
:1014B00038F09F5F5F4F220F331F441FAA1FA9F30D
:1014C00033D00E2E3AF0E0E830D091505040E695FF
:1014D000001CCAF729D0FE2F27D0660F771F881F60
:1014E000BB1F261737074807AB07B0E809F0BB0B4F
:1014F000802DBF01FF2793585F4F2AF09E3F510573
:1015000068F0E4CE2ECF5F3FECF3983EDCF3869597
:1015100077956795B795F7959F5FC9F7880F911DE8
:101520009695879597F90895E1E0660F771F881FD4
:10153000BB1F621773078407BA0720F0621B730B87
:10154000840BBA0BEE1F88F7E0950895EFDE88F064
:101550009F5790F0B92F9927B751A0F0D1F0660F9F
:10156000771F881F991F1AF0BA95C9F712C0B130BA
:1015700081F0F6DEB1E00895F3CE672F782F88274B
:10158000B85F39F0B93FCCF3869577956795B395F9
:10159000D9F73EF490958095709561957F4F8F4F68
:1015A0009F4F08950CDE08F48FEF089508DE880B36
:1015B000990B0895AA1BBB1B51E107C0AA1FBB1FB3
:1015C000A617B70710F0A61BB70B881F991F5A95CF
:1015D000A9F780959095BC01CD010895EE0FFF1FEE
:1015E000881F8BBF0790F691E02D199481E090E061
:0815F000F89400C0F894FFCF4D
:1015F80000000000DC01460174012802A5018301F6
:101608009701564D4450565F317C315F564D4450DA
:10161800560D0A00564D4450455F003A323A007C58
:10162800005F564D4450450020006E616E00696EA3
:0616380066006F766600FB
:00000001FF
