:1000000014C1000043C1000041C100003FC1000015
:100010003DC100003BC1000039C1000037C10000F4
:1000200035C1000033C1000031C100002FC1000004
:100030002DC100002BC1000029C1000027C1000014
:1000400025C1000088C6000021C100001FC10000BA
:100050000C943A0A1BC1000019C1000044C50000FD
:1000600015C1000082C3000057C300000FC100008B
:100070000DC100000BC1000009C1000007C1000054
:100080003DC6000003C1000001C10000FFC0000028
:10009000FDC00000FBC00000F9C0000089C60000E0
:1000A000F5C00000F3C00000FCC50000EFC0000078
:1000B000EDC00000EBC00000E9C00000C5C50000B5
:1000C000E5C00000E3C00000E1C00000DFC00000A8
:1000D000DDC00000DBC00000D9C00000D7C00000B8
:1000E000D5C000006F027202610265026B02A902B4
:1000F00076027A028002840288028E0292029602BE
:10010000A9029C02A002A4020000210024002700F2
:100110002A002D0030003300010100000401070116
:100120000A0100002200250028002B002E003100CB
:10013000340002010000050108010B01000020004D
:100140002300260029002C002F00320000010000AF
:10015000030106010901050505050705080808084A
:10016000020202020A0A080804040404010101014F
:10017000010101010303030303030303040707074A
:100180000C0C0C0C0C0C0C0C0202020206060606EF
:10019000060606060B0B0B0B0B0B0B0B01021020BC
:1001A00020080810204010204080020102010804AD
:1001B0000201010204081020408080402010080441
:1001C000020180040201804020100804020108049A
:1001D00002010102040810204080010204081020DE
:1001E000408000000A0B02090C0D0E0807030401F1
:1001F00000000000000000000000000000000000FF
:1002000000000000000000000000000000001211CB
:1002100010000000000000000000000000000000CE
:100220000000000000000000001811241FBECFEFE6
:10023000D1E2DEBFCDBF00E00CBF12E0A0E0B2E033
:10024000E0E8F6E300E00BBF02C007900D92A43A8D
:10025000B107D9F726E0A4EAB2E001C01D92A237A7
:10026000B207E1F711E0C5E1D1E000E006C0219757
:100270000109802FFE010E941D1BC431D10780E0BF
:100280000807A9F70E94470E0C943E1BB9CEFC014B
:10029000538D448D252F30E0842F90E0821B930BEB
:1002A000541710F0CF96089501970895FC01918D91
:1002B000828D981761F0828DDF01A80FB11D5D96C8
:1002C0008C91928D9F5F9F73928F90E008958FEF36
:1002D0009FEF0895FC01918D828D981731F0828DEA
:1002E000E80FF11D858D90E008958FEF9FEF089541
:1002F000FC01918D228D892F90E0805C9F4F821BA5
:1003000091098F73992708958BED94E0F1DF21E037
:10031000892B09F420E0822F0895FC01848DDF01F0
:10032000A80FB11DA35ABF4F2C91848D90E0019668
:100330008F739927848FA689B7892C93A089B18957
:100340008C91837080648C93938D848D981306C0F8
:100350000288F389E02D80818F7D80830895EF925C
:10036000FF920F931F93CF93DF93EC0181E0888F6F
:100370009B8D8C8D981305C0E889F989808185FD56
:1003800025C0F62E0B8D10E00F5F1F4F0F73112746
:10039000E02E8C8DE8120BC00FB607FCFACFE8896F
:1003A000F989808185FFF5CFCE01B7DFF2CF8B8D44
:1003B000FE01E80FF11DE35AFF4FF0829FB7F8945A
:1003C0000B8FEA89FB89808180620AC09FB7F8940D
:1003D000EE89FF896083E889F98980818370806470
:1003E00080839FBF81E090E0DF91CF911F910F91BB
:1003F000FF90EF900895CF93DF93EC01888D8823D1
:10040000C1F0EA89FB89808185FD05C0A889B98989
:100410008C9186FD0EC00FB607FCF5CF808185FF5D
:10042000F2CFA889B9898C9185FFEDCFCE0175DF18
:10043000E8CFDF91CF91089580E090E0892B19F00B
:1004400063DF811125C080E090E0892B41F080E0DE
:1004500090E0892B21F00E94000081111CC080E0F7
:1004600090E0892B41F080E090E0892B21F00E9400
:100470000000811113C080E090E0892BA1F080E0A2
:1004800090E0892B81F00E94000081110AC008953C
:100490000E940000D8CF0E940000E1CF0E9400001F
:1004A000EACF0C940000089590E0FC013197E2310E
:1004B000F10508F04EC08827EE58FF4F8F4F0C947F
:1004C0001D1B809180008F7703C0809180008F7DFD
:1004D00080938000089580918000877FF9CF84B554
:1004E0008F7702C084B58F7D84BD08958091B00060
:1004F0008F7703C08091B0008F7D8093B000089506
:10050000809190008F7707C0809190008F7D03C00D
:1005100080919000877F8093900008958091A00043
:100520008F7707C08091A0008F7D03C08091A000CD
:10053000877F8093A0000895809120018F7707C066
:10054000809120018F7D03C080912001877F80935F
:100550002001089585ED8093BC008091BC0084FD4E
:10056000FCCF1092B60408954091AD03262F30E0E1
:10057000240F311D21323105DCF42091B6042430E2
:10058000C9F4FC0180E090E0861758F43091AD0387
:100590002191DC01A357BC4FA30FB11D2C930196F1
:1005A000F3CF8091AD03680F6093AD0380E00895B1
:1005B00081E0089582E008950895E0916F048091AC
:1005C0006E04E81730F4F0E0E059FB4F808190E0D2
:1005D00008958FEF9FEF089590916F0480916E04BE
:1005E000981750F4E92FF0E0E059FB4F208130E0FC
:1005F0009F5F90936F0402C02FEF3FEFC9010895F2
:1006000080916E0490E020916F04821B91090895FF
:10061000CF92DF92EF92FF920F931F93CF93DF93CE
:100620007C01CB018A012091B704222389F0EB01E0
:100630006B01C40ED51ECC15DD0561F06991D701A3
:10064000ED91FC910190F081E02DC7011995F3CF58
:10065000642F8ADFC801DF91CF911F910F91FF9026
:10066000EF90DF90CF900895CF93DF931F92CDB797
:10067000DEB769832091B7042223D1F02091DA04F8
:10068000203240F021E030E0FC013383228380E01F
:1006900090E014C08091B804E82FF0E0E754FB4FDD
:1006A000998190838F5F8093B8048093DA0404C0AB
:1006B00061E0CE01019658DF81E090E00F90DF917C
:1006C000CF910895089580E090E008950E943A1B2C
:1006D000CF93DF93EC01898191E09093B7048093ED
:1006E000D9041092B8041092DA048EEB95E0BCDFC6
:1006F00081E09FD7888362E08981F7D78EEB95E010
:100700006BDFD82F80E0C82F8EEB95E065DF8C2B58
:100710009D2BDF91CF9108951F920F920FB60F92EC
:1007200011240BB60F922F933F934F935F936F93C8
:100730007F938F939F93AF93BF93EF93FF938BED33
:1007400094E0EBDDFF91EF91BF91AF919F918F917D
:100750007F916F915F914F913F912F910F900BBEC1
:100760000F900FBE0F901F9018951F920F920FB60B
:100770000F9211240BB60F922F938F939F93EF93A9
:10078000FF93E091EB04F091EC048081E091F1049F
:10079000F091F20482FD12C090818091F4048F5F89
:1007A0008F732091F504821751F0E091F404F0E08A
:1007B000E552FB4F958F8093F40401C08081FF9137
:1007C000EF919F918F912F910F900BBE0F900FBEC5
:1007D0000F901F901895CF93DF93282F30E0F901E9
:1007E000EE51FE4F8491F901E456FE4FD491F90188
:1007F000EA5AFE4FC491CC2389F0811155DEEC2FCB
:10080000F0E0EE0FFF1FE45CFE4FA591B491EC9178
:10081000ED2381E090E021F480E002C080E090E0F0
:10082000DF91CF9108951F93CF93DF93282F30E06E
:10083000F901EE51FE4F8491F901E456FE4FD49137
:10084000F901EA5AFE4FC491CC23B9F0162F811159
:100850002BDEEC2FF0E0EE0FFF1FEE5DFE4FA591BB
:10086000B4919FB7F894111104C08C91D095D823FE
:1008700002C0EC91DE2BDC939FBFDF91CF911F91E3
:100880000895CF92DF92EF92FF920F931F93CF9331
:10089000DF936C018B017A01EC01C053DC4F88813E
:1008A00087FF04C0FB011182108224C02CE02C9D24
:1008B000C0012D9D900D11242881AC01420F511DC6
:1008C00027FD5A9520916D0430E04217530794F4A8
:1008D0002881AC01420F511D27FD5A959A01FA015A
:1008E000EE0FFF1F2E0F3F1FF901E352FC4F208137
:1008F00026FD19C088818F5F88832CE02C9DC00164
:100900002D9D900D11242881AC01420F511D27FD12
:100910005A9520916D0430E042175307B4F42881B2
:100920002C303CF112C02881820F911D27FD9A9531
:10093000FC01EE0FFF1F8E0F9F1FFC01E352FC4FC7
:10094000808160E08F736FDFD5CFF8018081918166
:10095000049680349C4918F480E49CE904C0F801B2
:10096000808191810496F701918380838FEF888342
:1009700044C0F801408151812881BC01620F711D82
:1009800027FD7A959B01FB01EE0FFF1F2E0F3F1FE6
:10099000F901E352FC4F21813281240F351FF70109
:1009A000318320832881AC01420F511D27FD5A95C8
:1009B0009A01FA01EE0FFF1F2E0F3F1FF901E352BC
:1009C000FC4F208126FF19C02881820F911D27FD31
:1009D0009A95FC01EE0FFF1F8E0F9F1FFC01E35243
:1009E000FC4F808161E08F73DF91CF911F910F9158
:1009F000FF90EF90DF90CF9016CFDF91CF911F91B6
:100A00000F91FF90EF90DF90CF900895CF93DF93F9
:100A100090E0FC01E456FE4F2491FC01EA5AFE4F9F
:100A20008491882361F190E0880F991FFC01E85FB1
:100A3000FE4FC591D491FC01EE5DFE4FA591B4919E
:100A4000611109C09FB7F89488812095822388831B
:100A5000EC912E230BC0623061F49FB7F89488812B
:100A6000322F309583238883EC912E2B2C939FBFBC
:100A700006C08FB7F894E8812E2B28838FBFDF91B3
:100A8000CF9108953FB7F8948091D9039091DA03FC
:100A9000A091DB03B091DC0326B5A89B05C02F3FD6
:100AA00019F00196A11DB11D3FBFBA2FA92F982F94
:100AB0008827820F911DA11DB11DBC01CD0142E00F
:100AC000660F771F881F991F4A95D1F708952FB792
:100AD000F8946091D5037091D6038091D7039091DB
:100AE000D8032FBF08951F920F920FB60F921124B3
:100AF0002F933F938F939F93AF93BF938091D50391
:100B00009091D603A091D703B091D8033091D4032C
:100B100023E0230F2D3720F40196A11DB11D05C040
:100B200026E8230F0296A11DB11D2093D4038093C4
:100B3000D5039093D603A093D703B093D8038091A5
:100B4000D9039091DA03A091DB03B091DC03019605
:100B5000A11DB11D8093D9039093DA03A093DB0309
:100B6000B093DC03BF91AF919F918F913F912F91F3
:100B70000F900FBE0F901F9018950F931F93CF9358
:100B8000DF93EC018A81882319F061E088813EDFE0
:100B900060E0888148DE83E090E00197F1F761E052
:100BA000888141DE83E290E00197F1F760E088817F
:100BB0003ADE8A81882319F060E0888127DF62DFCE
:100BC0006B837C838D839E83898105DE892BA1F4D1
:100BD00059DF0B811C812D813E81DC01CB01801B03
:100BE000910BA20BB30B0F81188529853A85081745
:100BF00019072A073B0740F745DF6B837C838D830A
:100C00009E838981E8DD892BA1F03CDF0B811C816B
:100C10002D813E81DC01CB01801B910BA20BB30B1C
:100C20000F81188529853A85081719072A073B0778
:100C300040F728DF2B813C81CB01821B930BDF9196
:100C4000CF911F910F9108951F920F920FB60F929F
:100C500011240BB60F922F933F934F935F936F9393
:100C60007F938F939F93AF93BF93EF93FF9348E24C
:100C700051E064E271E080E090E003DEFF91EF91EB
:100C8000BF91AF919F918F917F916F915F914F91A4
:100C90003F912F910F900BBE0F900FBE0F901F90A2
:100CA00018951F920F920FB60F9211240BB60F9248
:100CB0002F933F934F935F936F937F938F939F9364
:100CC000AF93BF93EF93FF9348EA50E064EA70E07C
:100CD00083E090E0D6DDFF91EF91BF91AF919F91BE
:100CE0008F917F916F915F914F913F912F910F90D5
:100CF0000BBE0F900FBE0F901F9018951F920F9272
:100D00000FB60F9211240BB60F922F933F934F9370
:100D10005F936F937F938F939F93AF93BF93EF9363
:100D2000FF9348E950E064E970E082E090E0A9DDDB
:100D3000FF91EF91BF91AF919F918F917F916F91B3
:100D40005F914F913F912F910F900BBE0F900FBE6F
:100D50000F901F9018951F920F920FB60F921124AB
:100D60000BB60F922F933F934F935F936F937F93A5
:100D70008F939F93AF93BF93EF93FF9348E850E017
:100D800064E870E081E090E07CDDFF91EF91BF913D
:100D9000AF919F918F917F916F915F914F913F9113
:100DA0002F910F900BBE0F900FBE0F901F901895B4
:100DB0001F920F920FB60F9211240BB60F922F9322
:100DC0003F934F935F936F937F938F939F93AF93D3
:100DD000BF93EF93FF938091B900887F803609F429
:100DE0009CC068F5883209F45BC090F4803109F446
:100DF00054C038F4882309F4F2C0883009F44DC097
:100E0000F1C0883109F44CC0803209F45DC0EAC0F9
:100E1000803409F468C048F4803309F455C088333D
:100E200009F0E0C08093B404D4C0803509F44FC009
:100E3000883509F45DC0883409F0D4C0D2C088393F
:100E400009F4C3C0A8F4883709F467C038F48836B9
:100E500009F463C0803709F460C0C4C0883809F45D
:100E6000B4C0803909F45FC0803809F0BBC05BC0F2
:100E7000803B09F484C038F4803A09F466C0883AAB
:100E800009F47DC0AFC0803C09F4A3C0883C09F4DC
:100E9000A0C0883B09F486C0A5C08091910410C011
:100EA0009091B3048091B204981770F5E091B30467
:100EB00081E08E0F8093B304F0E0EE56FB4F80810B
:100EC0008093BB0085EC82C08093B4048AC0E0911B
:100ED000B30481E08E0F8093B3048091BB00F0E0F7
:100EE000EE56FB4F80839091B3048091B2046AC0A8
:100EF000E091B30481E08E0F8093B3048091BB0036
:100F0000F0E0EE56FB4F80838091B504811169C0FB
:100F100081E08093900484EA5DC083E08093B6040E
:100F20001092CF03CFCF8091CF03803208F04DC015
:100F3000E091CF0381E08E0F8093CF038091BB00BF
:100F4000F0E0E155FC4F8083BDCF85EC8093BC0081
:100F50001092B6048091CF03803230F4E091CF0339
:100F6000F0E0E155FC4F10826091CF0370E08FEA12
:100F700093E0E0E0F0E019951092CF0333C084E0F5
:100F80008093B6041092AE031092AD03E0E0F0E05F
:100F900019958091AD03811105C081E08093AD0367
:100FA00010928D03E091AE0381E08E0F8093AE032B
:100FB000F0E0E357FC4F80818093BB009091AE033B
:100FC0008091AD03981708F47DCF85E88093BC002D
:100FD00009C085EC8093BC001092B60403C0109247
:100FE000B404B8DAFF91EF91BF91AF919F918F91C7
:100FF0007F916F915F914F913F912F910F900BBE19
:101000000F900FBE0F901F901895CF93DF93EC01B8
:10101000898191E09093B7048093D9041092B80429
:101020001092DA048EEB95E01FDB81E002D3888317
:1010300061E089815AD38EEB95E0CEDADF91CF91D2
:1010400008952F923F924F925F926F927F928F926C
:101050009F92AF92BF92CF92DF92EF92FF920F9347
:101060001F93CF93DF9300D000D0CDB7DEB71C0124
:101070007E836D838A0160E5C8DF8F5F880F90E013
:10108000F8019183808366E4C101BFDF282F30E03F
:101090002F5F3F4F3A832983F80135832483A08152
:1010A000B0E020E03FE24AE350E00E94E4194B0147
:1010B0005C01F4EF8F0EF1E09F1EA11CB11C98EEB5
:1010C000C92E93E0D92EE12CF12CC501B401A70162
:1010D00096010E94A619A981BA810E94EE1969831E
:1010E0007A838B839C8320ED422E27E0522E612C45
:1010F000712CC501B401A30192010E94A619698156
:101100007A818B819C81620F731F841F951FA701B9
:1011100096010E94A619F8012287338744875587D4
:1011200061E5C101D5DA9C01332702C0220F331FCC
:101130009A95E2F72F5F3F4F3A832983F80137836F
:101140002683A081B0E020E03FE24AE350E00E9425
:10115000E4194B015C01F4EF8F0EF1E09F1EA11C1E
:10116000B11CC501B401A70196010E94A619A9816D
:10117000BA810E94E41969837A838B839C83C501B9
:10118000B401A30192010E94A61969817A818B8121
:101190009C81620F731F841F951FA70196010E94F7
:1011A000A619F80126873787408B518B60E7C1016C
:1011B0002CDF8F5F880F90E0F8019383828361E7D3
:1011C000C10186DA9C01992702C0880F991F3A95C0
:1011D000E2F70196F80191878087ED81FE812381F6
:1011E000222339F0F80126813781821B930B9187E6
:1011F0008087F801A281B0E020E03FE24AE350E0BE
:101200000E94E4196B017C01F4EFCF0EF1E0DF1EC8
:10121000E11CF11C88EE882E83E0982EA12CB12CC5
:10122000C701B601A50194010E94A619F801A08585
:10123000B1850E94E4192B013C01C701B60120EDE4
:1012400037E040E050E00E94A619C301B201620FEE
:10125000731F841F951FA50194010E94A619F80110
:10126000228B338B448B558B26960FB6F894DEBFBA
:101270000FBECDBFDF91CF911F910F91FF90EF90E7
:10128000DF90CF90BF90AF909F908F907F906F90A6
:101290005F904F903F902F900895CF93DF93EB0195
:1012A00061E0B3DE84FB992790F9988383FB99274B
:1012B00090F99A8382FB992790F9998386FB992765
:1012C00090F99B83881F8827881F8C83DF91CF919B
:1012D00008950F931F93CF93DF93EC01142F052FE5
:1012E000898191E09093B7048093D9041092B80457
:1012F0001092DA048EEB95E0B7D9602F8EEB95E073
:10130000B3D9612F8EEB95E0AFD981E092D188837C
:10131000DF91CF911F910F9108951F93CF93DF938A
:10132000EC01142F898191E09093B7048093D90444
:101330001092B8041092DA048EEB95E095D9612FE3
:101340008EEB95E091D981E074D18883DF91CF91C4
:101350001F910895CF93DF93EC01462F416060E029
:10136000DCDFB5DB7E836D8363E1CE014EDE87700B
:1013700081F48A819B81892BB9F3A9DB2D813E8180
:10138000621B730B8A819B818617970768F780E041
:1013900009C041E06BE0CE01C0DF40E060E0CE017B
:1013A000BCDF81E0DF91CF9108950F931F93CF931E
:1013B000DF93EC0141E060E8B0DF41E06FEFCE0188
:1013C000ACDF40E060E0CE01A8DF4F8161E9CE01F3
:1013D000A4DF41E060E0CE01A0DF40E06FEFCE018E
:1013E0009CDF40E060E8CE0198DF41E060E0CE01A4
:1013F00094DF6DDB7E836D8360E0CE0106DE80FFCF
:101400000FC08A819B81892BB9F361DB2D813E81DD
:10141000621B730B8A819B818617970768F721C02F
:1014200056DB7E836D8363E1CE01EFDD877079F457
:101430008A819B81892BB9F34ADB2D813E81621B16
:10144000730B8A819B818617970768F70AC06EE144
:10145000CE013ED98C0141E06BE0CE015EDFC801D8
:1014600004C081E08C838FEF9FEFDF91CF911F91BC
:101470000F9108951F920F920FB60F9211240BB681
:101480000F922F933F934F935F936F937F938F931D
:101490009F93AF93BF93EF93FF93E0E0F0E0199534
:1014A000FF91EF91BF91AF919F918F917F916F913C
:1014B0005F914F913F912F910F900BBE0F900FBEF8
:1014C0000F901F901895CF92DF92EF92FF920F939B
:1014D0001F93CF93DF938C01055F1F4FEC016F9635
:1014E000C12CD12C7601F801619171918F0180E0BE
:1014F00090E00E9491189B01AC01C701B6010E94C7
:10150000041A6B017C010C171D0769F720E030E01D
:1015100040E251E40E94681ADF91CF911F910F9130
:10152000FF90EF90DF90CF9008950F931F93CF938C
:10153000DF93EC018F8D8A3008F01F8E0F8D10E045
:10154000CE011BDB000F111FFE01E00FF11F68E34E
:1015500070E00E94091B748763878F8D91E0980F5C
:101560009F8FC80FD11DC80FD11D8B859C85DF9122
:10157000CF911F910F910895CF93DF93C82FD0E0A3
:101580002CE0829FC00111248E5E994F0EDFA0E0F7
:10159000B0E080559109A109B109FE01E35AFC4F61
:1015A0008E97A105B10530F48081811104C081E0DE
:1015B000808302C0108280E0DF91CF910895009770
:1015C00061F0FC0101900020E9F73197AF01481B61
:1015D000590BBC018BED94E061C280E090E008956E
:1015E000EECFEBEDF4E0A089B18982E08C93A48585
:1015F000B5851C92A685B7858FEC8C93108EA48937
:10160000B58986E08C93A289B3898C9180618C9393
:10161000A289B3898C9188608C93A289B3898C91BB
:1016200080688C930288F389E02D80818F7D808390
:101630000895282F3091DA04313208F04AC08091A1
:10164000B6048111FCCF9091D90442E04093B604D6
:101650002093B5042FEF2093B4041092B304309379
:10166000B204E9EBF4E0A2E9B4E020E0321721F0A3
:1016700041914D932F5FFACF1092910420919104E4
:10168000990F922B9093910490919004913061F472
:1016900010929004909191049093BB009091BC00A3
:1016A00093FDF8CF95EC01C095EE9093BC0090911E
:1016B000B6049230E1F39091B4049F3F79F08091A9
:1016C000B404803241F08091B404803331F084E07E
:1016D00005C081E003C082E001C083E01092B8043D
:1016E0001092DA041092B70408959091B604911103
:1016F000FCCF613208F060E291E09093B6049093E1
:10170000B5042FEF2093B4041092B304260F209356
:10171000B2049093910490919104880F892B809347
:10172000910480919004813061F410929004809132
:1017300091048093BB008091BC0083FDF8CF85ECC1
:1017400001C085EE8093BC008091B6048130E1F346
:101750008091B304861710F46091B304E2E9F4E0D9
:10176000A0E7B4E080E0861721F091919D938F5F10
:10177000FACF10926F0480936E0408958F929F9217
:10178000AF92BF920F931F93CF93DF93CDB7DEB786
:10179000A1970FB6F894DEBF0FBECDBF19A242309D
:1017A00008F44AE08E010F5D1F4F842E912CA12C6E
:1017B000B12CA50194010E94A619E62FB901CA0116
:1017C00001501109EA3014F4E05D01C0E95CD80170
:1017D000EC93232B242B252B61F7C801F0DEA19677
:1017E0000FB6F894DEBF0FBECDBFDF91CF911F9132
:1017F0000F91BF90AF909F908F900895CF92DF92FE
:10180000EF92FF92CF93DF936B017C016DE28BED42
:1018100094E00E94AF01EC0166277727CB016C1999
:101820007D098E099F094AE0A9DF8C0F9D1FDF917A
:10183000CF91FF90EF90DF90CF900895CF93DF93FB
:10184000EC011882198281E08A8361E080E0DED8B1
:1018500060E08981DBD888EE93E0A0E0B0E08F8380
:101860009887A987BA8780916D04803398F491E0B6
:10187000980F90936D0489A390E0FC01EE0FFF1F79
:101880008E0F9F1FFC01E352FC4F88EB9BE092837D
:10189000818302C08FEF89A31F8ECE016ED968E3CA
:1018A00070E00E94091BFE013B96CE014F966193AA
:1018B0007193E817F907D9F718A2DF91CF9108952E
:1018C000CF92DF92EF92FF92DC01A03282E0B80764
:1018D0000CF03EC0B7FD06C0A53BB1052CF0A4EB53
:1018E000B0E002C0A0E0B0E08091100628E830E04F
:1018F0006901C81AD10887FDD394CC0CDD1CCC0C2F
:10190000DD1C0D2C000CEE08FF088091110628E567
:1019100032E0281B310987FD3395220F331F220F38
:10192000331FA901330F660B770B9A01AB012C19FA
:101930003D094E095F090E94EE1924EB30E040E0BA
:1019400050E00E94C819C20ED31EE41EF51ED60137
:1019500090910F06903398F58091100648E850E07A
:10196000481B510987FD5395440F551F440F551FC0
:10197000A417B5078CF08091110628E532E0281BEA
:10198000310987FD3395220F331F220F331FAD011D
:101990002A173B070CF4A90142505109440F551F67
:1019A0002FB7F894892F90E0FC01EE0FFF1F8E0FE8
:1019B0009F1FFC01E352FC4F528341832FBFFF90D6
:1019C000EF90DF90CF9008958F929F92AF92BF9249
:1019D000CF92DF92EF92FF928091110628E532E0DC
:1019E0006901C81AD10887FDD394CC0CDD1CCC0C3E
:1019F000DD1C0D2C000CEE08FF088091100628E875
:101A000030E04901881A910887FD9394880C991C4D
:101A1000880C991C092C000CAA08BB0880910F06A1
:101A20008F3FC1F090E0FC01EE0FFF1F8E0F9F1F54
:101A3000FC01E352FC4F2181328143E0220F331F2E
:101A40004A95E1F754E0369527955A95E1F72E5FD0
:101A50003F4F02C020E030E02F5F3F4FC901330FFE
:101A6000AA0BBB0B9C01AD01281939094A095B0976
:101A7000A4EBB0E00E94E419A701960128193909E6
:101A80004A095B090E94C819C901FF90EF90DF90D5
:101A9000CF90BF90AF909F908F900895CF92DF929C
:101AA000EF92FF920F931F93CF93DF936C017A0114
:101AB0008B01C0E0D0E0CE15DF0581F0D8016D913B
:101AC0008D01D601ED91FC910190F081E02DC601D0
:101AD0001995892B11F02196EECF7E01C701DF9178
:101AE000CF911F910F91FF90EF90DF90CF900895CD
:101AF0008F929F92AF92BF92CF92DF92EF92FF921E
:101B00000F931F93CF93DF936B017C01142F9B01E5
:101B1000AC010E94051B882319F088E992E027C0D8
:101B200046015701E894B7F82FEF3FEF4FE75FE723
:101B3000C501B4010E94051B81110DC02FEF3FEFBD
:101B40004FE75FE7C501B4010E948D1818161CF419
:101B50008CE992E00CC02FEF3FEF4FE75FE4C70145
:101B6000B6010E94011B18167CF480EA92E0DF9116
:101B7000CF911F910F91FF90EF90DF90CF90BF908A
:101B8000AF909F908F901BCD2FEF3FEF4FE75FEC13
:101B9000C701B6010E948D1887FDE7CF20E030E035
:101BA000A901C701B6010E948D1887FF0BC06DE225
:101BB0008BED94E00E94AF01EC01F7FAF094F7F896
:101BC000F09402C0C0E0D0E000E060E070E080E0AF
:101BD0009FE3101741F020E030E040E251E40E9422
:101BE000681A0F5FF6CFA70196010E94041A6B01D5
:101BF0007C010E94D51A4B015C014AE0BFDDC80F91
:101C0000D91F1123B1F1C501B4010E9491189B01A4
:101C1000AC01C701B6010E94031A6B017C016EE2A0
:101C20008BED94E00E94AF01C80FD91F20E030E097
:101C300040E251E4C701B6010E94F2184B015C0179
:101C40000E94D51A6B01E12CF12C4AE0C701B601C4
:101C500095DDC80FD91FC701B6010E9491189B01DD
:101C6000AC01C501B4010E94031A6B017C01115043
:101C7000E9F6CE01DF91CF911F910F91FF90EF9088
:101C8000DF90CF90BF90AF909F908F900895CF93AB
:101C9000DF93CDB7DEB7EC970FB6F894DEBF0FBE7B
:101CA000CDBF789484B5826084BD84B5816084BDE5
:101CB00085B5826085BD85B5816085BD80916E00EA
:101CC000816080936E00109281008091810082601B
:101CD0008093810080918100816080938100809158
:101CE00080008160809380008091B1008460809347
:101CF000B1008091B00081608093B000809191002C
:101D00008260809391008091910081608093910026
:101D1000809190008160809390008091A10082600A
:101D20008093A1008091A10081608093A1008091A7
:101D3000A00081608093A000809121018260809347
:101D400021018091210181608093210180912001F6
:101D500081608093200180917A00846080937A0072
:101D600080917A00826080937A0080917A0081600D
:101D700080937A0080917A00806880937A00109234
:101D8000C1001092BA051092BB051092BC051092CA
:101D9000BD0510927A0510927B0510927C05109279
:101DA0007D050E9467056B017C014B015C0108EB1E
:101DB000800E0BE0901EA11CB11C0E9467056C15E3
:101DC0007D058E059F0528F086169706A806B9069C
:101DD000A0F70E9442054B015C0170EDC72E77E031
:101DE000D72EE12CF12C0E944205DC01CB01881991
:101DF0009909AA09BB09883E9340A105B10598F34A
:101E000011E0C11AD108E108F10828EE820E23E0A2
:101E1000921EA11CB11CC114D104E104F10419F7F4
:101E2000E0DB0E94670560937A0570937B058093E1
:101E30007C0590937D0584E392E0D2DB0E946705E8
:101E40006B017C014B015C014AE0840E911CA11CDA
:101E5000B11C0E9467056C157D058E059F0528F055
:101E600086169706A806B906A0F781E080938E052E
:101E7000B8DBCE010196E2DC84E2FE013196AEEEE3
:101E8000B5E001900D928A95E1F7CE010196D6DC7E
:101E900084E2FE013196AAECB5E001900D928A959C
:101EA000E1F70E9467058B019C0160934E0310933C
:101EB0004F0320935003309351031092520310921A
:101EC000530310925403109255038AE590E0F8DC16
:101ED00062E080E20E94060564E0262E63E0362E72
:101EE00008E012E019AF08AF04EA12E01FAB0EAB36
:101EF00000E012E01BAF0AAF02E116E00E946705A6
:101F00006B017C01D1018C91813091F018F082300D
:101F100039F162C460E0E8ADF9AD80810E9413043C
:101F2000AEA9BFA9CD92DC9281E0F101808354C4B7
:101F3000AEA9BFA98D919C910A96C816D90608F43E
:101F40004BC461E0E8ADF9AD80810E941304AEA9F5
:101F5000BFA9CD92DC9252E0C52EF101C0823CC4F3
:101F6000AEA9BFA98D919C910A96C816D90608F40E
:101F700033C461E0E8ADF9AD80810E941304AEA9DD
:101F8000BFA9CD92DC9269E8C8013FD8482F4160D3
:101F900069E8C801C2D940E068E8C801BED941E09B
:101FA00060E8C801BAD941E06FEFC801B6D940E096
:101FB00060E0C801B2D961E9C80127D8F801878378
:101FC00041E060E0C801A9D940E06FEFC801A5D9A0
:101FD00040E060E8C801A1D960E6C80116D8482FE2
:101FE000426160E6C80199D940E250E064E4C8016A
:101FF00070D94FEF61E0C80190D941E060E8C801B5
:102000008CD941E06FEFC80188D940E060E0C80199
:1020100084D946E06FEFC80180D963E8C8010E9407
:102020000508482F446063E8C80177D947E06FEF9F
:10203000C80173D941E061E8C8016FD941E060E8A7
:10204000C8016BD94BE664E9C80167D940E063E891
:10205000C80163D90E946705D80116967C936E93D8
:10206000159763E8C8010E940508811116C0F801A0
:1020700082819381892BA9F30E946705D801159667
:102080002D913C911697621B730B12968D919C912A
:1020900013978617970728F78AC341E063E8C801BA
:1020A0003CD962E9C8010E940508A82EB82FBF7765
:1020B0009B2E40E061E8C80130D946E06FEFC801CF
:1020C0002CD963E8C8010E940508482F4B7F63E8BC
:1020D000C80123D941E06FEFC8011FD941E060E09A
:1020E000C8011BD940E06FEFC80117D940E060E894
:1020F000C80113D9F801818191E09093B7048093CE
:10210000D9041092B8041092DA0460EB8EEB95E0DB
:102110000E94340381E08DDAD8018C9366E0119639
:102120008C91E3DA7E01B5E2EB0EF11C670147E02A
:10213000B42EBA94BB2041F08EEB95E00E94EC02E5
:10214000F60181936F01F5CF41E06FEFC801E5D84B
:1021500040E06FE4C801E1D84CE26EE4C801DDD88C
:1021600040E06FEFC801D9D844EB66EBC801D5D881
:10217000A7FC02C040E001C04CE090E080E0282FC6
:10218000269526952695582F5770F701E20FF11DD9
:10219000841710F099110BC021E030E001C0220F2C
:1021A0005A95EAF7209530812323208309C02081A6
:1021B00030E002C0359527955A95E2F720FD9F5FE4
:1021C0008F5F8033E1F6D80111968C9191E0909366
:1021D000B7048093D9041092B8041092DA0460EB2B
:1021E0008EEB95E00E94340337E0D32EDA94DD20A5
:1021F00041F0F70161917F018EEB95E00E9434037D
:10220000F5CF81E016DAD8018C9341E06FEFC80179
:1022100084D840E060E0C80180D840E06FEFC8019A
:102220007CD840E069E0C80178D840E060E1C801AE
:1022300074D840E061E1C80170D841E064E2C801AF
:102240006CD84FEF65E2C80168D840E065E7C80187
:1022500064D841E06FEFC80160D84CE26EE4C80179
:102260005CD840E068E4C80158D840E260E3C801A7
:1022700054D840E06FEFC80150D849E060E3C8018E
:102280004CD840E064E5C80148D844E061E3C801A7
:1022900044D843E062E3C80140D843E860E4C801A1
:1022A0003CD845E266E4C80138D840E060E6C801A1
:1022B00034D840E067E2C80130D846E060E5C801A4
:1022C0002CD840E061E5C80128D846E962E5C8019C
:1022D00024D848E066E5C80120D840E367E5C80196
:1022E0001CD840E061E6C80118D840E062E6C801A9
:1022F00014D840E064E6C80110D840E065E6C801A3
:102300000CD840EA66E6C80108D841E06FEFC80182
:1023100004D842E362E2C80100D844E167E4C8019E
:102320000E948D094FEF69E4C8010E948D0940E0C9
:102330006AE4C8010E948D0940E06FEFC8010E9465
:102340008D094AE06AE7C8010E948D0940E06BE709
:10235000C8010E948D0941E268E7C8010E948D0909
:1023600041E06FEFC8010E948D0944E363E2C801B8
:102370000E948D0940E062E4C8010E948D094FEF80
:1023800064E4C8010E948D0946E265E4C8010E9428
:102390008D0945E066E4C8010E948D0940E460E4CF
:1023A000C8010E948D0946E06EE0C8010E948D09B7
:1023B0004AE160E2C8010E948D0940E463E4C8017B
:1023C0000E948D0940E06FEFC8010E948D0943E033
:1023D00064E3C8010E948D0944E465E3C8010E94DA
:1023E0008D0941E06FEFC8010E948D0944E061E36F
:1023F000C8010E948D0949E06BE4C8010E948D0963
:1024000045E06CE4C8010E948D0944E06DE4C80118
:102410000E948D0940E06FEFC8010E948D0940E0E5
:1024200064E4C8010E948D0940E265E4C8010E948D
:102430008D0948E067E4C8010E948D0948E268E41C
:10244000C8010E948D0940E067E6C8010E948D091D
:1024500044E060E7C8010E948D0941E061E7C801DE
:102460000E948D094EEF62E7C8010E948D0940E08D
:1024700066E7C8010E948D0940E067E7C8010E9435
:102480008D0941E06FEFC8010E948D0941E06DE0C8
:10249000C8010E948D0940E06FEFC8010E948D09BC
:1024A00041E060E8C8010E948D0948EF61E0C80181
:1024B0000E948D0941E06FEFC8010E948D0941E043
:1024C0006EE8C8010E948D0941E060E0C8010E94E9
:1024D0008D0940E06FEFC8010E948D0940E060E87F
:1024E000C8010E948D0944E06AE0C8010E948D097C
:1024F00064E8C8010E940508482F4F7E64E8C801BF
:102500000E948D0941E06BE0C8010E948D09BE0167
:102510006F5C7F4FC8010E944D09AE014F5F5F4F56
:10252000BE016F5C7F4FC8010E94210889A98823E2
:1025300049F08B859C85AD85BE858C57924FAF4FFA
:10254000BF4F04C086E39BE0A0E0B0E02BA92223AC
:1025500069F04B855C856D857E854E545D4F6F4F70
:102560007F4F440F551F661F771F0BC02AA92223D8
:1025700061F04B855C856D857E854C565D4F6F4F58
:102580007F4F840F951FA61FB71F2CA9222361F030
:102590004F85588969897A894C565D4F6F4F7F4FB7
:1025A000840F951FA61FB71F2DA9222361F04B8909
:1025B0005C896D897E894A5D5D4F6F4F7F4F840FC7
:1025C000951FA61FB71FF80180879187A287B38741
:1025D00048EE61E0C8010E948D09D80118968D90DF
:1025E0009D90AD90BC901B97B0E28B16BEE49B060D
:1025F000A104B10408F4C0C0BE016F5C7F4FC801E4
:102600000E944D09AE014F5F5F4FBE016F5C7F4F6F
:10261000C8010E94210889A9882359F0CB84DC8451
:10262000ED84FE84E6E3CE0EEBE0DE1EE11CF11C41
:1026300006C0F8EECF2EF8E0DF2EE12CF12C8BA9AE
:10264000882369F08B859C85AD85BE858E549D4F12
:10265000AF4FBF4F880F991FAA1FBB1F0BC08AA97E
:10266000882361F08B859C85AD85BE858C569D4FFA
:10267000AF4FBF4FC80ED91EEA1EFB1EFCA9FCAF10
:10268000FF2361F08F859889A989BA898C569D4F5F
:10269000AF4FBF4FC80ED91EEA1EFB1E8DA988235F
:1026A00009F46AC026E2C20E22E0D21EE11CF11C2F
:1026B0008C149D04AE04BF0408F45EC0AB81B0E08E
:1026C00020E03FE24AE350E07FD62B013C0134EFAB
:1026D000430E31E0531E611C711CA50194012C199D
:1026E0003D094E095F09A8EEB3E06ED66B017C018F
:1026F000C301B20120ED37E040E050E027D6C20E22
:10270000D31EE41EF51EC301B20128EE33E040E003
:1027100050E01CD6C701B60119D6C901CCACCC20FB
:1027200021F08F819885820F931F0097C1F0019748
:10273000A0E0B0E040E050E06C017D01CC24CD2869
:10274000CE28CF2839F0B695A795979587954F5FF6
:102750005F4FF2CF542F4427482B592B02C040E043
:1027600050E061E7C8010E946909D80118968D926E
:102770009D92AD92BC921B9741E061E0C8010E941E
:102780008D0960E4C8010E94AA09882381F042E013
:1027900061E0C8010E948D0960E0C8010E94AA0999
:1027A000882329F048EE61E0C8010E948D09EAAD56
:1027B000FBADF0804F2D4F776AE8C8010E948D096C
:1027C000D8011196FC921197E4EFF1E01396FC9377
:1027D000EE931297D1011C92BFEF2B1A3B0AE8AD82
:1027E000F9AD3296F9AFE8AF2EA93FA92E5F3F4F62
:1027F0003FAB2EAB4AAD5BAD4E5F5F4F5BAF4AAFB9
:10280000045F1F4F58E0251653E0350609F076CBDC
:1028100044E0242E312C5BE4452E512C612C712C8C
:102820000E946705672B682B692B41F40E9467059E
:10283000623071058105910508F4E9C00E946705C1
:102840000091590310915A0320915B0330915C036E
:10285000601771078207930740F4609359037093E0
:102860005A0380935B0390935C030091590310918A
:102870005A0320915B0330915C036B017C01C01A09
:10288000D10AE20AF30A970186010A3F11052105E0
:10289000310508F4BCC06093590370935A038093C8
:1028A0005B0390935C0314EFE12EFF24F39400E0AC
:1028B00010E0E0928605F09287050093880510935A
:1028C000890510928A0510928B0510928C05109242
:1028D0008D0580917E0590917F05A0918005B09136
:1028E00081058093820590938305A0938405B0931E
:1028F00085050E94670560937E0570937F05809330
:102900008005909381050E94670560937A05709316
:102910007B0580937C0590937D050E9467056B0184
:102920007C0186E492E00E94F00A4AE061E070E0F7
:1029300080E090E00E94BE0B8DE492E00E94F00ADD
:102940004AE0C701B6010E94BE0B8FE492E00E94EC
:10295000F00A80917E0590917F05A0918005B0914D
:10296000810597018601081B190B2A0B3B0BC90136
:10297000B8014AE00E94BE0B8FE492E00E94F00A88
:1029800080917E0590917F05A0918005B091810591
:102990000091820510918305209184053091850571
:1029A000BC01CD01601B710B820B930B4AE00E94AE
:1029B000BE0B81E592E00E94F00A0E9467054AE0A2
:1029C0000E94BE0B83E592E00E94DF0A83E492E05E
:1029D0000E94DF0A0E9467056B017C014B015C01CC
:1029E00015E0810E911CA11CB11C0E9467056C159D
:1029F0007D058E059F0508F0C9C20E94670560939A
:102A00007E0570937F05809380059093810580E219
:102A10000E94EB034C0181E08114910409F080E0F5
:102A2000809356030E9467055B016C019B01A60120
:102A300060E070E080E090E0A0904E03B0904F0323
:102A4000C0905003D0905103E0905203F090530394
:102A50000091540310915503F8D5A1E0FFD509F07A
:102A600008F4FAC18EEE95E00E94950A8AEC95E092
:102A70000E94950A0E9467058B019C0160934E039A
:102A800010934F032093500330935103109252033D
:102A90001092530310925403109255038EEE95E05A
:102AA0000E94630A6B017C0180914C0390914D035D
:102AB00081309105E1F01CF4892B41F07EC1843016
:102AC0009105F9F0059709F4C2C077C120E030E024
:102AD00040EC50E4C701B60120D318162CF0309218
:102AE0004D0320924C0369C18928C9F366C120E0D7
:102AF00030E040E850E4C701B60183D587FFEFCF4F
:102B00005CC1892809F086C020E030E040E251E451
:102B1000C701B60176D518160CF089C025E030E063
:102B200030934D0320934C0310923C0310923D03CD
:102B300010923E0310923F03109240031092410303
:102B400010924203109243031092440310924503E3
:102B500010924603109247031092480310924903C3
:102B600010924A0310924B0310923B0310923A03C7
:102B700010923903109238030E946705D2D24B019C
:102B80005C010E94E40CBC01990F880B990BCBD21D
:102B900020E030E044E352E436D420E030E0A90104
:102BA00030D518166CF40E94E40CBC01990F880B08
:102BB000990BB9D220E030E044E352E424D40DC0B4
:102BC0000E94E40CBC01990F880B990BACD220E059
:102BD00030E044E352E417D4905826E535E545ED5E
:102BE0005FE300D39B01AC01C501B4010DD420E02B
:102BF00030E040E251E408D4D8D4609334037093B9
:102C0000350380933603909337038DE290E00E9462
:102C1000600C0DC020E030E040EC50E4C701B6018C
:102C2000F0D4181624F410924D0310924C0320E0B7
:102C300030E040E850E4C701B6016FD287FFBDC065
:102C400041E050E050934D0340934C03B6C00E94C6
:102C500067050091340310913503209136033091BC
:102C60003703601771078207930708F4A6C0009125
:102C7000380310913903C801880F991F880F991FD5
:102C8000DC01A45CBC4F5D0120E030E040E251E497
:102C9000C701B6011DD49B01AC01F50160817181B2
:102CA00082819381B1D3D5016D937D938D939C9354
:102CB000139780913A0390913B0301968A309105D6
:102CC00028F490933B0380933A0377C010923B0320
:102CD00010923A030F5F1F4F10933903009338038C
:102CE0000430110548F0E2E0F0E0F0934D03E0938A
:102CF0004C038AE590E05FC0FAE5F09FC001F19FC8
:102D0000900D112463E070E084D480E090E009D25B
:102D100020E030E044E352E476D320E030E044EBBE
:102D200052E472D36B017C010E946705FAD14B011A
:102D30005C010E94E40CBC01990F880B990BF3D144
:102D4000A701960160D320E030E0A9015AD41816FB
:102D50005CF40E94E40CBC01990F880B990BE3D141
:102D6000A701960150D30BC00E94E40CBC01990F3F
:102D7000880B990BD8D1A701960145D3905826E529
:102D800035E545ED5FE32ED29B01AC01C501B401F1
:102D90003BD320E030E040E251E436D306D46093E8
:102DA0003403709335038093360390933703C70140
:102DB000B601F6D3CB010E94600C8AE592E00E9436
:102DC000F00A80914C0390914D0382309105A1F05F
:102DD0003CF4009771F00197C9F48AE692E014C0C0
:102DE0008430910579F05CF0059781F483E892E0F6
:102DF0000BC082E692E008C083E792E005C088E756
:102E000092E002C08EE792E00E94F00A8CE892E025
:102E10000E94F00A8EEE95E00E94630A42E00E9452
:102E2000780D83E492E00E94DF0A0CE313E086E968
:102E300092E00E94F00AD8016D917D918D919D9153
:102E40008D0142E00E94780DB3E00C341B0779F746
:102E500083E492E00E94DF0A8CE0E2E1F6E0DE012A
:102E6000119601900D928A95E1F7CE0101960E948C
:102E7000D5098C018CE0EEE1F6E0DE01959601903B
:102E80000D928A95E1F7CE0185960E94D5096C01D5
:102E9000990FEE08FF084801110FAA08BB08B301FB
:102EA000A201481959096A097B0914161506160664
:102EB000170634F0B501A4014B5451096109710999
:102EC000D301C2018C199D09AE09BF091816190654
:102ED0001A061B0634F0D701C6018B549109A109CB
:102EE000B1098A019B01080F191F2A1F3B1FC90145
:102EF000B80122E030E040E050E04AD216E481160A
:102F00009104A104B10454F461E5C616D104E104AE
:102F1000F1045CF1A4E6B0E057D20FC081E5881659
:102F20009104A104B1040CF196E4C916D104E104A2
:102F3000F104DCF4ACE9BFEF53D2A301920128D233
:102F40003093580320935703B901330F880B990B23
:102F500097FD08C04AE00E94BE0B83E492E00E9405
:102F6000DF0A11C00E94FE0BF8CFD501C4018754BF
:102F70009109A109B1090997A105B10520F41092A1
:102F80005803109257030E941C024ACC86169706DB
:102F9000A806B90608F029CD30CDCF93DF93EC0118
:102FA0001882198281E08A8361E080E00E94060530
:102FB00060E089810E94060580E29EE4A0E0B0E026
:102FC0008F839887A987BA8780916D04803398F49E
:102FD00091E0980F90936D0489A390E0FC01EE0FAF
:102FE000FF1F8E0F9F1FFC01E352FC4F88EB9BE0FD
:102FF0009283818302C08FEF89A3DF91CF910895DF
:10300000EBEDF4E01382128288EE93E0A0E0B0E0F2
:1030100084839583A683B78324E132E031832083C0
:1030200025EC30E03587248724EC30E0378726878D
:1030300020EC30E0318B208B21EC30E0338B228B85
:1030400022EC30E0358B248B26EC30E0378B268B5E
:10305000118E128E138E148EE8E7F5E01682178219
:103060001086118612861386148615861686178694
:10307000108A118A128A138A148A158AEEEBF5E0F7
:103080001382128284839583A683B78386E292E0BB
:1030900091838083E6E6F6E089E2818313821282DF
:1030A0001482EAE5F6E08183138212821482EEE450
:1030B000F6E08183138212821482E2E4F6E08183D7
:1030C0001382128214828CE0E6E6F6E0A2E1B6E01A
:1030D00001900D928A95E1F78CE0EAE5F6E0AEE129
:1030E000B6E001900D928A95E1F78CE0EEE4F6E00F
:1030F000AAE2B6E001900D928A95E1F78CE0E2E455
:10310000F6E0A6E3B6E001900D928A95E1F78EEE27
:1031100095E043DF8AEC95E040CF40D008F481E0B1
:103120000895E89409C097FB3EF4909580957095BA
:1031300061957F4F8F4F9F4F9923A9F0F92F96E903
:10314000BB279395F695879577956795B795F11178
:10315000F8CFFAF4BB0F11F460FF1BC06F5F7F4F15
:103160008F4F9F4F16C0882311F096E911C0772327
:1031700021F09EE8872F762F05C0662371F096E830
:10318000862F70E060E02AF09A95660F771F881FFF
:10319000DAF7880F9695879597F90895990F0008A3
:1031A000550FAA0BE0E8FEEF16161706E807F90719
:1031B000C0F012161306E407F50798F0621B730BB4
:1031C000840B950B39F40A2661F0232B242B252B35
:1031D00021F408950A2609F4A140A6958FEF811DD8
:1031E000811D08950BD078C069D028F06ED018F0FA
:1031F000952309F05AC05FC01124A2C07ED0A0F36D
:10320000959FD1F3950F50E0551F629FF001729F7B
:10321000BB27F00DB11D639FAA27F00DB11DAA1F9A
:10322000649F6627B00DA11D661F829F2227B00DE7
:10323000A11D621F739FB00DA11D621F839FA00D72
:10324000611D221F749F3327A00D611D231F849FC2
:10325000600D211D822F762F6A2F11249F57504019
:103260008AF0E1F088234AF0EE0FFF1FBB1F661FB4
:10327000771F881F91505040A9F79E3F510570F06D
:1032800014C05EC05F3FECF3983EDCF38695779503
:103290006795B795F795E7959F5FC1F7FE2B880F68
:1032A000911D9695879597F9089597F99F6780E8FE
:1032B00070E060E008959FEF80EC089500240A9488
:1032C0001616170618060906089500240A94121601
:1032D0001306140605060895092E0394000C11F434
:1032E000882352F0BB0F40F4BF2B11F460FF04C0E1
:1032F0006F5F7F4F8F4F9F4F089557FD9058440F3A
:10330000551F59F05F3F71F04795880F97FB991F44
:1033100061F09F3F79F08795089512161306140601
:10332000551FF2CF4695F1DF08C01616170618068E
:10333000991FF1CF86957105610508940895E89469
:10334000BB2766277727CB0197F90895A1E21A2EAC
:10335000AA1BBB1BFD010DC0AA1FBB1FEE1FFF1F39
:10336000A217B307E407F50720F0A21BB30BE40B89
:10337000F50B661F771F881F991F1A9469F76095D0
:103380007095809590959B01AC01BD01CF0108958A
:10339000052E97FB16F400940FD057FD05D0D6DF0D
:1033A00007FC02D046F408C0509540953095219511
:1033B0003F4F4F4F5F4F0895909580957095619561
:1033C0007F4F8F4F9F4F08950FD0A59F900DB49FB3
:1033D000900DA49F800D911D11240895B7FFF4CF87
:1033E000F3DF821B930B0895A29FB001B39FC0012E
:1033F000A39F700D811D1124911DB29F700D811D21
:103400001124911D08955058BB27AA270ED064CFD0
:1034100055DF30F05ADF20F031F49F3F11F41EF4F5
:103420004ACF0EF4E095E7FB40CFE92F66DF80F34B
:10343000BA17620773078407950718F071F49EF5B1
:103440007ECF0EF4E0950B2EBA2FA02D0B01B90103
:1034500090010C01CA01A0011124FF27591B99F00A
:10346000593F50F4503E68F11A16F040A22F232F16
:10347000342F4427585FF3CF469537952795A79566
:10348000F0405395C9F77EF41F16BA0B620B730B0D
:10349000840BBAF09150A1F0FF0FBB1F661F771F7E
:1034A000881FC2F70EC0BA0F621F731F841F48F433
:1034B000879577956795B795F7959E3F08F0B3CFB9
:1034C0009395880F08F09927EE0F979587950895A3
:1034D0000CD002CFFADE40F0F1DE30F021F45F3F95
:1034E00019F0E3CE51112CCFE6CE07DF98F39923E4
:1034F000C9F35523B1F3951B550BBB27AA276217B8
:103500007307840738F09F5F5F4F220F331F441FFC
:10351000AA1FA9F333D00E2E3AF0E0E830D0915034
:103520005040E695001CCAF729D0FE2F27D0660F21
:10353000771F881FBB1F261737074807AB07B0E860
:1035400009F0BB0B802DBF01FF2793585F4F2AF076
:103550009E3F510568F0A9CEF3CE5F3FECF3983E55
:10356000DCF3869577956795B795F7959F5FC9F7D3
:10357000880F911D9695879597F90895E1E0660F5C
:10358000771F881FBB1F621773078407BA0720F0D5
:10359000621B730B840BBA0BEE1F88F7E09508953E
:1035A00004D06894B111CCCE0895AFDE88F09F5757
:1035B00090F0B92F9927B751A0F0D1F0660F771F7F
:1035C000881F991F1AF0BA95C9F712C0B13081F05F
:1035D000B6DEB1E00895B3CE672F782F8827B85FA5
:1035E00039F0B93FCCF3869577956795B395D9F7C0
:1035F0003EF490958095709561957F4F8F4F9F4FCA
:103600000895CCDD08F48FEF0895C8DD880B990B81
:103610000895AA1BBB1B51E107C0AA1FBB1FA61719
:10362000B70710F0A61BB70B881F991F5A95A9F76B
:1036300080959095BC01CD010895EE0FFF1F881F66
:103640008BBF0790F691E02D19942A193B094C097C
:103650005D096E097F09800B910B08950024A7FD79
:1036600000942A1730054005500560057005800557
:103670009005089581E090E0F89400C0F894FFCFA1
:103680003000310032003300000000000000000074
:1036900000000000AF014E0D4701FB01780156010B
:1036A0006A0100000000340308036303DC02000326
:1036B000EC02DD02564D4450565F317C315F564D71
:1036C0004450560D0A00564D4450455F003A323A78
:1036D000007C005F564D4450450053746174653A58
:1036E0002000464F5257415244004241434B5741FC
:1036F0005244004C454654005249474854005354E4
:103700004F50005343414E4E494E47002C204166D6
:103710007374616E643A20006E616E00696E6600BB
:043720006F7666005A
:020000023000CC
:10E000000D9489F10D94B2F10D94B2F10D94B2F129
:10E010000D94B2F10D94B2F10D94B2F10D94B2F1F0
:10E020000D94B2F10D94B2F10D94B2F10D94B2F1E0
:10E030000D94B2F10D94B2F10D94B2F10D94B2F1D0
:10E040000D94B2F10D94B2F10D94B2F10D94B2F1C0
:10E050000D94B2F10D94B2F10D94B2F10D94B2F1B0
:10E060000D94B2F10D94B2F10D94B2F10D94B2F1A0
:10E070000D94B2F10D94B2F10D94B2F10D94B2F190
:10E080000D94B2F10D94B2F10D94B2F10D94B2F180
:10E090000D94B2F10D94B2F10D94B2F10D94B2F170
:10E0A0000D94B2F10D94B2F10D94B2F10D94B2F160
:10E0B0000D94B2F10D94B2F10D94B2F10D94B2F150
:10E0C0000D94B2F10D94B2F10D94B2F10D94B2F140
:10E0D0000D94B2F10D94B2F10D94B2F10D94B2F130
:10E0E0000D94B2F141546D656761323536300041AF
:10E0F000726475696E6F206578706C6F72657220DE
:10E1000073746B3530305632206279204D4C530099
:10E11000426F6F746C6F616465723E004875683F52
:10E1200000436F6D70696C6564206F6E203D200048
:10E130004350552054797065202020203D20005FF9
:10E140005F4156525F415243485F5F3D2000415658
:10E1500052204C696243205665723D20004743437C
:10E160002056657273696F6E203D20004350552024
:10E1700049442020202020203D20004C6F7720663D
:10E18000757365202020203D20004869676820665F
:10E190007573652020203D200045787420667573D6
:10E1A00065202020203D20004C6F636B2066757336
:10E1B000652020203D20004D617220203720323024
:10E1C000313300312E362E3800342E332E350056A2
:10E1D00023202020414444522020206F7020636F70
:10E1E00064652020202020696E73747275637469E1
:10E1F0006F6E2061646472202020496E74657272B3
:10E20000757074006E6F20766563746F7200726A49
:10E210006D702020006A6D70200057686174207056
:10E220006F72743A00506F7274206E6F7420737541
:10E2300070706F72746564004D7573742062652030
:10E2400061206C6574746572002000577269747483
:10E25000696E672045450052656164696E672045B7
:10E26000450045452065727220636E743D00504F35
:10E27000525400303D5A65726F2061646472003FF1
:10E280003D43505520737461747300403D454550C3
:10E29000524F4D207465737400423D426C696E6B41
:10E2A000204C454400453D44756D70204545505215
:10E2B0004F4D00463D44756D7020464C415348001B
:10E2C000483D48656C70004C3D4C69737420492F83
:10E2D0004F20506F72747300513D51756974005234
:10E2E0003D44756D702052414D00563D73686F7707
:10E2F00020696E7465727275707420566563746FF0
:10E30000727300593D506F727420626C696E6B00BD
:10E310002A0011241FBECFEFD1E2DEBFCDBF01E046
:10E320000CBF12E0A0E0B2E0EEE1FDEF03E00BBFB6
:10E3300002C007900D92A030B107D9F712E0A0E01B
:10E34000B2E001C01D92AE30B107E1F70F9460F367
:10E350000D948DFE01E20EBF0FEF0DBF11241FBE05
:10E360000D9460F30D9400F020E030E040ED57E0B4
:10E3700005C0FA013197F1F72F5F3F4F2817390792
:10E38000C0F308959C01260F311DC901A0E0B0E043
:10E390002F5F3F4FABBFFC018791882361F08093D3
:10E3A000C6008091C00086FFFCCF8091C0008064D1
:10E3B0008093C000EACF08958DE08093C6008091DD
:10E3C000C00086FFFCCF8091C00080648093C000B5
:10E3D0008AE08093C6008091C00086FFFCCF8091C8
:10E3E000C00080648093C00008950F94C2F10F9420
:10E3F000DCF10895FC019081992359F09093C600B7
:10E400008091C00086FFFCCF8091C0008064809323
:10E41000C0003196992379F70895282F982F929567
:10E420009F70892F805D8A3308F0895F8093C600D2
:10E430008091C00086FFFCCF8091C00080648093F3
:10E44000C000822F8F70982F905D9A3308F0995FEB
:10E450009093C6008091C00086FFFCCF8091C000E1
:10E4600080648093C00008959C01FB01853691056E
:10E470001CF46330710594F0C90164E670E00F94F8
:10E480002EFE605D7F4F6093C6008091C00086FFC6
:10E49000FCCF8091C00080648093C0002B30310598
:10E4A00014F43297B4F0C90164E670E00F942EFEC4
:10E4B0006AE070E00F942EFE605D7F4F6093C600AF
:10E4C0008091C00086FFFCCF8091C0008064809363
:10E4D000C000C9016AE070E00F942EFEC0968093E0
:10E4E000C6008091C00086FFFCCF8091C000806490
:10E4F0008093C00008951F93182F8EE692EE60E07F
:10E500000F94C2F11093C6008091C00086FFFCCF2B
:10E510008091C00080648093C0000F94DCF11F9153
:10E5200008952F923F924F925F926F927F928F92B7
:10E530009F92AF92BF92CF92DF92EF92FF920F9392
:10E540001F93DF93CF93CDB7DEB762970FB6F894E2
:10E55000DEBF0FBECDBF382E622ECA01DB015C01CB
:10E560006D01772420E2222E2E010894411C511CBB
:10E570008BC081E0A81680E0B80681E0C80680E084
:10E58000D80628F0C601AA27BB270F940DF2BB2797
:10E59000AD2D9C2D8B2D0F940DF28A2D0F940DF225
:10E5A0002092C6008091C00086FFFCCF8091C00001
:10E5B00080648093C0009DE29093C6008091C0006B
:10E5C00086FFFCCF8091C00080648093C0002092C1
:10E5D000C6008091C00086FFFCCF8091C00080649F
:10E5E0008093C00019828601750188249924A1E0D6
:10E5F0003A1651F03A1620F0B2E03B1661F409C029
:10E600000BBFF701779007C0C7010F9477FE782EF4
:10E6100002C0F7017080872D0F940DF22092C60082
:10E620008091C00086FFFCCF8091C0008064809301
:10E63000C000872D8052F401EF70F0708F3520F408
:10E64000E40DF51D708204C0E40DF51D8EE280839B
:10E650000894E11CF11C011D111D0894811C911CE2
:10E6600090E18916910409F0C2CF80E190E0A0E02A
:10E67000B0E0A80EB91ECA1EDB1E198AC2010F9493
:10E68000FAF10F94DCF16A94662009F072CF629679
:10E690000FB6F894DEBF0FBECDBFCF91DF911F91B3
:10E6A0000F91FF90EF90DF90CF90BF90AF909F9031
:10E6B0008F907F906F905F904F903F902F90089534
:10E6C0002F923F924F925F926F927F928F929F9282
:10E6D000AF92BF92CF92DF92EF92FF920F931F9370
:10E6E000DF93CF93CDB7DEB7CD53D1400FB6F894BB
:10E6F000DEBF0FBECDBF01E20EBF0FEF0DBF94B75F
:10E70000F894A89514BE80916000886180936000A1
:10E7100010926000789493FF05C0E0910002F091A0
:10E7200001021995279A2F9A8091C00082608093E8
:10E73000C00080E18093C40088E18093C1000000A4
:10E74000EE24FF24870144E0A42EB12CCC24DD2448
:10E7500024C0C5010197F1F70894E11CF11C011DCB
:10E76000111D21E2E2162EE4F20620E0020720E06D
:10E77000120718F031E0C32ED12CC801B70127ECE5
:10E780003BE140E050E00F9441FE611571058105C9
:10E79000910519F485B1805885B98091C00087FD35
:10E7A00003C0C114D104A9F2A6014F5F5F4FC25E3E
:10E7B000DE4F59834883CE51D140C25EDE4F8881FF
:10E7C0009981CE51D140019711F00D9410FEC05D9A
:10E7D000DE4F19821882C053D14060E0C15DDE4F28
:10E7E0001882CF52D14088249924C35DDE4F19820C
:10E7F0001882CD52D140C05EDE4F188219821A8233
:10E800001B82C052D140CE5CDE4F188219821A8220
:10E810001B82C253D140EE24FF2487010BBFF701B6
:10E8200007911691C45CDE4F19830883CC53D14005
:10E830000D940BFEC25EDE4F28813981CE51D1404E
:10E840002130310509F52091C600C25EDE4F1982E4
:10E850001882CE51D14022C02F5F3F4F4F4F5F4FA4
:10E86000213082E138078AE7480780E0580780F0C6
:10E87000C45CDE4FE881F981CC53D140EF5FFF4F9C
:10E8800019F0EE27FF27099420E030E040E050E047
:10E890008091C00087FFE0CF2091C600C35DDE4FAE
:10E8A00048815981CD52D1404F5F5F4FC35DDE4FEC
:10E8B00059834883CD52D140213209F063C64A3092
:10E8C000510508F05FC60894811C911C53E0851621
:10E8D000910409F059C600E010E018C081E280936D
:10E8E000C6008091C00086FFFCCF8091C00080648C
:10E8F0008093C0002F5F3F4F2931310579F70F9486
:10E90000DCF10F5F1F4F0530110519F020E030E0FA
:10E91000E5CF10920A0210920B0210920C02109294
:10E920000D02109206021092070210920802109235
:10E930000902109202021092030210920402109235
:10E9400005028FEE90EE60E00F94F5F180E191EE1C
:10E9500060E00F94C2F18091C00087FFFCCF9091DE
:10E96000C600903608F09F759032B8F09093C600BC
:10E970008091C00086FFFCCF8091C00080648093AE
:10E98000C000A0E2A093C6008091C00086FFFCCF2B
:10E990008091C00080648093C000983409F4D7C18E
:10E9A0009934B8F4923409F459C1933458F490333B
:10E9B00019F1903308F4E3C59F33A1F1903409F0C5
:10E9C000DEC5BDC0953409F470C1963409F0D7C5D1
:10E9D00098C1923509F42BC2933538F49C3409F46C
:10E9E000F5C1913509F0CBC518C2963509F445C279
:10E9F000993509F0C4C567C483E792EE62E00F94CD
:10EA0000F5F110920602109207021092080210927D
:10EA1000090210920A0210920B0210920C0210923C
:10EA20000D0213C18FE792EE62E00F94F5F18FEEC5
:10EA300090EE60E00F94F5F181E291EE60E00F94CA
:10EA4000C2F187EB91EE60E00F94F5F180E391EE77
:10EA500060E00F94C2F184EE90EE60E00F94F5F167
:10EA60008FE391EE60E00F94C2F186E090E061E008
:10EA700070E00F9434F20F94DCF18DE591EE60E0DC
:10EA80000F94C2F189EC91EE60E00F94F5F18EE401
:10EA900091EE60E00F94C2F183EC91EE60E00F9490
:10EAA000F5F18CE691EE60E00F94C2F18EE10F94E7
:10EAB0000DF288E90F940DF281E00F940DF20F949E
:10EAC000DCF18BE791EE60E00F94C2F119E0E0E039
:10EAD000F0E010935700E4918E2F0F940DF20F94F5
:10EAE000DCF18AE891EE60E00F94C2F1E3E0F0E03F
:10EAF00010935700E4918E2F0F940DF20F94DCF1D8
:10EB000089E991EE60E00F94C2F1E2E0F0E0109349
:10EB10005700E4918E2F0F940DF20F94DCF188EAE8
:10EB200091EE60E00F94C2F1E1E0F0E01093570045
:10EB30001491812F0F940DF20F94DCF107CF8BE825
:10EB400092EE62E00F94F5F18BE492EE60E00F94A8
:10EB5000F5F10F94DCF100E010E019C0C8016F2D51
:10EB60000F947FFEFF2031F489E492EE60E00F9471
:10EB7000C2F10BC0F092C6008091C00086FFFCCFAE
:10EB80008091C00080648093C0000F5F1F4FC80158
:10EB900081519F41A0E0B0E0ABBFFC01F790BAE229
:10EBA000FB1621F0E2E000301E07C1F60F94DCF105
:10EBB0000F94DCF187E592EE60E00F94F5F10F948D
:10EBC000DCF1CC24DD2400E010E01EC0C8010F946D
:10EBD00077FEF82E882331F489E492EE60E00F94FA
:10EBE000C2F10BC08093C6008091C00086FFFCCFAD
:10EBF0008091C00080648093C000FE1419F00894D6
:10EC0000C11CD11C0F5F1F4FC80181519F41A0E063
:10EC1000B0E0ABBFFC01E790FAE2EF1621F022E092
:10EC20000030120799F60F94DCF10F94DCF182E6C4
:10EC300092EE60E00F94C2F1C60161E070E00F94C3
:10EC400034F20F94DCF10F94DCF110920202109276
:10EC50000302109204021092050278CE89E992EE26
:10EC600062E00F94F5F1279A2F9A16C02F9880E052
:10EC700090E0E0EDF7E03197F1F7019684369105E9
:10EC8000C1F72F9A80E090E0E0EDF7E03197F1F7DF
:10EC9000019684369105C1F78091C00087FFE6CFC9
:10ECA0008091C00087FFFCCF64C485EA92EE62E0E9
:10ECB0000F94F5F140910202509103026091040219
:10ECC0007091050281E020E10F9491F2809102029F
:10ECD00090910302A0910402B091050280509F4FD1
:10ECE000AF4FBF4F8093020290930302A0930402A0
:10ECF000B093050280509041A040B04008F426CE69
:10ED0000A4CF83EB92EE62E00F94F5F140910602FE
:10ED100050910702609108027091090280E020E1A1
:10ED20000F9491F28091060290910702A09108023F
:10ED3000B091090280509F4FAF4FBF4F80930602A2
:10ED400090930702A0930802B0930902FFCD80ECD4
:10ED500092EE62E00F94F5F183E792EE60E00F949B
:10ED6000F5F18FE792EE60E00F94F5F18BE892EE0B
:10ED700060E00F94F5F189E992EE60E00F94F5F10F
:10ED800085EA92EE60E00F94F5F183EB92EE60E09D
:10ED90000F94F5F180EC92EE60E00F94F5F187ECC2
:10EDA00092EE60E00F94F5F188ED92EE60E00F9442
:10EDB000F5F18FED92EE60E00F94F5F18AEE92EEB0
:10EDC00060E00F94F5F183E093EEBDCD87EC92EE19
:10EDD00062E00F94F5F181E40F947BF282E40F94EA
:10EDE0007BF283E40F947BF284E40F947BF285E45E
:10EDF0000F947BF286E40F947BF287E40F947BF20E
:10EE000088E40F947BF28AE40F947BF28BE40F94F6
:10EE10007BF28CE40F947BF299CD88ED92EE62E068
:10EE20000F94F5F1772473948824992409C48FED05
:10EE300092EE62E00F94F5F140910A0250910B02BC
:10EE400060910C0270910D0282E020E10F9491F22A
:10EE500080910A0290910B02A0910C02B0910D02D8
:10EE600080509F4FAF4FBF4F80930A0290930B0289
:10EE7000A0930C02B0930D0269CD8AEE92EE62E08F
:10EE80000F94F5F184EE90EE60E00F94F5F18FECC5
:10EE900091EE60E00F94F5F1662477244301CC5D98
:10EEA000DE4F19821882C452D140D401C301B695F5
:10EEB000A79597958795CA5DDE4F88839983AA8326
:10EEC000BB83C652D140CC5DDE4FA881B981C4520C
:10EED000D1401196CC5DDE4FB983A883C452D14096
:10EEE000CD0162E070E00F9434F2B0E2B093C6005E
:10EEF0008091C00086FFFCCF8091C0008064809329
:10EF0000C000EDE2E093C6008091C00086FFFCCF18
:10EF10008091C00080648093C000F0E2F093C6004E
:10EF20008091C00086FFFCCF8091C00080648093F8
:10EF3000C000CA5DDE4FE880F9800A811B81C6529D
:10EF4000D140BB27A12F902F8F2D0F940DF2CA5DBA
:10EF5000DE4F8881C652D1400F940DF2B0E2FB2EF5
:10EF6000F092C6008091C00086FFFCCF8091C00067
:10EF700080648093C0000DE30093C6008091C000C0
:10EF800086FFFCCF8091C00080648093C00010E2B7
:10EF90001093C6008091C00086FFFCCF8091C00016
:10EFA00080648093C0008BBEF3012791C65DDE4F65
:10EFB0002883CA52D140A22EBB24CC24DD2408943D
:10EFC000611C711C811C911C8BBEF3018791282E42
:10EFD0003324442455240894611C711C811C911C09
:10EFE0008BBEF3013791C55DDE4F3883CB52D140E4
:10EFF0000894611C711C811C911C8BBEF30147910C
:10F00000C45DDE4F4883CC52D140ADEFEA2EAFEF66
:10F01000FA2EAFEF0A2FAFEF1A2F6E0C7F1C801E57
:10F02000911E142D032DF22CEE24EA0CFB1C0C1D5A
:10F030001D1D0F940DF220E22093C6008091C000A8
:10F0400086FFFCCF8091C00080648093C000C65DC5
:10F05000DE4F8881CA52D1400F940DF230E23093D6
:10F06000C6008091C00086FFFCCF8091C000806404
:10F070008093C000C45DDE4F8881CC52D1400F9494
:10F080000DF240E24093C6008091C00086FFFCCFA5
:10F090008091C00080648093C000C55DDE4F888190
:10F0A000CB52D1400F940DF250E25093C6008091A4
:10F0B000C00086FFFCCF8091C00080648093C000B8
:10F0C0008FEFE8168FEFF80680E0080780E018075A
:10F0D00031F484E092EE60E00F94C2F1DFC0D80119
:10F0E000C7018070907CA070B0708050904CA040A0
:10F0F000B040D1F52FEF3FE340E050E0E222F322B1
:10F1000004231523CA5DDE4FA880B980CA80DB8046
:10F11000C652D140AE0CBF1CC01ED11EAA0CBB1CD7
:10F12000CC1CDD1C8EE092EE60E00F94C2F1BB2798
:10F13000A12F902F8F2D0F940DF28E2D0F940DF285
:10F1400030E23093C6008091C00086FFFCCF8091F2
:10F15000C00080648093C0004EE34093C60080915D
:10F16000C00086FFFCCF87C08EE09EEFA0E0B0E03D
:10F17000E822F9220A231B239CE0E91694E9F90608
:10F1800090E0090790E0190709F088C0C45DDE4FE0
:10F19000A881CC52D140EA2EFF2400E010E0102FCD
:10F1A0000F2DFE2CEE24C55DDE4FB881CB52D14031
:10F1B000EB0EF11C011D111DD601C501817090706F
:10F1C000A070B070DC0199278827E80EF91E0A1F8D
:10F1D0001B1F20EF30E040E050E0A222B322C42207
:10F1E000D52241E1AA0CBB1CCC1CDD1C4A95D1F7F1
:10F1F000EA0CFB1C0C1D1D1D81E090E0A0E0B0E0BE
:10F20000282239224A225B2235E1220C331C441C7D
:10F21000551C3A95D1F7E20CF31C041D151D57013E
:10F220006801AA0CBB1CCC1CDD1C85E192EE60E0E1
:10F230000F94C2F1C801AA27BB270F940DF2BB2778
:10F24000A12F902F8F2D0F940DF28E2D0F940DF274
:10F2500090E29093C6008091C00086FFFCCF809121
:10F26000C00080648093C000AEE3A093C60080918C
:10F27000C00086FFFCCF8091C00080648093C000F6
:10F28000C601AA27BB270F940DF2BB27AD2D9C2DDD
:10F290008B2D0F940DF28A2D0F940DF20F94DCF14B
:10F2A000CC5DDE4FE881F981C452D140F99709F471
:10F2B0004DCBF4E0EF2EF12C012D112D6E0C7F1CA7
:10F2C000801E911EF2CD83E093EE62E00F94F5F183
:10F2D0008AE192EE60E00F94C2F18091C00087FF56
:10F2E000FCCF1091C6001F751093C6008091C0001E
:10F2F00086FFFCCF8091C00080648093C0000F9493
:10F30000DCF1812F81548A3108F036C1163409F4BA
:10F3100095C0173490F4133409F44EC0143430F40B
:10F320001134F1F0123409F01DC130C0143409F465
:10F3300059C0153409F016C16BC01A3409F4C4C0A1
:10F340001B3438F4173409F48FC0183409F00AC19B
:10F35000A1C01B3409F4D2C01C3409F003C1E8C0B9
:10F360008FEF81B90DC082B1809582B980E090E0C5
:10F37000E0EDF7E03197F1F70196883C9105C1F790
:10F380008091C00087FFEFCF12B8EFC08FEF84B934
:10F390000DC085B1809585B980E090E0E0EDF7E0A3
:10F3A0003197F1F70196883C9105C1F78091C00033
:10F3B00087FFEFCF15B8D9C08FEF87B90DC088B1DF
:10F3C000809588B980E090E0E0EDF7E03197F1F7C3
:10F3D0000196883C9105C1F78091C00087FFEFCF6F
:10F3E00018B8C3C08FEF8AB90DC08BB180958BB9A7
:10F3F00080E090E0E0EDF7E03197F1F70196883C8E
:10F400009105C1F78091C00087FFEFCF1BB8ADC059
:10F410008FEF8DB90DC08EB180958EB980E090E0F0
:10F42000E0EDF7E03197F1F70196883C9105C1F7DF
:10F430008091C00087FFEFCF1EB897C08FEF80BBD1
:10F440000DC081B3809581BB80E090E0E0EDF7E0F6
:10F450003197F1F70196883C9105C1F78091C00082
:10F4600087FFEFCF11BA81C08FEF83BB0DC084B38C
:10F47000809584BB80E090E0E0EDF7E03197F1F714
:10F480000196883C9105C1F78091C00087FFEFCFBE
:10F4900014BA6BC08FEF809301010FC080910201FD
:10F4A00080958093020180E090E0E0EDF7E03197F5
:10F4B000F1F70196883C9105C1F78091C00087FF64
:10F4C000EDCF1092020151C08FEF809304010FC065
:10F4D0008091050180958093050180E090E0E0ED4A
:10F4E000F7E03197F1F70196883C9105C1F78091DB
:10F4F000C00087FFEDCF1092050137C08FEF8093DA
:10F5000007010FC08091080180958093080180E079
:10F5100090E0E0EDF7E03197F1F70196883C910536
:10F52000C1F78091C00087FFEDCF109208011DC088
:10F530008FEF80930A010FC080910B01809580931B
:10F540000B0180E090E0E0EDF7E03197F1F70196F4
:10F55000883C9105C1F78091C00087FFEDCF1092E4
:10F560000B0103C085E292EEEEC98091C00087FFD7
:10F57000FCCF8091C600EAC988E392EEE4C98CE131
:10F5800091EEE1C988249924933011F1943028F444
:10F59000913089F09230B8F408C0953061F195301F
:10F5A000F0F0963009F048C043C02B3109F042C951
:10F5B00091E06BE13FC96227C15DDE4F2883CF52E6
:10F5C000D14092E037C9B22FA0E0622793E032C960
:10F5D000822F90E0A82BB92B622794E02BC92E3004
:10F5E00009F039C3622795E0C05DDE4F19821882A9
:10F5F000C053D1401FC9E1E0F0E0EC0FFD1FC05D3A
:10F60000DE4F08811981C053D140E00FF11F2083E4
:10F610000F5F1F4FC05DDE4F19830883C053D14079
:10F6200062270A171B0709F005C9D80196E002C92D
:10F63000261709F010C303C0973009F0FBC87724E0
:10F640009981933109F412C19431C8F4963009F4C8
:10F65000D8C0973050F4923009F406C1933009F4C1
:10F660006DC0913009F059C253C0913109F477C08F
:10F67000923108F0BBC0903109F04FC2F5C098310B
:10F6800009F487C0993150F4953109F4EFC09531F0
:10F6900008F4C6C1963109F040C2C2C19A3109F4DA
:10F6A0006CC09A3108F491C09B3109F45BC09D3164
:10F6B00009F033C29D81903359F48F81882311F46E
:10F6C0009EE11CC0813011F091E018C098E916C08D
:10F6D000892F807591F0903539F4E0E0F0E089E011
:10F6E0008093570094910AC0983539F4E3E0F0E034
:10F6F00089E080935700949101C090E01A821B82A8
:10F700008D818C831D829E831F8227E030E009C299
:10F710001A8288E08B8381E48C8386E58D8382E581
:10F720008E8389E48F8383E5888780E589878FE5E9
:10F730008A8782E38B872BE030E0F3C18A818139AD
:10F7400041F0823941F0803911F48FE005C080E04A
:10F7500003C082E001C08AE01A828B8344C0772410
:10F76000739482C08D81882311F48EE12CC0813086
:10F7700011F081E028C088E926C01A82E1E0F0E0BB
:10F7800089E08093570084918B831C8224E030E0D1
:10F79000C8C18B81803589F48C81883039F4E2E0EE
:10F7A000F0E089E08093570084910DC0E0E0F0E044
:10F7B00089E080935700849106C0E3E0F0E089E09F
:10F7C0008093570084911A82DFCF8D81836C99E0FA
:10F7D000E1E0F0E0082E90935700E89507B600FCB2
:10F7E000FDCF1A821B8223E030E09BC180EC8A832C
:10F7F000CE5CDE4F188219821A821B82C253D1401E
:10F800008EC18A8190E0A0E0B0E0582F44273327D2
:10F8100022278B8190E0A0E0B0E0DC0199278827C7
:10F82000282B392B4A2B5B2B8D8190E0A0E0B0E098
:10F83000282B392B4A2B5B2B8C8190E0A0E0B0E089
:10F84000BA2FA92F982F8827282B392B4A2B5B2BCF
:10F85000220F331F441F551FC05EDE4F288339839C
:10F860004A835B83C052D1401A8259C13A81C95C34
:10F87000DE4F3883C753D140CA5CDE4F1882C6536F
:10F88000D1408B81C82EDD24CA5CDE4F488159816E
:10F89000C653D140C42AD52A933109F082C0CE5C28
:10F8A000DE4F88819981AA81BB81C253D1408050AB
:10F8B000904CA340B04030F583E0CE5CDE4FE88052
:10F8C000F9800A811B81C253D140F70100935B008C
:10F8D00080935700E89507B600FCFDCFCE5CDE4F65
:10F8E000088119812A813B81C253D14000501F4FAA
:10F8F0002F4F3F4FCE5CDE4F088319832A833B8313
:10F90000C253D140C05EDE4F488159816A817B81FC
:10F91000C052D140DE011B9631E08C9111962C91A2
:10F9200011971296C75CDE4F2883C953D140C85C3B
:10F93000DE4F1882C853D14090E0C85CDE4FE881AA
:10F94000F981C853D1408E2B9F2B0C01FA01609393
:10F950005B0030935700E89511244E5F5F4F6F4F67
:10F960007F4F0EEFE02E0FEFF02ECE0CDF1CC114F8
:10F97000D10499F685E0C05EDE4F088119812A81A5
:10F980003B81C052D140F80120935B008093570027
:10F99000E89507B600FCFDCF81E180935700E8951C
:10F9A00035C0C05EDE4F88819981AA81BB81C0527B
:10F9B000D140B695A795979587957C018601ABE0D8
:10F9C000AA2EB12CAC0EBD1E0BC0D5016D915D01F0
:10F9D000C7010F947FFE0894E11CF11C01501040F8
:10F9E0000115110591F7A60160E070E0440F551F65
:10F9F000661F771FC05EDE4FE880F9800A811B8199
:10FA0000C052D1404E0D5F1D601F711F1A82C05E33
:10FA1000DE4F488359836A837B83C052D1407FC0C5
:10FA2000FA80C55CDE4FF882CB53D140C65CDE4F16
:10FA30001882CA53D1408B81C82EDD24C65CDE4FAC
:10FA400008811981CA53D140C02AD12A1A828981DA
:10FA5000BE016D5F7F4F843121F59601C05EDE4FA0
:10FA6000E880F9800A811B81C052D1400BBFF701A9
:10FA700087919691DB018C9311969C936E5F7F4FDB
:10FA8000D801C7010296A11DB11DC05EDE4F88835B
:10FA90009983AA83BB83C052D14022503040F1F6F3
:10FAA00036C0C05EDE4F288139814A815B81C052F9
:10FAB000D1400894C108D108760100E010E0089414
:10FAC000C11CD11C0894E11CF11C011D111DE20E8A
:10FAD000F31E041F151F21BDBB27A52F942F832FB5
:10FAE00082BD2F5F3F4F4F4F5F4FF89A80B5DB01CC
:10FAF0008D93BD012E153F054007510761F7C05E8C
:10FB0000DE4F288339834A835B83C052D1409601FC
:10FB10002D5F3F4FFB01108204C080EC8A8322E0FE
:10FB200030E08BE18093C6008091C00086FFFCCF5F
:10FB30008091C00080648093C000C15DDE4FF88179
:10FB4000CF52D140F093C6008091C00086FFFCCF19
:10FB50008091C00080648093C000432F3093C60022
:10FB60008091C00086FFFCCF8091C00080648093AC
:10FB7000C000922F2093C6008091C00086FFFCCF6A
:10FB80008091C00080648093C0008EE08093C600A6
:10FB90008091C00086FFFCCF8091C000806480937C
:10FBA000C00065E1C15DDE4FE880CF52D1406E25D7
:10FBB00069276427FE01319610C090819093C6009A
:10FBC0008091C00086FFFCCF31968091C000806498
:10FBD0008093C0006927215030402115310569F715
:10FBE0006093C6008091C00086FFFCCF8091C0006A
:10FBF00080648093C00085B1805885B9772081F4F6
:10FC0000C15DDE4F0881CF52D1400F5FC15DDE4F35
:10FC10000883CF52D14090E0A0E0B0E00D941AF4F8
:10FC200027982F9880E090E020ED37E0F901319798
:10FC3000F1F7019684369105C9F700008091C00064
:10FC40008D7F8093C00081E180935700E895EE2777
:10FC5000FF270994FFCF90E00D941AF497FB092E2B
:10FC600007260AD077FD04D02ED006D000201AF443
:10FC7000709561957F4F0895F6F7909581959F4F08
:10FC80000895A1E21A2EAA1BBB1BFD010DC0AA1FDD
:10FC9000BB1FEE1FFF1FA217B307E407F50720F0F5
:10FCA000A21BB30BE40BF50B661F771F881F991F70
:10FCB0001A9469F760957095809590959B01AC01B9
:10FCC000BD01CF010895AA1BBB1B51E107C0AA1FAC
:10FCD000BB1FA617B70710F0A61BB70B881F991FED
:10FCE0005A95A9F780959095BC01CD010895F99991
:10FCF000FECF92BD81BDF89A992780B50895262F31
:10FD0000F999FECF1FBA92BD81BD20BD0FB6F89400
:0EFD1000FA9AF99A0FBE01960895F894FFCF63
:040000033000E000E9
:00000001FF