:1000000014C1000043C1000041C100003FC1000015
:100010003DC100003BC1000039C1000037C10000F4
:1000200035C1000033C1000031C100002FC1000004
:100030002DC100002BC1000029C1000027C1000014
:1000400025C10000F8C6000021C100001FC100004A
:100050000C94710A1BC1000019C1000098C5000072
:1000600015C1000085C300005AC300000FC1000085
:100070000DC100000BC1000009C1000007C1000054
:10008000ADC6000003C1000001C10000FFC00000B8
:10009000FDC00000FBC00000F9C00000F9C6000070
:1000A000F5C00000F3C000006CC60000EFC0000007
:1000B000EDC00000EBC00000E9C0000035C6000044
:1000C000E5C00000E3C00000E1C00000DFC00000A8
:1000D000DDC00000DBC00000D9C00000D7C00000B8
:1000E000D5C000006F027202610265026B02A902B4
:1000F00076027A028002840288028E0292029602BE
:10010000A9029C02A002A4020000210024002700F2
:100110002A002D0030003300010100000401070116
:100120000A0100002200250028002B002E003100CB
:10013000340002010000050108010B01000020004D
:100140002300260029002C002F00320000010000AF
:10015000030106010901050505050705080808084A
:10016000020202020A0A080804040404010101014F
:10017000010101010303030303030303040707074A
:100180000C0C0C0C0C0C0C0C0202020206060606EF
:10019000060606060B0B0B0B0B0B0B0B01021020BC
:1001A00020080810204010204080020102010804AD
:1001B0000201010204081020408080402010080441
:1001C000020180040201804020100804020108049A
:1001D00002010102040810204080010204081020DE
:1001E000408000000A0B02090C0D0E0807030401F1
:1001F00000000000000000000000000000000000FF
:1002000000000000000000000000000000001211CB
:1002100010000000000000000000000000000000CE
:1002200000000000000000006B1811241FBECFEF7B
:10023000D1E2DEBFCDBF00E00CBF12E0A0E0B2E033
:10024000E4E3F7E300E00BBF02C007900D92A4398E
:10025000B107D9F725E0A4E9B2E001C01D92AE379D
:10026000B207E1F711E0C5E1D1E000E006C0219757
:100270000109802FFE010E94771BC431D10780E065
:100280000807A9F70E9497120C94981BB9CEFC019D
:10029000538D448D252F30E0842F90E0821B930BEB
:1002A000541710F0CF96089501970895FC01918D91
:1002B000828D981761F0828DDF01A80FB11D5D96C8
:1002C0008C91928D9F5F9F73928F90E008958FEF36
:1002D0009FEF0895FC01918D828D981731F0828DEA
:1002E000E80FF11D858D90E008958FEF9FEF089541
:1002F000FC01918D228D892F90E0805C9F4F821BA5
:1003000091098F739927089587E194E0F1DF21E047
:10031000892B09F420E0822F0895FC01848DDF01F0
:10032000A80FB11DA35ABF4F2C91848D90E0019668
:100330008F739927848FA689B7892C93A089B18957
:100340008C91837080648C93938D848D981306C0F8
:100350000288F389E02D80818F7D80830895EF925C
:10036000FF920F931F93CF93DF93EC0181E0888F6F
:100370009B8D8C8D981305C0E889F989808185FD56
:1003800025C0F62E0B8D10E00F5F1F4F0F73112746
:10039000E02E8C8DE8120BC00FB607FCFACFE8896F
:1003A000F989808185FFF5CFCE01B7DFF2CF8B8D44
:1003B000FE01E80FF11DE35AFF4FF0829FB7F8945A
:1003C0000B8FEA89FB89808180620AC09FB7F8940D
:1003D000EE89FF896083E889F98980818370806470
:1003E00080839FBF81E090E0DF91CF911F910F91BB
:1003F000FF90EF900895CF93DF93EC01888D8823D1
:10040000C1F0EA89FB89808185FD05C0A889B98989
:100410008C9186FD0EC00FB607FCF5CF808185FF5D
:10042000F2CFA889B9898C9185FFEDCFCE0175DF18
:10043000E8CFDF91CF91089580E090E0892B19F00B
:1004400063DF811125C080E090E0892B41F080E0DE
:1004500090E0892B21F00E94000081111CC080E0F7
:1004600090E0892B41F080E090E0892B21F00E9400
:100470000000811113C080E090E0892BA1F080E0A2
:1004800090E0892B81F00E94000081110AC008953C
:100490000E940000D8CF0E940000E1CF0E9400001F
:1004A000EACF0C940000089590E0FC013197E2310E
:1004B000F10508F04EC08827EE58FF4F8F4F0C947F
:1004C000771B809180008F7703C0809180008F7DA3
:1004D00080938000089580918000877FF9CF84B554
:1004E0008F7702C084B58F7D84BD08958091B00060
:1004F0008F7703C08091B0008F7D8093B000089506
:10050000809190008F7707C0809190008F7D03C00D
:1005100080919000877F8093900008958091A00043
:100520008F7707C08091A0008F7D03C08091A000CD
:10053000877F8093A0000895809120018F7707C066
:10054000809120018F7D03C080912001877F80935F
:10055000200108953FB7F8948091E5029091E6025A
:10056000A091E702B091E80226B5A89B05C02F3FF5
:1005700019F00196A11DB11D3FBFBA2FA92F982FC9
:100580008827820F911DA11DB11DBC01CD0142E044
:10059000660F771F881F991F4A95D1F7089585ED3B
:1005A0008093BC008091BC0084FDFCCF109262035C
:1005B00008954091B802262F30E0240F311D2132DA
:1005C0003105DCF4209162032430C9F4FC0180E0A1
:1005D00090E0861758F43091B8022191DC01A856BA
:1005E000BD4FA30FB11D2C930196F3CF8091B8029C
:1005F000680F6093B80280E0089581E0089582E07A
:100600000895089508950895E0911B0380911A03B9
:10061000E81730F4F0E0E45EFC4F808190E008954C
:100620008FEF9FEF089590911B0380911A03981705
:1006300050F4E92FF0E0E45EFC4F208130E09F5F52
:1006400090931B0302C02FEF3FEFC90108958091E3
:100650001A0390E020911B03821B91090895CF9209
:10066000DF92EF92FF920F931F93CF93DF937C0162
:10067000CB018A0120916303222389F0EB016B01F6
:10068000C40ED51ECC15DD0561F06991D701ED9141
:10069000FC910190F081E02DC7011995F3CF642FF3
:1006A00088DFC801DF91CF911F910F91FF90EF90EC
:1006B000DF90CF900895CF93DF931F92CDB7DEB731
:1006C0006983209163032223D1F020918603203295
:1006D00040F021E030E0FC013383228380E090E0B1
:1006E00014C080916403E82FF0E0EB59FC4F99812E
:1006F00090838F5F809364038093860304C061E0DE
:10070000CE01019656DF81E090E00F90DF91CF910E
:100710000895089580E090E008950E94941B1F9230
:100720000F920FB60F9211240BB60F922F933F9397
:100730004F935F936F937F938F939F93AF93BF93E9
:10074000EF93FF9387E194E0E8DDFF91EF91BF9194
:10075000AF919F918F917F916F915F914F913F9159
:100760002F910F900BBE0F900FBE0F901F901895FA
:100770001F920F920FB60F9211240BB60F922F9368
:100780008F939F93EF93FF93E0912704F0912804B8
:100790008081E0912D04F0912E0482FD12C09081A1
:1007A000809130048F5F8F7320913104821751F054
:1007B000E0913004F0E0E95EFB4F958F80933004C8
:1007C00001C08081FF91EF919F918F912F910F90A8
:1007D0000BBE0F900FBE0F901F901895CF93DF9315
:1007E000282F30E0F901EE51FE4F8491F901E456D3
:1007F000FE4FD491F901EA5AFE4FC491CC2389F0FF
:10080000811152DEEC2FF0E0EE0FFF1FE45CFE4F93
:10081000A591B491EC91ED2381E090E021F480E08A
:1008200002C080E090E0DF91CF9108951F93CF93B5
:10083000DF93282F30E0F901EE51FE4F8491F9014A
:10084000E456FE4FD491F901EA5AFE4FC491CC23ED
:10085000B9F0162F811128DEEC2FF0E0EE0FFF1F0C
:10086000EE5DFE4FA591B4919FB7F894111104C0AD
:100870008C91D095D82302C0EC91DE2BDC939FBFE6
:10088000DF91CF911F910895CF92DF92EF92FF9267
:100890000F931F93CF93DF936C018B017A01EC01CF
:1008A000C552DD4F888187FF04C0FB011182108291
:1008B00024C02CE02C9DC0012D9D900D1124288179
:1008C000AC01420F511D27FD5A952091DF0230E007
:1008D0004217530794F42881AC01420F511D27FDA4
:1008E0005A959A01FA01EE0FFF1F2E0F3F1FF901D3
:1008F000E957FC4F208126FD19C088818F5F8883CE
:100900002CE02C9DC0012D9D900D11242881AC015F
:10091000420F511D27FD5A952091DF0230E042170A
:100920005307B4F428812C303CF112C02881820F87
:10093000911D27FD9A95FC01EE0FFF1F8E0F9F1F43
:10094000FC01E957FC4F808160E08F736FDFD5CFEA
:10095000F80180819181049680349C4918F480E4E8
:100960009CE904C0F801808191810496F70191838C
:1009700080838FEF888344C0F801408151812881B2
:10098000BC01620F711D27FD7A959B01FB01EE0FE3
:10099000FF1F2E0F3F1FF901E957FC4F21813281C4
:1009A000240F351FF701318320832881AC01420FCA
:1009B000511D27FD5A959A01FA01EE0FFF1F2E0FC8
:1009C0003F1FF901E957FC4F208126FF19C02881FC
:1009D000820F911D27FD9A95FC01EE0FFF1F8E0FD0
:1009E0009F1FFC01E957FC4F808161E08F73DF910D
:1009F000CF911F910F91FF90EF90DF90CF9016CF86
:100A0000DF91CF911F910F91FF90EF90DF90CF90EA
:100A10000895CF93DF93809196029091970201966B
:100A20009093970280939602C0919402D091950280
:100A30002196D0939502C09394022091F1023091B7
:100A4000F2022F5F3F4F3093F2022093F102209188
:100A5000EF023091F0028217930750F061E082E0DC
:100A6000E5DE60E082E0E2DE1092970210929602EC
:100A7000CD2B51F061E084E0D9DE60E084E0D6DE89
:100A80001092950210929402DF91CF910895CF9326
:100A9000DF9390E0FC01E456FE4F2491FC01EA5AFA
:100AA000FE4F8491882361F190E0880F991FFC012B
:100AB000E85FFE4FC591D491FC01EE5DFE4FA5911C
:100AC000B491611109C09FB7F89488812095822361
:100AD0008883EC912E230BC0623061F49FB7F894A9
:100AE0008881322F309583238883EC912E2B2C9391
:100AF0009FBF06C08FB7F894E8812E2B28838FBF45
:100B0000DF91CF9108958F929F92AF92BF92CF9233
:100B1000DF92EF92FF926B017C011CDD4B015C01C7
:100B2000C114D104E104F104E9F014DDDC01CB01CE
:100B300088199909AA09BB09883E9340A105B10506
:100B400078F321E0C21AD108E108F10888EE880E96
:100B500083E0981EA11CB11CC114D104E104F1046E
:100B600021F7DECFFF90EF90DF90CF90BF90AF9056
:100B70009F908F9008952FB7F8946091E102709143
:100B8000E2028091E3029091E4022FBF08951F9248
:100B90000F920FB60F9211242F933F938F939F9331
:100BA000AF93BF938091E1029091E202A091E302A2
:100BB000B091E4023091E00223E0230F2D3720F4BE
:100BC0000196A11DB11D05C026E8230F0296A11DA7
:100BD000B11D2093E0028093E1029093E202A09382
:100BE000E302B093E4028091E5029091E602A091C5
:100BF000E702B091E8020196A11DB11D8093E502C4
:100C00009093E602A093E702B093E802BF91AF9100
:100C10009F918F913F912F910F900FBE0F901F903A
:100C200018950F931F93CF93DF93EC018A8188234C
:100C300019F061E088812BDF60E08881F7DD83E0D7
:100C400090E00197F1F761E08881F0DD83E290E0C8
:100C50000197F1F760E08881E9DD8A81882319F046
:100C600060E0888114DF76DC6B837C838D839E83D8
:100C70008981B4DD892BA1F46DDC0B811C812D8170
:100C80003E81DC01CB01801B910BA20BB30B0F81CA
:100C9000188529853A85081719072A073B0740F761
:100CA00059DC6B837C838D839E83898197DD892BBF
:100CB000A1F050DC0B811C812D813E81DC01CB0138
:100CC000801B910BA20BB30B0F81188529853A85E8
:100CD000081719072A073B0740F73CDC2B813C81AA
:100CE000CB01821B930BDF91CF911F910F91089540
:100CF000FC019091DF029033A0F481E0890F809392
:100D0000DF029083892F90E0FC01EE0FFF1F8E0F12
:100D10009F1FFC01E957FC4F88EB9BE09283818386
:100D200008958FEF808308951F920F920FB60F9250
:100D300011240BB60F922F933F934F935F936F93B2
:100D40007F938F939F93AF93BF93EF93FF9348E26B
:100D500051E064E271E080E090E096DDFF91EF9178
:100D6000BF91AF919F918F917F916F915F914F91C3
:100D70003F912F910F900BBE0F900FBE0F901F90C1
:100D800018951F920F920FB60F9211240BB60F9267
:100D90002F933F934F935F936F937F938F939F9383
:100DA000AF93BF93EF93FF9348EA50E064EA70E09B
:100DB00083E090E069DDFF91EF91BF91AF919F914A
:100DC0008F917F916F915F914F913F912F910F90F4
:100DD0000BBE0F900FBE0F901F9018951F920F9291
:100DE0000FB60F9211240BB60F922F933F934F9390
:100DF0005F936F937F938F939F93AF93BF93EF9383
:100E0000FF9348E950E064E970E082E090E03CDD67
:100E1000FF91EF91BF91AF919F918F917F916F91D2
:100E20005F914F913F912F910F900BBE0F900FBE8E
:100E30000F901F9018951F920F920FB60F921124CA
:100E40000BB60F922F933F934F935F936F937F93C4
:100E50008F939F93AF93BF93EF93FF9348E850E036
:100E600064E870E081E090E00FDDFF91EF91BF91C9
:100E7000AF919F918F917F916F915F914F913F9132
:100E80002F910F900BBE0F900FBE0F901F901895D3
:100E90001F920F920FB60F9211240BB60F922F9341
:100EA0003F934F935F936F937F938F939F93AF93F2
:100EB000BF93EF93FF938091B900887F803609F448
:100EC0009CC068F5883209F45BC090F4803109F465
:100ED00054C038F4882309F4F6C0883009F44DC0B2
:100EE000F5C0883109F44CC0803209F45DC0EEC011
:100EF000803409F468C048F4803309F455C088335D
:100F000009F0E4C080936003D8C0803509F44FC075
:100F1000883509F45DC0883409F0D8C0D6C0883956
:100F200009F4C7C0A8F4883709F467C038F48836D4
:100F300009F463C0803709F460C0C8C0883809F478
:100F4000B8C0803909F45FC0803809F0BFC05BC009
:100F5000803B09F486C038F4803A09F466C0883AC8
:100F600009F47FC0B3C0803C09F4A7C0883C09F4F1
:100F7000A4C0883B09F48AC0A9C080913D0310C079
:100F800090915F0380915E03981770F5E0915F0385
:100F900081E08E0F80935F03F0E0E25CFC4F808184
:100FA0008093BB0085EC86C0809360038EC0E09187
:100FB0005F0381E08E0F80935F038091BB00F0E0C0
:100FC000E25CFC4F808390915F0380915E036EC072
:100FD000E0915F0381E08E0F80935F038091BB00FF
:100FE000F0E0E25CFC4F80838091610381116DC071
:100FF00081E080933C0384EA61C083E080936203D4
:101000001092DA02CFCF8091DA02803208F051C01C
:10101000E091DA0281E08E0F8093DA028091BB00CA
:10102000F0E0E654FD4F8083BDCF85EC8093BC009B
:10103000109262038091DA02803230F4E091DA0299
:10104000F0E0E654FD4F10826091DA0270E0E0912A
:10105000E902F091EA028AEB92E019951092DA0225
:1010600035C084E0809362031092B9021092B802F6
:10107000E091EB02F091EC0219958091B802811198
:1010800005C081E08093B80210929802E091B90205
:1010900081E08E0F8093B902F0E0E856FD4F808129
:1010A0008093BB009091B9028091B802981708F420
:1010B00079CF85E88093BC0009C085EC8093BC00A3
:1010C0001092620303C01092600369DAFF91EF91FE
:1010D000BF91AF919F918F917F916F915F914F9150
:1010E0003F912F910F900BBE0F900FBE0F901F904E
:1010F0001895CF93DF93EC01898191E0909363037E
:101100008093850310926403109286038AEF94E023
:10111000D2DA81E00E94D511888362E089810E9441
:1011200031128AEF94E07FDAD82F80E0C82F8AEF5F
:1011300094E079DA8C2B9D2BDF91CF910895CF939A
:10114000DF93EC01898191E09093630380938503A1
:1011500010926403109286038AEF94E0ACDA81E087
:101160000E94D511888361E089810E9431128AEF43
:1011700094E059DADF91CF9108952F923F924F92E8
:101180005F926F927F928F929F92AF92BF92CF9217
:10119000DF92EF92FF920F931F93CF93DF9300D0D4
:1011A00000D0CDB7DEB71C017E836D838A0160E578
:1011B000C6DF8F5F880F90E0F8019183808366E43B
:1011C000C101BDDF282F30E02F5F3F4F3A832983D5
:1011D000F80135832483A081B0E020E03FE24AE3B8
:1011E00050E00E94321A4B015C01F4EF8F0EF1E0E7
:1011F0009F1EA11CB11C98EEC92E93E0D92EE12CA4
:10120000F12CC501B401A70196010E94F419A9812E
:10121000BA810E943C1A69837A838B839C8320ED78
:10122000422E27E0522E612C712CC501B401A3017E
:1012300092010E94F41969817A818B819C81620FED
:10124000731F841F951FA70196010E94F419F801CE
:10125000228733874487558761E5C1014ADF9C01B6
:10126000332702C0220F331F9A95E2F72F5F3F4FBB
:101270003A832983F80137832683A081B0E020E0F8
:101280003FE24AE350E00E94321A4B015C01F4EF66
:101290008F0EF1E09F1EA11CB11CC501B401A70176
:1012A00096010E94F419A981BA810E94321A6983B9
:1012B0007A838B839C83C501B401A30192010E94B0
:1012C000F41969817A818B819C81620F731F841F5D
:1012D000951FA70196010E94F419F8012687378708
:1012E000408B518B60E7C1012ADF8F5F880F90E050
:1012F000F8019383828361E7C101FBDE9C0199279A
:1013000002C0880F991F3A95E2F70196F80191877C
:101310008087ED81FE812381222339F0F801268127
:101320003781821B930B91878087F801A281B0E0FF
:1013300020E03FE24AE350E00E94321A6B017C0158
:10134000F4EFCF0EF1E0DF1EE11CF11C88EE882ED9
:1013500083E0982EA12CB12CC701B601A501940100
:101360000E94F419F801A085B1850E94321A2B0160
:101370003C01C701B60120ED37E040E050E00E949B
:10138000F419C301B201620F731F841F951FA501D9
:1013900094010E94F419F801228B338B448B558BF6
:1013A00026960FB6F894DEBF0FBECDBFDF91CF916A
:1013B0001F910F91FF90EF90DF90CF90BF90AF9073
:1013C0009F908F907F906F905F904F903F902F9065
:1013D0000895CF93DF93EB0161E0B1DE84FB9927A1
:1013E00090F9988383FB992790F99A8382FB992738
:1013F00090F9998386FB992790F99B83881F88270A
:10140000881F8C83DF91CF9108950F931F93CF9303
:10141000DF93EC01142F052F898191E090936303F2
:101420008093850310926403109286038AEF94E000
:1014300042D9602F8AEF94E03ED9612F8AEF94E081
:101440003AD981E0B2D78883DF91CF911F910F9174
:1014500008951F93CF93DF93EC01142F898191E0BE
:101460009093630380938503109264031092860324
:101470008AEF94E020D9612F8AEF94E01CD981E0B3
:1014800094D78883DF91CF911F910895CF93DF93F5
:10149000EC01462F416060E0DCDF6DDB7E836D8315
:1014A00063E1CE014CDE877081F48A819B81892BB8
:1014B000B9F361DB2D813E81621B730B8A819B81B5
:1014C0008617970768F780E009C041E06BE0CE011E
:1014D000C0DF40E060E0CE01BCDF81E0DF91CF9172
:1014E00008951F920F920FB60F9211240BB60F9210
:1014F0002F933F934F935F936F937F938F939F931C
:10150000AF93BF93EF93FF93E091ED02F091EE0262
:101510001995FF91EF91BF91AF919F918F917F911D
:101520006F915F914F913F912F910F900BBE0F9054
:101530000FBE0F901F901895CF92DF92EF92FF92FF
:101540000F931F93CF93DF938C01055F1F4FEC0127
:101550006F96C12CD12C7601F801619171918F01A8
:1015600080E090E00E94DF189B01AC01C701B6014A
:101570000E94521A6B017C010C171D0769F720E0CD
:1015800030E040E251E40E94B61ADF91CF911F9102
:101590000F91FF90EF90DF90CF9008950F931F93DE
:1015A000CF93DF93EC018F8D8A3008F01F8E0F8D63
:1015B00010E0CE0136DB000F111FFE01E00FF11F1E
:1015C00068E370E00E94631B748763878F8D91E0EE
:1015D000980F9F8FC80FD11DC80FD11D8B859C857B
:1015E000DF91CF911F910F910895CF92DF92EF92EB
:1015F000FF920F931F93CF93DF936C017A018B01BE
:10160000C0E0D0E0CE15DF0581F0D8016D918D01ED
:10161000D601ED91FC910190F081E02DC601199564
:10162000892B11F02196EECF7E01C701DF91CF917A
:101630001F910F91FF90EF90DF90CF9008953F9210
:101640004F925F926F927F928F929F92AF92BF92D2
:10165000CF92DF92EF92FF920F931F93CF93DF937E
:10166000CDB7DEB7A1970FB6F894DEBF0FBECDBFE2
:101670008C0169E864DD482F416069E8C801E9DE52
:1016800040E068E8C801E5DE41E060E8C801E1DE6D
:1016900041E06FEFC801DDDE40E060E0C801D9DE67
:1016A00061E9C8014CDDF801878341E060E0C801D1
:1016B000D0DE40E06FEFC801CCDE40E060E8C8015A
:1016C000C8DE60E6C8013BDD482F426160E6C80124
:1016D000C0DE40E250E064E4C80197DE4FEF61E015
:1016E000C801B7DE41E060E8C801B3DE41E06FEF5A
:1016F000C801AFDE40E060E0C801ABDE46E06FEF5E
:10170000C801A7DE63E8C8011ADD482F446063E81A
:10171000C8019FDE47E06FEFC8019BDE41E061E852
:10172000C80197DE41E060E8C80193DE4BE664E95A
:10173000C8018FDE40E063E8C8018BDE1CDAF801E7
:101740007683658363E8C801FADC811112C0F80171
:1017500082819381892BB1F30EDAF80125813681DC
:10176000621B730B828193818617970758F7F12CC0
:101770004AC341E063E8C8016CDE62E9C801DFDC0E
:10178000B82EF82FFF77DF2E40E061E8C80161DE58
:1017900046E06FEFC8015DDE63E8C801D0DC482F8A
:1017A0004B7F63E8C80155DE41E06FEFC80151DEB1
:1017B00041E060E0C8014DDE40E06FEFC80149DE66
:1017C00040E060E8C80145DEF801818191E0909336
:1017D000630380938503109264031092860360EB89
:1017E0008AEF94E00E945B0381E0DFD5F8018083FB
:1017F00066E0818136D67E01F7E1EF0EF11C3701FC
:10180000B7E0CB2ECA94CC2041F08AEF94E00E943E
:101810001303F30181933F01F5CF41E06FEFC8015E
:1018200018DE40E06FE4C80114DE4CE26EE4C8014B
:1018300010DE40E06FEFC8010CDE44EB66EBC80140
:1018400008DEB7FC02C060E001C06CE090E080E020
:1018500041E050E0282F269526952695782F777021
:10186000F701E20FF11D861710F0D9120AC09A0194
:1018700001C0220F7A95EAF7209530812323208337
:1018800009C0208130E002C0359527957A95E2F7AE
:1018900020FD9F5F8F5F8033E9F6F801818191E041
:1018A00090936303809385031092640310928603E0
:1018B00060EB8AEF94E00E945B03A7E0DA2EDA94F3
:1018C000DD2041F0F70161917F018AEF94E00E94F1
:1018D0005B03F5CF81E069D5F801808341E06FEFCC
:1018E000C801B7DD40E060E0C801B3DD40E06FEF64
:1018F000C801AFDD40E069E0C801ABDD40E060E178
:10190000C801A7DD40E061E1C801A3DD41E064E278
:10191000C8019FDD4FEF65E2C8019BDD40E065E750
:10192000C80197DD41E06FEFC80193DD4CE26EE442
:10193000C8018FDD40E068E4C8018BDD40E260E370
:10194000C80187DD40E06FEFC80183DD49E060E357
:10195000C8017FDD40E064E5C8017BDD44E061E370
:10196000C80177DD43E062E3C80173DD43E860E46A
:10197000C8016FDD45E266E4C8016BDD40E060E66A
:10198000C80167DD40E067E2C80163DD46E060E56D
:10199000C8015FDD40E061E5C8015BDD46E962E565
:1019A000C80157DD48E066E5C80153DD40E367E55F
:1019B000C8014FDD40E061E6C8014BDD40E062E672
:1019C000C80147DD40E064E6C80143DD40E065E66C
:1019D000C8013FDD40EA66E6C8013BDD41E06FEF4C
:1019E000C80137DD42E362E2C80133DD44E167E468
:1019F000C8012FDD4FEF69E4C8012BDD40E06AE448
:101A0000C80127DD40E06FEFC80123DD4AE06AE747
:101A1000C8011FDD40E06BE7C8011BDD41E268E75C
:101A2000C80117DD41E06FEFC80113DD44E363E255
:101A3000C8010FDD40E062E4C8010BDD4FEF64E454
:101A4000C80107DD46E265E4C80103DD45E066E460
:101A5000C801FFDC40E460E4C801FBDC46E06EE066
:101A6000C801F7DC4AE160E2C801F3DC40E463E46A
:101A7000C801EFDC40E06FEFC801EBDC43E064E35A
:101A8000C801E7DC44E465E3C801E3DC41E06FEF53
:101A9000C801DFDC44E061E3C801DBDC49E06BE462
:101AA000C801D7DC45E06CE4C801D3DC44E06DE458
:101AB000C801CFDC40E06FEFC801CBDC40E064E45C
:101AC000C801C7DC40E265E4C801C3DC48E067E464
:101AD000C801BFDC48E268E4C801BBDC40E067E65F
:101AE000C801B7DC44E060E7C801B3DC41E061E76E
:101AF000C801AFDC4EEF62E7C801ABDC40E066E74F
:101B0000C801A7DC40E067E7C801A3DC41E06FEF54
:101B1000C8019FDC41E06DE0C8019BDC40E06FEF55
:101B2000C80197DC41E060E8C80193DC48EF61E060
:101B3000C8018FDC41E06FEFC8018BDC41E06EE84B
:101B4000C80187DC41E060E0C80183DC40E06FEF62
:101B5000C8017FDC40E060E8C8017BDC44E06AE06B
:101B6000C80177DC64E8C801EADA482F4F7E64E8F0
:101B7000C8016FDC41E06BE0C8016BDCBE01635E55
:101B80007F4FC80126DCAE014F5F5F4FBE01635E31
:101B90007F4FC801F2DA8D8D882349F08B859C85B3
:101BA000AD85BE858C57924FAF4FBF4F04C086E3C3
:101BB0009BE0A0E0B0E02F8D222369F04B855C858F
:101BC0006D857E854E545D4F6F4F7F4F440F551F7F
:101BD000661F771F0BC02E8D222361F04B855C851D
:101BE0006D857E854C565D4F6F4F7F4F840F951FDF
:101BF000A61FB71F28A1222361F04F855889698944
:101C00007A894C565D4F6F4F7F4F840F951FA61FEB
:101C1000B71F29A1222361F04B895C896D897E89D8
:101C20004A5D5D4F6F4F7F4F840F951FA61FB71FF3
:101C3000F80180879187A287B38748EE61E0C801E9
:101C400008DCF801C084D184E284F384F0E2CF168A
:101C5000FEE4DF06E104F10408F4BCC0BE01635EEB
:101C60007F4FC801B6DBAE014F5F5F4FBE01635EC1
:101C70007F4FC80182DA8D8D882349F08B859C8542
:101C8000AD85BE858A5C944FAF4FBF4F04C088EED0
:101C900098E0A0E0B0E02F8D222369F04B855C85B1
:101CA0006D857E854E545D4F6F4F7F4F440F551F9E
:101CB000661F771F0BC02E8D222361F04B855C853C
:101CC0006D857E854C565D4F6F4F7F4F840F951FFE
:101CD000A61FB71F38A0332061F04F855889698946
:101CE0007A894C565D4F6F4F7F4F840F951FA61F0B
:101CF000B71F29A1222309F46DC04C015D0126E222
:101D0000820E22E0921EA11CB11CC814D904EA0460
:101D1000FB0408F45FC0AB81B0E020E03FE24AE39F
:101D200050E00E94321A2B013C01E4EF4E0EE1E03C
:101D30005E1E611C711CA7019601281939094A0908
:101D40005B09A8EEB3E00E94321A4B015C01C301AB
:101D5000B20120ED37E040E050E00E94F419820E1D
:101D6000931EA41EB51EC301B20128EE33E040E06D
:101D700050E00E94F419C501B4010E94F419C90190
:101D8000332021F08F819885820F931F0097C1F037
:101D90000197A0E0B0E040E050E02C013D01442478
:101DA00045284628472839F0B695A79597958795F1
:101DB0004F5F5F4FF2CF542F4427482B592B02C05F
:101DC00040E050E061E7C80120DBF801C086D18621
:101DD000E286F38641E061E0C8013BDB60E4C801D4
:101DE00055DB882309F4C3CC42E061E0C80131DB54
:101DF00060E0C8014BDBF82E882309F4B8CC48EE2C
:101E000061E0C80126DB8F2DA1960FB6F894DEBFE6
:101E10000FBECDBFDF91CF911F910F91FF90EF903B
:101E2000DF90CF90BF90AF909F908F907F906F90FA
:101E30005F904F903F900895009761F0FC010190F2
:101E40000020E9F73197AF01481B590BBC0187E12E
:101E500094E0CBCB80E090E00895EECFE7E1F4E0B2
:101E6000A089B18982E08C93A485B5851C92A68552
:101E7000B7858FEC8C93108EA489B58986E08C93FE
:101E8000A289B3898C9180618C93A289B3898C914A
:101E900088608C93A289B3898C9180688C93028826
:101EA000F389E02D80818F7D808308951F93CF93E8
:101EB000DF93EC01162F8881803308F04EC061E07B
:101EC000812F0E9447058881E82FF0E09F01220FB3
:101ED000331FE20FF31FE957FC4F1F739081907C73
:101EE000192B108319821A826CE00E94571B9CE008
:101EF000899FB001112440E050E09B01240F351F61
:101F0000F901EE0FFF1F2E0F3F1FF901E957FC4F9C
:101F1000908196FD16C04F5F5F4F4C30510569F7B9
:101F2000813001F51092800082E080938100109250
:101F3000850010928400B19A80916F008260809336
:101F40006F00E881F0E0CF01880F991FE80FF91FBB
:101F5000E957FC4F8081806480838881DF91CF9135
:101F60001F910895823061F4109290008093910047
:101F7000109295001092940088BB80937100E1CF7D
:101F8000833069F41092A00082E08093A100109247
:101F9000A5001092A40089BB80937200D2CF81115A
:101FA000D0CF1092200182E0809321011092250170
:101FB000109224018ABB80937300C3CFCF92DF922B
:101FC000EF92FF92DC01A03282E0B8070CF03EC035
:101FD000B7FD06C0A53BB1052CF0A4EBB0E002C0F4
:101FE000A0E0B0E08091640528E830E06901C81AFB
:101FF000D10887FDD394CC0CDD1CCC0CDD1C0D2C42
:10200000000CEE08FF088091650528E532E0281BEA
:10201000310987FD3395220F331F220F331FA9018A
:10202000330F660B770B9A01AB012C193D094E0952
:102030005F090E943C1A24EB30E040E050E00E942F
:10204000161AC20ED31EE41EF51ED601909163052A
:10205000903398F58091640548E850E0481B510999
:1020600087FD5395440F551F440F551FA417B507FF
:102070008CF08091650528E532E0281B310987FD49
:102080003395220F331F220F331FAD012A173B0751
:102090000CF4A90142505109440F551F2FB7F89471
:1020A000892F90E0FC01EE0FFF1F8E0F9F1FFC0198
:1020B000E957FC4F528341832FBFFF90EF90DF9091
:1020C000CF9008958F929F92AF92BF92CF92DF925E
:1020D000EF92FF928091650528E532E06901C81A08
:1020E000D10887FDD394CC0CDD1CCC0CDD1C0D2C51
:1020F000000CEE08FF088091640528E830E04901F3
:10210000881A910887FD9394880C991C880C991C57
:10211000092C000CAA08BB08809163058F3FC1F011
:1021200090E0FC01EE0FFF1F8E0F9F1FFC01E9578F
:10213000FC4F2181328143E0220F331F4A95E1F7A2
:1021400054E0369527955A95E1F72E5F3F4F02C030
:1021500020E030E02F5F3F4FC901330FAA0BBB0BCC
:102160009C01AD01281939094A095B09A4EBB0E0CB
:102170000E94321AA7019601281939094A095B09F8
:102180000E94161AC901FF90EF90DF90CF90BF9088
:10219000AF909F908F9008958F929F92AF92BF9231
:1021A0000F931F93CF93DF93CDB7DEB7A1970FB6F1
:1021B000F894DEBF0FBECDBF19A2423008F44AE04A
:1021C0008E010F5D1F4F842E912CA12CB12CA501E7
:1021D00094010E94F419E62FB901CA0101501109B6
:1021E000EA3014F4E05D01C0E95CD801EC93232BE4
:1021F000242B252B61F7C8011FDEA1960FB6F8949A
:10220000DEBF0FBECDBFDF91CF911F910F91BF9069
:10221000AF909F908F9008958F929F92AF92BF92B0
:10222000CF92DF92EF92FF920F931F93CF93DF93A2
:102230006B017C01142F9B01AC010E94531B88236E
:1022400019F088E892E026C046015701E894B7F8F3
:102250002FEF3FEF4FE75FE7C501B4010E94531B2B
:1022600081110CC02FEF3FEF4FE75FE7C501B401CD
:10227000A2D718161CF48CE892E00CC02FEF3FEFA9
:102280004FE75FE4C701B6010E944F1B18167CF4AC
:1022900080E992E0DF91CF911F910F91FF90EF9035
:1022A000DF90CF90BF90AF909F908F90C5CD2FEFD4
:1022B0003FEF4FE75FECC701B6017DD787FDE8CF61
:1022C00020E030E0A901C701B60175D787FF0BC038
:1022D0006DE287E194E00E94AF01EC01F7FAF0941F
:1022E000F7F8F09402C0C0E0D0E000E060E070E0F9
:1022F00080E09FE3101741F020E030E040E251E43D
:102300000E94B61A0F5FF6CFA70196010E94521ADB
:102310006B017C010E94231B4B015C014AE03CDF06
:10232000C80FD91F112399F1C501B40148D79B01EA
:10233000AC01C701B6010E94511A6B017C016EE22B
:1023400087E194E00E94AF01C80FD91F20E030E080
:1023500040E251E4C701B60193D74B015C010E94F2
:10236000231B6B01E12CF12C4AE0C701B60114DFFD
:10237000C80FD91FC701B60122D79B01AC01C50107
:10238000B4010E94511A6B017C011150F9F6CE0183
:10239000DF91CF911F910F91FF90EF90DF90CF9041
:1023A000BF90AF909F908F900895282F3091860313
:1023B000313208F04AC0809162038111FCCF9091C4
:1023C000850342E040936203209361032FEF209343
:1023D000600310925F0330935E03E5E6F3E0AEE343
:1023E000B3E020E0321721F041914D932F5FFACFF7
:1023F00010923D0320913D03990F922B90933D0342
:1024000090913C03913061F410923C0390913D0314
:102410009093BB009091BC0093FDF8CF95EC01C068
:1024200095EE9093BC00909162039230E1F390910D
:1024300060039F3F79F080916003803241F080918A
:102440006003803331F084E005C081E003C082E0A6
:1024500001C083E01092640310928603109263031C
:102460000895909162039111FCCF613208F060E20F
:1024700091E090936203909361032FEF20936003A8
:1024800010925F03260F20935E0390933D0390917B
:102490003D03880F892B80933D0380913C0381305D
:1024A00061F410923C0380913D038093BB008091C6
:1024B000BC0083FDF8CF85EC01C085EE8093BC00A5
:1024C000809162038130E1F380915F03861710F4FD
:1024D00060915F03EEE3F3E0ACE1B3E080E08617E8
:1024E00021F091919D938F5FFACF10921B038093FF
:1024F0001A030895CF93DF93EC011882198281E0CB
:102500008A8361E080E00E94470560E089810E9443
:10251000470580E29EE4A0E0B0E08F839887A9871A
:10252000BA87CE018196DF91CF910C947806CF9334
:10253000DF93CDB7DEB7A4970FB6F894DEBF0FBE1A
:10254000CDBF789484B5826084BD84B5816084BD3C
:1025500085B5826085BD85B5816085BD80916E0041
:10256000816080936E001092810080918100826072
:1025700080938100809181008160809381008091AF
:1025800080008160809380008091B100846080939E
:10259000B1008091B00081608093B0008091910083
:1025A000826080939100809191008160809391007E
:1025B000809190008160809390008091A100826062
:1025C0008093A1008091A10081608093A1008091FF
:1025D000A00081608093A00080912101826080939F
:1025E000210180912101816080932101809120014E
:1025F00081608093200180917A00846080937A00CA
:1026000080917A00826080937A0080917A00816064
:1026100080937A0080917A00806880937A0010928B
:10262000C1001092F6041092F7041092F804109270
:10263000F9041092B6041092B7041092B8041092E4
:10264000B9040E94BB056B017C014B015C0128EBC6
:10265000820E2BE0921EA11CB11C0E94BB056C15C2
:102660007D058E059F0528F086169706A806B906F3
:10267000A0F760ED77E080E090E00E948305EEDB5C
:102680000E94BB056093B6047093B7048093B804AE
:102690009093B90484E292E0E0DB0E94BB056B01F9
:1026A0007C014B015C013AE0830E911CA11CB11C22
:1026B0000E94BB056C157D058E059F0528F08616CA
:1026C0009706A806B906A0F781E08093CA04C6DB86
:1026D0001B8286E0898387E08A8361E086E00E942E
:1026E000470560E08A810E94470588EE93E0A0E0FC
:1026F000B0E088879987AA87BB87CE0182960E941F
:10270000780618A2CE0101960E94110668E370E0D7
:10271000DAD7FE013C968E01005E1F4FDE2EEF2EB3
:10272000619371930E171F07D9F7FF24F394F9A251
:1027300063E070E0CE018296B9DB84E2FE0131965F
:10274000A2E4B5E001900D928A95E1F719821A8210
:10275000FB8261E080E00E94470560E08A810E9480
:10276000470588EE93E0A0E0B0E088879987AA87C4
:10277000BB87CE0182960E94780618A2CE010196F0
:102780000E94110668E370E09ED7ED2DFE2D619347
:102790007193E017F107D9F719A284E2FE0131968F
:1027A000AEE1B5E001900D928A95E1F70E94BB057C
:1027B0008B019C0160930D0310930E0320930F0374
:1027C000309310031092110310921203109213030E
:1027D000109214038AE590E0F1DB62E080E20E944F
:1027E000470510921B0310921A0310926403109273
:1027F00086031092620311E01093610310923C0370
:1028000061E084E10E94160461E085E10E94160403
:102810008091B9008E7F8093B9008091B9008D7F3F
:102820008093B90088E48093B80085E48093BC006D
:1028300081E093E09093EC028093EB0282E093E0DE
:102840009093EA028093E90261E082E00E944705EA
:1028500061E085E00E94470561E084E00E94470551
:1028600061E087E00E94470561E08DE00E94470536
:1028700061E08CE00E94470561E088E00E94470526
:1028800060E088E00E94160460E08DE00E9416047B
:1028900060E08CE00E9416046AE070E080E090E066
:1028A0000E94830561E08DE00E94160461E08CE0E7
:1028B0000E9416046AE070E080E090E00E948305C8
:1028C00060E08CE00E94160486E095E00E941F0BF9
:1028D00040E36AE886E095E00E94290A80E380935D
:1028E000070584EF91E0909309058093080561E066
:1028F0008CE00E94160482E195E00E941F0B41E3E8
:102900006AE882E195E00E94290A81E38093130539
:102910001092150510921405A1DA80E180938100D0
:102920001092800080EA9FE0909387008093860059
:1029300081E18093810089E095E09093EE0280939D
:10294000ED0210936F0038E7432E512C612C712C4F
:102950004BE0242E43E0342E0E94BB05672B682BEE
:10296000692B41F40E94BB05623071058105910518
:1029700008F4DBC00E94BB050091160310911703F9
:10298000209118033091190360177107820793078C
:1029900040F4609316037093170380931803909389
:1029A0001903009116031091170320911803309119
:1029B00019036B017C01C01AD10AE20AF30A9701DC
:1029C00086010A3F11052105310508F4AEC0609368
:1029D000160370931703809318039093190324EF41
:1029E00031E040E050E02093C2043093C3044093B0
:1029F000C4045093C5041092C6041092C7041092E8
:102A0000C8041092C9048091BA049091BB04A091AB
:102A1000BC04B091BD048093BE049093BF04A09306
:102A2000C004B093C1040E94BB056093BA047093C4
:102A3000BB048093BC049093BD040E94BB056093CB
:102A4000B6047093B7048093B8049093B9040E94BD
:102A5000BB056B017C0186E392E0FFD94AE061E0AF
:102A600070E080E090E098DB8DE392E0F6D94AE0F8
:102A7000C701B60191DB8FE392E0EFD98091BA04F0
:102A80009091BB04A091BC04B091BD04A701960134
:102A9000281B390B4A0B5B0BCA01B9014AE07CDBEE
:102AA0008FE392E0DAD98091BA049091BB04A091AF
:102AB000BC04B091BD040091BE041091BF042091EC
:102AC000C0043091C104BC01CD01601B710B820BAD
:102AD000930B4AE061DB81E492E0BFD90E94BB0521
:102AE0004AE05ADB83E492E0A7D983E392E0A4D9D9
:102AF0000E94BB056B017C014B015C0135E0830E3C
:102B0000911CA11CB11C0E94BB056C157D058E0596
:102B10009F0508F0D3C20E94BB056093BA0470936E
:102B2000BB048093BC049093BD048091F10290910A
:102B3000F202883C910509F0A0C041E060E886E01F
:102B400095E00E94290A41E06FEF86E095E00E943F
:102B5000290A40E060E086E095E00E94290A409161
:102B60000D0561E986E095E00E94290A41E060E0F8
:102B700086E095E00E94290A40E06FEF86E095E04C
:102B80000E94290A40E060E886E095E00E94290A58
:102B900041E060E086E095E00E94290A0E94BB05C2
:102BA00070930C0560930B0560E086E095E00E9451
:102BB0009F0880FF16C08091080590910905892B18
:102BC00099F30E94BB0520910B0530910C05621B07
:102BD000730B80910805909109058617970720F7D8
:102BE00074C20E94BB0570930C0560930B0563E1F2
:102BF00086E095E00E949F088770B1F480910805F7
:102C000090910905892B99F30E94BB0520910B0532
:102C100030910C05621B730B80910805909109059A
:102C20008617970720F751C26EE186E095E00E9473
:102C300079088C0141E06BE086E095E00E94290A6A
:102C40009801C901A0E0B0E09C01AD012E5131090D
:102C500041095109AEE0B0E005D4A3019201E6D3E9
:102C6000DA01C9010196A11DB11D9093F002809374
:102C7000EF021092F2021092F10280E20E94EE0343
:102C80004C0181E08114910409F080E080931503E8
:102C90000E94BB055B016C019B01A60160E070E036
:102CA00080E090E0A0900D03B0900E03C0900F0361
:102CB000D0901003E0901103F090120300911303E1
:102CC000109114031CD5A1E023D509F008F4F3C139
:102CD00082E495E00E94CE0A8EE195E00E94CE0A41
:102CE0000E94BB058B019C0160930D0310930E03A2
:102CF00020930F03309310031092110310921203CC
:102D0000109213031092140382E495E00E949C0A2F
:102D10006B017C0180910B0390910C038130910534
:102D2000F1F01CF4892B41F07AC18430910509F14E
:102D3000059709F4C0C073C120E030E040EC50E4D6
:102D4000C701B60138D218163CF044E050E0509369
:102D50000C0340930B0363C18928B9F360C120E0E1
:102D600030E040E850E4C701B60199D487FFEDCFC9
:102D700056C1892809F082C020E030E040E251E4E9
:102D8000C701B6018CD418160CF085C085E090E020
:102D900090930C0380930B031092FB021092FC02A1
:102DA0001092FD021092FE021092FF021092000398
:102DB0001092010310920203109203031092040375
:102DC0001092050310920603109207031092080355
:102DD0001092090310920A031092FA021092F9025B
:102DE0001092F8021092F7020E94BB05E8D14B0145
:102DF0005C0168D9BC01990F880B990BE2D120E0E6
:102E000030E044E352E44DD320E030E0A90147D460
:102E1000181664F457D9BC01990F880B990BD1D1BE
:102E200020E030E044E352E43CD30CC04BD9BC0179
:102E3000990F880B990BC5D120E030E044E352E4B0
:102E400030D3905826E535E545ED5FE319D29B0177
:102E5000AC01C501B40126D320E030E040E251E4EA
:102E600021D3F1D36093F3027093F4028093F502BF
:102E70009093F6028DE290E0A1D80DC020E030E002
:102E800040EC50E4C701B6010AD4181624F410929D
:102E90000C0310920B0320E030E040E850E4C7013F
:102EA000B60189D187FFBBC0A1E0B0E0B0930C03AD
:102EB000A0930B03B4C00E94BB050091F3021091D4
:102EC000F4022091F5023091F60260177107820733
:102ED000930708F4A4C00091F7021091F802C8010A
:102EE000880F991F880F991FFC01E550FD4F4F0176
:102EF00020E030E040E251E4C701B60137D39B0146
:102F0000AC01D4016D917D918D919C91CBD2F40156
:102F100060837183828393838091F9029091FA0296
:102F200001968A30910528F49093FA028093F90271
:102F300076C01092FA021092F9020F5F1F4F1093A1
:102F4000F8020093F7020430110550F092E0C92E08
:102F5000D12CD0920C03C0920B038AE590E05DC0A7
:102F60008AE5D82ED09EC001D19E900D112463E039
:102F700070E0A9D380E090E022D120E030E044E38B
:102F800052E48FD220E030E044EB52E48BD26B016C
:102F90007C010E94BB0513D14B015C0193D8BC019D
:102FA000990F880B990B0DD1A70196017AD220E0D9
:102FB00030E0A90174D3181654F484D8BC01990FD9
:102FC000880B990BFED0A70196016BD20AC07AD864
:102FD000BC01990F880B990BF4D0A701960161D21F
:102FE000905826E535E545ED5FE34AD19B01AC01FC
:102FF000C501B40157D220E030E040E251E452D2A2
:1030000022D36093F3027093F4028093F5029093BD
:10301000F602C701B60112D3CB010E94DE0F8AE48B
:1030200092E00E942D0F80910B0390910C0382304F
:103030009105A1F03CF4009771F00197C9F48AE57D
:1030400092E014C08430910579F05CF0059781F42A
:1030500083E792E00BC082E592E008C083E692E04D
:1030600005C088E692E002C08EE692E00E942D0F35
:103070008CE792E00E942D0F82E495E00E949C0A6A
:1030800042E0CAD883E392E00E941C0F0BEF12E0EB
:1030900086E892E00E942D0FD8016D917D918D916F
:1030A0009D918D0142E0B8D82016310689F783E35F
:1030B00092E00E941C0F0E941C024ECC86169706BE
:1030C000A806B90608F01FCD26CD81E080930A0539
:1030D0002FEF3FEFB6CDE7E1F4E01382128288EEE6
:1030E00093E0A0E0B0E084839583A683B78324E0D7
:1030F00032E03183208325EC30E03587248724ECCF
:1031000030E03787268720EC30E0318B208B21ECB4
:1031100030E0338B228B22EC30E0358B248B26EC95
:1031200030E0378B268B118E128E138E148EE4EBCB
:10313000F4E0168217821086118612861386148692
:10314000158616861786108A118A128A138A148A9F
:10315000158AEAEFF4E01382128284839583A683B2
:10316000B78386E192E09183808382E495E0C2D9BF
:103170008EE195E0BFD9E2E7F5E089E28183138231
:1031800012821482E6E6F5E08183138212821482B1
:103190008CE0E2E7F5E0A6E0B5E001900D928A95BB
:1031A000E1F78CE0E6E6F5E0A2E1B5E001900D92F2
:1031B0008A95E1F7089540D008F481E00895E894F5
:1031C00009C097FB3EF490958095709561957F4F6F
:1031D0008F4F9F4F9923A9F0F92F96E9BB2793951D
:1031E000F695879577956795B795F111F8CFFAF42D
:1031F000BB0F11F460FF1BC06F5F7F4F8F4F9F4F5E
:1032000016C0882311F096E911C0772321F09EE8BB
:10321000872F762F05C0662371F096E8862F70E021
:1032200060E02AF09A95660F771F881FDAF7880FFB
:103230009695879597F90895990F0008550FAA0B51
:10324000E0E8FEEF16161706E807F907C0F01216B9
:103250001306E407F50798F0621B730B840B950BBC
:1032600039F40A2661F0232B242B252B21F4089511
:103270000A2609F4A140A6958FEF811D811D0895AE
:103280000BD078C069D028F06ED018F0952309F0E3
:103290005AC05FC01124A2C07ED0A0F3959FD1F385
:1032A000950F50E0551F629FF001729FBB27F00DF4
:1032B000B11D639FAA27F00DB11DAA1F649F662749
:1032C000B00DA11D661F829F2227B00DA11D621F98
:1032D000739FB00DA11D621F839FA00D611D221F52
:1032E000749F3327A00D611D231F849F600D211D36
:1032F000822F762F6A2F11249F5750408AF0E1F0D9
:1033000088234AF0EE0FFF1FBB1F661F771F881F21
:1033100091505040A9F79E3F510570F014C05EC017
:103320005F3FECF3983EDCF3869577956795B7950C
:10333000F795E7959F5FC1F7FE2B880F911D969536
:10334000879597F9089597F99F6780E870E060E0A6
:1033500008959FEF80EC089500240A94161617062E
:1033600018060906089500240A9412161306140676
:1033700005060895092E0394000C11F4882352F0D9
:10338000BB0F40F4BF2B11F460FF04C06F5F7F4F91
:103390008F4F9F4F089557FD9058440F551F59F078
:1033A0005F3F71F04795880F97FB991F61F09F3F32
:1033B00079F087950895121613061406551FF2CF5B
:1033C0004695F1DF08C0161617061806991FF1CFAB
:1033D00086957105610508940895E894BB276627D2
:1033E0007727CB0197F90895A1E21A2EAA1BBB1BE0
:1033F000FD010DC0AA1FBB1FEE1FFF1FA217B307C1
:10340000E407F50720F0A21BB30BE40BF50B661FD6
:10341000771F881F991F1A9469F76095709580959A
:1034200090959B01AC01BD01CF010895052E97FB3E
:1034300016F400940FD057FD05D0D6DF07FC02D05C
:1034400046F408C050954095309521953F4F4F4F19
:103450005F4F089590958095709561957F4F8F4F40
:103460009F4F08950FD0A59F900DB49F900DA49FDE
:10347000800D911D11240895B7FFF4CFF3DF821B57
:10348000930B0895A29FB001B39FC001A39F700D3D
:10349000811D1124911DB29F700D811D1124911D5C
:1034A00008955058BB27AA270ED064CF55DF30F0BF
:1034B0005ADF20F031F49F3F11F41EF44ACF0EF48E
:1034C000E095E7FB40CFE92F66DF80F3BA1762078C
:1034D00073078407950718F071F49EF57ECF0EF4FC
:1034E000E0950B2EBA2FA02D0B01B90190010C0114
:1034F000CA01A0011124FF27591B99F0593F50F42C
:10350000503E68F11A16F040A22F232F342F442783
:10351000585FF3CF469537952795A795F04053957B
:10352000C9F77EF41F16BA0B620B730B840BBAF04B
:103530009150A1F0FF0FBB1F661F771F881FC2F7B6
:103540000EC0BA0F621F731F841F48F487957795CA
:103550006795B795F7959E3F08F0B3CF9395880F81
:1035600008F09927EE0F9795879508950CD002CF14
:10357000FADE40F0F1DE30F021F45F3F19F0E3CEE7
:1035800051112CCFE6CE07DF98F39923C9F35523C9
:10359000B1F3951B550BBB27AA2762177307840746
:1035A00038F09F5F5F4F220F331F441FAA1FA9F3FC
:1035B00033D00E2E3AF0E0E830D091505040E695EE
:1035C000001CCAF729D0FE2F27D0660F771F881F4F
:1035D000BB1F261737074807AB07B0E809F0BB0B3E
:1035E000802DBF01FF2793585F4F2AF09E3F510562
:1035F00068F0A9CEF3CE5F3FECF3983EDCF38695FE
:1036000077956795B795F7959F5FC9F7880F911DD7
:103610009695879597F90895E1E0660F771F881FC3
:10362000BB1F621773078407BA0720F0621B730B76
:10363000840BBA0BEE1F88F7E095089504D06894C8
:10364000B111CCCE0895AFDE88F09F5790F0B92F1E
:103650009927B751A0F0D1F0660F771F881F991FE7
:103660001AF0BA95C9F712C0B13081F0B6DEB1E0F8
:103670000895B3CE672F782F8827B85F39F0B93F08
:10368000CCF3869577956795B395D9F73EF49095E9
:103690008095709561957F4F8F4F9F4F0895CCDD3A
:1036A00008F48FEF0895C8DD880B990B0895991BD6
:1036B00079E004C0991F961708F0961B881F7A9529
:1036C000C9F780950895AA1BBB1B51E107C0AA1F2B
:1036D000BB1FA617B70710F0A61BB70B881F991FB3
:1036E0005A95A9F780959095BC01CD010895EE0FEC
:1036F000FF1F881F8BBF0790F691E02D19942A19A0
:103700003B094C095D096E097F09800B910B0895F7
:103710000024A7FD00942A173005400550056005D8
:10372000700580059005089581E090E0F89400C050
:04373000F894FFCF3B
:1037340000000000AF01F50A4701FB0178015601C2
:103744006A01000000005B032F038A0303032703BD
:1037540013030403564D4450565F317C315F564D7C
:103764004450560D0A00564D4450455F003A323AD3
:10377400007C005F564D4450450053746174653AB3
:103784002000464F5257415244004241434B574157
:103794005244004C4546540052494748540053543F
:1037A4004F50005343414E4E494E47002C20416632
:1037B4007374616E643A20006E616E00696E660017
:0437C4006F766600B6
:020000023000CC
:10E000000D9489F10D94B2F10D94B2F10D94B2F129
:10E010000D94B2F10D94B2F10D94B2F10D94B2F1F0
:10E020000D94B2F10D94B2F10D94B2F10D94B2F1E0
:10E030000D94B2F10D94B2F10D94B2F10D94B2F1D0
:10E040000D94B2F10D94B2F10D94B2F10D94B2F1C0
:10E050000D94B2F10D94B2F10D94B2F10D94B2F1B0
:10E060000D94B2F10D94B2F10D94B2F10D94B2F1A0
:10E070000D94B2F10D94B2F10D94B2F10D94B2F190
:10E080000D94B2F10D94B2F10D94B2F10D94B2F180
:10E090000D94B2F10D94B2F10D94B2F10D94B2F170
:10E0A0000D94B2F10D94B2F10D94B2F10D94B2F160
:10E0B0000D94B2F10D94B2F10D94B2F10D94B2F150
:10E0C0000D94B2F10D94B2F10D94B2F10D94B2F140
:10E0D0000D94B2F10D94B2F10D94B2F10D94B2F130
:10E0E0000D94B2F141546D656761323536300041AF
:10E0F000726475696E6F206578706C6F72657220DE
:10E1000073746B3530305632206279204D4C530099
:10E11000426F6F746C6F616465723E004875683F52
:10E1200000436F6D70696C6564206F6E203D200048
:10E130004350552054797065202020203D20005FF9
:10E140005F4156525F415243485F5F3D2000415658
:10E1500052204C696243205665723D20004743437C
:10E160002056657273696F6E203D20004350552024
:10E1700049442020202020203D20004C6F7720663D
:10E18000757365202020203D20004869676820665F
:10E190007573652020203D200045787420667573D6
:10E1A00065202020203D20004C6F636B2066757336
:10E1B000652020203D20004D617220203720323024
:10E1C000313300312E362E3800342E332E350056A2
:10E1D00023202020414444522020206F7020636F70
:10E1E00064652020202020696E73747275637469E1
:10E1F0006F6E2061646472202020496E74657272B3
:10E20000757074006E6F20766563746F7200726A49
:10E210006D702020006A6D70200057686174207056
:10E220006F72743A00506F7274206E6F7420737541
:10E2300070706F72746564004D7573742062652030
:10E2400061206C6574746572002000577269747483
:10E25000696E672045450052656164696E672045B7
:10E26000450045452065727220636E743D00504F35
:10E27000525400303D5A65726F2061646472003FF1
:10E280003D43505520737461747300403D454550C3
:10E29000524F4D207465737400423D426C696E6B41
:10E2A000204C454400453D44756D70204545505215
:10E2B0004F4D00463D44756D7020464C415348001B
:10E2C000483D48656C70004C3D4C69737420492F83
:10E2D0004F20506F72747300513D51756974005234
:10E2E0003D44756D702052414D00563D73686F7707
:10E2F00020696E7465727275707420566563746FF0
:10E30000727300593D506F727420626C696E6B00BD
:10E310002A0011241FBECFEFD1E2DEBFCDBF01E046
:10E320000CBF12E0A0E0B2E0EEE1FDEF03E00BBFB6
:10E3300002C007900D92A030B107D9F712E0A0E01B
:10E34000B2E001C01D92AE30B107E1F70F9460F367
:10E350000D948DFE01E20EBF0FEF0DBF11241FBE05
:10E360000D9460F30D9400F020E030E040ED57E0B4
:10E3700005C0FA013197F1F72F5F3F4F2817390792
:10E38000C0F308959C01260F311DC901A0E0B0E043
:10E390002F5F3F4FABBFFC018791882361F08093D3
:10E3A000C6008091C00086FFFCCF8091C0008064D1
:10E3B0008093C000EACF08958DE08093C6008091DD
:10E3C000C00086FFFCCF8091C00080648093C000B5
:10E3D0008AE08093C6008091C00086FFFCCF8091C8
:10E3E000C00080648093C00008950F94C2F10F9420
:10E3F000DCF10895FC019081992359F09093C600B7
:10E400008091C00086FFFCCF8091C0008064809323
:10E41000C0003196992379F70895282F982F929567
:10E420009F70892F805D8A3308F0895F8093C600D2
:10E430008091C00086FFFCCF8091C00080648093F3
:10E44000C000822F8F70982F905D9A3308F0995FEB
:10E450009093C6008091C00086FFFCCF8091C000E1
:10E4600080648093C00008959C01FB01853691056E
:10E470001CF46330710594F0C90164E670E00F94F8
:10E480002EFE605D7F4F6093C6008091C00086FFC6
:10E49000FCCF8091C00080648093C0002B30310598
:10E4A00014F43297B4F0C90164E670E00F942EFEC4
:10E4B0006AE070E00F942EFE605D7F4F6093C600AF
:10E4C0008091C00086FFFCCF8091C0008064809363
:10E4D000C000C9016AE070E00F942EFEC0968093E0
:10E4E000C6008091C00086FFFCCF8091C000806490
:10E4F0008093C00008951F93182F8EE692EE60E07F
:10E500000F94C2F11093C6008091C00086FFFCCF2B
:10E510008091C00080648093C0000F94DCF11F9153
:10E5200008952F923F924F925F926F927F928F92B7
:10E530009F92AF92BF92CF92DF92EF92FF920F9392
:10E540001F93DF93CF93CDB7DEB762970FB6F894E2
:10E55000DEBF0FBECDBF382E622ECA01DB015C01CB
:10E560006D01772420E2222E2E010894411C511CBB
:10E570008BC081E0A81680E0B80681E0C80680E084
:10E58000D80628F0C601AA27BB270F940DF2BB2797
:10E59000AD2D9C2D8B2D0F940DF28A2D0F940DF225
:10E5A0002092C6008091C00086FFFCCF8091C00001
:10E5B00080648093C0009DE29093C6008091C0006B
:10E5C00086FFFCCF8091C00080648093C0002092C1
:10E5D000C6008091C00086FFFCCF8091C00080649F
:10E5E0008093C00019828601750188249924A1E0D6
:10E5F0003A1651F03A1620F0B2E03B1661F409C029
:10E600000BBFF701779007C0C7010F9477FE782EF4
:10E6100002C0F7017080872D0F940DF22092C60082
:10E620008091C00086FFFCCF8091C0008064809301
:10E63000C000872D8052F401EF70F0708F3520F408
:10E64000E40DF51D708204C0E40DF51D8EE280839B
:10E650000894E11CF11C011D111D0894811C911CE2
:10E6600090E18916910409F0C2CF80E190E0A0E02A
:10E67000B0E0A80EB91ECA1EDB1E198AC2010F9493
:10E68000FAF10F94DCF16A94662009F072CF629679
:10E690000FB6F894DEBF0FBECDBFCF91DF911F91B3
:10E6A0000F91FF90EF90DF90CF90BF90AF909F9031
:10E6B0008F907F906F905F904F903F902F90089534
:10E6C0002F923F924F925F926F927F928F929F9282
:10E6D000AF92BF92CF92DF92EF92FF920F931F9370
:10E6E000DF93CF93CDB7DEB7CD53D1400FB6F894BB
:10E6F000DEBF0FBECDBF01E20EBF0FEF0DBF94B75F
:10E70000F894A89514BE80916000886180936000A1
:10E7100010926000789493FF05C0E0910002F091A0
:10E7200001021995279A2F9A8091C00082608093E8
:10E73000C00080E18093C40088E18093C1000000A4
:10E74000EE24FF24870144E0A42EB12CCC24DD2448
:10E7500024C0C5010197F1F70894E11CF11C011DCB
:10E76000111D21E2E2162EE4F20620E0020720E06D
:10E77000120718F031E0C32ED12CC801B70127ECE5
:10E780003BE140E050E00F9441FE611571058105C9
:10E79000910519F485B1805885B98091C00087FD35
:10E7A00003C0C114D104A9F2A6014F5F5F4FC25E3E
:10E7B000DE4F59834883CE51D140C25EDE4F8881FF
:10E7C0009981CE51D140019711F00D9410FEC05D9A
:10E7D000DE4F19821882C053D14060E0C15DDE4F28
:10E7E0001882CF52D14088249924C35DDE4F19820C
:10E7F0001882CD52D140C05EDE4F188219821A8233
:10E800001B82C052D140CE5CDE4F188219821A8220
:10E810001B82C253D140EE24FF2487010BBFF701B6
:10E8200007911691C45CDE4F19830883CC53D14005
:10E830000D940BFEC25EDE4F28813981CE51D1404E
:10E840002130310509F52091C600C25EDE4F1982E4
:10E850001882CE51D14022C02F5F3F4F4F4F5F4FA4
:10E86000213082E138078AE7480780E0580780F0C6
:10E87000C45CDE4FE881F981CC53D140EF5FFF4F9C
:10E8800019F0EE27FF27099420E030E040E050E047
:10E890008091C00087FFE0CF2091C600C35DDE4FAE
:10E8A00048815981CD52D1404F5F5F4FC35DDE4FEC
:10E8B00059834883CD52D140213209F063C64A3092
:10E8C000510508F05FC60894811C911C53E0851621
:10E8D000910409F059C600E010E018C081E280936D
:10E8E000C6008091C00086FFFCCF8091C00080648C
:10E8F0008093C0002F5F3F4F2931310579F70F9486
:10E90000DCF10F5F1F4F0530110519F020E030E0FA
:10E91000E5CF10920A0210920B0210920C02109294
:10E920000D02109206021092070210920802109235
:10E930000902109202021092030210920402109235
:10E9400005028FEE90EE60E00F94F5F180E191EE1C
:10E9500060E00F94C2F18091C00087FFFCCF9091DE
:10E96000C600903608F09F759032B8F09093C600BC
:10E970008091C00086FFFCCF8091C00080648093AE
:10E98000C000A0E2A093C6008091C00086FFFCCF2B
:10E990008091C00080648093C000983409F4D7C18E
:10E9A0009934B8F4923409F459C1933458F490333B
:10E9B00019F1903308F4E3C59F33A1F1903409F0C5
:10E9C000DEC5BDC0953409F470C1963409F0D7C5D1
:10E9D00098C1923509F42BC2933538F49C3409F46C
:10E9E000F5C1913509F0CBC518C2963509F445C279
:10E9F000993509F0C4C567C483E792EE62E00F94CD
:10EA0000F5F110920602109207021092080210927D
:10EA1000090210920A0210920B0210920C0210923C
:10EA20000D0213C18FE792EE62E00F94F5F18FEEC5
:10EA300090EE60E00F94F5F181E291EE60E00F94CA
:10EA4000C2F187EB91EE60E00F94F5F180E391EE77
:10EA500060E00F94C2F184EE90EE60E00F94F5F167
:10EA60008FE391EE60E00F94C2F186E090E061E008
:10EA700070E00F9434F20F94DCF18DE591EE60E0DC
:10EA80000F94C2F189EC91EE60E00F94F5F18EE401
:10EA900091EE60E00F94C2F183EC91EE60E00F9490
:10EAA000F5F18CE691EE60E00F94C2F18EE10F94E7
:10EAB0000DF288E90F940DF281E00F940DF20F949E
:10EAC000DCF18BE791EE60E00F94C2F119E0E0E039
:10EAD000F0E010935700E4918E2F0F940DF20F94F5
:10EAE000DCF18AE891EE60E00F94C2F1E3E0F0E03F
:10EAF00010935700E4918E2F0F940DF20F94DCF1D8
:10EB000089E991EE60E00F94C2F1E2E0F0E0109349
:10EB10005700E4918E2F0F940DF20F94DCF188EAE8
:10EB200091EE60E00F94C2F1E1E0F0E01093570045
:10EB30001491812F0F940DF20F94DCF107CF8BE825
:10EB400092EE62E00F94F5F18BE492EE60E00F94A8
:10EB5000F5F10F94DCF100E010E019C0C8016F2D51
:10EB60000F947FFEFF2031F489E492EE60E00F9471
:10EB7000C2F10BC0F092C6008091C00086FFFCCFAE
:10EB80008091C00080648093C0000F5F1F4FC80158
:10EB900081519F41A0E0B0E0ABBFFC01F790BAE229
:10EBA000FB1621F0E2E000301E07C1F60F94DCF105
:10EBB0000F94DCF187E592EE60E00F94F5F10F948D
:10EBC000DCF1CC24DD2400E010E01EC0C8010F946D
:10EBD00077FEF82E882331F489E492EE60E00F94FA
:10EBE000C2F10BC08093C6008091C00086FFFCCFAD
:10EBF0008091C00080648093C000FE1419F00894D6
:10EC0000C11CD11C0F5F1F4FC80181519F41A0E063
:10EC1000B0E0ABBFFC01E790FAE2EF1621F022E092
:10EC20000030120799F60F94DCF10F94DCF182E6C4
:10EC300092EE60E00F94C2F1C60161E070E00F94C3
:10EC400034F20F94DCF10F94DCF110920202109276
:10EC50000302109204021092050278CE89E992EE26
:10EC600062E00F94F5F1279A2F9A16C02F9880E052
:10EC700090E0E0EDF7E03197F1F7019684369105E9
:10EC8000C1F72F9A80E090E0E0EDF7E03197F1F7DF
:10EC9000019684369105C1F78091C00087FFE6CFC9
:10ECA0008091C00087FFFCCF64C485EA92EE62E0E9
:10ECB0000F94F5F140910202509103026091040219
:10ECC0007091050281E020E10F9491F2809102029F
:10ECD00090910302A0910402B091050280509F4FD1
:10ECE000AF4FBF4F8093020290930302A0930402A0
:10ECF000B093050280509041A040B04008F426CE69
:10ED0000A4CF83EB92EE62E00F94F5F140910602FE
:10ED100050910702609108027091090280E020E1A1
:10ED20000F9491F28091060290910702A09108023F
:10ED3000B091090280509F4FAF4FBF4F80930602A2
:10ED400090930702A0930802B0930902FFCD80ECD4
:10ED500092EE62E00F94F5F183E792EE60E00F949B
:10ED6000F5F18FE792EE60E00F94F5F18BE892EE0B
:10ED700060E00F94F5F189E992EE60E00F94F5F10F
:10ED800085EA92EE60E00F94F5F183EB92EE60E09D
:10ED90000F94F5F180EC92EE60E00F94F5F187ECC2
:10EDA00092EE60E00F94F5F188ED92EE60E00F9442
:10EDB000F5F18FED92EE60E00F94F5F18AEE92EEB0
:10EDC00060E00F94F5F183E093EEBDCD87EC92EE19
:10EDD00062E00F94F5F181E40F947BF282E40F94EA
:10EDE0007BF283E40F947BF284E40F947BF285E45E
:10EDF0000F947BF286E40F947BF287E40F947BF20E
:10EE000088E40F947BF28AE40F947BF28BE40F94F6
:10EE10007BF28CE40F947BF299CD88ED92EE62E068
:10EE20000F94F5F1772473948824992409C48FED05
:10EE300092EE62E00F94F5F140910A0250910B02BC
:10EE400060910C0270910D0282E020E10F9491F22A
:10EE500080910A0290910B02A0910C02B0910D02D8
:10EE600080509F4FAF4FBF4F80930A0290930B0289
:10EE7000A0930C02B0930D0269CD8AEE92EE62E08F
:10EE80000F94F5F184EE90EE60E00F94F5F18FECC5
:10EE900091EE60E00F94F5F1662477244301CC5D98
:10EEA000DE4F19821882C452D140D401C301B695F5
:10EEB000A79597958795CA5DDE4F88839983AA8326
:10EEC000BB83C652D140CC5DDE4FA881B981C4520C
:10EED000D1401196CC5DDE4FB983A883C452D14096
:10EEE000CD0162E070E00F9434F2B0E2B093C6005E
:10EEF0008091C00086FFFCCF8091C0008064809329
:10EF0000C000EDE2E093C6008091C00086FFFCCF18
:10EF10008091C00080648093C000F0E2F093C6004E
:10EF20008091C00086FFFCCF8091C00080648093F8
:10EF3000C000CA5DDE4FE880F9800A811B81C6529D
:10EF4000D140BB27A12F902F8F2D0F940DF2CA5DBA
:10EF5000DE4F8881C652D1400F940DF2B0E2FB2EF5
:10EF6000F092C6008091C00086FFFCCF8091C00067
:10EF700080648093C0000DE30093C6008091C000C0
:10EF800086FFFCCF8091C00080648093C00010E2B7
:10EF90001093C6008091C00086FFFCCF8091C00016
:10EFA00080648093C0008BBEF3012791C65DDE4F65
:10EFB0002883CA52D140A22EBB24CC24DD2408943D
:10EFC000611C711C811C911C8BBEF3018791282E42
:10EFD0003324442455240894611C711C811C911C09
:10EFE0008BBEF3013791C55DDE4F3883CB52D140E4
:10EFF0000894611C711C811C911C8BBEF30147910C
:10F00000C45DDE4F4883CC52D140ADEFEA2EAFEF66
:10F01000FA2EAFEF0A2FAFEF1A2F6E0C7F1C801E57
:10F02000911E142D032DF22CEE24EA0CFB1C0C1D5A
:10F030001D1D0F940DF220E22093C6008091C000A8
:10F0400086FFFCCF8091C00080648093C000C65DC5
:10F05000DE4F8881CA52D1400F940DF230E23093D6
:10F06000C6008091C00086FFFCCF8091C000806404
:10F070008093C000C45DDE4F8881CC52D1400F9494
:10F080000DF240E24093C6008091C00086FFFCCFA5
:10F090008091C00080648093C000C55DDE4F888190
:10F0A000CB52D1400F940DF250E25093C6008091A4
:10F0B000C00086FFFCCF8091C00080648093C000B8
:10F0C0008FEFE8168FEFF80680E0080780E018075A
:10F0D00031F484E092EE60E00F94C2F1DFC0D80119
:10F0E000C7018070907CA070B0708050904CA040A0
:10F0F000B040D1F52FEF3FE340E050E0E222F322B1
:10F1000004231523CA5DDE4FA880B980CA80DB8046
:10F11000C652D140AE0CBF1CC01ED11EAA0CBB1CD7
:10F12000CC1CDD1C8EE092EE60E00F94C2F1BB2798
:10F13000A12F902F8F2D0F940DF28E2D0F940DF285
:10F1400030E23093C6008091C00086FFFCCF8091F2
:10F15000C00080648093C0004EE34093C60080915D
:10F16000C00086FFFCCF87C08EE09EEFA0E0B0E03D
:10F17000E822F9220A231B239CE0E91694E9F90608
:10F1800090E0090790E0190709F088C0C45DDE4FE0
:10F19000A881CC52D140EA2EFF2400E010E0102FCD
:10F1A0000F2DFE2CEE24C55DDE4FB881CB52D14031
:10F1B000EB0EF11C011D111DD601C501817090706F
:10F1C000A070B070DC0199278827E80EF91E0A1F8D
:10F1D0001B1F20EF30E040E050E0A222B322C42207
:10F1E000D52241E1AA0CBB1CCC1CDD1C4A95D1F7F1
:10F1F000EA0CFB1C0C1D1D1D81E090E0A0E0B0E0BE
:10F20000282239224A225B2235E1220C331C441C7D
:10F21000551C3A95D1F7E20CF31C041D151D57013E
:10F220006801AA0CBB1CCC1CDD1C85E192EE60E0E1
:10F230000F94C2F1C801AA27BB270F940DF2BB2778
:10F24000A12F902F8F2D0F940DF28E2D0F940DF274
:10F2500090E29093C6008091C00086FFFCCF809121
:10F26000C00080648093C000AEE3A093C60080918C
:10F27000C00086FFFCCF8091C00080648093C000F6
:10F28000C601AA27BB270F940DF2BB27AD2D9C2DDD
:10F290008B2D0F940DF28A2D0F940DF20F94DCF14B
:10F2A000CC5DDE4FE881F981C452D140F99709F471
:10F2B0004DCBF4E0EF2EF12C012D112D6E0C7F1CA7
:10F2C000801E911EF2CD83E093EE62E00F94F5F183
:10F2D0008AE192EE60E00F94C2F18091C00087FF56
:10F2E000FCCF1091C6001F751093C6008091C0001E
:10F2F00086FFFCCF8091C00080648093C0000F9493
:10F30000DCF1812F81548A3108F036C1163409F4BA
:10F3100095C0173490F4133409F44EC0143430F40B
:10F320001134F1F0123409F01DC130C0143409F465
:10F3300059C0153409F016C16BC01A3409F4C4C0A1
:10F340001B3438F4173409F48FC0183409F00AC19B
:10F35000A1C01B3409F4D2C01C3409F003C1E8C0B9
:10F360008FEF81B90DC082B1809582B980E090E0C5
:10F37000E0EDF7E03197F1F70196883C9105C1F790
:10F380008091C00087FFEFCF12B8EFC08FEF84B934
:10F390000DC085B1809585B980E090E0E0EDF7E0A3
:10F3A0003197F1F70196883C9105C1F78091C00033
:10F3B00087FFEFCF15B8D9C08FEF87B90DC088B1DF
:10F3C000809588B980E090E0E0EDF7E03197F1F7C3
:10F3D0000196883C9105C1F78091C00087FFEFCF6F
:10F3E00018B8C3C08FEF8AB90DC08BB180958BB9A7
:10F3F00080E090E0E0EDF7E03197F1F70196883C8E
:10F400009105C1F78091C00087FFEFCF1BB8ADC059
:10F410008FEF8DB90DC08EB180958EB980E090E0F0
:10F42000E0EDF7E03197F1F70196883C9105C1F7DF
:10F430008091C00087FFEFCF1EB897C08FEF80BBD1
:10F440000DC081B3809581BB80E090E0E0EDF7E0F6
:10F450003197F1F70196883C9105C1F78091C00082
:10F4600087FFEFCF11BA81C08FEF83BB0DC084B38C
:10F47000809584BB80E090E0E0EDF7E03197F1F714
:10F480000196883C9105C1F78091C00087FFEFCFBE
:10F4900014BA6BC08FEF809301010FC080910201FD
:10F4A00080958093020180E090E0E0EDF7E03197F5
:10F4B000F1F70196883C9105C1F78091C00087FF64
:10F4C000EDCF1092020151C08FEF809304010FC065
:10F4D0008091050180958093050180E090E0E0ED4A
:10F4E000F7E03197F1F70196883C9105C1F78091DB
:10F4F000C00087FFEDCF1092050137C08FEF8093DA
:10F5000007010FC08091080180958093080180E079
:10F5100090E0E0EDF7E03197F1F70196883C910536
:10F52000C1F78091C00087FFEDCF109208011DC088
:10F530008FEF80930A010FC080910B01809580931B
:10F540000B0180E090E0E0EDF7E03197F1F70196F4
:10F55000883C9105C1F78091C00087FFEDCF1092E4
:10F560000B0103C085E292EEEEC98091C00087FFD7
:10F57000FCCF8091C600EAC988E392EEE4C98CE131
:10F5800091EEE1C988249924933011F1943028F444
:10F59000913089F09230B8F408C0953061F195301F
:10F5A000F0F0963009F048C043C02B3109F042C951
:10F5B00091E06BE13FC96227C15DDE4F2883CF52E6
:10F5C000D14092E037C9B22FA0E0622793E032C960
:10F5D000822F90E0A82BB92B622794E02BC92E3004
:10F5E00009F039C3622795E0C05DDE4F19821882A9
:10F5F000C053D1401FC9E1E0F0E0EC0FFD1FC05D3A
:10F60000DE4F08811981C053D140E00FF11F2083E4
:10F610000F5F1F4FC05DDE4F19830883C053D14079
:10F6200062270A171B0709F005C9D80196E002C92D
:10F63000261709F010C303C0973009F0FBC87724E0
:10F640009981933109F412C19431C8F4963009F4C8
:10F65000D8C0973050F4923009F406C1933009F4C1
:10F660006DC0913009F059C253C0913109F477C08F
:10F67000923108F0BBC0903109F04FC2F5C098310B
:10F6800009F487C0993150F4953109F4EFC09531F0
:10F6900008F4C6C1963109F040C2C2C19A3109F4DA
:10F6A0006CC09A3108F491C09B3109F45BC09D3164
:10F6B00009F033C29D81903359F48F81882311F46E
:10F6C0009EE11CC0813011F091E018C098E916C08D
:10F6D000892F807591F0903539F4E0E0F0E089E011
:10F6E0008093570094910AC0983539F4E3E0F0E034
:10F6F00089E080935700949101C090E01A821B82A8
:10F700008D818C831D829E831F8227E030E009C299
:10F710001A8288E08B8381E48C8386E58D8382E581
:10F720008E8389E48F8383E5888780E589878FE5E9
:10F730008A8782E38B872BE030E0F3C18A818139AD
:10F7400041F0823941F0803911F48FE005C080E04A
:10F7500003C082E001C08AE01A828B8344C0772410
:10F76000739482C08D81882311F48EE12CC0813086
:10F7700011F081E028C088E926C01A82E1E0F0E0BB
:10F7800089E08093570084918B831C8224E030E0D1
:10F79000C8C18B81803589F48C81883039F4E2E0EE
:10F7A000F0E089E08093570084910DC0E0E0F0E044
:10F7B00089E080935700849106C0E3E0F0E089E09F
:10F7C0008093570084911A82DFCF8D81836C99E0FA
:10F7D000E1E0F0E0082E90935700E89507B600FCB2
:10F7E000FDCF1A821B8223E030E09BC180EC8A832C
:10F7F000CE5CDE4F188219821A821B82C253D1401E
:10F800008EC18A8190E0A0E0B0E0582F44273327D2
:10F8100022278B8190E0A0E0B0E0DC0199278827C7
:10F82000282B392B4A2B5B2B8D8190E0A0E0B0E098
:10F83000282B392B4A2B5B2B8C8190E0A0E0B0E089
:10F84000BA2FA92F982F8827282B392B4A2B5B2BCF
:10F85000220F331F441F551FC05EDE4F288339839C
:10F860004A835B83C052D1401A8259C13A81C95C34
:10F87000DE4F3883C753D140CA5CDE4F1882C6536F
:10F88000D1408B81C82EDD24CA5CDE4F488159816E
:10F89000C653D140C42AD52A933109F082C0CE5C28
:10F8A000DE4F88819981AA81BB81C253D1408050AB
:10F8B000904CA340B04030F583E0CE5CDE4FE88052
:10F8C000F9800A811B81C253D140F70100935B008C
:10F8D00080935700E89507B600FCFDCFCE5CDE4F65
:10F8E000088119812A813B81C253D14000501F4FAA
:10F8F0002F4F3F4FCE5CDE4F088319832A833B8313
:10F90000C253D140C05EDE4F488159816A817B81FC
:10F91000C052D140DE011B9631E08C9111962C91A2
:10F9200011971296C75CDE4F2883C953D140C85C3B
:10F93000DE4F1882C853D14090E0C85CDE4FE881AA
:10F94000F981C853D1408E2B9F2B0C01FA01609393
:10F950005B0030935700E89511244E5F5F4F6F4F67
:10F960007F4F0EEFE02E0FEFF02ECE0CDF1CC114F8
:10F97000D10499F685E0C05EDE4F088119812A81A5
:10F980003B81C052D140F80120935B008093570027
:10F99000E89507B600FCFDCF81E180935700E8951C
:10F9A00035C0C05EDE4F88819981AA81BB81C0527B
:10F9B000D140B695A795979587957C018601ABE0D8
:10F9C000AA2EB12CAC0EBD1E0BC0D5016D915D01F0
:10F9D000C7010F947FFE0894E11CF11C01501040F8
:10F9E0000115110591F7A60160E070E0440F551F65
:10F9F000661F771FC05EDE4FE880F9800A811B8199
:10FA0000C052D1404E0D5F1D601F711F1A82C05E33
:10FA1000DE4F488359836A837B83C052D1407FC0C5
:10FA2000FA80C55CDE4FF882CB53D140C65CDE4F16
:10FA30001882CA53D1408B81C82EDD24C65CDE4FAC
:10FA400008811981CA53D140C02AD12A1A828981DA
:10FA5000BE016D5F7F4F843121F59601C05EDE4FA0
:10FA6000E880F9800A811B81C052D1400BBFF701A9
:10FA700087919691DB018C9311969C936E5F7F4FDB
:10FA8000D801C7010296A11DB11DC05EDE4F88835B
:10FA90009983AA83BB83C052D14022503040F1F6F3
:10FAA00036C0C05EDE4F288139814A815B81C052F9
:10FAB000D1400894C108D108760100E010E0089414
:10FAC000C11CD11C0894E11CF11C011D111DE20E8A
:10FAD000F31E041F151F21BDBB27A52F942F832FB5
:10FAE00082BD2F5F3F4F4F4F5F4FF89A80B5DB01CC
:10FAF0008D93BD012E153F054007510761F7C05E8C
:10FB0000DE4F288339834A835B83C052D1409601FC
:10FB10002D5F3F4FFB01108204C080EC8A8322E0FE
:10FB200030E08BE18093C6008091C00086FFFCCF5F
:10FB30008091C00080648093C000C15DDE4FF88179
:10FB4000CF52D140F093C6008091C00086FFFCCF19
:10FB50008091C00080648093C000432F3093C60022
:10FB60008091C00086FFFCCF8091C00080648093AC
:10FB7000C000922F2093C6008091C00086FFFCCF6A
:10FB80008091C00080648093C0008EE08093C600A6
:10FB90008091C00086FFFCCF8091C000806480937C
:10FBA000C00065E1C15DDE4FE880CF52D1406E25D7
:10FBB00069276427FE01319610C090819093C6009A
:10FBC0008091C00086FFFCCF31968091C000806498
:10FBD0008093C0006927215030402115310569F715
:10FBE0006093C6008091C00086FFFCCF8091C0006A
:10FBF00080648093C00085B1805885B9772081F4F6
:10FC0000C15DDE4F0881CF52D1400F5FC15DDE4F35
:10FC10000883CF52D14090E0A0E0B0E00D941AF4F8
:10FC200027982F9880E090E020ED37E0F901319798
:10FC3000F1F7019684369105C9F700008091C00064
:10FC40008D7F8093C00081E180935700E895EE2777
:10FC5000FF270994FFCF90E00D941AF497FB092E2B
:10FC600007260AD077FD04D02ED006D000201AF443
:10FC7000709561957F4F0895F6F7909581959F4F08
:10FC80000895A1E21A2EAA1BBB1BFD010DC0AA1FDD
:10FC9000BB1FEE1FFF1FA217B307E407F50720F0F5
:10FCA000A21BB30BE40BF50B661F771F881F991F70
:10FCB0001A9469F760957095809590959B01AC01B9
:10FCC000BD01CF010895AA1BBB1B51E107C0AA1FAC
:10FCD000BB1FA617B70710F0A61BB70B881F991FED
:10FCE0005A95A9F780959095BC01CD010895F99991
:10FCF000FECF92BD81BDF89A992780B50895262F31
:10FD0000F999FECF1FBA92BD81BD20BD0FB6F89400
:0EFD1000FA9AF99A0FBE01960895F894FFCF63
:040000033000E000E9
:00000001FF