:100000000C9453000C947B000C947B000C947B00AC
:100010000C947B000C947B000C947B000C947B0074
:100020000C947B000C947B000C947B000C947B0064
:100030000C947B000C947B000C947B000C947B0054
:100040000C94A7020C947B000C9475020C944F0244
:100050000C947B000C947B000C947B000C947B0034
:100060000C947B000C947B0000000000250028000D
:100070002B0000000000240027002A0004040404D0
:100080000404040402020202020203030303030342
:10009000010204081020408001020408102001021F
:1000A000040810200B0311241FBECFEFD8E0DEBFE1
:1000B000CDBF22E0A8E3B1E001C01D92AE33B2078C
:1000C000E1F711E0A0E0B1E0E4E4FBE002C005905C
:1000D0000D92A833B107D9F710E0C3E5D0E004C012
:1000E0002197FE010E949505C235D107C9F70E94EC
:1000F00051030C94A0050C940000CF92DF92EF9274
:10010000FF920F931F93CF93DF936C017A018B01C2
:10011000C0E0D0E0CE15DF0581F0D8016D918D01F2
:10012000D601ED91FC910190F081E02DC601099579
:10013000892B11F02196EECF7E01C701DF91CF917F
:100140001F910F91FF90EF90DF90CF900895089549
:1001500080E090E00895FC01538D448D252F30E020
:10016000842F90E0821B930B541710F0CF960895C4
:1001700001970895FC01918D828D981761F0828D11
:10018000DF01A80FB11D5D968C91928D9F5F9F73CB
:10019000928F90E008958FEF9FEF0895FC01918D6D
:1001A000828D981731F0828DE80FF11D858D90E0DA
:1001B00008958FEF9FEF0895FC01918D228D892F77
:1001C00090E0805C9F4F821B91098F73992708955F
:1001D00085E491E00E94DC0021E0892B09F420E015
:1001E000822F0895FC01848DDF01A80FB11DA35A51
:1001F000BF4F2C91848D90E001968F739927848F47
:10020000A689B7892C93A089B1898C918370806469
:100210008C93938D848D981306C00288F389E02D0A
:1002200080818F7D80830895EF92FF920F931F93BB
:10023000CF93DF93EC0181E0888F9B8D8C8D981399
:1002400005C0E889F989808185FD26C0F62E0B8DD1
:1002500010E00F5F1F4F0F731127E02E8C8DE812F7
:100260000CC00FB607FCFACFE889F989808185FFB9
:10027000F5CFCE010E94F200F1CF8B8DFE01E80F89
:10028000F11DE35AFF4FF0829FB7F8940B8FEA8974
:10029000FB89808180620AC09FB7F894EE89FF894C
:1002A0006083E889F98980818370806480839FBF3F
:1002B00081E090E0DF91CF911F910F91FF90EF903F
:1002C0000895CF93DF93EC01888D8823C9F0EA89E4
:1002D000FB89808185FD05C0A889B9898C9186FD3F
:1002E0000FC00FB607FCF5CF808185FFF2CFA8893C
:1002F000B9898C9185FFEDCFCE010E94F200E7CF46
:10030000DF91CF91089580E090E0892B29F00E9441
:10031000E80081110C9400000895CF93DF9390E0E2
:10032000FC01E057FF4F2491FC01E458FF4F8491FA
:10033000882361F190E0880F991FFC01EE58FF4F70
:10034000C591D491FC01E859FF4FA591B491611179
:1003500009C09FB7F8948881209582238883EC9107
:100360002E230BC0623061F49FB7F8948881322F3E
:10037000309583238883EC912E2B2C939FBF06C04E
:100380008FB7F894E8812E2B28838FBFDF91CF9110
:1003900008953FB7F89480913D0190913E01A0915E
:1003A0003F01B091400126B5A89B05C02F3F19F031
:1003B0000196A11DB11D3FBFBA2FA92F982F8827E5
:1003C000820F911DA11DB11DBC01CD0142E0660F40
:1003D000771F881F991F4A95D1F708952FB7F89472
:1003E0006091390170913A0180913B0190913C01FB
:1003F0002FBF0895009769F0FC0101900020E9F7F4
:100400003197AF01481B590BBC0185E491E00C9476
:100410007D0080E090E008958F929F92AF92BF920E
:100420000F931F93CF93DF93CDB7DEB7A1970FB68E
:10043000F894DEBF0FBECDBF19A2423008F44AE0E7
:100440008E010F5D1F4F842E912CA12CB12CA50184
:1004500094010E947305E62FB901CA0101501109E8
:10046000EA3014F4E05D01C0E95CD801EC93232B81
:10047000242B252B61F7C8010E94FA01A1960FB623
:10048000F894DEBF0FBECDBFDF91CF911F910F91CA
:10049000BF90AF909F908F9008950E949B051F92F0
:1004A0000F920FB60F9211242F933F934F935F93A8
:1004B0006F937F938F939F93AF93BF93EF93FF932C
:1004C00085E491E00E94F200FF91EF91BF91AF911E
:1004D0009F918F917F916F915F914F913F912F915C
:1004E0000F900FBE0F901F9018951F920F920FB68E
:1004F0000F9211242F938F939F93EF93FF93E0918B
:100500005501F09156018081E0915B01F0915C0111
:1005100082FD12C0908180915E018F5F8F73209168
:100520005F01821751F0E0915E01F0E0EB5BFE4F5E
:10053000958F80935E0101C08081FF91EF919F9123
:100540008F912F910F900FBE0F901F9018951F92B3
:100550000F920FB60F9211242F933F938F939F9377
:10056000AF93BF938091390190913A01A0913B01E3
:10057000B0913C013091380123E0230F2D3720F456
:100580000196A11DB11D05C026E8230F0296A11DED
:10059000B11D209338018093390190933A01A093C3
:1005A0003B01B0933C0180913D0190913E01A091AF
:1005B0003F01B09140010196A11DB11D80933D0105
:1005C00090933E01A0933F01B0934001BF91AF9142
:1005D0009F918F913F912F910F900FBE0F901F9081
:1005E0001895CF93DF93EC011882198281E08A83FA
:1005F00061E080E00E948D0160E089810E948D01B0
:1006000080E29EE4A0E0B0E08F839887A987BA8754
:10061000DF91CF910895E5E4F1E01382128288EE34
:1006200093E0A0E0B0E084839583A683B78384E061
:1006300091E09183808385EC90E09587848784ECBA
:1006400090E09787868780EC90E0918B808B81EC9F
:1006500090E0938B828B82EC90E0958B848B86EC80
:1006600090E0978B868B118E128E138E148EE2EE95
:10067000F1E0168217821086118612861386148680
:10068000158616861786108A118A128A138A148A8A
:10069000158A83E392E00E94F10288E292E00C94D2
:1006A000F102789484B5826084BD84B5816084BD94
:1006B00085B5826085BD85B5816085BD80916E0000
:1006C000816080936E001092810080918100826031
:1006D000809381008091810081608093810080916E
:1006E00080008160809380008091B100846080935D
:1006F000B1008091B00081608093B00080917A0059
:10070000846080937A0080917A00826080937A007E
:1007100080917A00816080937A0080917A0080686D
:1007200080937A001092C100109224021092250248
:1007300010922602109227021092E4011092E50115
:100740001092E6011092E7010E94EE016B017C011C
:100750004B015C0128EB820E2BE0921EA11CB11C08
:100760000E94EE016C157D058E059F0528F086160A
:100770009706A806B906A0F70E94C9014B015C01C3
:1007800020EDC22E27E0D22EE12CF12C0E94C901CF
:10079000DC01CB0188199909AA09BB09883E93405D
:1007A000A105B10598F331E0C31AD108E108F108B9
:1007B00048EE840E43E0941EA11CB11CC114D10468
:1007C000E104F10419F7E0915501F091560182E03E
:1007D0008083E0915101F09152011082E091530128
:1007E000F091540180E1808310925D01E091590104
:1007F000F0915A0186E08083E0915701F091580111
:10080000808180618083E0915701F091580180815F
:1008100088608083E0915701F09158018081806861
:100820008083E0915701F091580180818F7D808312
:100830000E94EE016093E4017093E5018093E6016C
:100840009093E70182E191E00E94FA010E94EE019B
:100850006B017C014B015C018AE0880E911CA11C9C
:10086000B11C0E94EE016C157D058E059F0528F0D8
:1008700086169706A806B906A0F7C1E0C093F8014E
:1008800061E081E00E948D0160E081E00E948D01C5
:10089000C0933302C0933402C093350280E2C82E65
:1008A0008EE4D82EE12CF12CC0923A02D0923B0279
:1008B000E0923C02F0923D0261E082E00E948D01F4
:1008C00060E082E00E948D0182E0809328028093A4
:1008D0002902C0932A02C0922F02D0923002E092E5
:1008E0003102F092320294EF892E99249394A12C34
:1008F000B12C0E94EE01672B682B692B41F40E94FA
:10090000EE01623071058105910508F4E3C00E9493
:10091000EE01C0904101D0904201E0904301F0907F
:1009200044016C157D058E059F0540F460934101DF
:10093000709342018093430190934401C090410120
:10094000D0904201E0904301F09044019B01AC0142
:100950002C193D094E095F0969017A013AEFC31666
:10096000D104E104F10408F4B5C06093410170932F
:10097000420180934301909344018092F001909250
:10098000F101A092F201B092F3011092F4011092E1
:10099000F5011092F6011092F7018091E801909113
:1009A000E901A091EA01B091EB018093EC019093F1
:1009B000ED01A093EE01B093EF010E94EE01609370
:1009C000E8017093E9018093EA019093EB010E94A2
:1009D000EE016093E4017093E5018093E60190934A
:1009E000E7010E94EE016B017C0184E291E00E942C
:1009F000FA014AE061E070E080E090E00E940C02C1
:100A00008BE291E00E94FA014AE0C701B6010E9420
:100A10000C028DE291E00E94FA018091E801909130
:100A2000E901A091EA01B091EB01A7019601281B11
:100A3000390B4A0B5B0BCA01B9014AE00E940C0258
:100A40008DE291E00E94FA018091E8019091E90124
:100A5000A091EA01B091EB01C090EC01D090ED01C2
:100A6000E090EE01F090EF01BC01CD016C197D0921
:100A70008E099F094AE00E940C028FE291E00E94D9
:100A8000FA010E94EE014AE00E940C0281E391E02B
:100A90000E94FA0181E291E00E94FA010E94EE01B7
:100AA0006B017C012B013C0135E0430E511C611CA4
:100AB000711C0E94EE016C157D058E059F0568F482
:100AC0000E94EE016093E8017093E9018093EA01CE
:100AD0009093EB010E9483010CCF461657066806DF
:100AE000790638F7EDCFA1E21A2EAA1BBB1BFD0138
:100AF0000DC0AA1FBB1FEE1FFF1FA217B307E407FD
:100B0000F50720F0A21BB30BE40BF50B661F771F54
:100B1000881F991F1A9469F7609570958095909534
:100B20009B01AC01BD01CF010895EE0FFF1F0590A1
:100B3000F491E02D099481E090E0F8940C94A005E4
:040B4000F894FFCF57
:100B44000000000014017D00AB006101DC00BA006C
:100B5400CE00564D4450565F317C315F564D445063
:100B6400560D0A00564D4450455F003A323A007C17
:080B7400005F564D445045009E
:107E0000112484B714BE81FFF0D085E080938100F7
:107E100082E08093C00088E18093C10086E0809377
:107E2000C20080E18093C4008EE0C9D0259A86E02C
:107E300020E33CEF91E0309385002093840096BBD3
:107E4000B09BFECF1D9AA8958150A9F7CC24DD24C4
:107E500088248394B5E0AB2EA1E19A2EF3E0BF2EE7
:107E6000A2D0813461F49FD0082FAFD0023811F036
:107E7000013811F484E001C083E08DD089C08234E0
:107E800011F484E103C0853419F485E0A6D080C0E4
:107E9000853579F488D0E82EFF2485D0082F10E0AE
:107EA000102F00270E291F29000F111F8ED06801E7
:107EB0006FC0863521F484E090D080E0DECF843638
:107EC00009F040C070D06FD0082F6DD080E0C81688
:107ED00080E7D80618F4F601B7BEE895C0E0D1E017
:107EE00062D089930C17E1F7F0E0CF16F0E7DF06D8
:107EF00018F0F601B7BEE89568D007B600FCFDCFD4
:107F0000A601A0E0B1E02C9130E011968C91119780
:107F100090E0982F8827822B932B1296FA010C0160
:107F200087BEE89511244E5F5F4FF1E0A038BF0790
:107F300051F7F601A7BEE89507B600FCFDCF97BE46
:107F4000E89526C08437B1F42ED02DD0F82E2BD052
:107F50003CD0F601EF2C8F010F5F1F4F84911BD097
:107F6000EA94F801C1F70894C11CD11CFA94CF0C13
:107F7000D11C0EC0853739F428D08EE10CD085E9AC
:107F80000AD08FE07ACF813511F488E018D01DD067
:107F900080E101D065CF982F8091C00085FFFCCF94
:107FA0009093C60008958091C00087FFFCCF809118
:107FB000C00084FD01C0A8958091C6000895E0E648
:107FC000F0E098E1908380830895EDDF803219F02E
:107FD00088E0F5DFFFCF84E1DECF1F93182FE3DFCA
:107FE0001150E9F7F2DF1F91089580E0E8DFEE27F6
:047FF000FF270994CA
:027FFE00040479
:0400000300007E007B
:00000001FF